{
  "_format": "hh-sol-artifact-1",
  "contractName": "XLN",
  "sourceName": "contracts/XLN.sol",
  "abi": [
    {
      "inputs": [],
      "stateMutability": "nonpayable",
      "type": "constructor"
    },
    {
      "anonymous": false,
      "inputs": [
        {
          "indexed": false,
          "internalType": "string",
          "name": "",
          "type": "string"
        },
        {
          "indexed": false,
          "internalType": "address",
          "name": "",
          "type": "address"
        }
      ],
      "name": "LogAddress",
      "type": "event"
    },
    {
      "anonymous": false,
      "inputs": [
        {
          "indexed": false,
          "internalType": "string",
          "name": "",
          "type": "string"
        },
        {
          "indexed": false,
          "internalType": "bool",
          "name": "",
          "type": "bool"
        }
      ],
      "name": "LogBool",
      "type": "event"
    },
    {
      "anonymous": false,
      "inputs": [
        {
          "indexed": false,
          "internalType": "string",
          "name": "",
          "type": "string"
        },
        {
          "indexed": false,
          "internalType": "bytes",
          "name": "",
          "type": "bytes"
        }
      ],
      "name": "LogBytes",
      "type": "event"
    },
    {
      "anonymous": false,
      "inputs": [
        {
          "indexed": false,
          "internalType": "string",
          "name": "",
          "type": "string"
        },
        {
          "indexed": false,
          "internalType": "bytes32",
          "name": "",
          "type": "bytes32"
        }
      ],
      "name": "LogBytes32",
      "type": "event"
    },
    {
      "anonymous": false,
      "inputs": [
        {
          "indexed": false,
          "internalType": "string",
          "name": "",
          "type": "string"
        },
        {
          "indexed": false,
          "internalType": "int256",
          "name": "",
          "type": "int256"
        }
      ],
      "name": "LogInt",
      "type": "event"
    },
    {
      "anonymous": false,
      "inputs": [
        {
          "indexed": false,
          "internalType": "string",
          "name": "",
          "type": "string"
        },
        {
          "indexed": false,
          "internalType": "uint256",
          "name": "",
          "type": "uint256"
        }
      ],
      "name": "LogUint",
      "type": "event"
    },
    {
      "inputs": [
        {
          "internalType": "uint256",
          "name": "",
          "type": "uint256"
        }
      ],
      "name": "assets",
      "outputs": [
        {
          "internalType": "string",
          "name": "name",
          "type": "string"
        }
      ],
      "stateMutability": "view",
      "type": "function"
    },
    {
      "inputs": [
        {
          "components": [
            {
              "internalType": "address",
              "name": "a2",
              "type": "address"
            },
            {
              "internalType": "uint256",
              "name": "cooperative_nonce",
              "type": "uint256"
            },
            {
              "components": [
                {
                  "internalType": "uint256",
                  "name": "asset_id",
                  "type": "uint256"
                },
                {
                  "internalType": "uint256",
                  "name": "amount",
                  "type": "uint256"
                }
              ],
              "internalType": "struct XLN.AssetAmountPair[]",
              "name": "pairs",
              "type": "tuple[]"
            },
            {
              "internalType": "bytes",
              "name": "sig",
              "type": "bytes"
            }
          ],
          "internalType": "struct XLN.WithdrawProof[]",
          "name": "withdrawProofs",
          "type": "tuple[]"
        },
        {
          "components": [
            {
              "internalType": "address",
              "name": "a2",
              "type": "address"
            },
            {
              "internalType": "uint256",
              "name": "valid_until",
              "type": "uint256"
            },
            {
              "components": [
                {
                  "internalType": "uint256",
                  "name": "asset_id",
                  "type": "uint256"
                },
                {
                  "internalType": "int256",
                  "name": "offdelta",
                  "type": "int256"
                }
              ],
              "internalType": "struct XLN.Offdelta[]",
              "name": "offdeltas",
              "type": "tuple[]"
            },
            {
              "internalType": "bytes",
              "name": "sig",
              "type": "bytes"
            }
          ],
          "internalType": "struct XLN.CooperativeProof[]",
          "name": "cooperativeProofs",
          "type": "tuple[]"
        },
        {
          "components": [
            {
              "internalType": "address",
              "name": "a2",
              "type": "address"
            },
            {
              "internalType": "uint256",
              "name": "dispute_nonce",
              "type": "uint256"
            },
            {
              "components": [
                {
                  "internalType": "uint256",
                  "name": "asset_id",
                  "type": "uint256"
                },
                {
                  "internalType": "int256",
                  "name": "offdelta",
                  "type": "int256"
                }
              ],
              "internalType": "struct XLN.Offdelta[]",
              "name": "offdeltas",
              "type": "tuple[]"
            },
            {
              "internalType": "bytes",
              "name": "sig",
              "type": "bytes"
            }
          ],
          "internalType": "struct XLN.DisputeProof[]",
          "name": "disputeProofs",
          "type": "tuple[]"
        },
        {
          "components": [
            {
              "internalType": "address",
              "name": "a1",
              "type": "address"
            },
            {
              "internalType": "address",
              "name": "a2",
              "type": "address"
            },
            {
              "components": [
                {
                  "internalType": "uint256",
                  "name": "asset_id",
                  "type": "uint256"
                },
                {
                  "internalType": "uint256",
                  "name": "amount",
                  "type": "uint256"
                }
              ],
              "internalType": "struct XLN.AssetAmountPair[]",
              "name": "pairs",
              "type": "tuple[]"
            }
          ],
          "internalType": "struct XLN.DepositToChannelParams[]",
          "name": "depositArray",
          "type": "tuple[]"
        }
      ],
      "name": "batchRebalance",
      "outputs": [
        {
          "internalType": "bool",
          "name": "",
          "type": "bool"
        }
      ],
      "stateMutability": "nonpayable",
      "type": "function"
    },
    {
      "inputs": [
        {
          "internalType": "address",
          "name": "a1",
          "type": "address"
        },
        {
          "internalType": "address",
          "name": "a2",
          "type": "address"
        }
      ],
      "name": "channelKey",
      "outputs": [
        {
          "internalType": "bytes",
          "name": "",
          "type": "bytes"
        }
      ],
      "stateMutability": "pure",
      "type": "function"
    },
    {
      "inputs": [
        {
          "internalType": "bytes",
          "name": "",
          "type": "bytes"
        }
      ],
      "name": "channels",
      "outputs": [
        {
          "internalType": "uint256",
          "name": "cooperative_nonce",
          "type": "uint256"
        },
        {
          "internalType": "uint256",
          "name": "dispute_nonce",
          "type": "uint256"
        },
        {
          "internalType": "bool",
          "name": "dispute_by_left",
          "type": "bool"
        },
        {
          "internalType": "uint256",
          "name": "dispute_until_block",
          "type": "uint256"
        },
        {
          "internalType": "bytes32",
          "name": "hash_outcome_proposed",
          "type": "bytes32"
        }
      ],
      "stateMutability": "view",
      "type": "function"
    },
    {
      "inputs": [
        {
          "components": [
            {
              "internalType": "address",
              "name": "a2",
              "type": "address"
            },
            {
              "internalType": "uint256",
              "name": "valid_until",
              "type": "uint256"
            },
            {
              "components": [
                {
                  "internalType": "uint256",
                  "name": "asset_id",
                  "type": "uint256"
                },
                {
                  "internalType": "int256",
                  "name": "offdelta",
                  "type": "int256"
                }
              ],
              "internalType": "struct XLN.Offdelta[]",
              "name": "offdeltas",
              "type": "tuple[]"
            },
            {
              "internalType": "bytes",
              "name": "sig",
              "type": "bytes"
            }
          ],
          "internalType": "struct XLN.CooperativeProof",
          "name": "params",
          "type": "tuple"
        }
      ],
      "name": "cooperativeClose",
      "outputs": [
        {
          "internalType": "bool",
          "name": "",
          "type": "bool"
        }
      ],
      "stateMutability": "nonpayable",
      "type": "function"
    },
    {
      "inputs": [
        {
          "internalType": "address",
          "name": "fromUser",
          "type": "address"
        },
        {
          "internalType": "address",
          "name": "toUser",
          "type": "address"
        },
        {
          "internalType": "uint256",
          "name": "amount",
          "type": "uint256"
        }
      ],
      "name": "createDebt",
      "outputs": [],
      "stateMutability": "nonpayable",
      "type": "function"
    },
    {
      "inputs": [
        {
          "components": [
            {
              "internalType": "address",
              "name": "a1",
              "type": "address"
            },
            {
              "internalType": "address",
              "name": "a2",
              "type": "address"
            },
            {
              "components": [
                {
                  "internalType": "uint256",
                  "name": "asset_id",
                  "type": "uint256"
                },
                {
                  "internalType": "uint256",
                  "name": "amount",
                  "type": "uint256"
                }
              ],
              "internalType": "struct XLN.AssetAmountPair[]",
              "name": "pairs",
              "type": "tuple[]"
            }
          ],
          "internalType": "struct XLN.DepositToChannelParams",
          "name": "params",
          "type": "tuple"
        }
      ],
      "name": "depositToChannel",
      "outputs": [
        {
          "internalType": "bool",
          "name": "",
          "type": "bool"
        }
      ],
      "stateMutability": "nonpayable",
      "type": "function"
    },
    {
      "inputs": [
        {
          "components": [
            {
              "internalType": "address",
              "name": "a2",
              "type": "address"
            },
            {
              "internalType": "uint256",
              "name": "dispute_nonce",
              "type": "uint256"
            },
            {
              "components": [
                {
                  "internalType": "uint256",
                  "name": "asset_id",
                  "type": "uint256"
                },
                {
                  "internalType": "int256",
                  "name": "offdelta",
                  "type": "int256"
                }
              ],
              "internalType": "struct XLN.Offdelta[]",
              "name": "offdeltas",
              "type": "tuple[]"
            },
            {
              "internalType": "bytes",
              "name": "sig",
              "type": "bytes"
            }
          ],
          "internalType": "struct XLN.DisputeProof",
          "name": "params",
          "type": "tuple"
        }
      ],
      "name": "disputeClose",
      "outputs": [
        {
          "internalType": "bool",
          "name": "",
          "type": "bool"
        }
      ],
      "stateMutability": "nonpayable",
      "type": "function"
    },
    {
      "inputs": [
        {
          "internalType": "address",
          "name": "a1",
          "type": "address"
        },
        {
          "internalType": "address",
          "name": "a2",
          "type": "address"
        }
      ],
      "name": "getChannel",
      "outputs": [
        {
          "components": [
            {
              "components": [
                {
                  "internalType": "uint256",
                  "name": "cooperative_nonce",
                  "type": "uint256"
                },
                {
                  "internalType": "uint256",
                  "name": "dispute_nonce",
                  "type": "uint256"
                },
                {
                  "internalType": "bool",
                  "name": "dispute_by_left",
                  "type": "bool"
                },
                {
                  "internalType": "uint256",
                  "name": "dispute_until_block",
                  "type": "uint256"
                },
                {
                  "internalType": "bytes32",
                  "name": "hash_outcome_proposed",
                  "type": "bytes32"
                }
              ],
              "internalType": "struct XLN.Channel",
              "name": "channel",
              "type": "tuple"
            },
            {
              "components": [
                {
                  "internalType": "uint256",
                  "name": "collateral",
                  "type": "uint256"
                },
                {
                  "internalType": "int256",
                  "name": "ondelta",
                  "type": "int256"
                }
              ],
              "internalType": "struct XLN.Collateral[]",
              "name": "collaterals",
              "type": "tuple[]"
            }
          ],
          "internalType": "struct XLN.ChannelReturn",
          "name": "ch",
          "type": "tuple"
        }
      ],
      "stateMutability": "view",
      "type": "function"
    },
    {
      "inputs": [
        {
          "internalType": "address",
          "name": "fromUser",
          "type": "address"
        }
      ],
      "name": "getDebts",
      "outputs": [
        {
          "components": [
            {
              "internalType": "uint256",
              "name": "amount",
              "type": "uint256"
            },
            {
              "internalType": "address",
              "name": "pay_to",
              "type": "address"
            }
          ],
          "internalType": "struct XLN.Debt[]",
          "name": "allDebts",
          "type": "tuple[]"
        },
        {
          "internalType": "uint256",
          "name": "memoryIndex",
          "type": "uint256"
        }
      ],
      "stateMutability": "view",
      "type": "function"
    },
    {
      "inputs": [
        {
          "internalType": "address",
          "name": "a1",
          "type": "address"
        }
      ],
      "name": "getUser",
      "outputs": [
        {
          "components": [
            {
              "components": [
                {
                  "internalType": "uint256",
                  "name": "reserve",
                  "type": "uint256"
                },
                {
                  "components": [
                    {
                      "internalType": "uint256",
                      "name": "amount",
                      "type": "uint256"
                    },
                    {
                      "internalType": "address",
                      "name": "pay_to",
                      "type": "address"
                    }
                  ],
                  "internalType": "struct XLN.Debt[]",
                  "name": "debts",
                  "type": "tuple[]"
                },
                {
                  "internalType": "uint256",
                  "name": "debtIndex",
                  "type": "uint256"
                }
              ],
              "internalType": "struct XLN.AssetReserveDebts[]",
              "name": "reserves",
              "type": "tuple[]"
            }
          ],
          "internalType": "struct XLN.User",
          "name": "",
          "type": "tuple"
        }
      ],
      "stateMutability": "view",
      "type": "function"
    },
    {
      "inputs": [
        {
          "internalType": "string",
          "name": "s",
          "type": "string"
        },
        {
          "internalType": "bytes",
          "name": "x",
          "type": "bytes"
        }
      ],
      "name": "log",
      "outputs": [],
      "stateMutability": "nonpayable",
      "type": "function"
    },
    {
      "inputs": [
        {
          "internalType": "string",
          "name": "s",
          "type": "string"
        },
        {
          "internalType": "address",
          "name": "x",
          "type": "address"
        }
      ],
      "name": "log",
      "outputs": [],
      "stateMutability": "nonpayable",
      "type": "function"
    },
    {
      "inputs": [
        {
          "internalType": "string",
          "name": "s",
          "type": "string"
        },
        {
          "internalType": "bytes32",
          "name": "x",
          "type": "bytes32"
        }
      ],
      "name": "log",
      "outputs": [],
      "stateMutability": "nonpayable",
      "type": "function"
    },
    {
      "inputs": [
        {
          "internalType": "string",
          "name": "s",
          "type": "string"
        },
        {
          "internalType": "int256",
          "name": "x",
          "type": "int256"
        }
      ],
      "name": "log",
      "outputs": [],
      "stateMutability": "nonpayable",
      "type": "function"
    },
    {
      "inputs": [
        {
          "internalType": "string",
          "name": "s",
          "type": "string"
        },
        {
          "internalType": "uint256",
          "name": "x",
          "type": "uint256"
        }
      ],
      "name": "log",
      "outputs": [],
      "stateMutability": "nonpayable",
      "type": "function"
    },
    {
      "inputs": [
        {
          "internalType": "string",
          "name": "s",
          "type": "string"
        },
        {
          "internalType": "bool",
          "name": "x",
          "type": "bool"
        }
      ],
      "name": "log",
      "outputs": [],
      "stateMutability": "nonpayable",
      "type": "function"
    },
    {
      "inputs": [
        {
          "internalType": "address",
          "name": "a1",
          "type": "address"
        },
        {
          "internalType": "address",
          "name": "a2",
          "type": "address"
        }
      ],
      "name": "logChannel",
      "outputs": [],
      "stateMutability": "nonpayable",
      "type": "function"
    },
    {
      "inputs": [
        {
          "internalType": "address",
          "name": "fromUser",
          "type": "address"
        },
        {
          "internalType": "uint256",
          "name": "top_up",
          "type": "uint256"
        }
      ],
      "name": "payDebts",
      "outputs": [
        {
          "internalType": "uint256",
          "name": "totalDebts",
          "type": "uint256"
        }
      ],
      "stateMutability": "nonpayable",
      "type": "function"
    },
    {
      "inputs": [
        {
          "components": [
            {
              "internalType": "address",
              "name": "a2",
              "type": "address"
            },
            {
              "internalType": "uint256",
              "name": "cooperative_nonce",
              "type": "uint256"
            },
            {
              "components": [
                {
                  "internalType": "uint256",
                  "name": "asset_id",
                  "type": "uint256"
                },
                {
                  "internalType": "uint256",
                  "name": "amount",
                  "type": "uint256"
                }
              ],
              "internalType": "struct XLN.AssetAmountPair[]",
              "name": "pairs",
              "type": "tuple[]"
            },
            {
              "internalType": "bytes",
              "name": "sig",
              "type": "bytes"
            }
          ],
          "internalType": "struct XLN.WithdrawProof",
          "name": "params",
          "type": "tuple"
        }
      ],
      "name": "withdrawFromChannel",
      "outputs": [
        {
          "internalType": "bool",
          "name": "",
          "type": "bool"
        }
      ],
      "stateMutability": "nonpayable",
      "type": "function"
    }
  ],
  "bytecode": "0x60806040523480156200001157600080fd5b50600560405180602001604052806040518060400160405280600481526020017f57455448000000000000000000000000000000000000000000000000000000008152508152509080600181540180825580915050600190039060005260206000200160009091909190915060008201518160000190805190602001906200009b9291906200023a565b505050600560405180602001604052806040518060400160405280600381526020017f4441490000000000000000000000000000000000000000000000000000000000815250815250908060018154018082558091505060019003906000526020600020016000909190919091506000820151816000019080519060200190620001279291906200023a565b5050506305f5e1006000803373ffffffffffffffffffffffffffffffffffffffff1673ffffffffffffffffffffffffffffffffffffffff1681526020019081526020016000206000808152602001908152602001600020819055506305f5e1006000803373ffffffffffffffffffffffffffffffffffffffff1673ffffffffffffffffffffffffffffffffffffffff168152602001908152602001600020600060018152602001908152602001600020819055506305f5e1006000803373ffffffffffffffffffffffffffffffffffffffff1673ffffffffffffffffffffffffffffffffffffffff168152602001908152602001600020600060028152602001908152602001600020819055506200034f565b8280546200024890620002ea565b90600052602060002090601f0160209004810192826200026c5760008555620002b8565b82601f106200028757805160ff1916838001178555620002b8565b82800160010185558215620002b8579182015b82811115620002b75782518255916020019190600101906200029a565b5b509050620002c79190620002cb565b5090565b5b80821115620002e6576000816000905550600101620002cc565b5090565b600060028204905060018216806200030357607f821691505b602082108114156200031a576200031962000320565b5b50919050565b7f4e487b7100000000000000000000000000000000000000000000000000000000600052602260045260246000fd5b61516c806200035f6000396000f3fe608060405234801561001057600080fd5b506004361061012c5760003560e01c8063a1a96a13116100ad578063c3b5563511610071578063c3b556351461037a578063cf35bdd014610396578063d3d90b68146103c6578063f51a0620146103f6578063fb1bf819146104265761012c565b8063a1a96a13146102ad578063aee26d3f146102e1578063b60e72cc14610311578063bcd1e5f91461032d578063bf52638c1461035e5761012c565b80633c4deb11116100f45780633c4deb11146101d15780633ca6268e14610201578063428d9cc51461021d5780636f77926b1461024d5780638b86be3c1461027d5761012c565b806304af0562146101315780630eb0afa61461016157806323cdd8e81461017d578063319af333146101995780633692d61a146101b5575b600080fd5b61014b60048036038101906101469190613c5c565b610456565b604051610158919061453c565b60405180910390f35b61017b6004803603810190610176919061383b565b610461565b005b61019760048036038101906101929190613ac6565b61055d565b005b6101b360048036038101906101ae91906139ca565b61059a565b005b6101cf60048036038101906101ca9190613a72565b6105d7565b005b6101eb60048036038101906101e691906137ff565b610614565b6040516101f8919061459c565b60405180910390f35b61021b60048036038101906102169190613b32565b61069b565b005b6102376004803603810190610232919061388a565b6106d8565b6040516102449190614855565b60405180910390f35b610267600480360381019061026291906137d6565b610c33565b6040516102749190614833565b60405180910390f35b61029760048036038101906102929190613c9d565b610f00565b6040516102a4919061453c565b60405180910390f35b6102c760048036038101906102c29190613989565b611320565b6040516102d8959493929190614870565b60405180910390f35b6102fb60048036038101906102f691906137ff565b611379565b6040516103089190614811565b60405180910390f35b61032b60048036038101906103269190613b86565b611550565b005b610347600480360381019061034291906137d6565b61158d565b60405161035592919061450c565b60405180910390f35b610378600480360381019061037391906137ff565b6116f1565b005b610394600480360381019061038f9190613a1e565b611a64565b005b6103b060048036038101906103ab9190613cde565b611aa1565b6040516103bd9190614648565b60405180910390f35b6103e060048036038101906103db9190613c1b565b611b53565b6040516103ed919061453c565b60405180910390f35b610410600480360381019061040b91906138c6565b611f07565b60405161041d919061453c565b60405180910390f35b610440600480360381019061043b9190613bda565b6120e2565b60405161044d919061453c565b60405180910390f35b600060019050919050565b600260008473ffffffffffffffffffffffffffffffffffffffff1673ffffffffffffffffffffffffffffffffffffffff168152602001908152602001600020600080815260200190815260200160002060405180604001604052808381526020018473ffffffffffffffffffffffffffffffffffffffff1681525090806001815401808255809150506001900390600052602060002090600202016000909190919091506000820151816000015560208201518160010160006101000a81548173ffffffffffffffffffffffffffffffffffffffff021916908373ffffffffffffffffffffffffffffffffffffffff1602179055505050505050565b7fe8407a0209fa99ec3a7228aff140c3d3e68bd279391739c7e0b65cd406cc93b5828260405161058e9291906146fa565b60405180910390a15050565b7f62ddffe5b5108385f7a590f100e1ee414ad9551a31f089e64e82998440785e1e82826040516105cb92919061466a565b60405180910390a15050565b7f02d93529bba9d141e5e06733c52c7e6fbcb1149586adb5c24064b522ab26f1d782826040516106089291906146ca565b60405180910390a15050565b60608173ffffffffffffffffffffffffffffffffffffffff168373ffffffffffffffffffffffffffffffffffffffff161061067057818360405160200161065c9291906144a3565b604051602081830303815290604052610693565b82826040516020016106839291906144a3565b6040516020818303038152906040525b905092915050565b7f6a837ff3973aa4181e7b9f07756f8b7ee366dd85a36655d2cb42cd47f10b963882826040516106cc929190614731565b60405180910390a15050565b600080600260008573ffffffffffffffffffffffffffffffffffffffff1673ffffffffffffffffffffffffffffffffffffffff16815260200190815260200160002060008081526020019081526020016000208054905090506000811415610744576000915050610c2d565b6000836000808773ffffffffffffffffffffffffffffffffffffffff1673ffffffffffffffffffffffffffffffffffffffff1681526020019081526020016000206000808152602001908152602001600020546107a19190614c6c565b90506000600160008773ffffffffffffffffffffffffffffffffffffffff1673ffffffffffffffffffffffffffffffffffffffff1681526020019081526020016000206000808152602001908152602001600020549050600082141561081757808361080d9190614e18565b9350505050610c2d565b5b600115610b72576000600260008873ffffffffffffffffffffffffffffffffffffffff1673ffffffffffffffffffffffffffffffffffffffff168152602001908152602001600020600080815260200190815260200160002082815481106108a9577f4e487b7100000000000000000000000000000000000000000000000000000000600052603260045260246000fd5b9060005260206000209060020201905080600001548310610abd578060000154836108d49190614e18565b925080600001546000808360010160009054906101000a900473ffffffffffffffffffffffffffffffffffffffff1673ffffffffffffffffffffffffffffffffffffffff1673ffffffffffffffffffffffffffffffffffffffff1681526020019081526020016000206000808152602001908152602001600020600082825461095d9190614c6c565b92505081905550600260008873ffffffffffffffffffffffffffffffffffffffff1673ffffffffffffffffffffffffffffffffffffffff168152602001908152602001600020600080815260200190815260200160002082815481106109ec577f4e487b7100000000000000000000000000000000000000000000000000000000600052603260045260246000fd5b90600052602060002090600202016000808201600090556001820160006101000a81549073ffffffffffffffffffffffffffffffffffffffff0219169055505083600183610a3a9190614c6c565b1415610aaa5760009150600260008873ffffffffffffffffffffffffffffffffffffffff1673ffffffffffffffffffffffffffffffffffffffff16815260200190815260200160002060008081526020019081526020016000206000610aa09190612f4d565b6000935050610b72565b8180610ab590614f29565b925050610b6c565b826000808360010160009054906101000a900473ffffffffffffffffffffffffffffffffffffffff1673ffffffffffffffffffffffffffffffffffffffff1673ffffffffffffffffffffffffffffffffffffffff16815260200190815260200160002060008081526020019081526020016000206000828254610b409190614c6c565b9250508190555082816000016000828254610b5b9190614e18565b925050819055506000925050610b72565b50610818565b816000808873ffffffffffffffffffffffffffffffffffffffff1673ffffffffffffffffffffffffffffffffffffffff16815260200190815260200160002060008081526020019081526020016000208190555080600160008873ffffffffffffffffffffffffffffffffffffffff1673ffffffffffffffffffffffffffffffffffffffff1681526020019081526020016000206000808152602001908152602001600020819055508083610c279190614e18565b93505050505b92915050565b610c3b612f71565b6000604051806020016040528060058054905067ffffffffffffffff811115610c8d577f4e487b7100000000000000000000000000000000000000000000000000000000600052604160045260246000fd5b604051908082528060200260200182016040528015610cc657816020015b610cb3612f84565b815260200190600190039081610cab5790505b50815250905060005b600580549050811015610ef65760405180606001604052806000808773ffffffffffffffffffffffffffffffffffffffff1673ffffffffffffffffffffffffffffffffffffffff1681526020019081526020016000206000848152602001908152602001600020548152602001600260008773ffffffffffffffffffffffffffffffffffffffff1673ffffffffffffffffffffffffffffffffffffffff1681526020019081526020016000206000848152602001908152602001600020805480602002602001604051908101604052809291908181526020016000905b82821015610e3e5783829060005260206000209060020201604051806040016040529081600082015481526020016001820160009054906101000a900473ffffffffffffffffffffffffffffffffffffffff1673ffffffffffffffffffffffffffffffffffffffff1673ffffffffffffffffffffffffffffffffffffffff168152505081526020019060010190610dac565b505050508152602001600160008773ffffffffffffffffffffffffffffffffffffffff1673ffffffffffffffffffffffffffffffffffffffff16815260200190815260200160002060008481526020019081526020016000205481525082600001518281518110610ed8577f4e487b7100000000000000000000000000000000000000000000000000000000600052603260045260246000fd5b60200260200101819052508080610eee90614f29565b915050610ccf565b5080915050919050565b6000803390506000836000015173ffffffffffffffffffffffffffffffffffffffff168273ffffffffffffffffffffffffffffffffffffffff16109050610f4b8285600001516116f1565b6000610f5b838660000151610614565b9050600081600383604051610f7091906144cf565b9081526020016040518091039020600001548760400151604051602001610f99939291906145be565b60405160208183030381529060405290506000610fbc8280519060200120612b43565b9050610ffd6040518060400160405280600b81526020017f656e636f646564206d73670000000000000000000000000000000000000000008152508361055d565b600061100d828960600151612b73565b905061104e6040518060400160405280600681526020017f7369676e657200000000000000000000000000000000000000000000000000008152508261059a565b8073ffffffffffffffffffffffffffffffffffffffff16886000015173ffffffffffffffffffffffffffffffffffffffff1614611116576110c86040518060400160405280601081526020017f70726f706f736564207369676e65722000000000000000000000000000000000815250896000015161059a565b6111076040518060400160405280600e81526020017f496e76616c6964207369676e65720000000000000000000000000000000000008152508261059a565b6000965050505050505061131b565b60038460405161112691906144cf565b9081526020016040518091039020600001600081548092919061114890614f29565b919050555060005b8860400151518110156113015760008960400151828151811061119c577f4e487b7100000000000000000000000000000000000000000000000000000000600052603260045260246000fd5b602002602001015160000151905060008a6040015183815181106111e9577f4e487b7100000000000000000000000000000000000000000000000000000000600052603260045260246000fd5b6020026020010151602001519050600060048860405161120991906144cf565b908152602001604051809103902060008481526020019081526020016000209050818160000154106112eb57818160000160008282546112499190614e18565b925050819055508815611272578181600101600082825461126a9190614d84565b925050819055505b816000808c73ffffffffffffffffffffffffffffffffffffffff1673ffffffffffffffffffffffffffffffffffffffff168152602001908152602001600020600085815260200190815260200160002060008282546112d19190614c6c565b925050819055506112ea6112e484612bed565b83611550565b5b50505080806112f990614f29565b915050611150565b506113108689600001516116f1565b600196505050505050505b919050565b6003818051602081018201805184825260208301602085012081835280955050505050506000915090508060000154908060010154908060020160009054906101000a900460ff16908060030154908060040154905085565b611381612fa5565b600061138d8484610614565b905060405180604001604052806003836040516113aa91906144cf565b90815260200160405180910390206040518060a001604052908160008201548152602001600182015481526020016002820160009054906101000a900460ff1615151515815260200160038201548152602001600482015481525050815260200160058054905067ffffffffffffffff811115611450577f4e487b7100000000000000000000000000000000000000000000000000000000600052604160045260246000fd5b60405190808252806020026020018201604052801561148957816020015b611476612fc5565b81526020019060019003908161146e5790505b50815250915060005b600580549050811015611548576004826040516114af91906144cf565b90815260200160405180910390206000828152602001908152602001600020604051806040016040529081600082015481526020016001820154815250508360200151828151811061152a577f4e487b7100000000000000000000000000000000000000000000000000000000600052603260045260246000fd5b6020026020010181905250808061154090614f29565b915050611492565b505092915050565b7f941296a39ea107bde685522318a4b6c2b544904a5dd82a512748ca2cf839bef78282604051611581929190614761565b60405180910390a15050565b60606000600160008473ffffffffffffffffffffffffffffffffffffffff1673ffffffffffffffffffffffffffffffffffffffff1681526020019081526020016000206000808152602001908152602001600020549050600260008473ffffffffffffffffffffffffffffffffffffffff1673ffffffffffffffffffffffffffffffffffffffff1681526020019081526020016000206000808152602001908152602001600020805480602002602001604051908101604052809291908181526020016000905b828210156116e65783829060005260206000209060020201604051806040016040529081600082015481526020016001820160009054906101000a900473ffffffffffffffffffffffffffffffffffffffff1673ffffffffffffffffffffffffffffffffffffffff1673ffffffffffffffffffffffffffffffffffffffff168152505081526020019060010190611654565b505050509150915091565b60006116fd8383610614565b905061173e6040518060400160405280601281526020017f3e3e3e4c6f6767696e67206368616e6e656c00000000000000000000000000008152508261055d565b61179e6040518060400160405280601181526020017f636f6f70657261746976655f6e6f6e636500000000000000000000000000000081525060038360405161178791906144cf565b908152602001604051809103902060000154611550565b6117fe6040518060400160405280600d81526020017f646973707574655f6e6f6e6365000000000000000000000000000000000000008152506003836040516117e791906144cf565b908152602001604051809103902060010154611550565b60005b600580549050811015611a5e5761184d6040518060400160405280600581526020017f417373657400000000000000000000000000000000000000000000000000000081525082611550565b6118db6040518060400160405280600981526020017f4c2062616c616e636500000000000000000000000000000000000000000000008152506000808773ffffffffffffffffffffffffffffffffffffffff1673ffffffffffffffffffffffffffffffffffffffff168152602001908152602001600020600084815260200190815260200160002054611550565b6119696040518060400160405280600981526020017f522062616c616e636500000000000000000000000000000000000000000000008152506000808673ffffffffffffffffffffffffffffffffffffffff1673ffffffffffffffffffffffffffffffffffffffff168152602001908152602001600020600084815260200190815260200160002054611550565b6119da6040518060400160405280600a81526020017f636f6c6c61746572616c000000000000000000000000000000000000000000008152506004846040516119b291906144cf565b9081526020016040518091039020600084815260200190815260200160002060000154611550565b611a4b6040518060400160405280600781526020017f6f6e64656c746100000000000000000000000000000000000000000000000000815250600484604051611a2391906144cf565b908152602001604051809103902060008481526020019081526020016000206001015461069b565b8080611a5690614f29565b915050611801565b50505050565b7f4c34c2f9a78632f29fa59aaed5514cb742fd9fbcfd7ccc2c03c85f2bbc621c478282604051611a9592919061469a565b60405180910390a15050565b60058181548110611ab157600080fd5b90600052602060002001600091509050806000018054611ad090614ef7565b80601f0160208091040260200160405190810160405280929190818152602001828054611afc90614ef7565b8015611b495780601f10611b1e57610100808354040283529160200191611b49565b820191906000526020600020905b815481529060010190602001808311611b2c57829003601f168201915b5050505050905081565b600080826020015173ffffffffffffffffffffffffffffffffffffffff16836000015173ffffffffffffffffffffffffffffffffffffffff16109050611c076040518060400160405280600981526020017f656e756d2074797065000000000000000000000000000000000000000000000081525060016003811115611c02577f4e487b7100000000000000000000000000000000000000000000000000000000600052602160045260246000fd5b611550565b611c19836000015184602001516116f1565b60005b836040015151811015611ee957600084604001518281518110611c68577f4e487b7100000000000000000000000000000000000000000000000000000000600052603260045260246000fd5b6020026020010151600001519050600085604001518381518110611cb5577f4e487b7100000000000000000000000000000000000000000000000000000000600052603260045260246000fd5b6020026020010151602001519050806000803373ffffffffffffffffffffffffffffffffffffffff1673ffffffffffffffffffffffffffffffffffffffff16815260200190815260200160002060008481526020019081526020016000205410611e885760006004611d2f88600001518960200151610614565b604051611d3c91906144cf565b908152602001604051809103902060008481526020019081526020016000209050816000803373ffffffffffffffffffffffffffffffffffffffff1673ffffffffffffffffffffffffffffffffffffffff16815260200190815260200160002060008581526020019081526020016000206000828254611dbc9190614e18565b9250508190555081816000016000828254611dd79190614c6c565b925050819055508415611e435781816001016000828254611df89190614bd8565b92505081905550611e426040518060400160405280600b81526020017f6e6577206f6e64656c7461000000000000000000000000000000000000000000815250826001015461069b565b5b611e826040518060400160405280601581526020017f4465706f736974656420746f206368616e6e656c20000000000000000000000081525083611550565b50611ed4565b611ec76040518060400160405280601081526020017f6e6f7420656e6f7567682066756e6473000000000000000000000000000000008152503361059a565b6000945050505050611f02565b50508080611ee190614f29565b915050611c1c565b50611efc836000015184602001516116f1565b60019150505b919050565b6000806001905060005b8651811015611f7f57611f63878281518110611f56577f4e487b7100000000000000000000000000000000000000000000000000000000600052603260045260246000fd5b6020026020010151610f00565b611f6c57600091505b8080611f7790614f29565b915050611f11565b5060005b8551811015611ff157611fd5868281518110611fc8577f4e487b7100000000000000000000000000000000000000000000000000000000600052603260045260246000fd5b60200260200101516120e2565b611fde57600091505b8080611fe990614f29565b915050611f83565b5060005b84518110156120635761204785828151811061203a577f4e487b7100000000000000000000000000000000000000000000000000000000600052603260045260246000fd5b6020026020010151610456565b61205057600091505b808061205b90614f29565b915050611ff5565b5060005b83518110156120d5576120b98482815181106120ac577f4e487b7100000000000000000000000000000000000000000000000000000000600052603260045260246000fd5b6020026020010151611b53565b6120c257600091505b80806120cd90614f29565b915050612067565b5080915050949350505050565b60008033905060006120f8828560000151610614565b90506000818560200151866040015160405160200161211993929190614603565b6040516020818303038152906040529050600061213c8280519060200120612b43565b905061217d6040518060400160405280600b81526020017f656e636f646564206d73670000000000000000000000000000000000000000008152508361055d565b600061218d828860600151612b73565b90506121ce6040518060400160405280600681526020017f7369676e657200000000000000000000000000000000000000000000000000008152508261059a565b6000876000015173ffffffffffffffffffffffffffffffffffffffff168673ffffffffffffffffffffffffffffffffffffffff1610612211578760000151612213565b855b90506000886000015173ffffffffffffffffffffffffffffffffffffffff168773ffffffffffffffffffffffffffffffffffffffff1610612254578661225a565b88600001515b905061226a878a600001516116f1565b60005b896040015151811015612acf5760008a6040015182815181106122b9577f4e487b7100000000000000000000000000000000000000000000000000000000600052603260045260246000fd5b602002602001015160000151905060006004896040516122d991906144cf565b908152602001604051809103902060008381526020019081526020016000209050600081600101548d60400151858151811061233e577f4e487b7100000000000000000000000000000000000000000000000000000000600052603260045260246000fd5b6020026020010151602001516123549190614bd8565b90506123956040518060400160405280600581526020017f64656c74610000000000000000000000000000000000000000000000000000008152508261069b565b61241c6040518060400160405280600881526020017f6f666664656c74610000000000000000000000000000000000000000000000008152508e60400151868151811061240b577f4e487b7100000000000000000000000000000000000000000000000000000000600052603260045260246000fd5b60200260200101516020015161069b565b60008112158015612431575081600001548113155b1561251c576000819050806000808973ffffffffffffffffffffffffffffffffffffffff1673ffffffffffffffffffffffffffffffffffffffff1681526020019081526020016000206000868152602001908152602001600020600082825461249a9190614c6c565b925050819055508083600001546124b19190614e18565b6000808873ffffffffffffffffffffffffffffffffffffffff1673ffffffffffffffffffffffffffffffffffffffff1681526020019081526020016000206000868152602001908152602001600020600082825461250f9190614c6c565b9250508190555050612a77565b600080821261252b578661252d565b855b9050600080831261253e5786612540565b875b905060008084126125605784600001548461255b9190614e18565b61256b565b8361256a90614fa0565b5b90506125ac6040518060400160405280600f81526020017f6765747320636f6c6c61746572616c00000000000000000000000000000000008152508461059a565b6125eb6040518060400160405280600981526020017f67657473206465627400000000000000000000000000000000000000000000008152508361059a565b61262a6040518060400160405280600481526020017f646562740000000000000000000000000000000000000000000000000000000081525082611550565b84600001546000808573ffffffffffffffffffffffffffffffffffffffff1673ffffffffffffffffffffffffffffffffffffffff1681526020019081526020016000206000888152602001908152602001600020600082825461268d9190614c6c565b92505081905550806000808473ffffffffffffffffffffffffffffffffffffffff1673ffffffffffffffffffffffffffffffffffffffff168152602001908152602001600020600088815260200190815260200160002054106127bb57806000808573ffffffffffffffffffffffffffffffffffffffff1673ffffffffffffffffffffffffffffffffffffffff168152602001908152602001600020600088815260200190815260200160002060008282546127499190614c6c565b92505081905550806000808473ffffffffffffffffffffffffffffffffffffffff1673ffffffffffffffffffffffffffffffffffffffff168152602001908152602001600020600088815260200190815260200160002060008282546127af9190614e18565b92505081905550612a73565b60008060008473ffffffffffffffffffffffffffffffffffffffff1673ffffffffffffffffffffffffffffffffffffffff168152602001908152602001600020600088815260200190815260200160002054111561297b576000808373ffffffffffffffffffffffffffffffffffffffff1673ffffffffffffffffffffffffffffffffffffffff1681526020019081526020016000206000878152602001908152602001600020546000808573ffffffffffffffffffffffffffffffffffffffff1673ffffffffffffffffffffffffffffffffffffffff168152602001908152602001600020600088815260200190815260200160002060008282546128c19190614c6c565b925050819055506000808373ffffffffffffffffffffffffffffffffffffffff1673ffffffffffffffffffffffffffffffffffffffff168152602001908152602001600020600087815260200190815260200160002054816129239190614e18565b905060008060008473ffffffffffffffffffffffffffffffffffffffff1673ffffffffffffffffffffffffffffffffffffffff1681526020019081526020016000206000888152602001908152602001600020819055505b600260008373ffffffffffffffffffffffffffffffffffffffff1673ffffffffffffffffffffffffffffffffffffffff168152602001908152602001600020600087815260200190815260200160002060405180604001604052808381526020018573ffffffffffffffffffffffffffffffffffffffff1681525090806001815401808255809150506001900390600052602060002090600202016000909190919091506000820151816000015560208201518160010160006101000a81548173ffffffffffffffffffffffffffffffffffffffff021916908373ffffffffffffffffffffffffffffffffffffffff16021790555050505b5050505b60048a604051612a8791906144cf565b90815260200160405180910390206000848152602001908152602001600020600080820160009055600182016000905550505050508080612ac790614f29565b91505061226d565b50600386604051612ae091906144cf565b908152602001604051809103902060008082016000905560018201600090556002820160006101000a81549060ff0219169055600382016000905560048201600090555050612b33878a600001516116f1565b6001975050505050505050919050565b600081604051602001612b5691906144e6565b604051602081830303815290604052805190602001209050919050565b60006041825114612bb9576040517f08c379a0000000000000000000000000000000000000000000000000000000008152600401612bb0906147b1565b60405180910390fd5b60008060006020850151925060408501519150606085015160001a9050612be286828585612dc2565b935050505092915050565b60606000821415612c35576040518060400160405280600181526020017f30000000000000000000000000000000000000000000000000000000000000008152509050612dbd565b600082905060005b60008214612c67578080612c5090614f29565b915050600a82612c609190614cf9565b9150612c3d565b60008167ffffffffffffffff811115612ca9577f4e487b7100000000000000000000000000000000000000000000000000000000600052604160045260246000fd5b6040519080825280601f01601f191660200182016040528015612cdb5781602001600182028036833780820191505090505b50905060008290505b60008614612db557600181612cf99190614e18565b90506000600a8088612d0b9190614cf9565b612d159190614d2a565b87612d209190614e18565b6030612d2c9190614cc2565b905060008160f81b905080848481518110612d70577f4e487b7100000000000000000000000000000000000000000000000000000000600052603260045260246000fd5b60200101907effffffffffffffffffffffffffffffffffffffffffffffffffffffffffffff1916908160001a905350600a88612dac9190614cf9565b97505050612ce4565b819450505050505b919050565b60007f7fffffffffffffffffffffffffffffff5d576e7357a4501ddfe92f46681b20a08260001c1115612e2a576040517f08c379a0000000000000000000000000000000000000000000000000000000008152600401612e21906147d1565b60405180910390fd5b601b8460ff161480612e3f5750601c8460ff16145b612e7e576040517f08c379a0000000000000000000000000000000000000000000000000000000008152600401612e75906147f1565b60405180910390fd5b600060018686868660405160008152602001604052604051612ea39493929190614557565b6020604051602081039080840390855afa158015612ec5573d6000803e3d6000fd5b505050602060405103519050600073ffffffffffffffffffffffffffffffffffffffff168173ffffffffffffffffffffffffffffffffffffffff161415612f41576040517f08c379a0000000000000000000000000000000000000000000000000000000008152600401612f3890614791565b60405180910390fd5b80915050949350505050565b5080546000825560020290600052602060002090810190612f6e9190612fdf565b50565b6040518060200160405280606081525090565b60405180606001604052806000815260200160608152602001600081525090565b6040518060400160405280612fb8613025565b8152602001606081525090565b604051806040016040528060008152602001600081525090565b5b80821115613021576000808201600090556001820160006101000a81549073ffffffffffffffffffffffffffffffffffffffff021916905550600201612fe0565b5090565b6040518060a00160405280600081526020016000815260200160001515815260200160008152602001600080191681525090565b600061306c613067846148f4565b6148c3565b9050808382526020820190508285604086028201111561308b57600080fd5b60005b858110156130bb57816130a188826134c5565b84526020840193506040830192505060018101905061308e565b5050509392505050565b60006130d86130d384614920565b6148c3565b9050808382526020820190508260005b8581101561311857813585016130fe8882613511565b8452602084019350602083019250506001810190506130e8565b5050509392505050565b60006131356131308461494c565b6148c3565b9050808382526020820190508260005b85811015613175578135850161315b88826135b5565b845260208401935060208301925050600181019050613145565b5050509392505050565b600061319261318d84614978565b6148c3565b9050808382526020820190508260005b858110156131d257813585016131b8888261362d565b8452602084019350602083019250506001810190506131a2565b5050509392505050565b60006131ef6131ea846149a4565b6148c3565b9050808382526020820190508285604086028201111561320e57600080fd5b60005b8581101561323e578161322488826136d1565b845260208401935060408301925050600181019050613211565b5050509392505050565b600061325b613256846149d0565b6148c3565b9050808382526020820190508260005b8581101561329b5781358501613281888261371d565b84526020840193506020830192505060018101905061326b565b5050509392505050565b60006132b86132b3846149fc565b6148c3565b9050828152602081018484840111156132d057600080fd5b6132db848285614eb5565b509392505050565b60006132f66132f184614a2c565b6148c3565b90508281526020810184848401111561330e57600080fd5b613319848285614eb5565b509392505050565b600081359050613330816150c3565b92915050565b600082601f83011261334757600080fd5b8135613357848260208601613059565b91505092915050565b600082601f83011261337157600080fd5b81356133818482602086016130c5565b91505092915050565b600082601f83011261339b57600080fd5b81356133ab848260208601613122565b91505092915050565b600082601f8301126133c557600080fd5b81356133d584826020860161317f565b91505092915050565b600082601f8301126133ef57600080fd5b81356133ff8482602086016131dc565b91505092915050565b600082601f83011261341957600080fd5b8135613429848260208601613248565b91505092915050565b600081359050613441816150da565b92915050565b600081359050613456816150f1565b92915050565b600082601f83011261346d57600080fd5b813561347d8482602086016132a5565b91505092915050565b60008135905061349581615108565b92915050565b600082601f8301126134ac57600080fd5b81356134bc8482602086016132e3565b91505092915050565b6000604082840312156134d757600080fd5b6134e160406148c3565b905060006134f1848285016137c1565b6000830152506020613505848285016137c1565b60208301525092915050565b60006080828403121561352357600080fd5b61352d60806148c3565b9050600061353d84828501613321565b6000830152506020613551848285016137c1565b602083015250604082013567ffffffffffffffff81111561357157600080fd5b61357d848285016133de565b604083015250606082013567ffffffffffffffff81111561359d57600080fd5b6135a98482850161345c565b60608301525092915050565b6000606082840312156135c757600080fd5b6135d160606148c3565b905060006135e184828501613321565b60008301525060206135f584828501613321565b602083015250604082013567ffffffffffffffff81111561361557600080fd5b61362184828501613336565b60408301525092915050565b60006080828403121561363f57600080fd5b61364960806148c3565b9050600061365984828501613321565b600083015250602061366d848285016137c1565b602083015250604082013567ffffffffffffffff81111561368d57600080fd5b613699848285016133de565b604083015250606082013567ffffffffffffffff8111156136b957600080fd5b6136c58482850161345c565b60608301525092915050565b6000604082840312156136e357600080fd5b6136ed60406148c3565b905060006136fd848285016137c1565b600083015250602061371184828501613486565b60208301525092915050565b60006080828403121561372f57600080fd5b61373960806148c3565b9050600061374984828501613321565b600083015250602061375d848285016137c1565b602083015250604082013567ffffffffffffffff81111561377d57600080fd5b61378984828501613336565b604083015250606082013567ffffffffffffffff8111156137a957600080fd5b6137b58482850161345c565b60608301525092915050565b6000813590506137d08161511f565b92915050565b6000602082840312156137e857600080fd5b60006137f684828501613321565b91505092915050565b6000806040838503121561381257600080fd5b600061382085828601613321565b925050602061383185828601613321565b9150509250929050565b60008060006060848603121561385057600080fd5b600061385e86828701613321565b935050602061386f86828701613321565b9250506040613880868287016137c1565b9150509250925092565b6000806040838503121561389d57600080fd5b60006138ab85828601613321565b92505060206138bc858286016137c1565b9150509250929050565b600080600080608085870312156138dc57600080fd5b600085013567ffffffffffffffff8111156138f657600080fd5b61390287828801613408565b945050602085013567ffffffffffffffff81111561391f57600080fd5b61392b87828801613360565b935050604085013567ffffffffffffffff81111561394857600080fd5b613954878288016133b4565b925050606085013567ffffffffffffffff81111561397157600080fd5b61397d8782880161338a565b91505092959194509250565b60006020828403121561399b57600080fd5b600082013567ffffffffffffffff8111156139b557600080fd5b6139c18482850161345c565b91505092915050565b600080604083850312156139dd57600080fd5b600083013567ffffffffffffffff8111156139f757600080fd5b613a038582860161349b565b9250506020613a1485828601613321565b9150509250929050565b60008060408385031215613a3157600080fd5b600083013567ffffffffffffffff811115613a4b57600080fd5b613a578582860161349b565b9250506020613a6885828601613432565b9150509250929050565b60008060408385031215613a8557600080fd5b600083013567ffffffffffffffff811115613a9f57600080fd5b613aab8582860161349b565b9250506020613abc85828601613447565b9150509250929050565b60008060408385031215613ad957600080fd5b600083013567ffffffffffffffff811115613af357600080fd5b613aff8582860161349b565b925050602083013567ffffffffffffffff811115613b1c57600080fd5b613b288582860161345c565b9150509250929050565b60008060408385031215613b4557600080fd5b600083013567ffffffffffffffff811115613b5f57600080fd5b613b6b8582860161349b565b9250506020613b7c85828601613486565b9150509250929050565b60008060408385031215613b9957600080fd5b600083013567ffffffffffffffff811115613bb357600080fd5b613bbf8582860161349b565b9250506020613bd0858286016137c1565b9150509250929050565b600060208284031215613bec57600080fd5b600082013567ffffffffffffffff811115613c0657600080fd5b613c1284828501613511565b91505092915050565b600060208284031215613c2d57600080fd5b600082013567ffffffffffffffff811115613c4757600080fd5b613c53848285016135b5565b91505092915050565b600060208284031215613c6e57600080fd5b600082013567ffffffffffffffff811115613c8857600080fd5b613c948482850161362d565b91505092915050565b600060208284031215613caf57600080fd5b600082013567ffffffffffffffff811115613cc957600080fd5b613cd58482850161371d565b91505092915050565b600060208284031215613cf057600080fd5b6000613cfe848285016137c1565b91505092915050565b6000613d13838361429b565b60408301905092915050565b6000613d2b83836142ca565b905092915050565b6000613d3f83836143bf565b60408301905092915050565b6000613d5783836143ee565b60408301905092915050565b6000613d6f838361441d565b60408301905092915050565b613d8481614e4c565b82525050565b613d9381614e4c565b82525050565b613daa613da582614e4c565b614f72565b82525050565b6000613dbb82614aac565b613dc58185614b3a565b9350613dd083614a5c565b8060005b83811015613e01578151613de88882613d07565b9750613df383614af9565b925050600181019050613dd4565b5085935050505092915050565b6000613e1982614ab7565b613e238185614b4b565b935083602082028501613e3585614a6c565b8060005b85811015613e715784840389528151613e528582613d1f565b9450613e5d83614b06565b925060208a01995050600181019050613e39565b50829750879550505050505092915050565b6000613e8e82614ac2565b613e988185614b5c565b9350613ea383614a7c565b8060005b83811015613ed4578151613ebb8882613d33565b9750613ec683614b13565b925050600181019050613ea7565b5085935050505092915050565b6000613eec82614acd565b613ef68185614b6d565b9350613f0183614a8c565b8060005b83811015613f32578151613f198882613d4b565b9750613f2483614b20565b925050600181019050613f05565b5085935050505092915050565b6000613f4a82614acd565b613f548185614b7e565b9350613f5f83614a8c565b8060005b83811015613f90578151613f778882613d4b565b9750613f8283614b20565b925050600181019050613f63565b5085935050505092915050565b6000613fa882614ad8565b613fb28185614b8f565b9350613fbd83614a9c565b8060005b83811015613fee578151613fd58882613d63565b9750613fe083614b2d565b925050600181019050613fc1565b5085935050505092915050565b61400481614e5e565b82525050565b61401381614e5e565b82525050565b61402281614e6a565b82525050565b61403181614e6a565b82525050565b61404861404382614e6a565b614f84565b82525050565b600061405982614ae3565b6140638185614ba0565b9350614073818560208601614ec4565b61407c816150a5565b840191505092915050565b600061409282614ae3565b61409c8185614bb1565b93506140ac818560208601614ec4565b80840191505092915050565b6140c181614e74565b82525050565b6140d081614e74565b82525050565b60006140e182614aee565b6140eb8185614bbc565b93506140fb818560208601614ec4565b614104816150a5565b840191505092915050565b600061411c601883614bbc565b91507f45434453413a20696e76616c6964207369676e617475726500000000000000006000830152602082019050919050565b600061415c601f83614bbc565b91507f45434453413a20696e76616c6964207369676e6174757265206c656e677468006000830152602082019050919050565b600061419c601c83614bcd565b91507f19457468657265756d205369676e6564204d6573736167653a0a3332000000006000830152601c82019050919050565b60006141dc602283614bbc565b91507f45434453413a20696e76616c6964207369676e6174757265202773272076616c60008301527f75650000000000000000000000000000000000000000000000000000000000006020830152604082019050919050565b6000614242602283614bbc565b91507f45434453413a20696e76616c6964207369676e6174757265202776272076616c60008301527f75650000000000000000000000000000000000000000000000000000000000006020830152604082019050919050565b6040820160008201516142b16000850182614476565b5060208201516142c46020850182614476565b50505050565b60006060830160008301516142e26000860182614476565b50602083015184820360208601526142fa8282613ee1565b915050604083015161430f6040860182614476565b508091505092915050565b600060c0830160008301516143326000860182614357565b50602083015184820360a086015261434a8282613e83565b9150508091505092915050565b60a08201600082015161436d6000850182614476565b5060208201516143806020850182614476565b5060408201516143936040850182613ffb565b5060608201516143a66060850182614476565b5060808201516143b96080850182614019565b50505050565b6040820160008201516143d56000850182614476565b5060208201516143e860208501826140b8565b50505050565b6040820160008201516144046000850182614476565b5060208201516144176020850182613d7b565b50505050565b6040820160008201516144336000850182614476565b50602082015161444660208501826140b8565b50505050565b600060208301600083015184820360008601526144698282613e0e565b9150508091505092915050565b61447f81614e9e565b82525050565b61448e81614e9e565b82525050565b61449d81614ea8565b82525050565b60006144af8285613d99565b6014820191506144bf8284613d99565b6014820191508190509392505050565b60006144db8284614087565b915081905092915050565b60006144f18261418f565b91506144fd8284614037565b60208201915081905092915050565b600060408201905081810360008301526145268185613f3f565b90506145356020830184614485565b9392505050565b6000602082019050614551600083018461400a565b92915050565b600060808201905061456c6000830187614028565b6145796020830186614494565b6145866040830185614028565b6145936060830184614028565b95945050505050565b600060208201905081810360008301526145b6818461404e565b905092915050565b600060608201905081810360008301526145d8818661404e565b90506145e76020830185614485565b81810360408301526145f98184613db0565b9050949350505050565b6000606082019050818103600083015261461d818661404e565b905061462c6020830185614485565b818103604083015261463e8184613f9d565b9050949350505050565b6000602082019050818103600083015261466281846140d6565b905092915050565b6000604082019050818103600083015261468481856140d6565b90506146936020830184613d8a565b9392505050565b600060408201905081810360008301526146b481856140d6565b90506146c3602083018461400a565b9392505050565b600060408201905081810360008301526146e481856140d6565b90506146f36020830184614028565b9392505050565b6000604082019050818103600083015261471481856140d6565b90508181036020830152614728818461404e565b90509392505050565b6000604082019050818103600083015261474b81856140d6565b905061475a60208301846140c7565b9392505050565b6000604082019050818103600083015261477b81856140d6565b905061478a6020830184614485565b9392505050565b600060208201905081810360008301526147aa8161410f565b9050919050565b600060208201905081810360008301526147ca8161414f565b9050919050565b600060208201905081810360008301526147ea816141cf565b9050919050565b6000602082019050818103600083015261480a81614235565b9050919050565b6000602082019050818103600083015261482b818461431a565b905092915050565b6000602082019050818103600083015261484d818461444c565b905092915050565b600060208201905061486a6000830184614485565b92915050565b600060a0820190506148856000830188614485565b6148926020830187614485565b61489f604083018661400a565b6148ac6060830185614485565b6148b96080830184614028565b9695505050505050565b6000604051905081810181811067ffffffffffffffff821117156148ea576148e9615076565b5b8060405250919050565b600067ffffffffffffffff82111561490f5761490e615076565b5b602082029050602081019050919050565b600067ffffffffffffffff82111561493b5761493a615076565b5b602082029050602081019050919050565b600067ffffffffffffffff82111561496757614966615076565b5b602082029050602081019050919050565b600067ffffffffffffffff82111561499357614992615076565b5b602082029050602081019050919050565b600067ffffffffffffffff8211156149bf576149be615076565b5b602082029050602081019050919050565b600067ffffffffffffffff8211156149eb576149ea615076565b5b602082029050602081019050919050565b600067ffffffffffffffff821115614a1757614a16615076565b5b601f19601f8301169050602081019050919050565b600067ffffffffffffffff821115614a4757614a46615076565b5b601f19601f8301169050602081019050919050565b6000819050602082019050919050565b6000819050602082019050919050565b6000819050602082019050919050565b6000819050602082019050919050565b6000819050602082019050919050565b600081519050919050565b600081519050919050565b600081519050919050565b600081519050919050565b600081519050919050565b600081519050919050565b600081519050919050565b6000602082019050919050565b6000602082019050919050565b6000602082019050919050565b6000602082019050919050565b6000602082019050919050565b600082825260208201905092915050565b600082825260208201905092915050565b600082825260208201905092915050565b600082825260208201905092915050565b600082825260208201905092915050565b600082825260208201905092915050565b600082825260208201905092915050565b600081905092915050565b600082825260208201905092915050565b600081905092915050565b6000614be382614e74565b9150614bee83614e74565b9250817f7fffffffffffffffffffffffffffffffffffffffffffffffffffffffffffffff03831360008312151615614c2957614c28614fe9565b5b817f8000000000000000000000000000000000000000000000000000000000000000038312600083121615614c6157614c60614fe9565b5b828201905092915050565b6000614c7782614e9e565b9150614c8283614e9e565b9250827fffffffffffffffffffffffffffffffffffffffffffffffffffffffffffffffff03821115614cb757614cb6614fe9565b5b828201905092915050565b6000614ccd82614ea8565b9150614cd883614ea8565b92508260ff03821115614cee57614ced614fe9565b5b828201905092915050565b6000614d0482614e9e565b9150614d0f83614e9e565b925082614d1f57614d1e615018565b5b828204905092915050565b6000614d3582614e9e565b9150614d4083614e9e565b9250817fffffffffffffffffffffffffffffffffffffffffffffffffffffffffffffffff0483118215151615614d7957614d78614fe9565b5b828202905092915050565b6000614d8f82614e74565b9150614d9a83614e74565b9250827f800000000000000000000000000000000000000000000000000000000000000001821260008412151615614dd557614dd4614fe9565b5b827f7fffffffffffffffffffffffffffffffffffffffffffffffffffffffffffffff018213600084121615614e0d57614e0c614fe9565b5b828203905092915050565b6000614e2382614e9e565b9150614e2e83614e9e565b925082821015614e4157614e40614fe9565b5b828203905092915050565b6000614e5782614e7e565b9050919050565b60008115159050919050565b6000819050919050565b6000819050919050565b600073ffffffffffffffffffffffffffffffffffffffff82169050919050565b6000819050919050565b600060ff82169050919050565b82818337600083830152505050565b60005b83811015614ee2578082015181840152602081019050614ec7565b83811115614ef1576000848401525b50505050565b60006002820490506001821680614f0f57607f821691505b60208210811415614f2357614f22615047565b5b50919050565b6000614f3482614e9e565b91507fffffffffffffffffffffffffffffffffffffffffffffffffffffffffffffffff821415614f6757614f66614fe9565b5b600182019050919050565b6000614f7d82614f8e565b9050919050565b6000819050919050565b6000614f99826150b6565b9050919050565b6000614fab82614e74565b91507f8000000000000000000000000000000000000000000000000000000000000000821415614fde57614fdd614fe9565b5b816000039050919050565b7f4e487b7100000000000000000000000000000000000000000000000000000000600052601160045260246000fd5b7f4e487b7100000000000000000000000000000000000000000000000000000000600052601260045260246000fd5b7f4e487b7100000000000000000000000000000000000000000000000000000000600052602260045260246000fd5b7f4e487b7100000000000000000000000000000000000000000000000000000000600052604160045260246000fd5b6000601f19601f8301169050919050565b60008160601b9050919050565b6150cc81614e4c565b81146150d757600080fd5b50565b6150e381614e5e565b81146150ee57600080fd5b50565b6150fa81614e6a565b811461510557600080fd5b50565b61511181614e74565b811461511c57600080fd5b50565b61512881614e9e565b811461513357600080fd5b5056fea264697066735822122016ef537dc58d2de65c3841963a9d2e0c61bdddad46a0ccc8da5126f572748bd964736f6c63430008000033",
  "linkReferences": {},
  "deployedLinkReferences": {}
}