{
  "_format": "hh-sol-artifact-1",
  "contractName": "SecretRegistry",
  "sourceName": "contracts/SecretRegistry.sol",
  "abi": [
    {
      "anonymous": false,
      "inputs": [
        {
          "indexed": true,
          "internalType": "bytes32",
          "name": "secrethash",
          "type": "bytes32"
        },
        {
          "indexed": false,
          "internalType": "bytes32",
          "name": "secret",
          "type": "bytes32"
        }
      ],
      "name": "SecretRevealed",
      "type": "event"
    },
    {
      "inputs": [
        {
          "internalType": "bytes32",
          "name": "secrethash",
          "type": "bytes32"
        }
      ],
      "name": "getSecretRevealBlockHeight",
      "outputs": [
        {
          "internalType": "uint256",
          "name": "",
          "type": "uint256"
        }
      ],
      "stateMutability": "view",
      "type": "function"
    },
    {
      "inputs": [
        {
          "internalType": "bytes32",
          "name": "secret",
          "type": "bytes32"
        }
      ],
      "name": "registerSecret",
      "outputs": [
        {
          "internalType": "bool",
          "name": "",
          "type": "bool"
        }
      ],
      "stateMutability": "nonpayable",
      "type": "function"
    },
    {
      "inputs": [
        {
          "internalType": "bytes32[]",
          "name": "secrets",
          "type": "bytes32[]"
        }
      ],
      "name": "registerSecretBatch",
      "outputs": [
        {
          "internalType": "bool",
          "name": "",
          "type": "bool"
        }
      ],
      "stateMutability": "nonpayable",
      "type": "function"
    }
  ],
  "bytecode": "0x608060405234801561001057600080fd5b50610676806100206000396000f3fe608060405234801561001057600080fd5b50600436106100415760003560e01c806312ad8bfc14610046578063bbe8a9b614610076578063c1f62946146100a6575b600080fd5b610060600480360381019061005b9190610368565b6100d6565b60405161006d9190610461565b60405180910390f35b610090600480360381019061008b9190610327565b6101c9565b60405161009d9190610461565b60405180910390f35b6100c060048036038101906100bb9190610368565b61024b565b6040516100cd9190610497565b60405180910390f35b6000806002836040516020016100ec919061042f565b604051602081830303815290604052604051610108919061044a565b602060405180830381855afa158015610125573d6000803e3d6000fd5b5050506040513d601f19601f820116820180604052508101906101489190610391565b9050600080600083815260200190815260200160002054111561016f5760009150506101c4565b4360008083815260200190815260200160002081905550807fc8ee7ba45d0c5351df845eda156d523bd6865844a5f2c69df35b757e2f794fa1846040516101b6919061047c565b60405180910390a260019150505b919050565b6000806001905060005b835181101561024157610225848281518110610218577f4e487b7100000000000000000000000000000000000000000000000000000000600052603260045260246000fd5b60200260200101516100d6565b61022e57600091505b808061023990610578565b9150506101d3565b5080915050919050565b6000806000838152602001908152602001600020549050919050565b600061027a610275846104e3565b6104b2565b9050808382526020820190508285602086028201111561029957600080fd5b60005b858110156102c957816102af88826102fd565b84526020840193506020830192505060018101905061029c565b5050509392505050565b600082601f8301126102e457600080fd5b81356102f4848260208601610267565b91505092915050565b60008135905061030c81610629565b92915050565b60008151905061032181610629565b92915050565b60006020828403121561033957600080fd5b600082013567ffffffffffffffff81111561035357600080fd5b61035f848285016102d3565b91505092915050565b60006020828403121561037a57600080fd5b6000610388848285016102fd565b91505092915050565b6000602082840312156103a357600080fd5b60006103b184828501610312565b91505092915050565b6103c381610525565b82525050565b6103d281610531565b82525050565b6103e96103e482610531565b6105c1565b82525050565b60006103fa8261050f565b610404818561051a565b9350610414818560208601610545565b80840191505092915050565b6104298161053b565b82525050565b600061043b82846103d8565b60208201915081905092915050565b600061045682846103ef565b915081905092915050565b600060208201905061047660008301846103ba565b92915050565b600060208201905061049160008301846103c9565b92915050565b60006020820190506104ac6000830184610420565b92915050565b6000604051905081810181811067ffffffffffffffff821117156104d9576104d86105fa565b5b8060405250919050565b600067ffffffffffffffff8211156104fe576104fd6105fa565b5b602082029050602081019050919050565b600081519050919050565b600081905092915050565b60008115159050919050565b6000819050919050565b6000819050919050565b60005b83811015610563578082015181840152602081019050610548565b83811115610572576000848401525b50505050565b60006105838261053b565b91507fffffffffffffffffffffffffffffffffffffffffffffffffffffffffffffffff8214156105b6576105b56105cb565b5b600182019050919050565b6000819050919050565b7f4e487b7100000000000000000000000000000000000000000000000000000000600052601160045260246000fd5b7f4e487b7100000000000000000000000000000000000000000000000000000000600052604160045260246000fd5b61063281610531565b811461063d57600080fd5b5056fea26469706673582212204a0a1d1fed470dfa0ff1c462ecb60f46ce1c4a45a57410d0b3f8c694e13d7fb764736f6c63430008000033",
  "linkReferences": {},
  "deployedLinkReferences": {}
}