{
	"data": {
		"bytecode": {
			"linkReferences": {},
			"object": "60806040523480156200001157600080fd5b50600560405180602001604052806040518060400160405280600481526020017f57455448000000000000000000000000000000000000000000000000000000008152508152509080600181540180825580915050600190039060005260206000200160009091909190915060008201518160000190805190602001906200009b9291906200023a565b505050600560405180602001604052806040518060400160405280600381526020017f4441490000000000000000000000000000000000000000000000000000000000815250815250908060018154018082558091505060019003906000526020600020016000909190919091506000820151816000019080519060200190620001279291906200023a565b5050506305f5e1006000803373ffffffffffffffffffffffffffffffffffffffff1673ffffffffffffffffffffffffffffffffffffffff1681526020019081526020016000206000808152602001908152602001600020819055506305f5e1006000803373ffffffffffffffffffffffffffffffffffffffff1673ffffffffffffffffffffffffffffffffffffffff168152602001908152602001600020600060018152602001908152602001600020819055506305f5e1006000803373ffffffffffffffffffffffffffffffffffffffff1673ffffffffffffffffffffffffffffffffffffffff168152602001908152602001600020600060028152602001908152602001600020819055506200034f565b8280546200024890620002ea565b90600052602060002090601f0160209004810192826200026c5760008555620002b8565b82601f106200028757805160ff1916838001178555620002b8565b82800160010185558215620002b8579182015b82811115620002b75782518255916020019190600101906200029a565b5b509050620002c79190620002cb565b5090565b5b80821115620002e6576000816000905550600101620002cc565b5090565b600060028204905060018216806200030357607f821691505b602082108114156200031a576200031962000320565b5b50919050565b7f4e487b7100000000000000000000000000000000000000000000000000000000600052602260045260246000fd5b614f14806200035f6000396000f3fe608060405234801561001057600080fd5b50600436106101215760003560e01c80638b86be3c116100ad578063bcd1e5f911610071578063bcd1e5f914610352578063bf52638c14610383578063c3b556351461039f578063cf35bdd0146103bb578063d3d90b68146103eb57610121565b80638b86be3c14610272578063a1a96a13146102a2578063aee26d3f146102d6578063b60e72cc14610306578063b7340e421461032257610121565b80633692d61a116100f45780633692d61a146101aa5780633c4deb11146101c65780633ca6268e146101f6578063428d9cc5146102125780636f77926b1461024257610121565b80630eb0afa61461012657806323cdd8e814610142578063319af3331461015e578063334f59401461017a575b600080fd5b610140600480360381019061013b9190613619565b61041b565b005b61015c60048036038101906101579190613878565b610517565b005b6101786004803603810190610173919061377c565b610554565b005b610194600480360381019061018f91906136a4565b610591565b6040516101a191906141d0565b60405180910390f35b6101c460048036038101906101bf9190613824565b6106f9565b005b6101e060048036038101906101db91906135dd565b610736565b6040516101ed9190614230565b60405180910390f35b610210600480360381019061020b91906138e4565b6107bd565b005b61022c60048036038101906102279190613668565b6107fa565b60405161023991906144e9565b60405180910390f35b61025c600480360381019061025791906135b4565b610d55565b60405161026991906144c7565b60405180910390f35b61028c60048036038101906102879190613a0e565b611022565b60405161029991906141d0565b60405180910390f35b6102bc60048036038101906102b7919061373b565b6113ff565b6040516102cd959493929190614504565b60405180910390f35b6102f060048036038101906102eb91906135dd565b611458565b6040516102fd91906144a5565b60405180910390f35b610320600480360381019061031b9190613938565b611635565b005b61033c600480360381019061033791906139cd565b611672565b60405161034991906141d0565b60405180910390f35b61036c600480360381019061036791906135b4565b6120d3565b60405161037a9291906141a0565b60405180910390f35b61039d600480360381019061039891906135dd565b612237565b005b6103b960048036038101906103b491906137d0565b6125aa565b005b6103d560048036038101906103d09190613a4f565b6125e7565b6040516103e291906142dc565b60405180910390f35b6104056004803603810190610400919061398c565b612699565b60405161041291906141d0565b60405180910390f35b600260008473ffffffffffffffffffffffffffffffffffffffff1673ffffffffffffffffffffffffffffffffffffffff168152602001908152602001600020600080815260200190815260200160002060405180604001604052808381526020018473ffffffffffffffffffffffffffffffffffffffff1681525090806001815401808255809150506001900390600052602060002090600202016000909190919091506000820151816000015560208201518160010160006101000a81548173ffffffffffffffffffffffffffffffffffffffff021916908373ffffffffffffffffffffffffffffffffffffffff1602179055505050505050565b7fe8407a0209fa99ec3a7228aff140c3d3e68bd279391739c7e0b65cd406cc93b5828260405161054892919061438e565b60405180910390a15050565b7f62ddffe5b5108385f7a590f100e1ee414ad9551a31f089e64e82998440785e1e82826040516105859291906142fe565b60405180910390a15050565b6000806001905060005b8551811015610609576105ed8682815181106105e0577f4e487b7100000000000000000000000000000000000000000000000000000000600052603260045260246000fd5b6020026020010151611022565b6105f657600091505b808061060190614bb8565b91505061059b565b5060005b845181101561067b5761065f858281518110610652577f4e487b7100000000000000000000000000000000000000000000000000000000600052603260045260246000fd5b6020026020010151612699565b61066857600091505b808061067390614bb8565b91505061060d565b5060005b83518110156106ed576106d18482815181106106c4577f4e487b7100000000000000000000000000000000000000000000000000000000600052603260045260246000fd5b6020026020010151611672565b6106da57600091505b80806106e590614bb8565b91505061067f565b50809150509392505050565b7f02d93529bba9d141e5e06733c52c7e6fbcb1149586adb5c24064b522ab26f1d7828260405161072a92919061435e565b60405180910390a15050565b60608173ffffffffffffffffffffffffffffffffffffffff168373ffffffffffffffffffffffffffffffffffffffff161061079257818360405160200161077e929190614137565b6040516020818303038152906040526107b5565b82826040516020016107a5929190614137565b6040516020818303038152906040525b905092915050565b7f6a837ff3973aa4181e7b9f07756f8b7ee366dd85a36655d2cb42cd47f10b963882826040516107ee9291906143c5565b60405180910390a15050565b600080600260008573ffffffffffffffffffffffffffffffffffffffff1673ffffffffffffffffffffffffffffffffffffffff16815260200190815260200160002060008081526020019081526020016000208054905090506000811415610866576000915050610d4f565b6000836000808773ffffffffffffffffffffffffffffffffffffffff1673ffffffffffffffffffffffffffffffffffffffff1681526020019081526020016000206000808152602001908152602001600020546108c391906148ca565b90506000600160008773ffffffffffffffffffffffffffffffffffffffff1673ffffffffffffffffffffffffffffffffffffffff1681526020019081526020016000206000808152602001908152602001600020549050600082141561093957808361092f9190614a76565b9350505050610d4f565b5b600115610c94576000600260008873ffffffffffffffffffffffffffffffffffffffff1673ffffffffffffffffffffffffffffffffffffffff168152602001908152602001600020600080815260200190815260200160002082815481106109cb577f4e487b7100000000000000000000000000000000000000000000000000000000600052603260045260246000fd5b9060005260206000209060020201905080600001548310610bdf578060000154836109f69190614a76565b925080600001546000808360010160009054906101000a900473ffffffffffffffffffffffffffffffffffffffff1673ffffffffffffffffffffffffffffffffffffffff1673ffffffffffffffffffffffffffffffffffffffff16815260200190815260200160002060008081526020019081526020016000206000828254610a7f91906148ca565b92505081905550600260008873ffffffffffffffffffffffffffffffffffffffff1673ffffffffffffffffffffffffffffffffffffffff16815260200190815260200160002060008081526020019081526020016000208281548110610b0e577f4e487b7100000000000000000000000000000000000000000000000000000000600052603260045260246000fd5b90600052602060002090600202016000808201600090556001820160006101000a81549073ffffffffffffffffffffffffffffffffffffffff0219169055505083600183610b5c91906148ca565b1415610bcc5760009150600260008873ffffffffffffffffffffffffffffffffffffffff1673ffffffffffffffffffffffffffffffffffffffff16815260200190815260200160002060008081526020019081526020016000206000610bc29190612e56565b6000935050610c94565b8180610bd790614bb8565b925050610c8e565b826000808360010160009054906101000a900473ffffffffffffffffffffffffffffffffffffffff1673ffffffffffffffffffffffffffffffffffffffff1673ffffffffffffffffffffffffffffffffffffffff16815260200190815260200160002060008081526020019081526020016000206000828254610c6291906148ca565b9250508190555082816000016000828254610c7d9190614a76565b925050819055506000925050610c94565b5061093a565b816000808873ffffffffffffffffffffffffffffffffffffffff1673ffffffffffffffffffffffffffffffffffffffff16815260200190815260200160002060008081526020019081526020016000208190555080600160008873ffffffffffffffffffffffffffffffffffffffff1673ffffffffffffffffffffffffffffffffffffffff1681526020019081526020016000206000808152602001908152602001600020819055508083610d499190614a76565b93505050505b92915050565b610d5d612e7a565b6000604051806020016040528060058054905067ffffffffffffffff811115610daf577f4e487b7100000000000000000000000000000000000000000000000000000000600052604160045260246000fd5b604051908082528060200260200182016040528015610de857816020015b610dd5612e8d565b815260200190600190039081610dcd5790505b50815250905060005b6005805490508110156110185760405180606001604052806000808773ffffffffffffffffffffffffffffffffffffffff1673ffffffffffffffffffffffffffffffffffffffff1681526020019081526020016000206000848152602001908152602001600020548152602001600260008773ffffffffffffffffffffffffffffffffffffffff1673ffffffffffffffffffffffffffffffffffffffff1681526020019081526020016000206000848152602001908152602001600020805480602002602001604051908101604052809291908181526020016000905b82821015610f605783829060005260206000209060020201604051806040016040529081600082015481526020016001820160009054906101000a900473ffffffffffffffffffffffffffffffffffffffff1673ffffffffffffffffffffffffffffffffffffffff1673ffffffffffffffffffffffffffffffffffffffff168152505081526020019060010190610ece565b505050508152602001600160008773ffffffffffffffffffffffffffffffffffffffff1673ffffffffffffffffffffffffffffffffffffffff16815260200190815260200160002060008481526020019081526020016000205481525082600001518281518110610ffa577f4e487b7100000000000000000000000000000000000000000000000000000000600052603260045260246000fd5b6020026020010181905250808061101090614bb8565b915050610df1565b5080915050919050565b6000803390506000836000015173ffffffffffffffffffffffffffffffffffffffff168273ffffffffffffffffffffffffffffffffffffffff1610905061106d828560000151612237565b600061107d838660000151610736565b90506000816003836040516110929190614163565b90815260200160405180910390206000015487604001516040516020016110bb93929190614252565b604051602081830303815290604052905060006110de8280519060200120612a4c565b905061111f6040518060400160405280600b81526020017f656e636f646564206d736700000000000000000000000000000000000000000081525083610517565b600061112f828960600151612a7c565b90506111706040518060400160405280600681526020017f7369676e6572000000000000000000000000000000000000000000000000000081525082610554565b8073ffffffffffffffffffffffffffffffffffffffff16886000015173ffffffffffffffffffffffffffffffffffffffff16146111f5576111e66040518060400160405280600e81526020017f496e76616c6964207369676e657200000000000000000000000000000000000081525082610554565b600096505050505050506113fa565b6003846040516112059190614163565b9081526020016040518091039020600001600081548092919061122790614bb8565b919050555060005b8860400151518110156113e05760008960400151828151811061127b577f4e487b7100000000000000000000000000000000000000000000000000000000600052603260045260246000fd5b602002602001015160000151905060008a6040015183815181106112c8577f4e487b7100000000000000000000000000000000000000000000000000000000600052603260045260246000fd5b602002602001015160200151905060006004886040516112e89190614163565b908152602001604051809103902060008481526020019081526020016000209050818160000154106113ca57818160000160008282546113289190614a76565b925050819055508815611351578181600101600082825461134991906149e2565b925050819055505b816000808c73ffffffffffffffffffffffffffffffffffffffff1673ffffffffffffffffffffffffffffffffffffffff168152602001908152602001600020600085815260200190815260200160002060008282546113b091906148ca565b925050819055506113c96113c384612af6565b83611635565b5b50505080806113d890614bb8565b91505061122f565b506113ef868960000151612237565b600196505050505050505b919050565b6003818051602081018201805184825260208301602085012081835280955050505050506000915090508060000154908060010154908060020154908060030154908060040160009054906101000a900460ff16905085565b611460612eae565b600061146c8484610736565b90506000604051806040016040528060038460405161148b9190614163565b90815260200160405180910390206040518060a0016040529081600082015481526020016001820154815260200160028201548152602001600382015481526020016004820160009054906101000a900460ff161515151581525050815260200160058054905067ffffffffffffffff811115611531577f4e487b7100000000000000000000000000000000000000000000000000000000600052604160045260246000fd5b60405190808252806020026020018201604052801561156a57816020015b611557612ece565b81526020019060019003908161154f5790505b50815250905060005b600580549050811015611629576004836040516115909190614163565b90815260200160405180910390206000828152602001908152602001600020604051806040016040529081600082015481526020016001820154815250508260200151828151811061160b577f4e487b7100000000000000000000000000000000000000000000000000000000600052603260045260246000fd5b6020026020010181905250808061162190614bb8565b915050611573565b50809250505092915050565b7f941296a39ea107bde685522318a4b6c2b544904a5dd82a512748ca2cf839bef782826040516116669291906143f5565b60405180910390a15050565b6000803390506000611688828560000151610736565b9050600081856020015186604001516040516020016116a993929190614297565b604051602081830303815290604052905060006116cc8280519060200120612a4c565b905061170d6040518060400160405280600b81526020017f656e636f646564206d736700000000000000000000000000000000000000000081525083610517565b600061171d828860600151612a7c565b905061175e6040518060400160405280600681526020017f7369676e6572000000000000000000000000000000000000000000000000000081525082610554565b6000876000015173ffffffffffffffffffffffffffffffffffffffff168673ffffffffffffffffffffffffffffffffffffffff16106117a15787600001516117a3565b855b90506000886000015173ffffffffffffffffffffffffffffffffffffffff168773ffffffffffffffffffffffffffffffffffffffff16106117e457866117ea565b88600001515b90506117fa878a60000151612237565b60005b89604001515181101561205f5760008a604001518281518110611849577f4e487b7100000000000000000000000000000000000000000000000000000000600052603260045260246000fd5b602002602001015160000151905060006004896040516118699190614163565b908152602001604051809103902060008381526020019081526020016000209050600081600101548d6040015185815181106118ce577f4e487b7100000000000000000000000000000000000000000000000000000000600052603260045260246000fd5b6020026020010151602001516118e49190614836565b90506119256040518060400160405280600581526020017f64656c7461000000000000000000000000000000000000000000000000000000815250826107bd565b6119ac6040518060400160405280600881526020017f6f666664656c74610000000000000000000000000000000000000000000000008152508e60400151868151811061199b577f4e487b7100000000000000000000000000000000000000000000000000000000600052603260045260246000fd5b6020026020010151602001516107bd565b600081121580156119c1575081600001548113155b15611aac576000819050806000808973ffffffffffffffffffffffffffffffffffffffff1673ffffffffffffffffffffffffffffffffffffffff16815260200190815260200160002060008681526020019081526020016000206000828254611a2a91906148ca565b92505081905550808360000154611a419190614a76565b6000808873ffffffffffffffffffffffffffffffffffffffff1673ffffffffffffffffffffffffffffffffffffffff16815260200190815260200160002060008681526020019081526020016000206000828254611a9f91906148ca565b9250508190555050612007565b6000808212611abb5786611abd565b855b90506000808312611ace5786611ad0565b875b90506000808412611af057846000015484611aeb9190614a76565b611afb565b83611afa90614c2f565b5b9050611b3c6040518060400160405280600f81526020017f6765747320636f6c6c61746572616c000000000000000000000000000000000081525084610554565b611b7b6040518060400160405280600981526020017f676574732064656274000000000000000000000000000000000000000000000081525083610554565b611bba6040518060400160405280600481526020017f646562740000000000000000000000000000000000000000000000000000000081525082611635565b84600001546000808573ffffffffffffffffffffffffffffffffffffffff1673ffffffffffffffffffffffffffffffffffffffff16815260200190815260200160002060008881526020019081526020016000206000828254611c1d91906148ca565b92505081905550806000808473ffffffffffffffffffffffffffffffffffffffff1673ffffffffffffffffffffffffffffffffffffffff16815260200190815260200160002060008881526020019081526020016000205410611d4b57806000808573ffffffffffffffffffffffffffffffffffffffff1673ffffffffffffffffffffffffffffffffffffffff16815260200190815260200160002060008881526020019081526020016000206000828254611cd991906148ca565b92505081905550806000808473ffffffffffffffffffffffffffffffffffffffff1673ffffffffffffffffffffffffffffffffffffffff16815260200190815260200160002060008881526020019081526020016000206000828254611d3f9190614a76565b92505081905550612003565b60008060008473ffffffffffffffffffffffffffffffffffffffff1673ffffffffffffffffffffffffffffffffffffffff1681526020019081526020016000206000888152602001908152602001600020541115611f0b576000808373ffffffffffffffffffffffffffffffffffffffff1673ffffffffffffffffffffffffffffffffffffffff1681526020019081526020016000206000878152602001908152602001600020546000808573ffffffffffffffffffffffffffffffffffffffff1673ffffffffffffffffffffffffffffffffffffffff16815260200190815260200160002060008881526020019081526020016000206000828254611e5191906148ca565b925050819055506000808373ffffffffffffffffffffffffffffffffffffffff1673ffffffffffffffffffffffffffffffffffffffff16815260200190815260200160002060008781526020019081526020016000205481611eb39190614a76565b905060008060008473ffffffffffffffffffffffffffffffffffffffff1673ffffffffffffffffffffffffffffffffffffffff1681526020019081526020016000206000888152602001908152602001600020819055505b600260008373ffffffffffffffffffffffffffffffffffffffff1673ffffffffffffffffffffffffffffffffffffffff168152602001908152602001600020600087815260200190815260200160002060405180604001604052808381526020018573ffffffffffffffffffffffffffffffffffffffff1681525090806001815401808255809150506001900390600052602060002090600202016000909190919091506000820151816000015560208201518160010160006101000a81548173ffffffffffffffffffffffffffffffffffffffff021916908373ffffffffffffffffffffffffffffffffffffffff16021790555050505b5050505b60048a6040516120179190614163565b9081526020016040518091039020600084815260200190815260200160002060008082016000905560018201600090555050505050808061205790614bb8565b9150506117fd565b506003866040516120709190614163565b90815260200160405180910390206000808201600090556001820160009055600282016000905560038201600090556004820160006101000a81549060ff021916905550506120c3878a60000151612237565b6001975050505050505050919050565b60606000600160008473ffffffffffffffffffffffffffffffffffffffff1673ffffffffffffffffffffffffffffffffffffffff1681526020019081526020016000206000808152602001908152602001600020549050600260008473ffffffffffffffffffffffffffffffffffffffff1673ffffffffffffffffffffffffffffffffffffffff1681526020019081526020016000206000808152602001908152602001600020805480602002602001604051908101604052809291908181526020016000905b8282101561222c5783829060005260206000209060020201604051806040016040529081600082015481526020016001820160009054906101000a900473ffffffffffffffffffffffffffffffffffffffff1673ffffffffffffffffffffffffffffffffffffffff1673ffffffffffffffffffffffffffffffffffffffff16815250508152602001906001019061219a565b505050509150915091565b60006122438383610736565b90506122846040518060400160405280601281526020017f3e3e3e4c6f6767696e67206368616e6e656c000000000000000000000000000081525082610517565b6122e46040518060400160405280600e81526020017f77697468647261775f6e6f6e63650000000000000000000000000000000000008152506003836040516122cd9190614163565b908152602001604051809103902060000154611635565b6123446040518060400160405280600d81526020017f646973707574655f6e6f6e63650000000000000000000000000000000000000081525060038360405161232d9190614163565b908152602001604051809103902060010154611635565b60005b6005805490508110156125a4576123936040518060400160405280600581526020017f417373657400000000000000000000000000000000000000000000000000000081525082611635565b6124216040518060400160405280600981526020017f4c2062616c616e636500000000000000000000000000000000000000000000008152506000808773ffffffffffffffffffffffffffffffffffffffff1673ffffffffffffffffffffffffffffffffffffffff168152602001908152602001600020600084815260200190815260200160002054611635565b6124af6040518060400160405280600981526020017f522062616c616e636500000000000000000000000000000000000000000000008152506000808673ffffffffffffffffffffffffffffffffffffffff1673ffffffffffffffffffffffffffffffffffffffff168152602001908152602001600020600084815260200190815260200160002054611635565b6125206040518060400160405280600a81526020017f636f6c6c61746572616c000000000000000000000000000000000000000000008152506004846040516124f89190614163565b9081526020016040518091039020600084815260200190815260200160002060000154611635565b6125916040518060400160405280600781526020017f6f6e64656c7461000000000000000000000000000000000000000000000000008152506004846040516125699190614163565b90815260200160405180910390206000848152602001908152602001600020600101546107bd565b808061259c90614bb8565b915050612347565b50505050565b7f4c34c2f9a78632f29fa59aaed5514cb742fd9fbcfd7ccc2c03c85f2bbc621c4782826040516125db92919061432e565b60405180910390a15050565b600581815481106125f757600080fd5b9060005260206000200160009150905080600001805461261690614b55565b80601f016020809104026020016040519081016040528092919081815260200182805461264290614b55565b801561268f5780601f106126645761010080835404028352916020019161268f565b820191906000526020600020905b81548152906001019060200180831161267257829003601f168201915b5050505050905081565b600080826020015173ffffffffffffffffffffffffffffffffffffffff16836000015173ffffffffffffffffffffffffffffffffffffffff1610905061274c6040518060400160405280600981526020017f656e756d20747970650000000000000000000000000000000000000000000000815250600380811115612747577f4e487b7100000000000000000000000000000000000000000000000000000000600052602160045260246000fd5b611635565b61275e83600001518460200151612237565b60005b836040015151811015612a2e576000846040015182815181106127ad577f4e487b7100000000000000000000000000000000000000000000000000000000600052603260045260246000fd5b60200260200101516000015190506000856040015183815181106127fa577f4e487b7100000000000000000000000000000000000000000000000000000000600052603260045260246000fd5b6020026020010151602001519050806000803373ffffffffffffffffffffffffffffffffffffffff1673ffffffffffffffffffffffffffffffffffffffff168152602001908152602001600020600084815260200190815260200160002054106129cd576000600461287488600001518960200151610736565b6040516128819190614163565b908152602001604051809103902060008481526020019081526020016000209050816000803373ffffffffffffffffffffffffffffffffffffffff1673ffffffffffffffffffffffffffffffffffffffff168152602001908152602001600020600085815260200190815260200160002060008282546129019190614a76565b925050819055508181600001600082825461291c91906148ca565b925050819055508415612988578181600101600082825461293d9190614836565b925050819055506129876040518060400160405280600b81526020017f6e6577206f6e64656c746100000000000000000000000000000000000000000081525082600101546107bd565b5b6129c76040518060400160405280601581526020017f4465706f736974656420746f206368616e6e656c20000000000000000000000081525083611635565b50612a19565b612a0c6040518060400160405280601081526020017f6e6f7420656e6f7567682066756e64730000000000000000000000000000000081525033610554565b6000945050505050612a47565b50508080612a2690614bb8565b915050612761565b50612a4183600001518460200151612237565b60019150505b919050565b600081604051602001612a5f919061417a565b604051602081830303815290604052805190602001209050919050565b60006041825114612ac2576040517f08c379a0000000000000000000000000000000000000000000000000000000008152600401612ab990614445565b60405180910390fd5b60008060006020850151925060408501519150606085015160001a9050612aeb86828585612ccb565b935050505092915050565b60606000821415612b3e576040518060400160405280600181526020017f30000000000000000000000000000000000000000000000000000000000000008152509050612cc6565b600082905060005b60008214612b70578080612b5990614bb8565b915050600a82612b699190614957565b9150612b46565b60008167ffffffffffffffff811115612bb2577f4e487b7100000000000000000000000000000000000000000000000000000000600052604160045260246000fd5b6040519080825280601f01601f191660200182016040528015612be45781602001600182028036833780820191505090505b50905060008290505b60008614612cbe57600181612c029190614a76565b90506000600a8088612c149190614957565b612c1e9190614988565b87612c299190614a76565b6030612c359190614920565b905060008160f81b905080848481518110612c79577f4e487b7100000000000000000000000000000000000000000000000000000000600052603260045260246000fd5b60200101907effffffffffffffffffffffffffffffffffffffffffffffffffffffffffffff1916908160001a905350600a88612cb59190614957565b97505050612bed565b819450505050505b919050565b60007f7fffffffffffffffffffffffffffffff5d576e7357a4501ddfe92f46681b20a08260001c1115612d33576040517f08c379a0000000000000000000000000000000000000000000000000000000008152600401612d2a90614465565b60405180910390fd5b601b8460ff161480612d485750601c8460ff16145b612d87576040517f08c379a0000000000000000000000000000000000000000000000000000000008152600401612d7e90614485565b60405180910390fd5b600060018686868660405160008152602001604052604051612dac94939291906141eb565b6020604051602081039080840390855afa158015612dce573d6000803e3d6000fd5b505050602060405103519050600073ffffffffffffffffffffffffffffffffffffffff168173ffffffffffffffffffffffffffffffffffffffff161415612e4a576040517f08c379a0000000000000000000000000000000000000000000000000000000008152600401612e4190614425565b60405180910390fd5b80915050949350505050565b5080546000825560020290600052602060002090810190612e779190612ee8565b50565b6040518060200160405280606081525090565b60405180606001604052806000815260200160608152602001600081525090565b6040518060400160405280612ec1612f2e565b8152602001606081525090565b604051806040016040528060008152602001600081525090565b5b80821115612f2a576000808201600090556001820160006101000a81549073ffffffffffffffffffffffffffffffffffffffff021916905550600201612ee9565b5090565b6040518060a00160405280600081526020016000815260200160008152602001600080191681526020016000151581525090565b6000612f75612f708461457c565b614557565b90508083825260208201905082856040860282011115612f9457600080fd5b60005b85811015612fc45781612faa8882613347565b845260208401935060408301925050600181019050612f97565b5050509392505050565b6000612fe1612fdc846145a8565b614557565b9050808382526020820190508260005b8581101561302157813585016130078882613393565b845260208401935060208301925050600181019050612ff1565b5050509392505050565b600061303e613039846145d4565b614557565b9050808382526020820190508285604086028201111561305d57600080fd5b60005b8581101561308d5781613073888261340b565b845260208401935060408301925050600181019050613060565b5050509392505050565b60006130aa6130a584614600565b614557565b9050808382526020820190508260005b858110156130ea57813585016130d08882613457565b8452602084019350602083019250506001810190506130ba565b5050509392505050565b60006131076131028461462c565b614557565b9050808382526020820190508260005b85811015613147578135850161312d88826134fb565b845260208401935060208301925050600181019050613117565b5050509392505050565b600061316461315f84614658565b614557565b90508281526020810184848401111561317c57600080fd5b613187848285614b13565b509392505050565b60006131a261319d84614689565b614557565b9050828152602081018484840111156131ba57600080fd5b6131c5848285614b13565b509392505050565b6000813590506131dc81614e6b565b92915050565b600082601f8301126131f357600080fd5b8135613203848260208601612f62565b91505092915050565b600082601f83011261321d57600080fd5b813561322d848260208601612fce565b91505092915050565b600082601f83011261324757600080fd5b813561325784826020860161302b565b91505092915050565b600082601f83011261327157600080fd5b8135613281848260208601613097565b91505092915050565b600082601f83011261329b57600080fd5b81356132ab8482602086016130f4565b91505092915050565b6000813590506132c381614e82565b92915050565b6000813590506132d881614e99565b92915050565b600082601f8301126132ef57600080fd5b81356132ff848260208601613151565b91505092915050565b60008135905061331781614eb0565b92915050565b600082601f83011261332e57600080fd5b813561333e84826020860161318f565b91505092915050565b60006040828403121561335957600080fd5b6133636040614557565b905060006133738482850161359f565b60008301525060206133878482850161359f565b60208301525092915050565b6000606082840312156133a557600080fd5b6133af6060614557565b905060006133bf848285016131cd565b60008301525060206133d3848285016131cd565b602083015250604082013567ffffffffffffffff8111156133f357600080fd5b6133ff848285016131e2565b60408301525092915050565b60006040828403121561341d57600080fd5b6134276040614557565b905060006134378482850161359f565b600083015250602061344b84828501613308565b60208301525092915050565b60006080828403121561346957600080fd5b6134736080614557565b90506000613483848285016131cd565b60008301525060206134978482850161359f565b602083015250604082013567ffffffffffffffff8111156134b757600080fd5b6134c384828501613236565b604083015250606082013567ffffffffffffffff8111156134e357600080fd5b6134ef848285016132de565b60608301525092915050565b60006080828403121561350d57600080fd5b6135176080614557565b90506000613527848285016131cd565b600083015250602061353b8482850161359f565b602083015250604082013567ffffffffffffffff81111561355b57600080fd5b613567848285016131e2565b604083015250606082013567ffffffffffffffff81111561358757600080fd5b613593848285016132de565b60608301525092915050565b6000813590506135ae81614ec7565b92915050565b6000602082840312156135c657600080fd5b60006135d4848285016131cd565b91505092915050565b600080604083850312156135f057600080fd5b60006135fe858286016131cd565b925050602061360f858286016131cd565b9150509250929050565b60008060006060848603121561362e57600080fd5b600061363c868287016131cd565b935050602061364d868287016131cd565b925050604061365e8682870161359f565b9150509250925092565b6000806040838503121561367b57600080fd5b6000613689858286016131cd565b925050602061369a8582860161359f565b9150509250929050565b6000806000606084860312156136b957600080fd5b600084013567ffffffffffffffff8111156136d357600080fd5b6136df8682870161328a565b935050602084013567ffffffffffffffff8111156136fc57600080fd5b6137088682870161320c565b925050604084013567ffffffffffffffff81111561372557600080fd5b61373186828701613260565b9150509250925092565b60006020828403121561374d57600080fd5b600082013567ffffffffffffffff81111561376757600080fd5b613773848285016132de565b91505092915050565b6000806040838503121561378f57600080fd5b600083013567ffffffffffffffff8111156137a957600080fd5b6137b58582860161331d565b92505060206137c6858286016131cd565b9150509250929050565b600080604083850312156137e357600080fd5b600083013567ffffffffffffffff8111156137fd57600080fd5b6138098582860161331d565b925050602061381a858286016132b4565b9150509250929050565b6000806040838503121561383757600080fd5b600083013567ffffffffffffffff81111561385157600080fd5b61385d8582860161331d565b925050602061386e858286016132c9565b9150509250929050565b6000806040838503121561388b57600080fd5b600083013567ffffffffffffffff8111156138a557600080fd5b6138b18582860161331d565b925050602083013567ffffffffffffffff8111156138ce57600080fd5b6138da858286016132de565b9150509250929050565b600080604083850312156138f757600080fd5b600083013567ffffffffffffffff81111561391157600080fd5b61391d8582860161331d565b925050602061392e85828601613308565b9150509250929050565b6000806040838503121561394b57600080fd5b600083013567ffffffffffffffff81111561396557600080fd5b6139718582860161331d565b92505060206139828582860161359f565b9150509250929050565b60006020828403121561399e57600080fd5b600082013567ffffffffffffffff8111156139b857600080fd5b6139c484828501613393565b91505092915050565b6000602082840312156139df57600080fd5b600082013567ffffffffffffffff8111156139f957600080fd5b613a0584828501613457565b91505092915050565b600060208284031215613a2057600080fd5b600082013567ffffffffffffffff811115613a3a57600080fd5b613a46848285016134fb565b91505092915050565b600060208284031215613a6157600080fd5b6000613a6f8482850161359f565b91505092915050565b6000613a848383613f2f565b60408301905092915050565b6000613a9c8383613f5e565b905092915050565b6000613ab08383614053565b60408301905092915050565b6000613ac88383614082565b60408301905092915050565b6000613ae083836140b1565b60408301905092915050565b613af581614aaa565b82525050565b613b0481614aaa565b82525050565b613b1b613b1682614aaa565b614c01565b82525050565b6000613b2c8261470a565b613b368185614798565b9350613b41836146ba565b8060005b83811015613b72578151613b598882613a78565b9750613b6483614757565b925050600181019050613b45565b5085935050505092915050565b6000613b8a82614715565b613b9481856147a9565b935083602082028501613ba6856146ca565b8060005b85811015613be25784840389528151613bc38582613a90565b9450613bce83614764565b925060208a01995050600181019050613baa565b50829750879550505050505092915050565b6000613bff82614720565b613c0981856147ba565b9350613c14836146da565b8060005b83811015613c45578151613c2c8882613aa4565b9750613c3783614771565b925050600181019050613c18565b5085935050505092915050565b6000613c5d8261472b565b613c6781856147cb565b9350613c72836146ea565b8060005b83811015613ca3578151613c8a8882613abc565b9750613c958361477e565b925050600181019050613c76565b5085935050505092915050565b6000613cbb8261472b565b613cc581856147dc565b9350613cd0836146ea565b8060005b83811015613d01578151613ce88882613abc565b9750613cf38361477e565b925050600181019050613cd4565b5085935050505092915050565b6000613d1982614736565b613d2381856147ed565b9350613d2e836146fa565b8060005b83811015613d5f578151613d468882613ad4565b9750613d518361478b565b925050600181019050613d32565b5085935050505092915050565b613d7581614abc565b82525050565b613d8481614abc565b82525050565b613d9381614ac8565b82525050565b613da281614ac8565b82525050565b613db9613db482614ac8565b614c13565b82525050565b6000613dca82614741565b613dd481856147fe565b9350613de4818560208601614b22565b613ded81614d34565b840191505092915050565b6000613e0382614741565b613e0d818561480f565b9350613e1d818560208601614b22565b80840191505092915050565b613e3281614ad2565b82525050565b613e4181614ad2565b82525050565b6000613e528261474c565b613e5c818561481a565b9350613e6c818560208601614b22565b613e7581614d34565b840191505092915050565b6000613e8d60188361481a565b9150613e9882614d52565b602082019050919050565b6000613eb0601f8361481a565b9150613ebb82614d7b565b602082019050919050565b6000613ed3601c8361482b565b9150613ede82614da4565b601c82019050919050565b6000613ef660228361481a565b9150613f0182614dcd565b604082019050919050565b6000613f1960228361481a565b9150613f2482614e1c565b604082019050919050565b604082016000820151613f45600085018261410a565b506020820151613f58602085018261410a565b50505050565b6000606083016000830151613f76600086018261410a565b5060208301518482036020860152613f8e8282613c52565b9150506040830151613fa3604086018261410a565b508091505092915050565b600060c083016000830151613fc66000860182613feb565b50602083015184820360a0860152613fde8282613bf4565b9150508091505092915050565b60a082016000820151614001600085018261410a565b506020820151614014602085018261410a565b506040820151614027604085018261410a565b50606082015161403a6060850182613d8a565b50608082015161404d6080850182613d6c565b50505050565b604082016000820151614069600085018261410a565b50602082015161407c6020850182613e29565b50505050565b604082016000820151614098600085018261410a565b5060208201516140ab6020850182613aec565b50505050565b6040820160008201516140c7600085018261410a565b5060208201516140da6020850182613e29565b50505050565b600060208301600083015184820360008601526140fd8282613b7f565b9150508091505092915050565b61411381614afc565b82525050565b61412281614afc565b82525050565b61413181614b06565b82525050565b60006141438285613b0a565b6014820191506141538284613b0a565b6014820191508190509392505050565b600061416f8284613df8565b915081905092915050565b600061418582613ec6565b91506141918284613da8565b60208201915081905092915050565b600060408201905081810360008301526141ba8185613cb0565b90506141c96020830184614119565b9392505050565b60006020820190506141e56000830184613d7b565b92915050565b60006080820190506142006000830187613d99565b61420d6020830186614128565b61421a6040830185613d99565b6142276060830184613d99565b95945050505050565b6000602082019050818103600083015261424a8184613dbf565b905092915050565b6000606082019050818103600083015261426c8186613dbf565b905061427b6020830185614119565b818103604083015261428d8184613b21565b9050949350505050565b600060608201905081810360008301526142b18186613dbf565b90506142c06020830185614119565b81810360408301526142d28184613d0e565b9050949350505050565b600060208201905081810360008301526142f68184613e47565b905092915050565b600060408201905081810360008301526143188185613e47565b90506143276020830184613afb565b9392505050565b600060408201905081810360008301526143488185613e47565b90506143576020830184613d7b565b9392505050565b600060408201905081810360008301526143788185613e47565b90506143876020830184613d99565b9392505050565b600060408201905081810360008301526143a88185613e47565b905081810360208301526143bc8184613dbf565b90509392505050565b600060408201905081810360008301526143df8185613e47565b90506143ee6020830184613e38565b9392505050565b6000604082019050818103600083015261440f8185613e47565b905061441e6020830184614119565b9392505050565b6000602082019050818103600083015261443e81613e80565b9050919050565b6000602082019050818103600083015261445e81613ea3565b9050919050565b6000602082019050818103600083015261447e81613ee9565b9050919050565b6000602082019050818103600083015261449e81613f0c565b9050919050565b600060208201905081810360008301526144bf8184613fae565b905092915050565b600060208201905081810360008301526144e181846140e0565b905092915050565b60006020820190506144fe6000830184614119565b92915050565b600060a0820190506145196000830188614119565b6145266020830187614119565b6145336040830186614119565b6145406060830185613d99565b61454d6080830184613d7b565b9695505050505050565b6000614561614572565b905061456d8282614b87565b919050565b6000604051905090565b600067ffffffffffffffff82111561459757614596614d05565b5b602082029050602081019050919050565b600067ffffffffffffffff8211156145c3576145c2614d05565b5b602082029050602081019050919050565b600067ffffffffffffffff8211156145ef576145ee614d05565b5b602082029050602081019050919050565b600067ffffffffffffffff82111561461b5761461a614d05565b5b602082029050602081019050919050565b600067ffffffffffffffff82111561464757614646614d05565b5b602082029050602081019050919050565b600067ffffffffffffffff82111561467357614672614d05565b5b61467c82614d34565b9050602081019050919050565b600067ffffffffffffffff8211156146a4576146a3614d05565b5b6146ad82614d34565b9050602081019050919050565b6000819050602082019050919050565b6000819050602082019050919050565b6000819050602082019050919050565b6000819050602082019050919050565b6000819050602082019050919050565b600081519050919050565b600081519050919050565b600081519050919050565b600081519050919050565b600081519050919050565b600081519050919050565b600081519050919050565b6000602082019050919050565b6000602082019050919050565b6000602082019050919050565b6000602082019050919050565b6000602082019050919050565b600082825260208201905092915050565b600082825260208201905092915050565b600082825260208201905092915050565b600082825260208201905092915050565b600082825260208201905092915050565b600082825260208201905092915050565b600082825260208201905092915050565b600081905092915050565b600082825260208201905092915050565b600081905092915050565b600061484182614ad2565b915061484c83614ad2565b9250817f7fffffffffffffffffffffffffffffffffffffffffffffffffffffffffffffff0383136000831215161561488757614886614c78565b5b817f80000000000000000000000000000000000000000000000000000000000000000383126000831216156148bf576148be614c78565b5b828201905092915050565b60006148d582614afc565b91506148e083614afc565b9250827fffffffffffffffffffffffffffffffffffffffffffffffffffffffffffffffff0382111561491557614914614c78565b5b828201905092915050565b600061492b82614b06565b915061493683614b06565b92508260ff0382111561494c5761494b614c78565b5b828201905092915050565b600061496282614afc565b915061496d83614afc565b92508261497d5761497c614ca7565b5b828204905092915050565b600061499382614afc565b915061499e83614afc565b9250817fffffffffffffffffffffffffffffffffffffffffffffffffffffffffffffffff04831182151516156149d7576149d6614c78565b5b828202905092915050565b60006149ed82614ad2565b91506149f883614ad2565b9250827f800000000000000000000000000000000000000000000000000000000000000001821260008412151615614a3357614a32614c78565b5b827f7fffffffffffffffffffffffffffffffffffffffffffffffffffffffffffffff018213600084121615614a6b57614a6a614c78565b5b828203905092915050565b6000614a8182614afc565b9150614a8c83614afc565b925082821015614a9f57614a9e614c78565b5b828203905092915050565b6000614ab582614adc565b9050919050565b60008115159050919050565b6000819050919050565b6000819050919050565b600073ffffffffffffffffffffffffffffffffffffffff82169050919050565b6000819050919050565b600060ff82169050919050565b82818337600083830152505050565b60005b83811015614b40578082015181840152602081019050614b25565b83811115614b4f576000848401525b50505050565b60006002820490506001821680614b6d57607f821691505b60208210811415614b8157614b80614cd6565b5b50919050565b614b9082614d34565b810181811067ffffffffffffffff82111715614baf57614bae614d05565b5b80604052505050565b6000614bc382614afc565b91507fffffffffffffffffffffffffffffffffffffffffffffffffffffffffffffffff821415614bf657614bf5614c78565b5b600182019050919050565b6000614c0c82614c1d565b9050919050565b6000819050919050565b6000614c2882614d45565b9050919050565b6000614c3a82614ad2565b91507f8000000000000000000000000000000000000000000000000000000000000000821415614c6d57614c6c614c78565b5b816000039050919050565b7f4e487b7100000000000000000000000000000000000000000000000000000000600052601160045260246000fd5b7f4e487b7100000000000000000000000000000000000000000000000000000000600052601260045260246000fd5b7f4e487b7100000000000000000000000000000000000000000000000000000000600052602260045260246000fd5b7f4e487b7100000000000000000000000000000000000000000000000000000000600052604160045260246000fd5b6000601f19601f8301169050919050565b60008160601b9050919050565b7f45434453413a20696e76616c6964207369676e61747572650000000000000000600082015250565b7f45434453413a20696e76616c6964207369676e6174757265206c656e67746800600082015250565b7f19457468657265756d205369676e6564204d6573736167653a0a333200000000600082015250565b7f45434453413a20696e76616c6964207369676e6174757265202773272076616c60008201527f7565000000000000000000000000000000000000000000000000000000000000602082015250565b7f45434453413a20696e76616c6964207369676e6174757265202776272076616c60008201527f7565000000000000000000000000000000000000000000000000000000000000602082015250565b614e7481614aaa565b8114614e7f57600080fd5b50565b614e8b81614abc565b8114614e9657600080fd5b50565b614ea281614ac8565b8114614ead57600080fd5b50565b614eb981614ad2565b8114614ec457600080fd5b50565b614ed081614afc565b8114614edb57600080fd5b5056fea264697066735822122047d9598e14bc5feec638d0e32aaa76c81c2c4b2ae957eea711d648090ab8a7f264736f6c63430008010033",
			"opcodes": "PUSH1 0x80 PUSH1 0x40 MSTORE CALLVALUE DUP1 ISZERO PUSH3 0x11 JUMPI PUSH1 0x0 DUP1 REVERT JUMPDEST POP PUSH1 0x5 PUSH1 0x40 MLOAD DUP1 PUSH1 0x20 ADD PUSH1 0x40 MSTORE DUP1 PUSH1 0x40 MLOAD DUP1 PUSH1 0x40 ADD PUSH1 0x40 MSTORE DUP1 PUSH1 0x4 DUP2 MSTORE PUSH1 0x20 ADD PUSH32 0x5745544800000000000000000000000000000000000000000000000000000000 DUP2 MSTORE POP DUP2 MSTORE POP SWAP1 DUP1 PUSH1 0x1 DUP2 SLOAD ADD DUP1 DUP3 SSTORE DUP1 SWAP2 POP POP PUSH1 0x1 SWAP1 SUB SWAP1 PUSH1 0x0 MSTORE PUSH1 0x20 PUSH1 0x0 KECCAK256 ADD PUSH1 0x0 SWAP1 SWAP2 SWAP1 SWAP2 SWAP1 SWAP2 POP PUSH1 0x0 DUP3 ADD MLOAD DUP2 PUSH1 0x0 ADD SWAP1 DUP1 MLOAD SWAP1 PUSH1 0x20 ADD SWAP1 PUSH3 0x9B SWAP3 SWAP2 SWAP1 PUSH3 0x23A JUMP JUMPDEST POP POP POP PUSH1 0x5 PUSH1 0x40 MLOAD DUP1 PUSH1 0x20 ADD PUSH1 0x40 MSTORE DUP1 PUSH1 0x40 MLOAD DUP1 PUSH1 0x40 ADD PUSH1 0x40 MSTORE DUP1 PUSH1 0x3 DUP2 MSTORE PUSH1 0x20 ADD PUSH32 0x4441490000000000000000000000000000000000000000000000000000000000 DUP2 MSTORE POP DUP2 MSTORE POP SWAP1 DUP1 PUSH1 0x1 DUP2 SLOAD ADD DUP1 DUP3 SSTORE DUP1 SWAP2 POP POP PUSH1 0x1 SWAP1 SUB SWAP1 PUSH1 0x0 MSTORE PUSH1 0x20 PUSH1 0x0 KECCAK256 ADD PUSH1 0x0 SWAP1 SWAP2 SWAP1 SWAP2 SWAP1 SWAP2 POP PUSH1 0x0 DUP3 ADD MLOAD DUP2 PUSH1 0x0 ADD SWAP1 DUP1 MLOAD SWAP1 PUSH1 0x20 ADD SWAP1 PUSH3 0x127 SWAP3 SWAP2 SWAP1 PUSH3 0x23A JUMP JUMPDEST POP POP POP PUSH4 0x5F5E100 PUSH1 0x0 DUP1 CALLER PUSH20 0xFFFFFFFFFFFFFFFFFFFFFFFFFFFFFFFFFFFFFFFF AND PUSH20 0xFFFFFFFFFFFFFFFFFFFFFFFFFFFFFFFFFFFFFFFF AND DUP2 MSTORE PUSH1 0x20 ADD SWAP1 DUP2 MSTORE PUSH1 0x20 ADD PUSH1 0x0 KECCAK256 PUSH1 0x0 DUP1 DUP2 MSTORE PUSH1 0x20 ADD SWAP1 DUP2 MSTORE PUSH1 0x20 ADD PUSH1 0x0 KECCAK256 DUP2 SWAP1 SSTORE POP PUSH4 0x5F5E100 PUSH1 0x0 DUP1 CALLER PUSH20 0xFFFFFFFFFFFFFFFFFFFFFFFFFFFFFFFFFFFFFFFF AND PUSH20 0xFFFFFFFFFFFFFFFFFFFFFFFFFFFFFFFFFFFFFFFF AND DUP2 MSTORE PUSH1 0x20 ADD SWAP1 DUP2 MSTORE PUSH1 0x20 ADD PUSH1 0x0 KECCAK256 PUSH1 0x0 PUSH1 0x1 DUP2 MSTORE PUSH1 0x20 ADD SWAP1 DUP2 MSTORE PUSH1 0x20 ADD PUSH1 0x0 KECCAK256 DUP2 SWAP1 SSTORE POP PUSH4 0x5F5E100 PUSH1 0x0 DUP1 CALLER PUSH20 0xFFFFFFFFFFFFFFFFFFFFFFFFFFFFFFFFFFFFFFFF AND PUSH20 0xFFFFFFFFFFFFFFFFFFFFFFFFFFFFFFFFFFFFFFFF AND DUP2 MSTORE PUSH1 0x20 ADD SWAP1 DUP2 MSTORE PUSH1 0x20 ADD PUSH1 0x0 KECCAK256 PUSH1 0x0 PUSH1 0x2 DUP2 MSTORE PUSH1 0x20 ADD SWAP1 DUP2 MSTORE PUSH1 0x20 ADD PUSH1 0x0 KECCAK256 DUP2 SWAP1 SSTORE POP PUSH3 0x34F JUMP JUMPDEST DUP3 DUP1 SLOAD PUSH3 0x248 SWAP1 PUSH3 0x2EA JUMP JUMPDEST SWAP1 PUSH1 0x0 MSTORE PUSH1 0x20 PUSH1 0x0 KECCAK256 SWAP1 PUSH1 0x1F ADD PUSH1 0x20 SWAP1 DIV DUP2 ADD SWAP3 DUP3 PUSH3 0x26C JUMPI PUSH1 0x0 DUP6 SSTORE PUSH3 0x2B8 JUMP JUMPDEST DUP3 PUSH1 0x1F LT PUSH3 0x287 JUMPI DUP1 MLOAD PUSH1 0xFF NOT AND DUP4 DUP1 ADD OR DUP6 SSTORE PUSH3 0x2B8 JUMP JUMPDEST DUP3 DUP1 ADD PUSH1 0x1 ADD DUP6 SSTORE DUP3 ISZERO PUSH3 0x2B8 JUMPI SWAP2 DUP3 ADD JUMPDEST DUP3 DUP2 GT ISZERO PUSH3 0x2B7 JUMPI DUP3 MLOAD DUP3 SSTORE SWAP2 PUSH1 0x20 ADD SWAP2 SWAP1 PUSH1 0x1 ADD SWAP1 PUSH3 0x29A JUMP JUMPDEST JUMPDEST POP SWAP1 POP PUSH3 0x2C7 SWAP2 SWAP1 PUSH3 0x2CB JUMP JUMPDEST POP SWAP1 JUMP JUMPDEST JUMPDEST DUP1 DUP3 GT ISZERO PUSH3 0x2E6 JUMPI PUSH1 0x0 DUP2 PUSH1 0x0 SWAP1 SSTORE POP PUSH1 0x1 ADD PUSH3 0x2CC JUMP JUMPDEST POP SWAP1 JUMP JUMPDEST PUSH1 0x0 PUSH1 0x2 DUP3 DIV SWAP1 POP PUSH1 0x1 DUP3 AND DUP1 PUSH3 0x303 JUMPI PUSH1 0x7F DUP3 AND SWAP2 POP JUMPDEST PUSH1 0x20 DUP3 LT DUP2 EQ ISZERO PUSH3 0x31A JUMPI PUSH3 0x319 PUSH3 0x320 JUMP JUMPDEST JUMPDEST POP SWAP2 SWAP1 POP JUMP JUMPDEST PUSH32 0x4E487B7100000000000000000000000000000000000000000000000000000000 PUSH1 0x0 MSTORE PUSH1 0x22 PUSH1 0x4 MSTORE PUSH1 0x24 PUSH1 0x0 REVERT JUMPDEST PUSH2 0x4F14 DUP1 PUSH3 0x35F PUSH1 0x0 CODECOPY PUSH1 0x0 RETURN INVALID PUSH1 0x80 PUSH1 0x40 MSTORE CALLVALUE DUP1 ISZERO PUSH2 0x10 JUMPI PUSH1 0x0 DUP1 REVERT JUMPDEST POP PUSH1 0x4 CALLDATASIZE LT PUSH2 0x121 JUMPI PUSH1 0x0 CALLDATALOAD PUSH1 0xE0 SHR DUP1 PUSH4 0x8B86BE3C GT PUSH2 0xAD JUMPI DUP1 PUSH4 0xBCD1E5F9 GT PUSH2 0x71 JUMPI DUP1 PUSH4 0xBCD1E5F9 EQ PUSH2 0x352 JUMPI DUP1 PUSH4 0xBF52638C EQ PUSH2 0x383 JUMPI DUP1 PUSH4 0xC3B55635 EQ PUSH2 0x39F JUMPI DUP1 PUSH4 0xCF35BDD0 EQ PUSH2 0x3BB JUMPI DUP1 PUSH4 0xD3D90B68 EQ PUSH2 0x3EB JUMPI PUSH2 0x121 JUMP JUMPDEST DUP1 PUSH4 0x8B86BE3C EQ PUSH2 0x272 JUMPI DUP1 PUSH4 0xA1A96A13 EQ PUSH2 0x2A2 JUMPI DUP1 PUSH4 0xAEE26D3F EQ PUSH2 0x2D6 JUMPI DUP1 PUSH4 0xB60E72CC EQ PUSH2 0x306 JUMPI DUP1 PUSH4 0xB7340E42 EQ PUSH2 0x322 JUMPI PUSH2 0x121 JUMP JUMPDEST DUP1 PUSH4 0x3692D61A GT PUSH2 0xF4 JUMPI DUP1 PUSH4 0x3692D61A EQ PUSH2 0x1AA JUMPI DUP1 PUSH4 0x3C4DEB11 EQ PUSH2 0x1C6 JUMPI DUP1 PUSH4 0x3CA6268E EQ PUSH2 0x1F6 JUMPI DUP1 PUSH4 0x428D9CC5 EQ PUSH2 0x212 JUMPI DUP1 PUSH4 0x6F77926B EQ PUSH2 0x242 JUMPI PUSH2 0x121 JUMP JUMPDEST DUP1 PUSH4 0xEB0AFA6 EQ PUSH2 0x126 JUMPI DUP1 PUSH4 0x23CDD8E8 EQ PUSH2 0x142 JUMPI DUP1 PUSH4 0x319AF333 EQ PUSH2 0x15E JUMPI DUP1 PUSH4 0x334F5940 EQ PUSH2 0x17A JUMPI JUMPDEST PUSH1 0x0 DUP1 REVERT JUMPDEST PUSH2 0x140 PUSH1 0x4 DUP1 CALLDATASIZE SUB DUP2 ADD SWAP1 PUSH2 0x13B SWAP2 SWAP1 PUSH2 0x3619 JUMP JUMPDEST PUSH2 0x41B JUMP JUMPDEST STOP JUMPDEST PUSH2 0x15C PUSH1 0x4 DUP1 CALLDATASIZE SUB DUP2 ADD SWAP1 PUSH2 0x157 SWAP2 SWAP1 PUSH2 0x3878 JUMP JUMPDEST PUSH2 0x517 JUMP JUMPDEST STOP JUMPDEST PUSH2 0x178 PUSH1 0x4 DUP1 CALLDATASIZE SUB DUP2 ADD SWAP1 PUSH2 0x173 SWAP2 SWAP1 PUSH2 0x377C JUMP JUMPDEST PUSH2 0x554 JUMP JUMPDEST STOP JUMPDEST PUSH2 0x194 PUSH1 0x4 DUP1 CALLDATASIZE SUB DUP2 ADD SWAP1 PUSH2 0x18F SWAP2 SWAP1 PUSH2 0x36A4 JUMP JUMPDEST PUSH2 0x591 JUMP JUMPDEST PUSH1 0x40 MLOAD PUSH2 0x1A1 SWAP2 SWAP1 PUSH2 0x41D0 JUMP JUMPDEST PUSH1 0x40 MLOAD DUP1 SWAP2 SUB SWAP1 RETURN JUMPDEST PUSH2 0x1C4 PUSH1 0x4 DUP1 CALLDATASIZE SUB DUP2 ADD SWAP1 PUSH2 0x1BF SWAP2 SWAP1 PUSH2 0x3824 JUMP JUMPDEST PUSH2 0x6F9 JUMP JUMPDEST STOP JUMPDEST PUSH2 0x1E0 PUSH1 0x4 DUP1 CALLDATASIZE SUB DUP2 ADD SWAP1 PUSH2 0x1DB SWAP2 SWAP1 PUSH2 0x35DD JUMP JUMPDEST PUSH2 0x736 JUMP JUMPDEST PUSH1 0x40 MLOAD PUSH2 0x1ED SWAP2 SWAP1 PUSH2 0x4230 JUMP JUMPDEST PUSH1 0x40 MLOAD DUP1 SWAP2 SUB SWAP1 RETURN JUMPDEST PUSH2 0x210 PUSH1 0x4 DUP1 CALLDATASIZE SUB DUP2 ADD SWAP1 PUSH2 0x20B SWAP2 SWAP1 PUSH2 0x38E4 JUMP JUMPDEST PUSH2 0x7BD JUMP JUMPDEST STOP JUMPDEST PUSH2 0x22C PUSH1 0x4 DUP1 CALLDATASIZE SUB DUP2 ADD SWAP1 PUSH2 0x227 SWAP2 SWAP1 PUSH2 0x3668 JUMP JUMPDEST PUSH2 0x7FA JUMP JUMPDEST PUSH1 0x40 MLOAD PUSH2 0x239 SWAP2 SWAP1 PUSH2 0x44E9 JUMP JUMPDEST PUSH1 0x40 MLOAD DUP1 SWAP2 SUB SWAP1 RETURN JUMPDEST PUSH2 0x25C PUSH1 0x4 DUP1 CALLDATASIZE SUB DUP2 ADD SWAP1 PUSH2 0x257 SWAP2 SWAP1 PUSH2 0x35B4 JUMP JUMPDEST PUSH2 0xD55 JUMP JUMPDEST PUSH1 0x40 MLOAD PUSH2 0x269 SWAP2 SWAP1 PUSH2 0x44C7 JUMP JUMPDEST PUSH1 0x40 MLOAD DUP1 SWAP2 SUB SWAP1 RETURN JUMPDEST PUSH2 0x28C PUSH1 0x4 DUP1 CALLDATASIZE SUB DUP2 ADD SWAP1 PUSH2 0x287 SWAP2 SWAP1 PUSH2 0x3A0E JUMP JUMPDEST PUSH2 0x1022 JUMP JUMPDEST PUSH1 0x40 MLOAD PUSH2 0x299 SWAP2 SWAP1 PUSH2 0x41D0 JUMP JUMPDEST PUSH1 0x40 MLOAD DUP1 SWAP2 SUB SWAP1 RETURN JUMPDEST PUSH2 0x2BC PUSH1 0x4 DUP1 CALLDATASIZE SUB DUP2 ADD SWAP1 PUSH2 0x2B7 SWAP2 SWAP1 PUSH2 0x373B JUMP JUMPDEST PUSH2 0x13FF JUMP JUMPDEST PUSH1 0x40 MLOAD PUSH2 0x2CD SWAP6 SWAP5 SWAP4 SWAP3 SWAP2 SWAP1 PUSH2 0x4504 JUMP JUMPDEST PUSH1 0x40 MLOAD DUP1 SWAP2 SUB SWAP1 RETURN JUMPDEST PUSH2 0x2F0 PUSH1 0x4 DUP1 CALLDATASIZE SUB DUP2 ADD SWAP1 PUSH2 0x2EB SWAP2 SWAP1 PUSH2 0x35DD JUMP JUMPDEST PUSH2 0x1458 JUMP JUMPDEST PUSH1 0x40 MLOAD PUSH2 0x2FD SWAP2 SWAP1 PUSH2 0x44A5 JUMP JUMPDEST PUSH1 0x40 MLOAD DUP1 SWAP2 SUB SWAP1 RETURN JUMPDEST PUSH2 0x320 PUSH1 0x4 DUP1 CALLDATASIZE SUB DUP2 ADD SWAP1 PUSH2 0x31B SWAP2 SWAP1 PUSH2 0x3938 JUMP JUMPDEST PUSH2 0x1635 JUMP JUMPDEST STOP JUMPDEST PUSH2 0x33C PUSH1 0x4 DUP1 CALLDATASIZE SUB DUP2 ADD SWAP1 PUSH2 0x337 SWAP2 SWAP1 PUSH2 0x39CD JUMP JUMPDEST PUSH2 0x1672 JUMP JUMPDEST PUSH1 0x40 MLOAD PUSH2 0x349 SWAP2 SWAP1 PUSH2 0x41D0 JUMP JUMPDEST PUSH1 0x40 MLOAD DUP1 SWAP2 SUB SWAP1 RETURN JUMPDEST PUSH2 0x36C PUSH1 0x4 DUP1 CALLDATASIZE SUB DUP2 ADD SWAP1 PUSH2 0x367 SWAP2 SWAP1 PUSH2 0x35B4 JUMP JUMPDEST PUSH2 0x20D3 JUMP JUMPDEST PUSH1 0x40 MLOAD PUSH2 0x37A SWAP3 SWAP2 SWAP1 PUSH2 0x41A0 JUMP JUMPDEST PUSH1 0x40 MLOAD DUP1 SWAP2 SUB SWAP1 RETURN JUMPDEST PUSH2 0x39D PUSH1 0x4 DUP1 CALLDATASIZE SUB DUP2 ADD SWAP1 PUSH2 0x398 SWAP2 SWAP1 PUSH2 0x35DD JUMP JUMPDEST PUSH2 0x2237 JUMP JUMPDEST STOP JUMPDEST PUSH2 0x3B9 PUSH1 0x4 DUP1 CALLDATASIZE SUB DUP2 ADD SWAP1 PUSH2 0x3B4 SWAP2 SWAP1 PUSH2 0x37D0 JUMP JUMPDEST PUSH2 0x25AA JUMP JUMPDEST STOP JUMPDEST PUSH2 0x3D5 PUSH1 0x4 DUP1 CALLDATASIZE SUB DUP2 ADD SWAP1 PUSH2 0x3D0 SWAP2 SWAP1 PUSH2 0x3A4F JUMP JUMPDEST PUSH2 0x25E7 JUMP JUMPDEST PUSH1 0x40 MLOAD PUSH2 0x3E2 SWAP2 SWAP1 PUSH2 0x42DC JUMP JUMPDEST PUSH1 0x40 MLOAD DUP1 SWAP2 SUB SWAP1 RETURN JUMPDEST PUSH2 0x405 PUSH1 0x4 DUP1 CALLDATASIZE SUB DUP2 ADD SWAP1 PUSH2 0x400 SWAP2 SWAP1 PUSH2 0x398C JUMP JUMPDEST PUSH2 0x2699 JUMP JUMPDEST PUSH1 0x40 MLOAD PUSH2 0x412 SWAP2 SWAP1 PUSH2 0x41D0 JUMP JUMPDEST PUSH1 0x40 MLOAD DUP1 SWAP2 SUB SWAP1 RETURN JUMPDEST PUSH1 0x2 PUSH1 0x0 DUP5 PUSH20 0xFFFFFFFFFFFFFFFFFFFFFFFFFFFFFFFFFFFFFFFF AND PUSH20 0xFFFFFFFFFFFFFFFFFFFFFFFFFFFFFFFFFFFFFFFF AND DUP2 MSTORE PUSH1 0x20 ADD SWAP1 DUP2 MSTORE PUSH1 0x20 ADD PUSH1 0x0 KECCAK256 PUSH1 0x0 DUP1 DUP2 MSTORE PUSH1 0x20 ADD SWAP1 DUP2 MSTORE PUSH1 0x20 ADD PUSH1 0x0 KECCAK256 PUSH1 0x40 MLOAD DUP1 PUSH1 0x40 ADD PUSH1 0x40 MSTORE DUP1 DUP4 DUP2 MSTORE PUSH1 0x20 ADD DUP5 PUSH20 0xFFFFFFFFFFFFFFFFFFFFFFFFFFFFFFFFFFFFFFFF AND DUP2 MSTORE POP SWAP1 DUP1 PUSH1 0x1 DUP2 SLOAD ADD DUP1 DUP3 SSTORE DUP1 SWAP2 POP POP PUSH1 0x1 SWAP1 SUB SWAP1 PUSH1 0x0 MSTORE PUSH1 0x20 PUSH1 0x0 KECCAK256 SWAP1 PUSH1 0x2 MUL ADD PUSH1 0x0 SWAP1 SWAP2 SWAP1 SWAP2 SWAP1 SWAP2 POP PUSH1 0x0 DUP3 ADD MLOAD DUP2 PUSH1 0x0 ADD SSTORE PUSH1 0x20 DUP3 ADD MLOAD DUP2 PUSH1 0x1 ADD PUSH1 0x0 PUSH2 0x100 EXP DUP2 SLOAD DUP2 PUSH20 0xFFFFFFFFFFFFFFFFFFFFFFFFFFFFFFFFFFFFFFFF MUL NOT AND SWAP1 DUP4 PUSH20 0xFFFFFFFFFFFFFFFFFFFFFFFFFFFFFFFFFFFFFFFF AND MUL OR SWAP1 SSTORE POP POP POP POP POP POP JUMP JUMPDEST PUSH32 0xE8407A0209FA99EC3A7228AFF140C3D3E68BD279391739C7E0B65CD406CC93B5 DUP3 DUP3 PUSH1 0x40 MLOAD PUSH2 0x548 SWAP3 SWAP2 SWAP1 PUSH2 0x438E JUMP JUMPDEST PUSH1 0x40 MLOAD DUP1 SWAP2 SUB SWAP1 LOG1 POP POP JUMP JUMPDEST PUSH32 0x62DDFFE5B5108385F7A590F100E1EE414AD9551A31F089E64E82998440785E1E DUP3 DUP3 PUSH1 0x40 MLOAD PUSH2 0x585 SWAP3 SWAP2 SWAP1 PUSH2 0x42FE JUMP JUMPDEST PUSH1 0x40 MLOAD DUP1 SWAP2 SUB SWAP1 LOG1 POP POP JUMP JUMPDEST PUSH1 0x0 DUP1 PUSH1 0x1 SWAP1 POP PUSH1 0x0 JUMPDEST DUP6 MLOAD DUP2 LT ISZERO PUSH2 0x609 JUMPI PUSH2 0x5ED DUP7 DUP3 DUP2 MLOAD DUP2 LT PUSH2 0x5E0 JUMPI PUSH32 0x4E487B7100000000000000000000000000000000000000000000000000000000 PUSH1 0x0 MSTORE PUSH1 0x32 PUSH1 0x4 MSTORE PUSH1 0x24 PUSH1 0x0 REVERT JUMPDEST PUSH1 0x20 MUL PUSH1 0x20 ADD ADD MLOAD PUSH2 0x1022 JUMP JUMPDEST PUSH2 0x5F6 JUMPI PUSH1 0x0 SWAP2 POP JUMPDEST DUP1 DUP1 PUSH2 0x601 SWAP1 PUSH2 0x4BB8 JUMP JUMPDEST SWAP2 POP POP PUSH2 0x59B JUMP JUMPDEST POP PUSH1 0x0 JUMPDEST DUP5 MLOAD DUP2 LT ISZERO PUSH2 0x67B JUMPI PUSH2 0x65F DUP6 DUP3 DUP2 MLOAD DUP2 LT PUSH2 0x652 JUMPI PUSH32 0x4E487B7100000000000000000000000000000000000000000000000000000000 PUSH1 0x0 MSTORE PUSH1 0x32 PUSH1 0x4 MSTORE PUSH1 0x24 PUSH1 0x0 REVERT JUMPDEST PUSH1 0x20 MUL PUSH1 0x20 ADD ADD MLOAD PUSH2 0x2699 JUMP JUMPDEST PUSH2 0x668 JUMPI PUSH1 0x0 SWAP2 POP JUMPDEST DUP1 DUP1 PUSH2 0x673 SWAP1 PUSH2 0x4BB8 JUMP JUMPDEST SWAP2 POP POP PUSH2 0x60D JUMP JUMPDEST POP PUSH1 0x0 JUMPDEST DUP4 MLOAD DUP2 LT ISZERO PUSH2 0x6ED JUMPI PUSH2 0x6D1 DUP5 DUP3 DUP2 MLOAD DUP2 LT PUSH2 0x6C4 JUMPI PUSH32 0x4E487B7100000000000000000000000000000000000000000000000000000000 PUSH1 0x0 MSTORE PUSH1 0x32 PUSH1 0x4 MSTORE PUSH1 0x24 PUSH1 0x0 REVERT JUMPDEST PUSH1 0x20 MUL PUSH1 0x20 ADD ADD MLOAD PUSH2 0x1672 JUMP JUMPDEST PUSH2 0x6DA JUMPI PUSH1 0x0 SWAP2 POP JUMPDEST DUP1 DUP1 PUSH2 0x6E5 SWAP1 PUSH2 0x4BB8 JUMP JUMPDEST SWAP2 POP POP PUSH2 0x67F JUMP JUMPDEST POP DUP1 SWAP2 POP POP SWAP4 SWAP3 POP POP POP JUMP JUMPDEST PUSH32 0x2D93529BBA9D141E5E06733C52C7E6FBCB1149586ADB5C24064B522AB26F1D7 DUP3 DUP3 PUSH1 0x40 MLOAD PUSH2 0x72A SWAP3 SWAP2 SWAP1 PUSH2 0x435E JUMP JUMPDEST PUSH1 0x40 MLOAD DUP1 SWAP2 SUB SWAP1 LOG1 POP POP JUMP JUMPDEST PUSH1 0x60 DUP2 PUSH20 0xFFFFFFFFFFFFFFFFFFFFFFFFFFFFFFFFFFFFFFFF AND DUP4 PUSH20 0xFFFFFFFFFFFFFFFFFFFFFFFFFFFFFFFFFFFFFFFF AND LT PUSH2 0x792 JUMPI DUP2 DUP4 PUSH1 0x40 MLOAD PUSH1 0x20 ADD PUSH2 0x77E SWAP3 SWAP2 SWAP1 PUSH2 0x4137 JUMP JUMPDEST PUSH1 0x40 MLOAD PUSH1 0x20 DUP2 DUP4 SUB SUB DUP2 MSTORE SWAP1 PUSH1 0x40 MSTORE PUSH2 0x7B5 JUMP JUMPDEST DUP3 DUP3 PUSH1 0x40 MLOAD PUSH1 0x20 ADD PUSH2 0x7A5 SWAP3 SWAP2 SWAP1 PUSH2 0x4137 JUMP JUMPDEST PUSH1 0x40 MLOAD PUSH1 0x20 DUP2 DUP4 SUB SUB DUP2 MSTORE SWAP1 PUSH1 0x40 MSTORE JUMPDEST SWAP1 POP SWAP3 SWAP2 POP POP JUMP JUMPDEST PUSH32 0x6A837FF3973AA4181E7B9F07756F8B7EE366DD85A36655D2CB42CD47F10B9638 DUP3 DUP3 PUSH1 0x40 MLOAD PUSH2 0x7EE SWAP3 SWAP2 SWAP1 PUSH2 0x43C5 JUMP JUMPDEST PUSH1 0x40 MLOAD DUP1 SWAP2 SUB SWAP1 LOG1 POP POP JUMP JUMPDEST PUSH1 0x0 DUP1 PUSH1 0x2 PUSH1 0x0 DUP6 PUSH20 0xFFFFFFFFFFFFFFFFFFFFFFFFFFFFFFFFFFFFFFFF AND PUSH20 0xFFFFFFFFFFFFFFFFFFFFFFFFFFFFFFFFFFFFFFFF AND DUP2 MSTORE PUSH1 0x20 ADD SWAP1 DUP2 MSTORE PUSH1 0x20 ADD PUSH1 0x0 KECCAK256 PUSH1 0x0 DUP1 DUP2 MSTORE PUSH1 0x20 ADD SWAP1 DUP2 MSTORE PUSH1 0x20 ADD PUSH1 0x0 KECCAK256 DUP1 SLOAD SWAP1 POP SWAP1 POP PUSH1 0x0 DUP2 EQ ISZERO PUSH2 0x866 JUMPI PUSH1 0x0 SWAP2 POP POP PUSH2 0xD4F JUMP JUMPDEST PUSH1 0x0 DUP4 PUSH1 0x0 DUP1 DUP8 PUSH20 0xFFFFFFFFFFFFFFFFFFFFFFFFFFFFFFFFFFFFFFFF AND PUSH20 0xFFFFFFFFFFFFFFFFFFFFFFFFFFFFFFFFFFFFFFFF AND DUP2 MSTORE PUSH1 0x20 ADD SWAP1 DUP2 MSTORE PUSH1 0x20 ADD PUSH1 0x0 KECCAK256 PUSH1 0x0 DUP1 DUP2 MSTORE PUSH1 0x20 ADD SWAP1 DUP2 MSTORE PUSH1 0x20 ADD PUSH1 0x0 KECCAK256 SLOAD PUSH2 0x8C3 SWAP2 SWAP1 PUSH2 0x48CA JUMP JUMPDEST SWAP1 POP PUSH1 0x0 PUSH1 0x1 PUSH1 0x0 DUP8 PUSH20 0xFFFFFFFFFFFFFFFFFFFFFFFFFFFFFFFFFFFFFFFF AND PUSH20 0xFFFFFFFFFFFFFFFFFFFFFFFFFFFFFFFFFFFFFFFF AND DUP2 MSTORE PUSH1 0x20 ADD SWAP1 DUP2 MSTORE PUSH1 0x20 ADD PUSH1 0x0 KECCAK256 PUSH1 0x0 DUP1 DUP2 MSTORE PUSH1 0x20 ADD SWAP1 DUP2 MSTORE PUSH1 0x20 ADD PUSH1 0x0 KECCAK256 SLOAD SWAP1 POP PUSH1 0x0 DUP3 EQ ISZERO PUSH2 0x939 JUMPI DUP1 DUP4 PUSH2 0x92F SWAP2 SWAP1 PUSH2 0x4A76 JUMP JUMPDEST SWAP4 POP POP POP POP PUSH2 0xD4F JUMP JUMPDEST JUMPDEST PUSH1 0x1 ISZERO PUSH2 0xC94 JUMPI PUSH1 0x0 PUSH1 0x2 PUSH1 0x0 DUP9 PUSH20 0xFFFFFFFFFFFFFFFFFFFFFFFFFFFFFFFFFFFFFFFF AND PUSH20 0xFFFFFFFFFFFFFFFFFFFFFFFFFFFFFFFFFFFFFFFF AND DUP2 MSTORE PUSH1 0x20 ADD SWAP1 DUP2 MSTORE PUSH1 0x20 ADD PUSH1 0x0 KECCAK256 PUSH1 0x0 DUP1 DUP2 MSTORE PUSH1 0x20 ADD SWAP1 DUP2 MSTORE PUSH1 0x20 ADD PUSH1 0x0 KECCAK256 DUP3 DUP2 SLOAD DUP2 LT PUSH2 0x9CB JUMPI PUSH32 0x4E487B7100000000000000000000000000000000000000000000000000000000 PUSH1 0x0 MSTORE PUSH1 0x32 PUSH1 0x4 MSTORE PUSH1 0x24 PUSH1 0x0 REVERT JUMPDEST SWAP1 PUSH1 0x0 MSTORE PUSH1 0x20 PUSH1 0x0 KECCAK256 SWAP1 PUSH1 0x2 MUL ADD SWAP1 POP DUP1 PUSH1 0x0 ADD SLOAD DUP4 LT PUSH2 0xBDF JUMPI DUP1 PUSH1 0x0 ADD SLOAD DUP4 PUSH2 0x9F6 SWAP2 SWAP1 PUSH2 0x4A76 JUMP JUMPDEST SWAP3 POP DUP1 PUSH1 0x0 ADD SLOAD PUSH1 0x0 DUP1 DUP4 PUSH1 0x1 ADD PUSH1 0x0 SWAP1 SLOAD SWAP1 PUSH2 0x100 EXP SWAP1 DIV PUSH20 0xFFFFFFFFFFFFFFFFFFFFFFFFFFFFFFFFFFFFFFFF AND PUSH20 0xFFFFFFFFFFFFFFFFFFFFFFFFFFFFFFFFFFFFFFFF AND PUSH20 0xFFFFFFFFFFFFFFFFFFFFFFFFFFFFFFFFFFFFFFFF AND DUP2 MSTORE PUSH1 0x20 ADD SWAP1 DUP2 MSTORE PUSH1 0x20 ADD PUSH1 0x0 KECCAK256 PUSH1 0x0 DUP1 DUP2 MSTORE PUSH1 0x20 ADD SWAP1 DUP2 MSTORE PUSH1 0x20 ADD PUSH1 0x0 KECCAK256 PUSH1 0x0 DUP3 DUP3 SLOAD PUSH2 0xA7F SWAP2 SWAP1 PUSH2 0x48CA JUMP JUMPDEST SWAP3 POP POP DUP2 SWAP1 SSTORE POP PUSH1 0x2 PUSH1 0x0 DUP9 PUSH20 0xFFFFFFFFFFFFFFFFFFFFFFFFFFFFFFFFFFFFFFFF AND PUSH20 0xFFFFFFFFFFFFFFFFFFFFFFFFFFFFFFFFFFFFFFFF AND DUP2 MSTORE PUSH1 0x20 ADD SWAP1 DUP2 MSTORE PUSH1 0x20 ADD PUSH1 0x0 KECCAK256 PUSH1 0x0 DUP1 DUP2 MSTORE PUSH1 0x20 ADD SWAP1 DUP2 MSTORE PUSH1 0x20 ADD PUSH1 0x0 KECCAK256 DUP3 DUP2 SLOAD DUP2 LT PUSH2 0xB0E JUMPI PUSH32 0x4E487B7100000000000000000000000000000000000000000000000000000000 PUSH1 0x0 MSTORE PUSH1 0x32 PUSH1 0x4 MSTORE PUSH1 0x24 PUSH1 0x0 REVERT JUMPDEST SWAP1 PUSH1 0x0 MSTORE PUSH1 0x20 PUSH1 0x0 KECCAK256 SWAP1 PUSH1 0x2 MUL ADD PUSH1 0x0 DUP1 DUP3 ADD PUSH1 0x0 SWAP1 SSTORE PUSH1 0x1 DUP3 ADD PUSH1 0x0 PUSH2 0x100 EXP DUP2 SLOAD SWAP1 PUSH20 0xFFFFFFFFFFFFFFFFFFFFFFFFFFFFFFFFFFFFFFFF MUL NOT AND SWAP1 SSTORE POP POP DUP4 PUSH1 0x1 DUP4 PUSH2 0xB5C SWAP2 SWAP1 PUSH2 0x48CA JUMP JUMPDEST EQ ISZERO PUSH2 0xBCC JUMPI PUSH1 0x0 SWAP2 POP PUSH1 0x2 PUSH1 0x0 DUP9 PUSH20 0xFFFFFFFFFFFFFFFFFFFFFFFFFFFFFFFFFFFFFFFF AND PUSH20 0xFFFFFFFFFFFFFFFFFFFFFFFFFFFFFFFFFFFFFFFF AND DUP2 MSTORE PUSH1 0x20 ADD SWAP1 DUP2 MSTORE PUSH1 0x20 ADD PUSH1 0x0 KECCAK256 PUSH1 0x0 DUP1 DUP2 MSTORE PUSH1 0x20 ADD SWAP1 DUP2 MSTORE PUSH1 0x20 ADD PUSH1 0x0 KECCAK256 PUSH1 0x0 PUSH2 0xBC2 SWAP2 SWAP1 PUSH2 0x2E56 JUMP JUMPDEST PUSH1 0x0 SWAP4 POP POP PUSH2 0xC94 JUMP JUMPDEST DUP2 DUP1 PUSH2 0xBD7 SWAP1 PUSH2 0x4BB8 JUMP JUMPDEST SWAP3 POP POP PUSH2 0xC8E JUMP JUMPDEST DUP3 PUSH1 0x0 DUP1 DUP4 PUSH1 0x1 ADD PUSH1 0x0 SWAP1 SLOAD SWAP1 PUSH2 0x100 EXP SWAP1 DIV PUSH20 0xFFFFFFFFFFFFFFFFFFFFFFFFFFFFFFFFFFFFFFFF AND PUSH20 0xFFFFFFFFFFFFFFFFFFFFFFFFFFFFFFFFFFFFFFFF AND PUSH20 0xFFFFFFFFFFFFFFFFFFFFFFFFFFFFFFFFFFFFFFFF AND DUP2 MSTORE PUSH1 0x20 ADD SWAP1 DUP2 MSTORE PUSH1 0x20 ADD PUSH1 0x0 KECCAK256 PUSH1 0x0 DUP1 DUP2 MSTORE PUSH1 0x20 ADD SWAP1 DUP2 MSTORE PUSH1 0x20 ADD PUSH1 0x0 KECCAK256 PUSH1 0x0 DUP3 DUP3 SLOAD PUSH2 0xC62 SWAP2 SWAP1 PUSH2 0x48CA JUMP JUMPDEST SWAP3 POP POP DUP2 SWAP1 SSTORE POP DUP3 DUP2 PUSH1 0x0 ADD PUSH1 0x0 DUP3 DUP3 SLOAD PUSH2 0xC7D SWAP2 SWAP1 PUSH2 0x4A76 JUMP JUMPDEST SWAP3 POP POP DUP2 SWAP1 SSTORE POP PUSH1 0x0 SWAP3 POP POP PUSH2 0xC94 JUMP JUMPDEST POP PUSH2 0x93A JUMP JUMPDEST DUP2 PUSH1 0x0 DUP1 DUP9 PUSH20 0xFFFFFFFFFFFFFFFFFFFFFFFFFFFFFFFFFFFFFFFF AND PUSH20 0xFFFFFFFFFFFFFFFFFFFFFFFFFFFFFFFFFFFFFFFF AND DUP2 MSTORE PUSH1 0x20 ADD SWAP1 DUP2 MSTORE PUSH1 0x20 ADD PUSH1 0x0 KECCAK256 PUSH1 0x0 DUP1 DUP2 MSTORE PUSH1 0x20 ADD SWAP1 DUP2 MSTORE PUSH1 0x20 ADD PUSH1 0x0 KECCAK256 DUP2 SWAP1 SSTORE POP DUP1 PUSH1 0x1 PUSH1 0x0 DUP9 PUSH20 0xFFFFFFFFFFFFFFFFFFFFFFFFFFFFFFFFFFFFFFFF AND PUSH20 0xFFFFFFFFFFFFFFFFFFFFFFFFFFFFFFFFFFFFFFFF AND DUP2 MSTORE PUSH1 0x20 ADD SWAP1 DUP2 MSTORE PUSH1 0x20 ADD PUSH1 0x0 KECCAK256 PUSH1 0x0 DUP1 DUP2 MSTORE PUSH1 0x20 ADD SWAP1 DUP2 MSTORE PUSH1 0x20 ADD PUSH1 0x0 KECCAK256 DUP2 SWAP1 SSTORE POP DUP1 DUP4 PUSH2 0xD49 SWAP2 SWAP1 PUSH2 0x4A76 JUMP JUMPDEST SWAP4 POP POP POP POP JUMPDEST SWAP3 SWAP2 POP POP JUMP JUMPDEST PUSH2 0xD5D PUSH2 0x2E7A JUMP JUMPDEST PUSH1 0x0 PUSH1 0x40 MLOAD DUP1 PUSH1 0x20 ADD PUSH1 0x40 MSTORE DUP1 PUSH1 0x5 DUP1 SLOAD SWAP1 POP PUSH8 0xFFFFFFFFFFFFFFFF DUP2 GT ISZERO PUSH2 0xDAF JUMPI PUSH32 0x4E487B7100000000000000000000000000000000000000000000000000000000 PUSH1 0x0 MSTORE PUSH1 0x41 PUSH1 0x4 MSTORE PUSH1 0x24 PUSH1 0x0 REVERT JUMPDEST PUSH1 0x40 MLOAD SWAP1 DUP1 DUP3 MSTORE DUP1 PUSH1 0x20 MUL PUSH1 0x20 ADD DUP3 ADD PUSH1 0x40 MSTORE DUP1 ISZERO PUSH2 0xDE8 JUMPI DUP2 PUSH1 0x20 ADD JUMPDEST PUSH2 0xDD5 PUSH2 0x2E8D JUMP JUMPDEST DUP2 MSTORE PUSH1 0x20 ADD SWAP1 PUSH1 0x1 SWAP1 SUB SWAP1 DUP2 PUSH2 0xDCD JUMPI SWAP1 POP JUMPDEST POP DUP2 MSTORE POP SWAP1 POP PUSH1 0x0 JUMPDEST PUSH1 0x5 DUP1 SLOAD SWAP1 POP DUP2 LT ISZERO PUSH2 0x1018 JUMPI PUSH1 0x40 MLOAD DUP1 PUSH1 0x60 ADD PUSH1 0x40 MSTORE DUP1 PUSH1 0x0 DUP1 DUP8 PUSH20 0xFFFFFFFFFFFFFFFFFFFFFFFFFFFFFFFFFFFFFFFF AND PUSH20 0xFFFFFFFFFFFFFFFFFFFFFFFFFFFFFFFFFFFFFFFF AND DUP2 MSTORE PUSH1 0x20 ADD SWAP1 DUP2 MSTORE PUSH1 0x20 ADD PUSH1 0x0 KECCAK256 PUSH1 0x0 DUP5 DUP2 MSTORE PUSH1 0x20 ADD SWAP1 DUP2 MSTORE PUSH1 0x20 ADD PUSH1 0x0 KECCAK256 SLOAD DUP2 MSTORE PUSH1 0x20 ADD PUSH1 0x2 PUSH1 0x0 DUP8 PUSH20 0xFFFFFFFFFFFFFFFFFFFFFFFFFFFFFFFFFFFFFFFF AND PUSH20 0xFFFFFFFFFFFFFFFFFFFFFFFFFFFFFFFFFFFFFFFF AND DUP2 MSTORE PUSH1 0x20 ADD SWAP1 DUP2 MSTORE PUSH1 0x20 ADD PUSH1 0x0 KECCAK256 PUSH1 0x0 DUP5 DUP2 MSTORE PUSH1 0x20 ADD SWAP1 DUP2 MSTORE PUSH1 0x20 ADD PUSH1 0x0 KECCAK256 DUP1 SLOAD DUP1 PUSH1 0x20 MUL PUSH1 0x20 ADD PUSH1 0x40 MLOAD SWAP1 DUP2 ADD PUSH1 0x40 MSTORE DUP1 SWAP3 SWAP2 SWAP1 DUP2 DUP2 MSTORE PUSH1 0x20 ADD PUSH1 0x0 SWAP1 JUMPDEST DUP3 DUP3 LT ISZERO PUSH2 0xF60 JUMPI DUP4 DUP3 SWAP1 PUSH1 0x0 MSTORE PUSH1 0x20 PUSH1 0x0 KECCAK256 SWAP1 PUSH1 0x2 MUL ADD PUSH1 0x40 MLOAD DUP1 PUSH1 0x40 ADD PUSH1 0x40 MSTORE SWAP1 DUP2 PUSH1 0x0 DUP3 ADD SLOAD DUP2 MSTORE PUSH1 0x20 ADD PUSH1 0x1 DUP3 ADD PUSH1 0x0 SWAP1 SLOAD SWAP1 PUSH2 0x100 EXP SWAP1 DIV PUSH20 0xFFFFFFFFFFFFFFFFFFFFFFFFFFFFFFFFFFFFFFFF AND PUSH20 0xFFFFFFFFFFFFFFFFFFFFFFFFFFFFFFFFFFFFFFFF AND PUSH20 0xFFFFFFFFFFFFFFFFFFFFFFFFFFFFFFFFFFFFFFFF AND DUP2 MSTORE POP POP DUP2 MSTORE PUSH1 0x20 ADD SWAP1 PUSH1 0x1 ADD SWAP1 PUSH2 0xECE JUMP JUMPDEST POP POP POP POP DUP2 MSTORE PUSH1 0x20 ADD PUSH1 0x1 PUSH1 0x0 DUP8 PUSH20 0xFFFFFFFFFFFFFFFFFFFFFFFFFFFFFFFFFFFFFFFF AND PUSH20 0xFFFFFFFFFFFFFFFFFFFFFFFFFFFFFFFFFFFFFFFF AND DUP2 MSTORE PUSH1 0x20 ADD SWAP1 DUP2 MSTORE PUSH1 0x20 ADD PUSH1 0x0 KECCAK256 PUSH1 0x0 DUP5 DUP2 MSTORE PUSH1 0x20 ADD SWAP1 DUP2 MSTORE PUSH1 0x20 ADD PUSH1 0x0 KECCAK256 SLOAD DUP2 MSTORE POP DUP3 PUSH1 0x0 ADD MLOAD DUP3 DUP2 MLOAD DUP2 LT PUSH2 0xFFA JUMPI PUSH32 0x4E487B7100000000000000000000000000000000000000000000000000000000 PUSH1 0x0 MSTORE PUSH1 0x32 PUSH1 0x4 MSTORE PUSH1 0x24 PUSH1 0x0 REVERT JUMPDEST PUSH1 0x20 MUL PUSH1 0x20 ADD ADD DUP2 SWAP1 MSTORE POP DUP1 DUP1 PUSH2 0x1010 SWAP1 PUSH2 0x4BB8 JUMP JUMPDEST SWAP2 POP POP PUSH2 0xDF1 JUMP JUMPDEST POP DUP1 SWAP2 POP POP SWAP2 SWAP1 POP JUMP JUMPDEST PUSH1 0x0 DUP1 CALLER SWAP1 POP PUSH1 0x0 DUP4 PUSH1 0x0 ADD MLOAD PUSH20 0xFFFFFFFFFFFFFFFFFFFFFFFFFFFFFFFFFFFFFFFF AND DUP3 PUSH20 0xFFFFFFFFFFFFFFFFFFFFFFFFFFFFFFFFFFFFFFFF AND LT SWAP1 POP PUSH2 0x106D DUP3 DUP6 PUSH1 0x0 ADD MLOAD PUSH2 0x2237 JUMP JUMPDEST PUSH1 0x0 PUSH2 0x107D DUP4 DUP7 PUSH1 0x0 ADD MLOAD PUSH2 0x736 JUMP JUMPDEST SWAP1 POP PUSH1 0x0 DUP2 PUSH1 0x3 DUP4 PUSH1 0x40 MLOAD PUSH2 0x1092 SWAP2 SWAP1 PUSH2 0x4163 JUMP JUMPDEST SWAP1 DUP2 MSTORE PUSH1 0x20 ADD PUSH1 0x40 MLOAD DUP1 SWAP2 SUB SWAP1 KECCAK256 PUSH1 0x0 ADD SLOAD DUP8 PUSH1 0x40 ADD MLOAD PUSH1 0x40 MLOAD PUSH1 0x20 ADD PUSH2 0x10BB SWAP4 SWAP3 SWAP2 SWAP1 PUSH2 0x4252 JUMP JUMPDEST PUSH1 0x40 MLOAD PUSH1 0x20 DUP2 DUP4 SUB SUB DUP2 MSTORE SWAP1 PUSH1 0x40 MSTORE SWAP1 POP PUSH1 0x0 PUSH2 0x10DE DUP3 DUP1 MLOAD SWAP1 PUSH1 0x20 ADD KECCAK256 PUSH2 0x2A4C JUMP JUMPDEST SWAP1 POP PUSH2 0x111F PUSH1 0x40 MLOAD DUP1 PUSH1 0x40 ADD PUSH1 0x40 MSTORE DUP1 PUSH1 0xB DUP2 MSTORE PUSH1 0x20 ADD PUSH32 0x656E636F646564206D7367000000000000000000000000000000000000000000 DUP2 MSTORE POP DUP4 PUSH2 0x517 JUMP JUMPDEST PUSH1 0x0 PUSH2 0x112F DUP3 DUP10 PUSH1 0x60 ADD MLOAD PUSH2 0x2A7C JUMP JUMPDEST SWAP1 POP PUSH2 0x1170 PUSH1 0x40 MLOAD DUP1 PUSH1 0x40 ADD PUSH1 0x40 MSTORE DUP1 PUSH1 0x6 DUP2 MSTORE PUSH1 0x20 ADD PUSH32 0x7369676E65720000000000000000000000000000000000000000000000000000 DUP2 MSTORE POP DUP3 PUSH2 0x554 JUMP JUMPDEST DUP1 PUSH20 0xFFFFFFFFFFFFFFFFFFFFFFFFFFFFFFFFFFFFFFFF AND DUP9 PUSH1 0x0 ADD MLOAD PUSH20 0xFFFFFFFFFFFFFFFFFFFFFFFFFFFFFFFFFFFFFFFF AND EQ PUSH2 0x11F5 JUMPI PUSH2 0x11E6 PUSH1 0x40 MLOAD DUP1 PUSH1 0x40 ADD PUSH1 0x40 MSTORE DUP1 PUSH1 0xE DUP2 MSTORE PUSH1 0x20 ADD PUSH32 0x496E76616C6964207369676E6572000000000000000000000000000000000000 DUP2 MSTORE POP DUP3 PUSH2 0x554 JUMP JUMPDEST PUSH1 0x0 SWAP7 POP POP POP POP POP POP POP PUSH2 0x13FA JUMP JUMPDEST PUSH1 0x3 DUP5 PUSH1 0x40 MLOAD PUSH2 0x1205 SWAP2 SWAP1 PUSH2 0x4163 JUMP JUMPDEST SWAP1 DUP2 MSTORE PUSH1 0x20 ADD PUSH1 0x40 MLOAD DUP1 SWAP2 SUB SWAP1 KECCAK256 PUSH1 0x0 ADD PUSH1 0x0 DUP2 SLOAD DUP1 SWAP3 SWAP2 SWAP1 PUSH2 0x1227 SWAP1 PUSH2 0x4BB8 JUMP JUMPDEST SWAP2 SWAP1 POP SSTORE POP PUSH1 0x0 JUMPDEST DUP9 PUSH1 0x40 ADD MLOAD MLOAD DUP2 LT ISZERO PUSH2 0x13E0 JUMPI PUSH1 0x0 DUP10 PUSH1 0x40 ADD MLOAD DUP3 DUP2 MLOAD DUP2 LT PUSH2 0x127B JUMPI PUSH32 0x4E487B7100000000000000000000000000000000000000000000000000000000 PUSH1 0x0 MSTORE PUSH1 0x32 PUSH1 0x4 MSTORE PUSH1 0x24 PUSH1 0x0 REVERT JUMPDEST PUSH1 0x20 MUL PUSH1 0x20 ADD ADD MLOAD PUSH1 0x0 ADD MLOAD SWAP1 POP PUSH1 0x0 DUP11 PUSH1 0x40 ADD MLOAD DUP4 DUP2 MLOAD DUP2 LT PUSH2 0x12C8 JUMPI PUSH32 0x4E487B7100000000000000000000000000000000000000000000000000000000 PUSH1 0x0 MSTORE PUSH1 0x32 PUSH1 0x4 MSTORE PUSH1 0x24 PUSH1 0x0 REVERT JUMPDEST PUSH1 0x20 MUL PUSH1 0x20 ADD ADD MLOAD PUSH1 0x20 ADD MLOAD SWAP1 POP PUSH1 0x0 PUSH1 0x4 DUP9 PUSH1 0x40 MLOAD PUSH2 0x12E8 SWAP2 SWAP1 PUSH2 0x4163 JUMP JUMPDEST SWAP1 DUP2 MSTORE PUSH1 0x20 ADD PUSH1 0x40 MLOAD DUP1 SWAP2 SUB SWAP1 KECCAK256 PUSH1 0x0 DUP5 DUP2 MSTORE PUSH1 0x20 ADD SWAP1 DUP2 MSTORE PUSH1 0x20 ADD PUSH1 0x0 KECCAK256 SWAP1 POP DUP2 DUP2 PUSH1 0x0 ADD SLOAD LT PUSH2 0x13CA JUMPI DUP2 DUP2 PUSH1 0x0 ADD PUSH1 0x0 DUP3 DUP3 SLOAD PUSH2 0x1328 SWAP2 SWAP1 PUSH2 0x4A76 JUMP JUMPDEST SWAP3 POP POP DUP2 SWAP1 SSTORE POP DUP9 ISZERO PUSH2 0x1351 JUMPI DUP2 DUP2 PUSH1 0x1 ADD PUSH1 0x0 DUP3 DUP3 SLOAD PUSH2 0x1349 SWAP2 SWAP1 PUSH2 0x49E2 JUMP JUMPDEST SWAP3 POP POP DUP2 SWAP1 SSTORE POP JUMPDEST DUP2 PUSH1 0x0 DUP1 DUP13 PUSH20 0xFFFFFFFFFFFFFFFFFFFFFFFFFFFFFFFFFFFFFFFF AND PUSH20 0xFFFFFFFFFFFFFFFFFFFFFFFFFFFFFFFFFFFFFFFF AND DUP2 MSTORE PUSH1 0x20 ADD SWAP1 DUP2 MSTORE PUSH1 0x20 ADD PUSH1 0x0 KECCAK256 PUSH1 0x0 DUP6 DUP2 MSTORE PUSH1 0x20 ADD SWAP1 DUP2 MSTORE PUSH1 0x20 ADD PUSH1 0x0 KECCAK256 PUSH1 0x0 DUP3 DUP3 SLOAD PUSH2 0x13B0 SWAP2 SWAP1 PUSH2 0x48CA JUMP JUMPDEST SWAP3 POP POP DUP2 SWAP1 SSTORE POP PUSH2 0x13C9 PUSH2 0x13C3 DUP5 PUSH2 0x2AF6 JUMP JUMPDEST DUP4 PUSH2 0x1635 JUMP JUMPDEST JUMPDEST POP POP POP DUP1 DUP1 PUSH2 0x13D8 SWAP1 PUSH2 0x4BB8 JUMP JUMPDEST SWAP2 POP POP PUSH2 0x122F JUMP JUMPDEST POP PUSH2 0x13EF DUP7 DUP10 PUSH1 0x0 ADD MLOAD PUSH2 0x2237 JUMP JUMPDEST PUSH1 0x1 SWAP7 POP POP POP POP POP POP POP JUMPDEST SWAP2 SWAP1 POP JUMP JUMPDEST PUSH1 0x3 DUP2 DUP1 MLOAD PUSH1 0x20 DUP2 ADD DUP3 ADD DUP1 MLOAD DUP5 DUP3 MSTORE PUSH1 0x20 DUP4 ADD PUSH1 0x20 DUP6 ADD KECCAK256 DUP2 DUP4 MSTORE DUP1 SWAP6 POP POP POP POP POP POP PUSH1 0x0 SWAP2 POP SWAP1 POP DUP1 PUSH1 0x0 ADD SLOAD SWAP1 DUP1 PUSH1 0x1 ADD SLOAD SWAP1 DUP1 PUSH1 0x2 ADD SLOAD SWAP1 DUP1 PUSH1 0x3 ADD SLOAD SWAP1 DUP1 PUSH1 0x4 ADD PUSH1 0x0 SWAP1 SLOAD SWAP1 PUSH2 0x100 EXP SWAP1 DIV PUSH1 0xFF AND SWAP1 POP DUP6 JUMP JUMPDEST PUSH2 0x1460 PUSH2 0x2EAE JUMP JUMPDEST PUSH1 0x0 PUSH2 0x146C DUP5 DUP5 PUSH2 0x736 JUMP JUMPDEST SWAP1 POP PUSH1 0x0 PUSH1 0x40 MLOAD DUP1 PUSH1 0x40 ADD PUSH1 0x40 MSTORE DUP1 PUSH1 0x3 DUP5 PUSH1 0x40 MLOAD PUSH2 0x148B SWAP2 SWAP1 PUSH2 0x4163 JUMP JUMPDEST SWAP1 DUP2 MSTORE PUSH1 0x20 ADD PUSH1 0x40 MLOAD DUP1 SWAP2 SUB SWAP1 KECCAK256 PUSH1 0x40 MLOAD DUP1 PUSH1 0xA0 ADD PUSH1 0x40 MSTORE SWAP1 DUP2 PUSH1 0x0 DUP3 ADD SLOAD DUP2 MSTORE PUSH1 0x20 ADD PUSH1 0x1 DUP3 ADD SLOAD DUP2 MSTORE PUSH1 0x20 ADD PUSH1 0x2 DUP3 ADD SLOAD DUP2 MSTORE PUSH1 0x20 ADD PUSH1 0x3 DUP3 ADD SLOAD DUP2 MSTORE PUSH1 0x20 ADD PUSH1 0x4 DUP3 ADD PUSH1 0x0 SWAP1 SLOAD SWAP1 PUSH2 0x100 EXP SWAP1 DIV PUSH1 0xFF AND ISZERO ISZERO ISZERO ISZERO DUP2 MSTORE POP POP DUP2 MSTORE PUSH1 0x20 ADD PUSH1 0x5 DUP1 SLOAD SWAP1 POP PUSH8 0xFFFFFFFFFFFFFFFF DUP2 GT ISZERO PUSH2 0x1531 JUMPI PUSH32 0x4E487B7100000000000000000000000000000000000000000000000000000000 PUSH1 0x0 MSTORE PUSH1 0x41 PUSH1 0x4 MSTORE PUSH1 0x24 PUSH1 0x0 REVERT JUMPDEST PUSH1 0x40 MLOAD SWAP1 DUP1 DUP3 MSTORE DUP1 PUSH1 0x20 MUL PUSH1 0x20 ADD DUP3 ADD PUSH1 0x40 MSTORE DUP1 ISZERO PUSH2 0x156A JUMPI DUP2 PUSH1 0x20 ADD JUMPDEST PUSH2 0x1557 PUSH2 0x2ECE JUMP JUMPDEST DUP2 MSTORE PUSH1 0x20 ADD SWAP1 PUSH1 0x1 SWAP1 SUB SWAP1 DUP2 PUSH2 0x154F JUMPI SWAP1 POP JUMPDEST POP DUP2 MSTORE POP SWAP1 POP PUSH1 0x0 JUMPDEST PUSH1 0x5 DUP1 SLOAD SWAP1 POP DUP2 LT ISZERO PUSH2 0x1629 JUMPI PUSH1 0x4 DUP4 PUSH1 0x40 MLOAD PUSH2 0x1590 SWAP2 SWAP1 PUSH2 0x4163 JUMP JUMPDEST SWAP1 DUP2 MSTORE PUSH1 0x20 ADD PUSH1 0x40 MLOAD DUP1 SWAP2 SUB SWAP1 KECCAK256 PUSH1 0x0 DUP3 DUP2 MSTORE PUSH1 0x20 ADD SWAP1 DUP2 MSTORE PUSH1 0x20 ADD PUSH1 0x0 KECCAK256 PUSH1 0x40 MLOAD DUP1 PUSH1 0x40 ADD PUSH1 0x40 MSTORE SWAP1 DUP2 PUSH1 0x0 DUP3 ADD SLOAD DUP2 MSTORE PUSH1 0x20 ADD PUSH1 0x1 DUP3 ADD SLOAD DUP2 MSTORE POP POP DUP3 PUSH1 0x20 ADD MLOAD DUP3 DUP2 MLOAD DUP2 LT PUSH2 0x160B JUMPI PUSH32 0x4E487B7100000000000000000000000000000000000000000000000000000000 PUSH1 0x0 MSTORE PUSH1 0x32 PUSH1 0x4 MSTORE PUSH1 0x24 PUSH1 0x0 REVERT JUMPDEST PUSH1 0x20 MUL PUSH1 0x20 ADD ADD DUP2 SWAP1 MSTORE POP DUP1 DUP1 PUSH2 0x1621 SWAP1 PUSH2 0x4BB8 JUMP JUMPDEST SWAP2 POP POP PUSH2 0x1573 JUMP JUMPDEST POP DUP1 SWAP3 POP POP POP SWAP3 SWAP2 POP POP JUMP JUMPDEST PUSH32 0x941296A39EA107BDE685522318A4B6C2B544904A5DD82A512748CA2CF839BEF7 DUP3 DUP3 PUSH1 0x40 MLOAD PUSH2 0x1666 SWAP3 SWAP2 SWAP1 PUSH2 0x43F5 JUMP JUMPDEST PUSH1 0x40 MLOAD DUP1 SWAP2 SUB SWAP1 LOG1 POP POP JUMP JUMPDEST PUSH1 0x0 DUP1 CALLER SWAP1 POP PUSH1 0x0 PUSH2 0x1688 DUP3 DUP6 PUSH1 0x0 ADD MLOAD PUSH2 0x736 JUMP JUMPDEST SWAP1 POP PUSH1 0x0 DUP2 DUP6 PUSH1 0x20 ADD MLOAD DUP7 PUSH1 0x40 ADD MLOAD PUSH1 0x40 MLOAD PUSH1 0x20 ADD PUSH2 0x16A9 SWAP4 SWAP3 SWAP2 SWAP1 PUSH2 0x4297 JUMP JUMPDEST PUSH1 0x40 MLOAD PUSH1 0x20 DUP2 DUP4 SUB SUB DUP2 MSTORE SWAP1 PUSH1 0x40 MSTORE SWAP1 POP PUSH1 0x0 PUSH2 0x16CC DUP3 DUP1 MLOAD SWAP1 PUSH1 0x20 ADD KECCAK256 PUSH2 0x2A4C JUMP JUMPDEST SWAP1 POP PUSH2 0x170D PUSH1 0x40 MLOAD DUP1 PUSH1 0x40 ADD PUSH1 0x40 MSTORE DUP1 PUSH1 0xB DUP2 MSTORE PUSH1 0x20 ADD PUSH32 0x656E636F646564206D7367000000000000000000000000000000000000000000 DUP2 MSTORE POP DUP4 PUSH2 0x517 JUMP JUMPDEST PUSH1 0x0 PUSH2 0x171D DUP3 DUP9 PUSH1 0x60 ADD MLOAD PUSH2 0x2A7C JUMP JUMPDEST SWAP1 POP PUSH2 0x175E PUSH1 0x40 MLOAD DUP1 PUSH1 0x40 ADD PUSH1 0x40 MSTORE DUP1 PUSH1 0x6 DUP2 MSTORE PUSH1 0x20 ADD PUSH32 0x7369676E65720000000000000000000000000000000000000000000000000000 DUP2 MSTORE POP DUP3 PUSH2 0x554 JUMP JUMPDEST PUSH1 0x0 DUP8 PUSH1 0x0 ADD MLOAD PUSH20 0xFFFFFFFFFFFFFFFFFFFFFFFFFFFFFFFFFFFFFFFF AND DUP7 PUSH20 0xFFFFFFFFFFFFFFFFFFFFFFFFFFFFFFFFFFFFFFFF AND LT PUSH2 0x17A1 JUMPI DUP8 PUSH1 0x0 ADD MLOAD PUSH2 0x17A3 JUMP JUMPDEST DUP6 JUMPDEST SWAP1 POP PUSH1 0x0 DUP9 PUSH1 0x0 ADD MLOAD PUSH20 0xFFFFFFFFFFFFFFFFFFFFFFFFFFFFFFFFFFFFFFFF AND DUP8 PUSH20 0xFFFFFFFFFFFFFFFFFFFFFFFFFFFFFFFFFFFFFFFF AND LT PUSH2 0x17E4 JUMPI DUP7 PUSH2 0x17EA JUMP JUMPDEST DUP9 PUSH1 0x0 ADD MLOAD JUMPDEST SWAP1 POP PUSH2 0x17FA DUP8 DUP11 PUSH1 0x0 ADD MLOAD PUSH2 0x2237 JUMP JUMPDEST PUSH1 0x0 JUMPDEST DUP10 PUSH1 0x40 ADD MLOAD MLOAD DUP2 LT ISZERO PUSH2 0x205F JUMPI PUSH1 0x0 DUP11 PUSH1 0x40 ADD MLOAD DUP3 DUP2 MLOAD DUP2 LT PUSH2 0x1849 JUMPI PUSH32 0x4E487B7100000000000000000000000000000000000000000000000000000000 PUSH1 0x0 MSTORE PUSH1 0x32 PUSH1 0x4 MSTORE PUSH1 0x24 PUSH1 0x0 REVERT JUMPDEST PUSH1 0x20 MUL PUSH1 0x20 ADD ADD MLOAD PUSH1 0x0 ADD MLOAD SWAP1 POP PUSH1 0x0 PUSH1 0x4 DUP10 PUSH1 0x40 MLOAD PUSH2 0x1869 SWAP2 SWAP1 PUSH2 0x4163 JUMP JUMPDEST SWAP1 DUP2 MSTORE PUSH1 0x20 ADD PUSH1 0x40 MLOAD DUP1 SWAP2 SUB SWAP1 KECCAK256 PUSH1 0x0 DUP4 DUP2 MSTORE PUSH1 0x20 ADD SWAP1 DUP2 MSTORE PUSH1 0x20 ADD PUSH1 0x0 KECCAK256 SWAP1 POP PUSH1 0x0 DUP2 PUSH1 0x1 ADD SLOAD DUP14 PUSH1 0x40 ADD MLOAD DUP6 DUP2 MLOAD DUP2 LT PUSH2 0x18CE JUMPI PUSH32 0x4E487B7100000000000000000000000000000000000000000000000000000000 PUSH1 0x0 MSTORE PUSH1 0x32 PUSH1 0x4 MSTORE PUSH1 0x24 PUSH1 0x0 REVERT JUMPDEST PUSH1 0x20 MUL PUSH1 0x20 ADD ADD MLOAD PUSH1 0x20 ADD MLOAD PUSH2 0x18E4 SWAP2 SWAP1 PUSH2 0x4836 JUMP JUMPDEST SWAP1 POP PUSH2 0x1925 PUSH1 0x40 MLOAD DUP1 PUSH1 0x40 ADD PUSH1 0x40 MSTORE DUP1 PUSH1 0x5 DUP2 MSTORE PUSH1 0x20 ADD PUSH32 0x64656C7461000000000000000000000000000000000000000000000000000000 DUP2 MSTORE POP DUP3 PUSH2 0x7BD JUMP JUMPDEST PUSH2 0x19AC PUSH1 0x40 MLOAD DUP1 PUSH1 0x40 ADD PUSH1 0x40 MSTORE DUP1 PUSH1 0x8 DUP2 MSTORE PUSH1 0x20 ADD PUSH32 0x6F666664656C7461000000000000000000000000000000000000000000000000 DUP2 MSTORE POP DUP15 PUSH1 0x40 ADD MLOAD DUP7 DUP2 MLOAD DUP2 LT PUSH2 0x199B JUMPI PUSH32 0x4E487B7100000000000000000000000000000000000000000000000000000000 PUSH1 0x0 MSTORE PUSH1 0x32 PUSH1 0x4 MSTORE PUSH1 0x24 PUSH1 0x0 REVERT JUMPDEST PUSH1 0x20 MUL PUSH1 0x20 ADD ADD MLOAD PUSH1 0x20 ADD MLOAD PUSH2 0x7BD JUMP JUMPDEST PUSH1 0x0 DUP2 SLT ISZERO DUP1 ISZERO PUSH2 0x19C1 JUMPI POP DUP2 PUSH1 0x0 ADD SLOAD DUP2 SGT ISZERO JUMPDEST ISZERO PUSH2 0x1AAC JUMPI PUSH1 0x0 DUP2 SWAP1 POP DUP1 PUSH1 0x0 DUP1 DUP10 PUSH20 0xFFFFFFFFFFFFFFFFFFFFFFFFFFFFFFFFFFFFFFFF AND PUSH20 0xFFFFFFFFFFFFFFFFFFFFFFFFFFFFFFFFFFFFFFFF AND DUP2 MSTORE PUSH1 0x20 ADD SWAP1 DUP2 MSTORE PUSH1 0x20 ADD PUSH1 0x0 KECCAK256 PUSH1 0x0 DUP7 DUP2 MSTORE PUSH1 0x20 ADD SWAP1 DUP2 MSTORE PUSH1 0x20 ADD PUSH1 0x0 KECCAK256 PUSH1 0x0 DUP3 DUP3 SLOAD PUSH2 0x1A2A SWAP2 SWAP1 PUSH2 0x48CA JUMP JUMPDEST SWAP3 POP POP DUP2 SWAP1 SSTORE POP DUP1 DUP4 PUSH1 0x0 ADD SLOAD PUSH2 0x1A41 SWAP2 SWAP1 PUSH2 0x4A76 JUMP JUMPDEST PUSH1 0x0 DUP1 DUP9 PUSH20 0xFFFFFFFFFFFFFFFFFFFFFFFFFFFFFFFFFFFFFFFF AND PUSH20 0xFFFFFFFFFFFFFFFFFFFFFFFFFFFFFFFFFFFFFFFF AND DUP2 MSTORE PUSH1 0x20 ADD SWAP1 DUP2 MSTORE PUSH1 0x20 ADD PUSH1 0x0 KECCAK256 PUSH1 0x0 DUP7 DUP2 MSTORE PUSH1 0x20 ADD SWAP1 DUP2 MSTORE PUSH1 0x20 ADD PUSH1 0x0 KECCAK256 PUSH1 0x0 DUP3 DUP3 SLOAD PUSH2 0x1A9F SWAP2 SWAP1 PUSH2 0x48CA JUMP JUMPDEST SWAP3 POP POP DUP2 SWAP1 SSTORE POP POP PUSH2 0x2007 JUMP JUMPDEST PUSH1 0x0 DUP1 DUP3 SLT PUSH2 0x1ABB JUMPI DUP7 PUSH2 0x1ABD JUMP JUMPDEST DUP6 JUMPDEST SWAP1 POP PUSH1 0x0 DUP1 DUP4 SLT PUSH2 0x1ACE JUMPI DUP7 PUSH2 0x1AD0 JUMP JUMPDEST DUP8 JUMPDEST SWAP1 POP PUSH1 0x0 DUP1 DUP5 SLT PUSH2 0x1AF0 JUMPI DUP5 PUSH1 0x0 ADD SLOAD DUP5 PUSH2 0x1AEB SWAP2 SWAP1 PUSH2 0x4A76 JUMP JUMPDEST PUSH2 0x1AFB JUMP JUMPDEST DUP4 PUSH2 0x1AFA SWAP1 PUSH2 0x4C2F JUMP JUMPDEST JUMPDEST SWAP1 POP PUSH2 0x1B3C PUSH1 0x40 MLOAD DUP1 PUSH1 0x40 ADD PUSH1 0x40 MSTORE DUP1 PUSH1 0xF DUP2 MSTORE PUSH1 0x20 ADD PUSH32 0x6765747320636F6C6C61746572616C0000000000000000000000000000000000 DUP2 MSTORE POP DUP5 PUSH2 0x554 JUMP JUMPDEST PUSH2 0x1B7B PUSH1 0x40 MLOAD DUP1 PUSH1 0x40 ADD PUSH1 0x40 MSTORE DUP1 PUSH1 0x9 DUP2 MSTORE PUSH1 0x20 ADD PUSH32 0x6765747320646562740000000000000000000000000000000000000000000000 DUP2 MSTORE POP DUP4 PUSH2 0x554 JUMP JUMPDEST PUSH2 0x1BBA PUSH1 0x40 MLOAD DUP1 PUSH1 0x40 ADD PUSH1 0x40 MSTORE DUP1 PUSH1 0x4 DUP2 MSTORE PUSH1 0x20 ADD PUSH32 0x6465627400000000000000000000000000000000000000000000000000000000 DUP2 MSTORE POP DUP3 PUSH2 0x1635 JUMP JUMPDEST DUP5 PUSH1 0x0 ADD SLOAD PUSH1 0x0 DUP1 DUP6 PUSH20 0xFFFFFFFFFFFFFFFFFFFFFFFFFFFFFFFFFFFFFFFF AND PUSH20 0xFFFFFFFFFFFFFFFFFFFFFFFFFFFFFFFFFFFFFFFF AND DUP2 MSTORE PUSH1 0x20 ADD SWAP1 DUP2 MSTORE PUSH1 0x20 ADD PUSH1 0x0 KECCAK256 PUSH1 0x0 DUP9 DUP2 MSTORE PUSH1 0x20 ADD SWAP1 DUP2 MSTORE PUSH1 0x20 ADD PUSH1 0x0 KECCAK256 PUSH1 0x0 DUP3 DUP3 SLOAD PUSH2 0x1C1D SWAP2 SWAP1 PUSH2 0x48CA JUMP JUMPDEST SWAP3 POP POP DUP2 SWAP1 SSTORE POP DUP1 PUSH1 0x0 DUP1 DUP5 PUSH20 0xFFFFFFFFFFFFFFFFFFFFFFFFFFFFFFFFFFFFFFFF AND PUSH20 0xFFFFFFFFFFFFFFFFFFFFFFFFFFFFFFFFFFFFFFFF AND DUP2 MSTORE PUSH1 0x20 ADD SWAP1 DUP2 MSTORE PUSH1 0x20 ADD PUSH1 0x0 KECCAK256 PUSH1 0x0 DUP9 DUP2 MSTORE PUSH1 0x20 ADD SWAP1 DUP2 MSTORE PUSH1 0x20 ADD PUSH1 0x0 KECCAK256 SLOAD LT PUSH2 0x1D4B JUMPI DUP1 PUSH1 0x0 DUP1 DUP6 PUSH20 0xFFFFFFFFFFFFFFFFFFFFFFFFFFFFFFFFFFFFFFFF AND PUSH20 0xFFFFFFFFFFFFFFFFFFFFFFFFFFFFFFFFFFFFFFFF AND DUP2 MSTORE PUSH1 0x20 ADD SWAP1 DUP2 MSTORE PUSH1 0x20 ADD PUSH1 0x0 KECCAK256 PUSH1 0x0 DUP9 DUP2 MSTORE PUSH1 0x20 ADD SWAP1 DUP2 MSTORE PUSH1 0x20 ADD PUSH1 0x0 KECCAK256 PUSH1 0x0 DUP3 DUP3 SLOAD PUSH2 0x1CD9 SWAP2 SWAP1 PUSH2 0x48CA JUMP JUMPDEST SWAP3 POP POP DUP2 SWAP1 SSTORE POP DUP1 PUSH1 0x0 DUP1 DUP5 PUSH20 0xFFFFFFFFFFFFFFFFFFFFFFFFFFFFFFFFFFFFFFFF AND PUSH20 0xFFFFFFFFFFFFFFFFFFFFFFFFFFFFFFFFFFFFFFFF AND DUP2 MSTORE PUSH1 0x20 ADD SWAP1 DUP2 MSTORE PUSH1 0x20 ADD PUSH1 0x0 KECCAK256 PUSH1 0x0 DUP9 DUP2 MSTORE PUSH1 0x20 ADD SWAP1 DUP2 MSTORE PUSH1 0x20 ADD PUSH1 0x0 KECCAK256 PUSH1 0x0 DUP3 DUP3 SLOAD PUSH2 0x1D3F SWAP2 SWAP1 PUSH2 0x4A76 JUMP JUMPDEST SWAP3 POP POP DUP2 SWAP1 SSTORE POP PUSH2 0x2003 JUMP JUMPDEST PUSH1 0x0 DUP1 PUSH1 0x0 DUP5 PUSH20 0xFFFFFFFFFFFFFFFFFFFFFFFFFFFFFFFFFFFFFFFF AND PUSH20 0xFFFFFFFFFFFFFFFFFFFFFFFFFFFFFFFFFFFFFFFF AND DUP2 MSTORE PUSH1 0x20 ADD SWAP1 DUP2 MSTORE PUSH1 0x20 ADD PUSH1 0x0 KECCAK256 PUSH1 0x0 DUP9 DUP2 MSTORE PUSH1 0x20 ADD SWAP1 DUP2 MSTORE PUSH1 0x20 ADD PUSH1 0x0 KECCAK256 SLOAD GT ISZERO PUSH2 0x1F0B JUMPI PUSH1 0x0 DUP1 DUP4 PUSH20 0xFFFFFFFFFFFFFFFFFFFFFFFFFFFFFFFFFFFFFFFF AND PUSH20 0xFFFFFFFFFFFFFFFFFFFFFFFFFFFFFFFFFFFFFFFF AND DUP2 MSTORE PUSH1 0x20 ADD SWAP1 DUP2 MSTORE PUSH1 0x20 ADD PUSH1 0x0 KECCAK256 PUSH1 0x0 DUP8 DUP2 MSTORE PUSH1 0x20 ADD SWAP1 DUP2 MSTORE PUSH1 0x20 ADD PUSH1 0x0 KECCAK256 SLOAD PUSH1 0x0 DUP1 DUP6 PUSH20 0xFFFFFFFFFFFFFFFFFFFFFFFFFFFFFFFFFFFFFFFF AND PUSH20 0xFFFFFFFFFFFFFFFFFFFFFFFFFFFFFFFFFFFFFFFF AND DUP2 MSTORE PUSH1 0x20 ADD SWAP1 DUP2 MSTORE PUSH1 0x20 ADD PUSH1 0x0 KECCAK256 PUSH1 0x0 DUP9 DUP2 MSTORE PUSH1 0x20 ADD SWAP1 DUP2 MSTORE PUSH1 0x20 ADD PUSH1 0x0 KECCAK256 PUSH1 0x0 DUP3 DUP3 SLOAD PUSH2 0x1E51 SWAP2 SWAP1 PUSH2 0x48CA JUMP JUMPDEST SWAP3 POP POP DUP2 SWAP1 SSTORE POP PUSH1 0x0 DUP1 DUP4 PUSH20 0xFFFFFFFFFFFFFFFFFFFFFFFFFFFFFFFFFFFFFFFF AND PUSH20 0xFFFFFFFFFFFFFFFFFFFFFFFFFFFFFFFFFFFFFFFF AND DUP2 MSTORE PUSH1 0x20 ADD SWAP1 DUP2 MSTORE PUSH1 0x20 ADD PUSH1 0x0 KECCAK256 PUSH1 0x0 DUP8 DUP2 MSTORE PUSH1 0x20 ADD SWAP1 DUP2 MSTORE PUSH1 0x20 ADD PUSH1 0x0 KECCAK256 SLOAD DUP2 PUSH2 0x1EB3 SWAP2 SWAP1 PUSH2 0x4A76 JUMP JUMPDEST SWAP1 POP PUSH1 0x0 DUP1 PUSH1 0x0 DUP5 PUSH20 0xFFFFFFFFFFFFFFFFFFFFFFFFFFFFFFFFFFFFFFFF AND PUSH20 0xFFFFFFFFFFFFFFFFFFFFFFFFFFFFFFFFFFFFFFFF AND DUP2 MSTORE PUSH1 0x20 ADD SWAP1 DUP2 MSTORE PUSH1 0x20 ADD PUSH1 0x0 KECCAK256 PUSH1 0x0 DUP9 DUP2 MSTORE PUSH1 0x20 ADD SWAP1 DUP2 MSTORE PUSH1 0x20 ADD PUSH1 0x0 KECCAK256 DUP2 SWAP1 SSTORE POP JUMPDEST PUSH1 0x2 PUSH1 0x0 DUP4 PUSH20 0xFFFFFFFFFFFFFFFFFFFFFFFFFFFFFFFFFFFFFFFF AND PUSH20 0xFFFFFFFFFFFFFFFFFFFFFFFFFFFFFFFFFFFFFFFF AND DUP2 MSTORE PUSH1 0x20 ADD SWAP1 DUP2 MSTORE PUSH1 0x20 ADD PUSH1 0x0 KECCAK256 PUSH1 0x0 DUP8 DUP2 MSTORE PUSH1 0x20 ADD SWAP1 DUP2 MSTORE PUSH1 0x20 ADD PUSH1 0x0 KECCAK256 PUSH1 0x40 MLOAD DUP1 PUSH1 0x40 ADD PUSH1 0x40 MSTORE DUP1 DUP4 DUP2 MSTORE PUSH1 0x20 ADD DUP6 PUSH20 0xFFFFFFFFFFFFFFFFFFFFFFFFFFFFFFFFFFFFFFFF AND DUP2 MSTORE POP SWAP1 DUP1 PUSH1 0x1 DUP2 SLOAD ADD DUP1 DUP3 SSTORE DUP1 SWAP2 POP POP PUSH1 0x1 SWAP1 SUB SWAP1 PUSH1 0x0 MSTORE PUSH1 0x20 PUSH1 0x0 KECCAK256 SWAP1 PUSH1 0x2 MUL ADD PUSH1 0x0 SWAP1 SWAP2 SWAP1 SWAP2 SWAP1 SWAP2 POP PUSH1 0x0 DUP3 ADD MLOAD DUP2 PUSH1 0x0 ADD SSTORE PUSH1 0x20 DUP3 ADD MLOAD DUP2 PUSH1 0x1 ADD PUSH1 0x0 PUSH2 0x100 EXP DUP2 SLOAD DUP2 PUSH20 0xFFFFFFFFFFFFFFFFFFFFFFFFFFFFFFFFFFFFFFFF MUL NOT AND SWAP1 DUP4 PUSH20 0xFFFFFFFFFFFFFFFFFFFFFFFFFFFFFFFFFFFFFFFF AND MUL OR SWAP1 SSTORE POP POP POP JUMPDEST POP POP POP JUMPDEST PUSH1 0x4 DUP11 PUSH1 0x40 MLOAD PUSH2 0x2017 SWAP2 SWAP1 PUSH2 0x4163 JUMP JUMPDEST SWAP1 DUP2 MSTORE PUSH1 0x20 ADD PUSH1 0x40 MLOAD DUP1 SWAP2 SUB SWAP1 KECCAK256 PUSH1 0x0 DUP5 DUP2 MSTORE PUSH1 0x20 ADD SWAP1 DUP2 MSTORE PUSH1 0x20 ADD PUSH1 0x0 KECCAK256 PUSH1 0x0 DUP1 DUP3 ADD PUSH1 0x0 SWAP1 SSTORE PUSH1 0x1 DUP3 ADD PUSH1 0x0 SWAP1 SSTORE POP POP POP POP POP DUP1 DUP1 PUSH2 0x2057 SWAP1 PUSH2 0x4BB8 JUMP JUMPDEST SWAP2 POP POP PUSH2 0x17FD JUMP JUMPDEST POP PUSH1 0x3 DUP7 PUSH1 0x40 MLOAD PUSH2 0x2070 SWAP2 SWAP1 PUSH2 0x4163 JUMP JUMPDEST SWAP1 DUP2 MSTORE PUSH1 0x20 ADD PUSH1 0x40 MLOAD DUP1 SWAP2 SUB SWAP1 KECCAK256 PUSH1 0x0 DUP1 DUP3 ADD PUSH1 0x0 SWAP1 SSTORE PUSH1 0x1 DUP3 ADD PUSH1 0x0 SWAP1 SSTORE PUSH1 0x2 DUP3 ADD PUSH1 0x0 SWAP1 SSTORE PUSH1 0x3 DUP3 ADD PUSH1 0x0 SWAP1 SSTORE PUSH1 0x4 DUP3 ADD PUSH1 0x0 PUSH2 0x100 EXP DUP2 SLOAD SWAP1 PUSH1 0xFF MUL NOT AND SWAP1 SSTORE POP POP PUSH2 0x20C3 DUP8 DUP11 PUSH1 0x0 ADD MLOAD PUSH2 0x2237 JUMP JUMPDEST PUSH1 0x1 SWAP8 POP POP POP POP POP POP POP POP SWAP2 SWAP1 POP JUMP JUMPDEST PUSH1 0x60 PUSH1 0x0 PUSH1 0x1 PUSH1 0x0 DUP5 PUSH20 0xFFFFFFFFFFFFFFFFFFFFFFFFFFFFFFFFFFFFFFFF AND PUSH20 0xFFFFFFFFFFFFFFFFFFFFFFFFFFFFFFFFFFFFFFFF AND DUP2 MSTORE PUSH1 0x20 ADD SWAP1 DUP2 MSTORE PUSH1 0x20 ADD PUSH1 0x0 KECCAK256 PUSH1 0x0 DUP1 DUP2 MSTORE PUSH1 0x20 ADD SWAP1 DUP2 MSTORE PUSH1 0x20 ADD PUSH1 0x0 KECCAK256 SLOAD SWAP1 POP PUSH1 0x2 PUSH1 0x0 DUP5 PUSH20 0xFFFFFFFFFFFFFFFFFFFFFFFFFFFFFFFFFFFFFFFF AND PUSH20 0xFFFFFFFFFFFFFFFFFFFFFFFFFFFFFFFFFFFFFFFF AND DUP2 MSTORE PUSH1 0x20 ADD SWAP1 DUP2 MSTORE PUSH1 0x20 ADD PUSH1 0x0 KECCAK256 PUSH1 0x0 DUP1 DUP2 MSTORE PUSH1 0x20 ADD SWAP1 DUP2 MSTORE PUSH1 0x20 ADD PUSH1 0x0 KECCAK256 DUP1 SLOAD DUP1 PUSH1 0x20 MUL PUSH1 0x20 ADD PUSH1 0x40 MLOAD SWAP1 DUP2 ADD PUSH1 0x40 MSTORE DUP1 SWAP3 SWAP2 SWAP1 DUP2 DUP2 MSTORE PUSH1 0x20 ADD PUSH1 0x0 SWAP1 JUMPDEST DUP3 DUP3 LT ISZERO PUSH2 0x222C JUMPI DUP4 DUP3 SWAP1 PUSH1 0x0 MSTORE PUSH1 0x20 PUSH1 0x0 KECCAK256 SWAP1 PUSH1 0x2 MUL ADD PUSH1 0x40 MLOAD DUP1 PUSH1 0x40 ADD PUSH1 0x40 MSTORE SWAP1 DUP2 PUSH1 0x0 DUP3 ADD SLOAD DUP2 MSTORE PUSH1 0x20 ADD PUSH1 0x1 DUP3 ADD PUSH1 0x0 SWAP1 SLOAD SWAP1 PUSH2 0x100 EXP SWAP1 DIV PUSH20 0xFFFFFFFFFFFFFFFFFFFFFFFFFFFFFFFFFFFFFFFF AND PUSH20 0xFFFFFFFFFFFFFFFFFFFFFFFFFFFFFFFFFFFFFFFF AND PUSH20 0xFFFFFFFFFFFFFFFFFFFFFFFFFFFFFFFFFFFFFFFF AND DUP2 MSTORE POP POP DUP2 MSTORE PUSH1 0x20 ADD SWAP1 PUSH1 0x1 ADD SWAP1 PUSH2 0x219A JUMP JUMPDEST POP POP POP POP SWAP2 POP SWAP2 POP SWAP2 JUMP JUMPDEST PUSH1 0x0 PUSH2 0x2243 DUP4 DUP4 PUSH2 0x736 JUMP JUMPDEST SWAP1 POP PUSH2 0x2284 PUSH1 0x40 MLOAD DUP1 PUSH1 0x40 ADD PUSH1 0x40 MSTORE DUP1 PUSH1 0x12 DUP2 MSTORE PUSH1 0x20 ADD PUSH32 0x3E3E3E4C6F6767696E67206368616E6E656C0000000000000000000000000000 DUP2 MSTORE POP DUP3 PUSH2 0x517 JUMP JUMPDEST PUSH2 0x22E4 PUSH1 0x40 MLOAD DUP1 PUSH1 0x40 ADD PUSH1 0x40 MSTORE DUP1 PUSH1 0xE DUP2 MSTORE PUSH1 0x20 ADD PUSH32 0x77697468647261775F6E6F6E6365000000000000000000000000000000000000 DUP2 MSTORE POP PUSH1 0x3 DUP4 PUSH1 0x40 MLOAD PUSH2 0x22CD SWAP2 SWAP1 PUSH2 0x4163 JUMP JUMPDEST SWAP1 DUP2 MSTORE PUSH1 0x20 ADD PUSH1 0x40 MLOAD DUP1 SWAP2 SUB SWAP1 KECCAK256 PUSH1 0x0 ADD SLOAD PUSH2 0x1635 JUMP JUMPDEST PUSH2 0x2344 PUSH1 0x40 MLOAD DUP1 PUSH1 0x40 ADD PUSH1 0x40 MSTORE DUP1 PUSH1 0xD DUP2 MSTORE PUSH1 0x20 ADD PUSH32 0x646973707574655F6E6F6E636500000000000000000000000000000000000000 DUP2 MSTORE POP PUSH1 0x3 DUP4 PUSH1 0x40 MLOAD PUSH2 0x232D SWAP2 SWAP1 PUSH2 0x4163 JUMP JUMPDEST SWAP1 DUP2 MSTORE PUSH1 0x20 ADD PUSH1 0x40 MLOAD DUP1 SWAP2 SUB SWAP1 KECCAK256 PUSH1 0x1 ADD SLOAD PUSH2 0x1635 JUMP JUMPDEST PUSH1 0x0 JUMPDEST PUSH1 0x5 DUP1 SLOAD SWAP1 POP DUP2 LT ISZERO PUSH2 0x25A4 JUMPI PUSH2 0x2393 PUSH1 0x40 MLOAD DUP1 PUSH1 0x40 ADD PUSH1 0x40 MSTORE DUP1 PUSH1 0x5 DUP2 MSTORE PUSH1 0x20 ADD PUSH32 0x4173736574000000000000000000000000000000000000000000000000000000 DUP2 MSTORE POP DUP3 PUSH2 0x1635 JUMP JUMPDEST PUSH2 0x2421 PUSH1 0x40 MLOAD DUP1 PUSH1 0x40 ADD PUSH1 0x40 MSTORE DUP1 PUSH1 0x9 DUP2 MSTORE PUSH1 0x20 ADD PUSH32 0x4C2062616C616E63650000000000000000000000000000000000000000000000 DUP2 MSTORE POP PUSH1 0x0 DUP1 DUP8 PUSH20 0xFFFFFFFFFFFFFFFFFFFFFFFFFFFFFFFFFFFFFFFF AND PUSH20 0xFFFFFFFFFFFFFFFFFFFFFFFFFFFFFFFFFFFFFFFF AND DUP2 MSTORE PUSH1 0x20 ADD SWAP1 DUP2 MSTORE PUSH1 0x20 ADD PUSH1 0x0 KECCAK256 PUSH1 0x0 DUP5 DUP2 MSTORE PUSH1 0x20 ADD SWAP1 DUP2 MSTORE PUSH1 0x20 ADD PUSH1 0x0 KECCAK256 SLOAD PUSH2 0x1635 JUMP JUMPDEST PUSH2 0x24AF PUSH1 0x40 MLOAD DUP1 PUSH1 0x40 ADD PUSH1 0x40 MSTORE DUP1 PUSH1 0x9 DUP2 MSTORE PUSH1 0x20 ADD PUSH32 0x522062616C616E63650000000000000000000000000000000000000000000000 DUP2 MSTORE POP PUSH1 0x0 DUP1 DUP7 PUSH20 0xFFFFFFFFFFFFFFFFFFFFFFFFFFFFFFFFFFFFFFFF AND PUSH20 0xFFFFFFFFFFFFFFFFFFFFFFFFFFFFFFFFFFFFFFFF AND DUP2 MSTORE PUSH1 0x20 ADD SWAP1 DUP2 MSTORE PUSH1 0x20 ADD PUSH1 0x0 KECCAK256 PUSH1 0x0 DUP5 DUP2 MSTORE PUSH1 0x20 ADD SWAP1 DUP2 MSTORE PUSH1 0x20 ADD PUSH1 0x0 KECCAK256 SLOAD PUSH2 0x1635 JUMP JUMPDEST PUSH2 0x2520 PUSH1 0x40 MLOAD DUP1 PUSH1 0x40 ADD PUSH1 0x40 MSTORE DUP1 PUSH1 0xA DUP2 MSTORE PUSH1 0x20 ADD PUSH32 0x636F6C6C61746572616C00000000000000000000000000000000000000000000 DUP2 MSTORE POP PUSH1 0x4 DUP5 PUSH1 0x40 MLOAD PUSH2 0x24F8 SWAP2 SWAP1 PUSH2 0x4163 JUMP JUMPDEST SWAP1 DUP2 MSTORE PUSH1 0x20 ADD PUSH1 0x40 MLOAD DUP1 SWAP2 SUB SWAP1 KECCAK256 PUSH1 0x0 DUP5 DUP2 MSTORE PUSH1 0x20 ADD SWAP1 DUP2 MSTORE PUSH1 0x20 ADD PUSH1 0x0 KECCAK256 PUSH1 0x0 ADD SLOAD PUSH2 0x1635 JUMP JUMPDEST PUSH2 0x2591 PUSH1 0x40 MLOAD DUP1 PUSH1 0x40 ADD PUSH1 0x40 MSTORE DUP1 PUSH1 0x7 DUP2 MSTORE PUSH1 0x20 ADD PUSH32 0x6F6E64656C746100000000000000000000000000000000000000000000000000 DUP2 MSTORE POP PUSH1 0x4 DUP5 PUSH1 0x40 MLOAD PUSH2 0x2569 SWAP2 SWAP1 PUSH2 0x4163 JUMP JUMPDEST SWAP1 DUP2 MSTORE PUSH1 0x20 ADD PUSH1 0x40 MLOAD DUP1 SWAP2 SUB SWAP1 KECCAK256 PUSH1 0x0 DUP5 DUP2 MSTORE PUSH1 0x20 ADD SWAP1 DUP2 MSTORE PUSH1 0x20 ADD PUSH1 0x0 KECCAK256 PUSH1 0x1 ADD SLOAD PUSH2 0x7BD JUMP JUMPDEST DUP1 DUP1 PUSH2 0x259C SWAP1 PUSH2 0x4BB8 JUMP JUMPDEST SWAP2 POP POP PUSH2 0x2347 JUMP JUMPDEST POP POP POP POP JUMP JUMPDEST PUSH32 0x4C34C2F9A78632F29FA59AAED5514CB742FD9FBCFD7CCC2C03C85F2BBC621C47 DUP3 DUP3 PUSH1 0x40 MLOAD PUSH2 0x25DB SWAP3 SWAP2 SWAP1 PUSH2 0x432E JUMP JUMPDEST PUSH1 0x40 MLOAD DUP1 SWAP2 SUB SWAP1 LOG1 POP POP JUMP JUMPDEST PUSH1 0x5 DUP2 DUP2 SLOAD DUP2 LT PUSH2 0x25F7 JUMPI PUSH1 0x0 DUP1 REVERT JUMPDEST SWAP1 PUSH1 0x0 MSTORE PUSH1 0x20 PUSH1 0x0 KECCAK256 ADD PUSH1 0x0 SWAP2 POP SWAP1 POP DUP1 PUSH1 0x0 ADD DUP1 SLOAD PUSH2 0x2616 SWAP1 PUSH2 0x4B55 JUMP JUMPDEST DUP1 PUSH1 0x1F ADD PUSH1 0x20 DUP1 SWAP2 DIV MUL PUSH1 0x20 ADD PUSH1 0x40 MLOAD SWAP1 DUP2 ADD PUSH1 0x40 MSTORE DUP1 SWAP3 SWAP2 SWAP1 DUP2 DUP2 MSTORE PUSH1 0x20 ADD DUP3 DUP1 SLOAD PUSH2 0x2642 SWAP1 PUSH2 0x4B55 JUMP JUMPDEST DUP1 ISZERO PUSH2 0x268F JUMPI DUP1 PUSH1 0x1F LT PUSH2 0x2664 JUMPI PUSH2 0x100 DUP1 DUP4 SLOAD DIV MUL DUP4 MSTORE SWAP2 PUSH1 0x20 ADD SWAP2 PUSH2 0x268F JUMP JUMPDEST DUP3 ADD SWAP2 SWAP1 PUSH1 0x0 MSTORE PUSH1 0x20 PUSH1 0x0 KECCAK256 SWAP1 JUMPDEST DUP2 SLOAD DUP2 MSTORE SWAP1 PUSH1 0x1 ADD SWAP1 PUSH1 0x20 ADD DUP1 DUP4 GT PUSH2 0x2672 JUMPI DUP3 SWAP1 SUB PUSH1 0x1F AND DUP3 ADD SWAP2 JUMPDEST POP POP POP POP POP SWAP1 POP DUP2 JUMP JUMPDEST PUSH1 0x0 DUP1 DUP3 PUSH1 0x20 ADD MLOAD PUSH20 0xFFFFFFFFFFFFFFFFFFFFFFFFFFFFFFFFFFFFFFFF AND DUP4 PUSH1 0x0 ADD MLOAD PUSH20 0xFFFFFFFFFFFFFFFFFFFFFFFFFFFFFFFFFFFFFFFF AND LT SWAP1 POP PUSH2 0x274C PUSH1 0x40 MLOAD DUP1 PUSH1 0x40 ADD PUSH1 0x40 MSTORE DUP1 PUSH1 0x9 DUP2 MSTORE PUSH1 0x20 ADD PUSH32 0x656E756D20747970650000000000000000000000000000000000000000000000 DUP2 MSTORE POP PUSH1 0x3 DUP1 DUP2 GT ISZERO PUSH2 0x2747 JUMPI PUSH32 0x4E487B7100000000000000000000000000000000000000000000000000000000 PUSH1 0x0 MSTORE PUSH1 0x21 PUSH1 0x4 MSTORE PUSH1 0x24 PUSH1 0x0 REVERT JUMPDEST PUSH2 0x1635 JUMP JUMPDEST PUSH2 0x275E DUP4 PUSH1 0x0 ADD MLOAD DUP5 PUSH1 0x20 ADD MLOAD PUSH2 0x2237 JUMP JUMPDEST PUSH1 0x0 JUMPDEST DUP4 PUSH1 0x40 ADD MLOAD MLOAD DUP2 LT ISZERO PUSH2 0x2A2E JUMPI PUSH1 0x0 DUP5 PUSH1 0x40 ADD MLOAD DUP3 DUP2 MLOAD DUP2 LT PUSH2 0x27AD JUMPI PUSH32 0x4E487B7100000000000000000000000000000000000000000000000000000000 PUSH1 0x0 MSTORE PUSH1 0x32 PUSH1 0x4 MSTORE PUSH1 0x24 PUSH1 0x0 REVERT JUMPDEST PUSH1 0x20 MUL PUSH1 0x20 ADD ADD MLOAD PUSH1 0x0 ADD MLOAD SWAP1 POP PUSH1 0x0 DUP6 PUSH1 0x40 ADD MLOAD DUP4 DUP2 MLOAD DUP2 LT PUSH2 0x27FA JUMPI PUSH32 0x4E487B7100000000000000000000000000000000000000000000000000000000 PUSH1 0x0 MSTORE PUSH1 0x32 PUSH1 0x4 MSTORE PUSH1 0x24 PUSH1 0x0 REVERT JUMPDEST PUSH1 0x20 MUL PUSH1 0x20 ADD ADD MLOAD PUSH1 0x20 ADD MLOAD SWAP1 POP DUP1 PUSH1 0x0 DUP1 CALLER PUSH20 0xFFFFFFFFFFFFFFFFFFFFFFFFFFFFFFFFFFFFFFFF AND PUSH20 0xFFFFFFFFFFFFFFFFFFFFFFFFFFFFFFFFFFFFFFFF AND DUP2 MSTORE PUSH1 0x20 ADD SWAP1 DUP2 MSTORE PUSH1 0x20 ADD PUSH1 0x0 KECCAK256 PUSH1 0x0 DUP5 DUP2 MSTORE PUSH1 0x20 ADD SWAP1 DUP2 MSTORE PUSH1 0x20 ADD PUSH1 0x0 KECCAK256 SLOAD LT PUSH2 0x29CD JUMPI PUSH1 0x0 PUSH1 0x4 PUSH2 0x2874 DUP9 PUSH1 0x0 ADD MLOAD DUP10 PUSH1 0x20 ADD MLOAD PUSH2 0x736 JUMP JUMPDEST PUSH1 0x40 MLOAD PUSH2 0x2881 SWAP2 SWAP1 PUSH2 0x4163 JUMP JUMPDEST SWAP1 DUP2 MSTORE PUSH1 0x20 ADD PUSH1 0x40 MLOAD DUP1 SWAP2 SUB SWAP1 KECCAK256 PUSH1 0x0 DUP5 DUP2 MSTORE PUSH1 0x20 ADD SWAP1 DUP2 MSTORE PUSH1 0x20 ADD PUSH1 0x0 KECCAK256 SWAP1 POP DUP2 PUSH1 0x0 DUP1 CALLER PUSH20 0xFFFFFFFFFFFFFFFFFFFFFFFFFFFFFFFFFFFFFFFF AND PUSH20 0xFFFFFFFFFFFFFFFFFFFFFFFFFFFFFFFFFFFFFFFF AND DUP2 MSTORE PUSH1 0x20 ADD SWAP1 DUP2 MSTORE PUSH1 0x20 ADD PUSH1 0x0 KECCAK256 PUSH1 0x0 DUP6 DUP2 MSTORE PUSH1 0x20 ADD SWAP1 DUP2 MSTORE PUSH1 0x20 ADD PUSH1 0x0 KECCAK256 PUSH1 0x0 DUP3 DUP3 SLOAD PUSH2 0x2901 SWAP2 SWAP1 PUSH2 0x4A76 JUMP JUMPDEST SWAP3 POP POP DUP2 SWAP1 SSTORE POP DUP2 DUP2 PUSH1 0x0 ADD PUSH1 0x0 DUP3 DUP3 SLOAD PUSH2 0x291C SWAP2 SWAP1 PUSH2 0x48CA JUMP JUMPDEST SWAP3 POP POP DUP2 SWAP1 SSTORE POP DUP5 ISZERO PUSH2 0x2988 JUMPI DUP2 DUP2 PUSH1 0x1 ADD PUSH1 0x0 DUP3 DUP3 SLOAD PUSH2 0x293D SWAP2 SWAP1 PUSH2 0x4836 JUMP JUMPDEST SWAP3 POP POP DUP2 SWAP1 SSTORE POP PUSH2 0x2987 PUSH1 0x40 MLOAD DUP1 PUSH1 0x40 ADD PUSH1 0x40 MSTORE DUP1 PUSH1 0xB DUP2 MSTORE PUSH1 0x20 ADD PUSH32 0x6E6577206F6E64656C7461000000000000000000000000000000000000000000 DUP2 MSTORE POP DUP3 PUSH1 0x1 ADD SLOAD PUSH2 0x7BD JUMP JUMPDEST JUMPDEST PUSH2 0x29C7 PUSH1 0x40 MLOAD DUP1 PUSH1 0x40 ADD PUSH1 0x40 MSTORE DUP1 PUSH1 0x15 DUP2 MSTORE PUSH1 0x20 ADD PUSH32 0x4465706F736974656420746F206368616E6E656C200000000000000000000000 DUP2 MSTORE POP DUP4 PUSH2 0x1635 JUMP JUMPDEST POP PUSH2 0x2A19 JUMP JUMPDEST PUSH2 0x2A0C PUSH1 0x40 MLOAD DUP1 PUSH1 0x40 ADD PUSH1 0x40 MSTORE DUP1 PUSH1 0x10 DUP2 MSTORE PUSH1 0x20 ADD PUSH32 0x6E6F7420656E6F7567682066756E647300000000000000000000000000000000 DUP2 MSTORE POP CALLER PUSH2 0x554 JUMP JUMPDEST PUSH1 0x0 SWAP5 POP POP POP POP POP PUSH2 0x2A47 JUMP JUMPDEST POP POP DUP1 DUP1 PUSH2 0x2A26 SWAP1 PUSH2 0x4BB8 JUMP JUMPDEST SWAP2 POP POP PUSH2 0x2761 JUMP JUMPDEST POP PUSH2 0x2A41 DUP4 PUSH1 0x0 ADD MLOAD DUP5 PUSH1 0x20 ADD MLOAD PUSH2 0x2237 JUMP JUMPDEST PUSH1 0x1 SWAP2 POP POP JUMPDEST SWAP2 SWAP1 POP JUMP JUMPDEST PUSH1 0x0 DUP2 PUSH1 0x40 MLOAD PUSH1 0x20 ADD PUSH2 0x2A5F SWAP2 SWAP1 PUSH2 0x417A JUMP JUMPDEST PUSH1 0x40 MLOAD PUSH1 0x20 DUP2 DUP4 SUB SUB DUP2 MSTORE SWAP1 PUSH1 0x40 MSTORE DUP1 MLOAD SWAP1 PUSH1 0x20 ADD KECCAK256 SWAP1 POP SWAP2 SWAP1 POP JUMP JUMPDEST PUSH1 0x0 PUSH1 0x41 DUP3 MLOAD EQ PUSH2 0x2AC2 JUMPI PUSH1 0x40 MLOAD PUSH32 0x8C379A000000000000000000000000000000000000000000000000000000000 DUP2 MSTORE PUSH1 0x4 ADD PUSH2 0x2AB9 SWAP1 PUSH2 0x4445 JUMP JUMPDEST PUSH1 0x40 MLOAD DUP1 SWAP2 SUB SWAP1 REVERT JUMPDEST PUSH1 0x0 DUP1 PUSH1 0x0 PUSH1 0x20 DUP6 ADD MLOAD SWAP3 POP PUSH1 0x40 DUP6 ADD MLOAD SWAP2 POP PUSH1 0x60 DUP6 ADD MLOAD PUSH1 0x0 BYTE SWAP1 POP PUSH2 0x2AEB DUP7 DUP3 DUP6 DUP6 PUSH2 0x2CCB JUMP JUMPDEST SWAP4 POP POP POP POP SWAP3 SWAP2 POP POP JUMP JUMPDEST PUSH1 0x60 PUSH1 0x0 DUP3 EQ ISZERO PUSH2 0x2B3E JUMPI PUSH1 0x40 MLOAD DUP1 PUSH1 0x40 ADD PUSH1 0x40 MSTORE DUP1 PUSH1 0x1 DUP2 MSTORE PUSH1 0x20 ADD PUSH32 0x3000000000000000000000000000000000000000000000000000000000000000 DUP2 MSTORE POP SWAP1 POP PUSH2 0x2CC6 JUMP JUMPDEST PUSH1 0x0 DUP3 SWAP1 POP PUSH1 0x0 JUMPDEST PUSH1 0x0 DUP3 EQ PUSH2 0x2B70 JUMPI DUP1 DUP1 PUSH2 0x2B59 SWAP1 PUSH2 0x4BB8 JUMP JUMPDEST SWAP2 POP POP PUSH1 0xA DUP3 PUSH2 0x2B69 SWAP2 SWAP1 PUSH2 0x4957 JUMP JUMPDEST SWAP2 POP PUSH2 0x2B46 JUMP JUMPDEST PUSH1 0x0 DUP2 PUSH8 0xFFFFFFFFFFFFFFFF DUP2 GT ISZERO PUSH2 0x2BB2 JUMPI PUSH32 0x4E487B7100000000000000000000000000000000000000000000000000000000 PUSH1 0x0 MSTORE PUSH1 0x41 PUSH1 0x4 MSTORE PUSH1 0x24 PUSH1 0x0 REVERT JUMPDEST PUSH1 0x40 MLOAD SWAP1 DUP1 DUP3 MSTORE DUP1 PUSH1 0x1F ADD PUSH1 0x1F NOT AND PUSH1 0x20 ADD DUP3 ADD PUSH1 0x40 MSTORE DUP1 ISZERO PUSH2 0x2BE4 JUMPI DUP2 PUSH1 0x20 ADD PUSH1 0x1 DUP3 MUL DUP1 CALLDATASIZE DUP4 CALLDATACOPY DUP1 DUP3 ADD SWAP2 POP POP SWAP1 POP JUMPDEST POP SWAP1 POP PUSH1 0x0 DUP3 SWAP1 POP JUMPDEST PUSH1 0x0 DUP7 EQ PUSH2 0x2CBE JUMPI PUSH1 0x1 DUP2 PUSH2 0x2C02 SWAP2 SWAP1 PUSH2 0x4A76 JUMP JUMPDEST SWAP1 POP PUSH1 0x0 PUSH1 0xA DUP1 DUP9 PUSH2 0x2C14 SWAP2 SWAP1 PUSH2 0x4957 JUMP JUMPDEST PUSH2 0x2C1E SWAP2 SWAP1 PUSH2 0x4988 JUMP JUMPDEST DUP8 PUSH2 0x2C29 SWAP2 SWAP1 PUSH2 0x4A76 JUMP JUMPDEST PUSH1 0x30 PUSH2 0x2C35 SWAP2 SWAP1 PUSH2 0x4920 JUMP JUMPDEST SWAP1 POP PUSH1 0x0 DUP2 PUSH1 0xF8 SHL SWAP1 POP DUP1 DUP5 DUP5 DUP2 MLOAD DUP2 LT PUSH2 0x2C79 JUMPI PUSH32 0x4E487B7100000000000000000000000000000000000000000000000000000000 PUSH1 0x0 MSTORE PUSH1 0x32 PUSH1 0x4 MSTORE PUSH1 0x24 PUSH1 0x0 REVERT JUMPDEST PUSH1 0x20 ADD ADD SWAP1 PUSH31 0xFFFFFFFFFFFFFFFFFFFFFFFFFFFFFFFFFFFFFFFFFFFFFFFFFFFFFFFFFFFFFF NOT AND SWAP1 DUP2 PUSH1 0x0 BYTE SWAP1 MSTORE8 POP PUSH1 0xA DUP9 PUSH2 0x2CB5 SWAP2 SWAP1 PUSH2 0x4957 JUMP JUMPDEST SWAP8 POP POP POP PUSH2 0x2BED JUMP JUMPDEST DUP2 SWAP5 POP POP POP POP POP JUMPDEST SWAP2 SWAP1 POP JUMP JUMPDEST PUSH1 0x0 PUSH32 0x7FFFFFFFFFFFFFFFFFFFFFFFFFFFFFFF5D576E7357A4501DDFE92F46681B20A0 DUP3 PUSH1 0x0 SHR GT ISZERO PUSH2 0x2D33 JUMPI PUSH1 0x40 MLOAD PUSH32 0x8C379A000000000000000000000000000000000000000000000000000000000 DUP2 MSTORE PUSH1 0x4 ADD PUSH2 0x2D2A SWAP1 PUSH2 0x4465 JUMP JUMPDEST PUSH1 0x40 MLOAD DUP1 SWAP2 SUB SWAP1 REVERT JUMPDEST PUSH1 0x1B DUP5 PUSH1 0xFF AND EQ DUP1 PUSH2 0x2D48 JUMPI POP PUSH1 0x1C DUP5 PUSH1 0xFF AND EQ JUMPDEST PUSH2 0x2D87 JUMPI PUSH1 0x40 MLOAD PUSH32 0x8C379A000000000000000000000000000000000000000000000000000000000 DUP2 MSTORE PUSH1 0x4 ADD PUSH2 0x2D7E SWAP1 PUSH2 0x4485 JUMP JUMPDEST PUSH1 0x40 MLOAD DUP1 SWAP2 SUB SWAP1 REVERT JUMPDEST PUSH1 0x0 PUSH1 0x1 DUP7 DUP7 DUP7 DUP7 PUSH1 0x40 MLOAD PUSH1 0x0 DUP2 MSTORE PUSH1 0x20 ADD PUSH1 0x40 MSTORE PUSH1 0x40 MLOAD PUSH2 0x2DAC SWAP5 SWAP4 SWAP3 SWAP2 SWAP1 PUSH2 0x41EB JUMP JUMPDEST PUSH1 0x20 PUSH1 0x40 MLOAD PUSH1 0x20 DUP2 SUB SWAP1 DUP1 DUP5 SUB SWAP1 DUP6 GAS STATICCALL ISZERO DUP1 ISZERO PUSH2 0x2DCE JUMPI RETURNDATASIZE PUSH1 0x0 DUP1 RETURNDATACOPY RETURNDATASIZE PUSH1 0x0 REVERT JUMPDEST POP POP POP PUSH1 0x20 PUSH1 0x40 MLOAD SUB MLOAD SWAP1 POP PUSH1 0x0 PUSH20 0xFFFFFFFFFFFFFFFFFFFFFFFFFFFFFFFFFFFFFFFF AND DUP2 PUSH20 0xFFFFFFFFFFFFFFFFFFFFFFFFFFFFFFFFFFFFFFFF AND EQ ISZERO PUSH2 0x2E4A JUMPI PUSH1 0x40 MLOAD PUSH32 0x8C379A000000000000000000000000000000000000000000000000000000000 DUP2 MSTORE PUSH1 0x4 ADD PUSH2 0x2E41 SWAP1 PUSH2 0x4425 JUMP JUMPDEST PUSH1 0x40 MLOAD DUP1 SWAP2 SUB SWAP1 REVERT JUMPDEST DUP1 SWAP2 POP POP SWAP5 SWAP4 POP POP POP POP JUMP JUMPDEST POP DUP1 SLOAD PUSH1 0x0 DUP3 SSTORE PUSH1 0x2 MUL SWAP1 PUSH1 0x0 MSTORE PUSH1 0x20 PUSH1 0x0 KECCAK256 SWAP1 DUP2 ADD SWAP1 PUSH2 0x2E77 SWAP2 SWAP1 PUSH2 0x2EE8 JUMP JUMPDEST POP JUMP JUMPDEST PUSH1 0x40 MLOAD DUP1 PUSH1 0x20 ADD PUSH1 0x40 MSTORE DUP1 PUSH1 0x60 DUP2 MSTORE POP SWAP1 JUMP JUMPDEST PUSH1 0x40 MLOAD DUP1 PUSH1 0x60 ADD PUSH1 0x40 MSTORE DUP1 PUSH1 0x0 DUP2 MSTORE PUSH1 0x20 ADD PUSH1 0x60 DUP2 MSTORE PUSH1 0x20 ADD PUSH1 0x0 DUP2 MSTORE POP SWAP1 JUMP JUMPDEST PUSH1 0x40 MLOAD DUP1 PUSH1 0x40 ADD PUSH1 0x40 MSTORE DUP1 PUSH2 0x2EC1 PUSH2 0x2F2E JUMP JUMPDEST DUP2 MSTORE PUSH1 0x20 ADD PUSH1 0x60 DUP2 MSTORE POP SWAP1 JUMP JUMPDEST PUSH1 0x40 MLOAD DUP1 PUSH1 0x40 ADD PUSH1 0x40 MSTORE DUP1 PUSH1 0x0 DUP2 MSTORE PUSH1 0x20 ADD PUSH1 0x0 DUP2 MSTORE POP SWAP1 JUMP JUMPDEST JUMPDEST DUP1 DUP3 GT ISZERO PUSH2 0x2F2A JUMPI PUSH1 0x0 DUP1 DUP3 ADD PUSH1 0x0 SWAP1 SSTORE PUSH1 0x1 DUP3 ADD PUSH1 0x0 PUSH2 0x100 EXP DUP2 SLOAD SWAP1 PUSH20 0xFFFFFFFFFFFFFFFFFFFFFFFFFFFFFFFFFFFFFFFF MUL NOT AND SWAP1 SSTORE POP PUSH1 0x2 ADD PUSH2 0x2EE9 JUMP JUMPDEST POP SWAP1 JUMP JUMPDEST PUSH1 0x40 MLOAD DUP1 PUSH1 0xA0 ADD PUSH1 0x40 MSTORE DUP1 PUSH1 0x0 DUP2 MSTORE PUSH1 0x20 ADD PUSH1 0x0 DUP2 MSTORE PUSH1 0x20 ADD PUSH1 0x0 DUP2 MSTORE PUSH1 0x20 ADD PUSH1 0x0 DUP1 NOT AND DUP2 MSTORE PUSH1 0x20 ADD PUSH1 0x0 ISZERO ISZERO DUP2 MSTORE POP SWAP1 JUMP JUMPDEST PUSH1 0x0 PUSH2 0x2F75 PUSH2 0x2F70 DUP5 PUSH2 0x457C JUMP JUMPDEST PUSH2 0x4557 JUMP JUMPDEST SWAP1 POP DUP1 DUP4 DUP3 MSTORE PUSH1 0x20 DUP3 ADD SWAP1 POP DUP3 DUP6 PUSH1 0x40 DUP7 MUL DUP3 ADD GT ISZERO PUSH2 0x2F94 JUMPI PUSH1 0x0 DUP1 REVERT JUMPDEST PUSH1 0x0 JUMPDEST DUP6 DUP2 LT ISZERO PUSH2 0x2FC4 JUMPI DUP2 PUSH2 0x2FAA DUP9 DUP3 PUSH2 0x3347 JUMP JUMPDEST DUP5 MSTORE PUSH1 0x20 DUP5 ADD SWAP4 POP PUSH1 0x40 DUP4 ADD SWAP3 POP POP PUSH1 0x1 DUP2 ADD SWAP1 POP PUSH2 0x2F97 JUMP JUMPDEST POP POP POP SWAP4 SWAP3 POP POP POP JUMP JUMPDEST PUSH1 0x0 PUSH2 0x2FE1 PUSH2 0x2FDC DUP5 PUSH2 0x45A8 JUMP JUMPDEST PUSH2 0x4557 JUMP JUMPDEST SWAP1 POP DUP1 DUP4 DUP3 MSTORE PUSH1 0x20 DUP3 ADD SWAP1 POP DUP3 PUSH1 0x0 JUMPDEST DUP6 DUP2 LT ISZERO PUSH2 0x3021 JUMPI DUP2 CALLDATALOAD DUP6 ADD PUSH2 0x3007 DUP9 DUP3 PUSH2 0x3393 JUMP JUMPDEST DUP5 MSTORE PUSH1 0x20 DUP5 ADD SWAP4 POP PUSH1 0x20 DUP4 ADD SWAP3 POP POP PUSH1 0x1 DUP2 ADD SWAP1 POP PUSH2 0x2FF1 JUMP JUMPDEST POP POP POP SWAP4 SWAP3 POP POP POP JUMP JUMPDEST PUSH1 0x0 PUSH2 0x303E PUSH2 0x3039 DUP5 PUSH2 0x45D4 JUMP JUMPDEST PUSH2 0x4557 JUMP JUMPDEST SWAP1 POP DUP1 DUP4 DUP3 MSTORE PUSH1 0x20 DUP3 ADD SWAP1 POP DUP3 DUP6 PUSH1 0x40 DUP7 MUL DUP3 ADD GT ISZERO PUSH2 0x305D JUMPI PUSH1 0x0 DUP1 REVERT JUMPDEST PUSH1 0x0 JUMPDEST DUP6 DUP2 LT ISZERO PUSH2 0x308D JUMPI DUP2 PUSH2 0x3073 DUP9 DUP3 PUSH2 0x340B JUMP JUMPDEST DUP5 MSTORE PUSH1 0x20 DUP5 ADD SWAP4 POP PUSH1 0x40 DUP4 ADD SWAP3 POP POP PUSH1 0x1 DUP2 ADD SWAP1 POP PUSH2 0x3060 JUMP JUMPDEST POP POP POP SWAP4 SWAP3 POP POP POP JUMP JUMPDEST PUSH1 0x0 PUSH2 0x30AA PUSH2 0x30A5 DUP5 PUSH2 0x4600 JUMP JUMPDEST PUSH2 0x4557 JUMP JUMPDEST SWAP1 POP DUP1 DUP4 DUP3 MSTORE PUSH1 0x20 DUP3 ADD SWAP1 POP DUP3 PUSH1 0x0 JUMPDEST DUP6 DUP2 LT ISZERO PUSH2 0x30EA JUMPI DUP2 CALLDATALOAD DUP6 ADD PUSH2 0x30D0 DUP9 DUP3 PUSH2 0x3457 JUMP JUMPDEST DUP5 MSTORE PUSH1 0x20 DUP5 ADD SWAP4 POP PUSH1 0x20 DUP4 ADD SWAP3 POP POP PUSH1 0x1 DUP2 ADD SWAP1 POP PUSH2 0x30BA JUMP JUMPDEST POP POP POP SWAP4 SWAP3 POP POP POP JUMP JUMPDEST PUSH1 0x0 PUSH2 0x3107 PUSH2 0x3102 DUP5 PUSH2 0x462C JUMP JUMPDEST PUSH2 0x4557 JUMP JUMPDEST SWAP1 POP DUP1 DUP4 DUP3 MSTORE PUSH1 0x20 DUP3 ADD SWAP1 POP DUP3 PUSH1 0x0 JUMPDEST DUP6 DUP2 LT ISZERO PUSH2 0x3147 JUMPI DUP2 CALLDATALOAD DUP6 ADD PUSH2 0x312D DUP9 DUP3 PUSH2 0x34FB JUMP JUMPDEST DUP5 MSTORE PUSH1 0x20 DUP5 ADD SWAP4 POP PUSH1 0x20 DUP4 ADD SWAP3 POP POP PUSH1 0x1 DUP2 ADD SWAP1 POP PUSH2 0x3117 JUMP JUMPDEST POP POP POP SWAP4 SWAP3 POP POP POP JUMP JUMPDEST PUSH1 0x0 PUSH2 0x3164 PUSH2 0x315F DUP5 PUSH2 0x4658 JUMP JUMPDEST PUSH2 0x4557 JUMP JUMPDEST SWAP1 POP DUP3 DUP2 MSTORE PUSH1 0x20 DUP2 ADD DUP5 DUP5 DUP5 ADD GT ISZERO PUSH2 0x317C JUMPI PUSH1 0x0 DUP1 REVERT JUMPDEST PUSH2 0x3187 DUP5 DUP3 DUP6 PUSH2 0x4B13 JUMP JUMPDEST POP SWAP4 SWAP3 POP POP POP JUMP JUMPDEST PUSH1 0x0 PUSH2 0x31A2 PUSH2 0x319D DUP5 PUSH2 0x4689 JUMP JUMPDEST PUSH2 0x4557 JUMP JUMPDEST SWAP1 POP DUP3 DUP2 MSTORE PUSH1 0x20 DUP2 ADD DUP5 DUP5 DUP5 ADD GT ISZERO PUSH2 0x31BA JUMPI PUSH1 0x0 DUP1 REVERT JUMPDEST PUSH2 0x31C5 DUP5 DUP3 DUP6 PUSH2 0x4B13 JUMP JUMPDEST POP SWAP4 SWAP3 POP POP POP JUMP JUMPDEST PUSH1 0x0 DUP2 CALLDATALOAD SWAP1 POP PUSH2 0x31DC DUP2 PUSH2 0x4E6B JUMP JUMPDEST SWAP3 SWAP2 POP POP JUMP JUMPDEST PUSH1 0x0 DUP3 PUSH1 0x1F DUP4 ADD SLT PUSH2 0x31F3 JUMPI PUSH1 0x0 DUP1 REVERT JUMPDEST DUP2 CALLDATALOAD PUSH2 0x3203 DUP5 DUP3 PUSH1 0x20 DUP7 ADD PUSH2 0x2F62 JUMP JUMPDEST SWAP2 POP POP SWAP3 SWAP2 POP POP JUMP JUMPDEST PUSH1 0x0 DUP3 PUSH1 0x1F DUP4 ADD SLT PUSH2 0x321D JUMPI PUSH1 0x0 DUP1 REVERT JUMPDEST DUP2 CALLDATALOAD PUSH2 0x322D DUP5 DUP3 PUSH1 0x20 DUP7 ADD PUSH2 0x2FCE JUMP JUMPDEST SWAP2 POP POP SWAP3 SWAP2 POP POP JUMP JUMPDEST PUSH1 0x0 DUP3 PUSH1 0x1F DUP4 ADD SLT PUSH2 0x3247 JUMPI PUSH1 0x0 DUP1 REVERT JUMPDEST DUP2 CALLDATALOAD PUSH2 0x3257 DUP5 DUP3 PUSH1 0x20 DUP7 ADD PUSH2 0x302B JUMP JUMPDEST SWAP2 POP POP SWAP3 SWAP2 POP POP JUMP JUMPDEST PUSH1 0x0 DUP3 PUSH1 0x1F DUP4 ADD SLT PUSH2 0x3271 JUMPI PUSH1 0x0 DUP1 REVERT JUMPDEST DUP2 CALLDATALOAD PUSH2 0x3281 DUP5 DUP3 PUSH1 0x20 DUP7 ADD PUSH2 0x3097 JUMP JUMPDEST SWAP2 POP POP SWAP3 SWAP2 POP POP JUMP JUMPDEST PUSH1 0x0 DUP3 PUSH1 0x1F DUP4 ADD SLT PUSH2 0x329B JUMPI PUSH1 0x0 DUP1 REVERT JUMPDEST DUP2 CALLDATALOAD PUSH2 0x32AB DUP5 DUP3 PUSH1 0x20 DUP7 ADD PUSH2 0x30F4 JUMP JUMPDEST SWAP2 POP POP SWAP3 SWAP2 POP POP JUMP JUMPDEST PUSH1 0x0 DUP2 CALLDATALOAD SWAP1 POP PUSH2 0x32C3 DUP2 PUSH2 0x4E82 JUMP JUMPDEST SWAP3 SWAP2 POP POP JUMP JUMPDEST PUSH1 0x0 DUP2 CALLDATALOAD SWAP1 POP PUSH2 0x32D8 DUP2 PUSH2 0x4E99 JUMP JUMPDEST SWAP3 SWAP2 POP POP JUMP JUMPDEST PUSH1 0x0 DUP3 PUSH1 0x1F DUP4 ADD SLT PUSH2 0x32EF JUMPI PUSH1 0x0 DUP1 REVERT JUMPDEST DUP2 CALLDATALOAD PUSH2 0x32FF DUP5 DUP3 PUSH1 0x20 DUP7 ADD PUSH2 0x3151 JUMP JUMPDEST SWAP2 POP POP SWAP3 SWAP2 POP POP JUMP JUMPDEST PUSH1 0x0 DUP2 CALLDATALOAD SWAP1 POP PUSH2 0x3317 DUP2 PUSH2 0x4EB0 JUMP JUMPDEST SWAP3 SWAP2 POP POP JUMP JUMPDEST PUSH1 0x0 DUP3 PUSH1 0x1F DUP4 ADD SLT PUSH2 0x332E JUMPI PUSH1 0x0 DUP1 REVERT JUMPDEST DUP2 CALLDATALOAD PUSH2 0x333E DUP5 DUP3 PUSH1 0x20 DUP7 ADD PUSH2 0x318F JUMP JUMPDEST SWAP2 POP POP SWAP3 SWAP2 POP POP JUMP JUMPDEST PUSH1 0x0 PUSH1 0x40 DUP3 DUP5 SUB SLT ISZERO PUSH2 0x3359 JUMPI PUSH1 0x0 DUP1 REVERT JUMPDEST PUSH2 0x3363 PUSH1 0x40 PUSH2 0x4557 JUMP JUMPDEST SWAP1 POP PUSH1 0x0 PUSH2 0x3373 DUP5 DUP3 DUP6 ADD PUSH2 0x359F JUMP JUMPDEST PUSH1 0x0 DUP4 ADD MSTORE POP PUSH1 0x20 PUSH2 0x3387 DUP5 DUP3 DUP6 ADD PUSH2 0x359F JUMP JUMPDEST PUSH1 0x20 DUP4 ADD MSTORE POP SWAP3 SWAP2 POP POP JUMP JUMPDEST PUSH1 0x0 PUSH1 0x60 DUP3 DUP5 SUB SLT ISZERO PUSH2 0x33A5 JUMPI PUSH1 0x0 DUP1 REVERT JUMPDEST PUSH2 0x33AF PUSH1 0x60 PUSH2 0x4557 JUMP JUMPDEST SWAP1 POP PUSH1 0x0 PUSH2 0x33BF DUP5 DUP3 DUP6 ADD PUSH2 0x31CD JUMP JUMPDEST PUSH1 0x0 DUP4 ADD MSTORE POP PUSH1 0x20 PUSH2 0x33D3 DUP5 DUP3 DUP6 ADD PUSH2 0x31CD JUMP JUMPDEST PUSH1 0x20 DUP4 ADD MSTORE POP PUSH1 0x40 DUP3 ADD CALLDATALOAD PUSH8 0xFFFFFFFFFFFFFFFF DUP2 GT ISZERO PUSH2 0x33F3 JUMPI PUSH1 0x0 DUP1 REVERT JUMPDEST PUSH2 0x33FF DUP5 DUP3 DUP6 ADD PUSH2 0x31E2 JUMP JUMPDEST PUSH1 0x40 DUP4 ADD MSTORE POP SWAP3 SWAP2 POP POP JUMP JUMPDEST PUSH1 0x0 PUSH1 0x40 DUP3 DUP5 SUB SLT ISZERO PUSH2 0x341D JUMPI PUSH1 0x0 DUP1 REVERT JUMPDEST PUSH2 0x3427 PUSH1 0x40 PUSH2 0x4557 JUMP JUMPDEST SWAP1 POP PUSH1 0x0 PUSH2 0x3437 DUP5 DUP3 DUP6 ADD PUSH2 0x359F JUMP JUMPDEST PUSH1 0x0 DUP4 ADD MSTORE POP PUSH1 0x20 PUSH2 0x344B DUP5 DUP3 DUP6 ADD PUSH2 0x3308 JUMP JUMPDEST PUSH1 0x20 DUP4 ADD MSTORE POP SWAP3 SWAP2 POP POP JUMP JUMPDEST PUSH1 0x0 PUSH1 0x80 DUP3 DUP5 SUB SLT ISZERO PUSH2 0x3469 JUMPI PUSH1 0x0 DUP1 REVERT JUMPDEST PUSH2 0x3473 PUSH1 0x80 PUSH2 0x4557 JUMP JUMPDEST SWAP1 POP PUSH1 0x0 PUSH2 0x3483 DUP5 DUP3 DUP6 ADD PUSH2 0x31CD JUMP JUMPDEST PUSH1 0x0 DUP4 ADD MSTORE POP PUSH1 0x20 PUSH2 0x3497 DUP5 DUP3 DUP6 ADD PUSH2 0x359F JUMP JUMPDEST PUSH1 0x20 DUP4 ADD MSTORE POP PUSH1 0x40 DUP3 ADD CALLDATALOAD PUSH8 0xFFFFFFFFFFFFFFFF DUP2 GT ISZERO PUSH2 0x34B7 JUMPI PUSH1 0x0 DUP1 REVERT JUMPDEST PUSH2 0x34C3 DUP5 DUP3 DUP6 ADD PUSH2 0x3236 JUMP JUMPDEST PUSH1 0x40 DUP4 ADD MSTORE POP PUSH1 0x60 DUP3 ADD CALLDATALOAD PUSH8 0xFFFFFFFFFFFFFFFF DUP2 GT ISZERO PUSH2 0x34E3 JUMPI PUSH1 0x0 DUP1 REVERT JUMPDEST PUSH2 0x34EF DUP5 DUP3 DUP6 ADD PUSH2 0x32DE JUMP JUMPDEST PUSH1 0x60 DUP4 ADD MSTORE POP SWAP3 SWAP2 POP POP JUMP JUMPDEST PUSH1 0x0 PUSH1 0x80 DUP3 DUP5 SUB SLT ISZERO PUSH2 0x350D JUMPI PUSH1 0x0 DUP1 REVERT JUMPDEST PUSH2 0x3517 PUSH1 0x80 PUSH2 0x4557 JUMP JUMPDEST SWAP1 POP PUSH1 0x0 PUSH2 0x3527 DUP5 DUP3 DUP6 ADD PUSH2 0x31CD JUMP JUMPDEST PUSH1 0x0 DUP4 ADD MSTORE POP PUSH1 0x20 PUSH2 0x353B DUP5 DUP3 DUP6 ADD PUSH2 0x359F JUMP JUMPDEST PUSH1 0x20 DUP4 ADD MSTORE POP PUSH1 0x40 DUP3 ADD CALLDATALOAD PUSH8 0xFFFFFFFFFFFFFFFF DUP2 GT ISZERO PUSH2 0x355B JUMPI PUSH1 0x0 DUP1 REVERT JUMPDEST PUSH2 0x3567 DUP5 DUP3 DUP6 ADD PUSH2 0x31E2 JUMP JUMPDEST PUSH1 0x40 DUP4 ADD MSTORE POP PUSH1 0x60 DUP3 ADD CALLDATALOAD PUSH8 0xFFFFFFFFFFFFFFFF DUP2 GT ISZERO PUSH2 0x3587 JUMPI PUSH1 0x0 DUP1 REVERT JUMPDEST PUSH2 0x3593 DUP5 DUP3 DUP6 ADD PUSH2 0x32DE JUMP JUMPDEST PUSH1 0x60 DUP4 ADD MSTORE POP SWAP3 SWAP2 POP POP JUMP JUMPDEST PUSH1 0x0 DUP2 CALLDATALOAD SWAP1 POP PUSH2 0x35AE DUP2 PUSH2 0x4EC7 JUMP JUMPDEST SWAP3 SWAP2 POP POP JUMP JUMPDEST PUSH1 0x0 PUSH1 0x20 DUP3 DUP5 SUB SLT ISZERO PUSH2 0x35C6 JUMPI PUSH1 0x0 DUP1 REVERT JUMPDEST PUSH1 0x0 PUSH2 0x35D4 DUP5 DUP3 DUP6 ADD PUSH2 0x31CD JUMP JUMPDEST SWAP2 POP POP SWAP3 SWAP2 POP POP JUMP JUMPDEST PUSH1 0x0 DUP1 PUSH1 0x40 DUP4 DUP6 SUB SLT ISZERO PUSH2 0x35F0 JUMPI PUSH1 0x0 DUP1 REVERT JUMPDEST PUSH1 0x0 PUSH2 0x35FE DUP6 DUP3 DUP7 ADD PUSH2 0x31CD JUMP JUMPDEST SWAP3 POP POP PUSH1 0x20 PUSH2 0x360F DUP6 DUP3 DUP7 ADD PUSH2 0x31CD JUMP JUMPDEST SWAP2 POP POP SWAP3 POP SWAP3 SWAP1 POP JUMP JUMPDEST PUSH1 0x0 DUP1 PUSH1 0x0 PUSH1 0x60 DUP5 DUP7 SUB SLT ISZERO PUSH2 0x362E JUMPI PUSH1 0x0 DUP1 REVERT JUMPDEST PUSH1 0x0 PUSH2 0x363C DUP7 DUP3 DUP8 ADD PUSH2 0x31CD JUMP JUMPDEST SWAP4 POP POP PUSH1 0x20 PUSH2 0x364D DUP7 DUP3 DUP8 ADD PUSH2 0x31CD JUMP JUMPDEST SWAP3 POP POP PUSH1 0x40 PUSH2 0x365E DUP7 DUP3 DUP8 ADD PUSH2 0x359F JUMP JUMPDEST SWAP2 POP POP SWAP3 POP SWAP3 POP SWAP3 JUMP JUMPDEST PUSH1 0x0 DUP1 PUSH1 0x40 DUP4 DUP6 SUB SLT ISZERO PUSH2 0x367B JUMPI PUSH1 0x0 DUP1 REVERT JUMPDEST PUSH1 0x0 PUSH2 0x3689 DUP6 DUP3 DUP7 ADD PUSH2 0x31CD JUMP JUMPDEST SWAP3 POP POP PUSH1 0x20 PUSH2 0x369A DUP6 DUP3 DUP7 ADD PUSH2 0x359F JUMP JUMPDEST SWAP2 POP POP SWAP3 POP SWAP3 SWAP1 POP JUMP JUMPDEST PUSH1 0x0 DUP1 PUSH1 0x0 PUSH1 0x60 DUP5 DUP7 SUB SLT ISZERO PUSH2 0x36B9 JUMPI PUSH1 0x0 DUP1 REVERT JUMPDEST PUSH1 0x0 DUP5 ADD CALLDATALOAD PUSH8 0xFFFFFFFFFFFFFFFF DUP2 GT ISZERO PUSH2 0x36D3 JUMPI PUSH1 0x0 DUP1 REVERT JUMPDEST PUSH2 0x36DF DUP7 DUP3 DUP8 ADD PUSH2 0x328A JUMP JUMPDEST SWAP4 POP POP PUSH1 0x20 DUP5 ADD CALLDATALOAD PUSH8 0xFFFFFFFFFFFFFFFF DUP2 GT ISZERO PUSH2 0x36FC JUMPI PUSH1 0x0 DUP1 REVERT JUMPDEST PUSH2 0x3708 DUP7 DUP3 DUP8 ADD PUSH2 0x320C JUMP JUMPDEST SWAP3 POP POP PUSH1 0x40 DUP5 ADD CALLDATALOAD PUSH8 0xFFFFFFFFFFFFFFFF DUP2 GT ISZERO PUSH2 0x3725 JUMPI PUSH1 0x0 DUP1 REVERT JUMPDEST PUSH2 0x3731 DUP7 DUP3 DUP8 ADD PUSH2 0x3260 JUMP JUMPDEST SWAP2 POP POP SWAP3 POP SWAP3 POP SWAP3 JUMP JUMPDEST PUSH1 0x0 PUSH1 0x20 DUP3 DUP5 SUB SLT ISZERO PUSH2 0x374D JUMPI PUSH1 0x0 DUP1 REVERT JUMPDEST PUSH1 0x0 DUP3 ADD CALLDATALOAD PUSH8 0xFFFFFFFFFFFFFFFF DUP2 GT ISZERO PUSH2 0x3767 JUMPI PUSH1 0x0 DUP1 REVERT JUMPDEST PUSH2 0x3773 DUP5 DUP3 DUP6 ADD PUSH2 0x32DE JUMP JUMPDEST SWAP2 POP POP SWAP3 SWAP2 POP POP JUMP JUMPDEST PUSH1 0x0 DUP1 PUSH1 0x40 DUP4 DUP6 SUB SLT ISZERO PUSH2 0x378F JUMPI PUSH1 0x0 DUP1 REVERT JUMPDEST PUSH1 0x0 DUP4 ADD CALLDATALOAD PUSH8 0xFFFFFFFFFFFFFFFF DUP2 GT ISZERO PUSH2 0x37A9 JUMPI PUSH1 0x0 DUP1 REVERT JUMPDEST PUSH2 0x37B5 DUP6 DUP3 DUP7 ADD PUSH2 0x331D JUMP JUMPDEST SWAP3 POP POP PUSH1 0x20 PUSH2 0x37C6 DUP6 DUP3 DUP7 ADD PUSH2 0x31CD JUMP JUMPDEST SWAP2 POP POP SWAP3 POP SWAP3 SWAP1 POP JUMP JUMPDEST PUSH1 0x0 DUP1 PUSH1 0x40 DUP4 DUP6 SUB SLT ISZERO PUSH2 0x37E3 JUMPI PUSH1 0x0 DUP1 REVERT JUMPDEST PUSH1 0x0 DUP4 ADD CALLDATALOAD PUSH8 0xFFFFFFFFFFFFFFFF DUP2 GT ISZERO PUSH2 0x37FD JUMPI PUSH1 0x0 DUP1 REVERT JUMPDEST PUSH2 0x3809 DUP6 DUP3 DUP7 ADD PUSH2 0x331D JUMP JUMPDEST SWAP3 POP POP PUSH1 0x20 PUSH2 0x381A DUP6 DUP3 DUP7 ADD PUSH2 0x32B4 JUMP JUMPDEST SWAP2 POP POP SWAP3 POP SWAP3 SWAP1 POP JUMP JUMPDEST PUSH1 0x0 DUP1 PUSH1 0x40 DUP4 DUP6 SUB SLT ISZERO PUSH2 0x3837 JUMPI PUSH1 0x0 DUP1 REVERT JUMPDEST PUSH1 0x0 DUP4 ADD CALLDATALOAD PUSH8 0xFFFFFFFFFFFFFFFF DUP2 GT ISZERO PUSH2 0x3851 JUMPI PUSH1 0x0 DUP1 REVERT JUMPDEST PUSH2 0x385D DUP6 DUP3 DUP7 ADD PUSH2 0x331D JUMP JUMPDEST SWAP3 POP POP PUSH1 0x20 PUSH2 0x386E DUP6 DUP3 DUP7 ADD PUSH2 0x32C9 JUMP JUMPDEST SWAP2 POP POP SWAP3 POP SWAP3 SWAP1 POP JUMP JUMPDEST PUSH1 0x0 DUP1 PUSH1 0x40 DUP4 DUP6 SUB SLT ISZERO PUSH2 0x388B JUMPI PUSH1 0x0 DUP1 REVERT JUMPDEST PUSH1 0x0 DUP4 ADD CALLDATALOAD PUSH8 0xFFFFFFFFFFFFFFFF DUP2 GT ISZERO PUSH2 0x38A5 JUMPI PUSH1 0x0 DUP1 REVERT JUMPDEST PUSH2 0x38B1 DUP6 DUP3 DUP7 ADD PUSH2 0x331D JUMP JUMPDEST SWAP3 POP POP PUSH1 0x20 DUP4 ADD CALLDATALOAD PUSH8 0xFFFFFFFFFFFFFFFF DUP2 GT ISZERO PUSH2 0x38CE JUMPI PUSH1 0x0 DUP1 REVERT JUMPDEST PUSH2 0x38DA DUP6 DUP3 DUP7 ADD PUSH2 0x32DE JUMP JUMPDEST SWAP2 POP POP SWAP3 POP SWAP3 SWAP1 POP JUMP JUMPDEST PUSH1 0x0 DUP1 PUSH1 0x40 DUP4 DUP6 SUB SLT ISZERO PUSH2 0x38F7 JUMPI PUSH1 0x0 DUP1 REVERT JUMPDEST PUSH1 0x0 DUP4 ADD CALLDATALOAD PUSH8 0xFFFFFFFFFFFFFFFF DUP2 GT ISZERO PUSH2 0x3911 JUMPI PUSH1 0x0 DUP1 REVERT JUMPDEST PUSH2 0x391D DUP6 DUP3 DUP7 ADD PUSH2 0x331D JUMP JUMPDEST SWAP3 POP POP PUSH1 0x20 PUSH2 0x392E DUP6 DUP3 DUP7 ADD PUSH2 0x3308 JUMP JUMPDEST SWAP2 POP POP SWAP3 POP SWAP3 SWAP1 POP JUMP JUMPDEST PUSH1 0x0 DUP1 PUSH1 0x40 DUP4 DUP6 SUB SLT ISZERO PUSH2 0x394B JUMPI PUSH1 0x0 DUP1 REVERT JUMPDEST PUSH1 0x0 DUP4 ADD CALLDATALOAD PUSH8 0xFFFFFFFFFFFFFFFF DUP2 GT ISZERO PUSH2 0x3965 JUMPI PUSH1 0x0 DUP1 REVERT JUMPDEST PUSH2 0x3971 DUP6 DUP3 DUP7 ADD PUSH2 0x331D JUMP JUMPDEST SWAP3 POP POP PUSH1 0x20 PUSH2 0x3982 DUP6 DUP3 DUP7 ADD PUSH2 0x359F JUMP JUMPDEST SWAP2 POP POP SWAP3 POP SWAP3 SWAP1 POP JUMP JUMPDEST PUSH1 0x0 PUSH1 0x20 DUP3 DUP5 SUB SLT ISZERO PUSH2 0x399E JUMPI PUSH1 0x0 DUP1 REVERT JUMPDEST PUSH1 0x0 DUP3 ADD CALLDATALOAD PUSH8 0xFFFFFFFFFFFFFFFF DUP2 GT ISZERO PUSH2 0x39B8 JUMPI PUSH1 0x0 DUP1 REVERT JUMPDEST PUSH2 0x39C4 DUP5 DUP3 DUP6 ADD PUSH2 0x3393 JUMP JUMPDEST SWAP2 POP POP SWAP3 SWAP2 POP POP JUMP JUMPDEST PUSH1 0x0 PUSH1 0x20 DUP3 DUP5 SUB SLT ISZERO PUSH2 0x39DF JUMPI PUSH1 0x0 DUP1 REVERT JUMPDEST PUSH1 0x0 DUP3 ADD CALLDATALOAD PUSH8 0xFFFFFFFFFFFFFFFF DUP2 GT ISZERO PUSH2 0x39F9 JUMPI PUSH1 0x0 DUP1 REVERT JUMPDEST PUSH2 0x3A05 DUP5 DUP3 DUP6 ADD PUSH2 0x3457 JUMP JUMPDEST SWAP2 POP POP SWAP3 SWAP2 POP POP JUMP JUMPDEST PUSH1 0x0 PUSH1 0x20 DUP3 DUP5 SUB SLT ISZERO PUSH2 0x3A20 JUMPI PUSH1 0x0 DUP1 REVERT JUMPDEST PUSH1 0x0 DUP3 ADD CALLDATALOAD PUSH8 0xFFFFFFFFFFFFFFFF DUP2 GT ISZERO PUSH2 0x3A3A JUMPI PUSH1 0x0 DUP1 REVERT JUMPDEST PUSH2 0x3A46 DUP5 DUP3 DUP6 ADD PUSH2 0x34FB JUMP JUMPDEST SWAP2 POP POP SWAP3 SWAP2 POP POP JUMP JUMPDEST PUSH1 0x0 PUSH1 0x20 DUP3 DUP5 SUB SLT ISZERO PUSH2 0x3A61 JUMPI PUSH1 0x0 DUP1 REVERT JUMPDEST PUSH1 0x0 PUSH2 0x3A6F DUP5 DUP3 DUP6 ADD PUSH2 0x359F JUMP JUMPDEST SWAP2 POP POP SWAP3 SWAP2 POP POP JUMP JUMPDEST PUSH1 0x0 PUSH2 0x3A84 DUP4 DUP4 PUSH2 0x3F2F JUMP JUMPDEST PUSH1 0x40 DUP4 ADD SWAP1 POP SWAP3 SWAP2 POP POP JUMP JUMPDEST PUSH1 0x0 PUSH2 0x3A9C DUP4 DUP4 PUSH2 0x3F5E JUMP JUMPDEST SWAP1 POP SWAP3 SWAP2 POP POP JUMP JUMPDEST PUSH1 0x0 PUSH2 0x3AB0 DUP4 DUP4 PUSH2 0x4053 JUMP JUMPDEST PUSH1 0x40 DUP4 ADD SWAP1 POP SWAP3 SWAP2 POP POP JUMP JUMPDEST PUSH1 0x0 PUSH2 0x3AC8 DUP4 DUP4 PUSH2 0x4082 JUMP JUMPDEST PUSH1 0x40 DUP4 ADD SWAP1 POP SWAP3 SWAP2 POP POP JUMP JUMPDEST PUSH1 0x0 PUSH2 0x3AE0 DUP4 DUP4 PUSH2 0x40B1 JUMP JUMPDEST PUSH1 0x40 DUP4 ADD SWAP1 POP SWAP3 SWAP2 POP POP JUMP JUMPDEST PUSH2 0x3AF5 DUP2 PUSH2 0x4AAA JUMP JUMPDEST DUP3 MSTORE POP POP JUMP JUMPDEST PUSH2 0x3B04 DUP2 PUSH2 0x4AAA JUMP JUMPDEST DUP3 MSTORE POP POP JUMP JUMPDEST PUSH2 0x3B1B PUSH2 0x3B16 DUP3 PUSH2 0x4AAA JUMP JUMPDEST PUSH2 0x4C01 JUMP JUMPDEST DUP3 MSTORE POP POP JUMP JUMPDEST PUSH1 0x0 PUSH2 0x3B2C DUP3 PUSH2 0x470A JUMP JUMPDEST PUSH2 0x3B36 DUP2 DUP6 PUSH2 0x4798 JUMP JUMPDEST SWAP4 POP PUSH2 0x3B41 DUP4 PUSH2 0x46BA JUMP JUMPDEST DUP1 PUSH1 0x0 JUMPDEST DUP4 DUP2 LT ISZERO PUSH2 0x3B72 JUMPI DUP2 MLOAD PUSH2 0x3B59 DUP9 DUP3 PUSH2 0x3A78 JUMP JUMPDEST SWAP8 POP PUSH2 0x3B64 DUP4 PUSH2 0x4757 JUMP JUMPDEST SWAP3 POP POP PUSH1 0x1 DUP2 ADD SWAP1 POP PUSH2 0x3B45 JUMP JUMPDEST POP DUP6 SWAP4 POP POP POP POP SWAP3 SWAP2 POP POP JUMP JUMPDEST PUSH1 0x0 PUSH2 0x3B8A DUP3 PUSH2 0x4715 JUMP JUMPDEST PUSH2 0x3B94 DUP2 DUP6 PUSH2 0x47A9 JUMP JUMPDEST SWAP4 POP DUP4 PUSH1 0x20 DUP3 MUL DUP6 ADD PUSH2 0x3BA6 DUP6 PUSH2 0x46CA JUMP JUMPDEST DUP1 PUSH1 0x0 JUMPDEST DUP6 DUP2 LT ISZERO PUSH2 0x3BE2 JUMPI DUP5 DUP5 SUB DUP10 MSTORE DUP2 MLOAD PUSH2 0x3BC3 DUP6 DUP3 PUSH2 0x3A90 JUMP JUMPDEST SWAP5 POP PUSH2 0x3BCE DUP4 PUSH2 0x4764 JUMP JUMPDEST SWAP3 POP PUSH1 0x20 DUP11 ADD SWAP10 POP POP PUSH1 0x1 DUP2 ADD SWAP1 POP PUSH2 0x3BAA JUMP JUMPDEST POP DUP3 SWAP8 POP DUP8 SWAP6 POP POP POP POP POP POP SWAP3 SWAP2 POP POP JUMP JUMPDEST PUSH1 0x0 PUSH2 0x3BFF DUP3 PUSH2 0x4720 JUMP JUMPDEST PUSH2 0x3C09 DUP2 DUP6 PUSH2 0x47BA JUMP JUMPDEST SWAP4 POP PUSH2 0x3C14 DUP4 PUSH2 0x46DA JUMP JUMPDEST DUP1 PUSH1 0x0 JUMPDEST DUP4 DUP2 LT ISZERO PUSH2 0x3C45 JUMPI DUP2 MLOAD PUSH2 0x3C2C DUP9 DUP3 PUSH2 0x3AA4 JUMP JUMPDEST SWAP8 POP PUSH2 0x3C37 DUP4 PUSH2 0x4771 JUMP JUMPDEST SWAP3 POP POP PUSH1 0x1 DUP2 ADD SWAP1 POP PUSH2 0x3C18 JUMP JUMPDEST POP DUP6 SWAP4 POP POP POP POP SWAP3 SWAP2 POP POP JUMP JUMPDEST PUSH1 0x0 PUSH2 0x3C5D DUP3 PUSH2 0x472B JUMP JUMPDEST PUSH2 0x3C67 DUP2 DUP6 PUSH2 0x47CB JUMP JUMPDEST SWAP4 POP PUSH2 0x3C72 DUP4 PUSH2 0x46EA JUMP JUMPDEST DUP1 PUSH1 0x0 JUMPDEST DUP4 DUP2 LT ISZERO PUSH2 0x3CA3 JUMPI DUP2 MLOAD PUSH2 0x3C8A DUP9 DUP3 PUSH2 0x3ABC JUMP JUMPDEST SWAP8 POP PUSH2 0x3C95 DUP4 PUSH2 0x477E JUMP JUMPDEST SWAP3 POP POP PUSH1 0x1 DUP2 ADD SWAP1 POP PUSH2 0x3C76 JUMP JUMPDEST POP DUP6 SWAP4 POP POP POP POP SWAP3 SWAP2 POP POP JUMP JUMPDEST PUSH1 0x0 PUSH2 0x3CBB DUP3 PUSH2 0x472B JUMP JUMPDEST PUSH2 0x3CC5 DUP2 DUP6 PUSH2 0x47DC JUMP JUMPDEST SWAP4 POP PUSH2 0x3CD0 DUP4 PUSH2 0x46EA JUMP JUMPDEST DUP1 PUSH1 0x0 JUMPDEST DUP4 DUP2 LT ISZERO PUSH2 0x3D01 JUMPI DUP2 MLOAD PUSH2 0x3CE8 DUP9 DUP3 PUSH2 0x3ABC JUMP JUMPDEST SWAP8 POP PUSH2 0x3CF3 DUP4 PUSH2 0x477E JUMP JUMPDEST SWAP3 POP POP PUSH1 0x1 DUP2 ADD SWAP1 POP PUSH2 0x3CD4 JUMP JUMPDEST POP DUP6 SWAP4 POP POP POP POP SWAP3 SWAP2 POP POP JUMP JUMPDEST PUSH1 0x0 PUSH2 0x3D19 DUP3 PUSH2 0x4736 JUMP JUMPDEST PUSH2 0x3D23 DUP2 DUP6 PUSH2 0x47ED JUMP JUMPDEST SWAP4 POP PUSH2 0x3D2E DUP4 PUSH2 0x46FA JUMP JUMPDEST DUP1 PUSH1 0x0 JUMPDEST DUP4 DUP2 LT ISZERO PUSH2 0x3D5F JUMPI DUP2 MLOAD PUSH2 0x3D46 DUP9 DUP3 PUSH2 0x3AD4 JUMP JUMPDEST SWAP8 POP PUSH2 0x3D51 DUP4 PUSH2 0x478B JUMP JUMPDEST SWAP3 POP POP PUSH1 0x1 DUP2 ADD SWAP1 POP PUSH2 0x3D32 JUMP JUMPDEST POP DUP6 SWAP4 POP POP POP POP SWAP3 SWAP2 POP POP JUMP JUMPDEST PUSH2 0x3D75 DUP2 PUSH2 0x4ABC JUMP JUMPDEST DUP3 MSTORE POP POP JUMP JUMPDEST PUSH2 0x3D84 DUP2 PUSH2 0x4ABC JUMP JUMPDEST DUP3 MSTORE POP POP JUMP JUMPDEST PUSH2 0x3D93 DUP2 PUSH2 0x4AC8 JUMP JUMPDEST DUP3 MSTORE POP POP JUMP JUMPDEST PUSH2 0x3DA2 DUP2 PUSH2 0x4AC8 JUMP JUMPDEST DUP3 MSTORE POP POP JUMP JUMPDEST PUSH2 0x3DB9 PUSH2 0x3DB4 DUP3 PUSH2 0x4AC8 JUMP JUMPDEST PUSH2 0x4C13 JUMP JUMPDEST DUP3 MSTORE POP POP JUMP JUMPDEST PUSH1 0x0 PUSH2 0x3DCA DUP3 PUSH2 0x4741 JUMP JUMPDEST PUSH2 0x3DD4 DUP2 DUP6 PUSH2 0x47FE JUMP JUMPDEST SWAP4 POP PUSH2 0x3DE4 DUP2 DUP6 PUSH1 0x20 DUP7 ADD PUSH2 0x4B22 JUMP JUMPDEST PUSH2 0x3DED DUP2 PUSH2 0x4D34 JUMP JUMPDEST DUP5 ADD SWAP2 POP POP SWAP3 SWAP2 POP POP JUMP JUMPDEST PUSH1 0x0 PUSH2 0x3E03 DUP3 PUSH2 0x4741 JUMP JUMPDEST PUSH2 0x3E0D DUP2 DUP6 PUSH2 0x480F JUMP JUMPDEST SWAP4 POP PUSH2 0x3E1D DUP2 DUP6 PUSH1 0x20 DUP7 ADD PUSH2 0x4B22 JUMP JUMPDEST DUP1 DUP5 ADD SWAP2 POP POP SWAP3 SWAP2 POP POP JUMP JUMPDEST PUSH2 0x3E32 DUP2 PUSH2 0x4AD2 JUMP JUMPDEST DUP3 MSTORE POP POP JUMP JUMPDEST PUSH2 0x3E41 DUP2 PUSH2 0x4AD2 JUMP JUMPDEST DUP3 MSTORE POP POP JUMP JUMPDEST PUSH1 0x0 PUSH2 0x3E52 DUP3 PUSH2 0x474C JUMP JUMPDEST PUSH2 0x3E5C DUP2 DUP6 PUSH2 0x481A JUMP JUMPDEST SWAP4 POP PUSH2 0x3E6C DUP2 DUP6 PUSH1 0x20 DUP7 ADD PUSH2 0x4B22 JUMP JUMPDEST PUSH2 0x3E75 DUP2 PUSH2 0x4D34 JUMP JUMPDEST DUP5 ADD SWAP2 POP POP SWAP3 SWAP2 POP POP JUMP JUMPDEST PUSH1 0x0 PUSH2 0x3E8D PUSH1 0x18 DUP4 PUSH2 0x481A JUMP JUMPDEST SWAP2 POP PUSH2 0x3E98 DUP3 PUSH2 0x4D52 JUMP JUMPDEST PUSH1 0x20 DUP3 ADD SWAP1 POP SWAP2 SWAP1 POP JUMP JUMPDEST PUSH1 0x0 PUSH2 0x3EB0 PUSH1 0x1F DUP4 PUSH2 0x481A JUMP JUMPDEST SWAP2 POP PUSH2 0x3EBB DUP3 PUSH2 0x4D7B JUMP JUMPDEST PUSH1 0x20 DUP3 ADD SWAP1 POP SWAP2 SWAP1 POP JUMP JUMPDEST PUSH1 0x0 PUSH2 0x3ED3 PUSH1 0x1C DUP4 PUSH2 0x482B JUMP JUMPDEST SWAP2 POP PUSH2 0x3EDE DUP3 PUSH2 0x4DA4 JUMP JUMPDEST PUSH1 0x1C DUP3 ADD SWAP1 POP SWAP2 SWAP1 POP JUMP JUMPDEST PUSH1 0x0 PUSH2 0x3EF6 PUSH1 0x22 DUP4 PUSH2 0x481A JUMP JUMPDEST SWAP2 POP PUSH2 0x3F01 DUP3 PUSH2 0x4DCD JUMP JUMPDEST PUSH1 0x40 DUP3 ADD SWAP1 POP SWAP2 SWAP1 POP JUMP JUMPDEST PUSH1 0x0 PUSH2 0x3F19 PUSH1 0x22 DUP4 PUSH2 0x481A JUMP JUMPDEST SWAP2 POP PUSH2 0x3F24 DUP3 PUSH2 0x4E1C JUMP JUMPDEST PUSH1 0x40 DUP3 ADD SWAP1 POP SWAP2 SWAP1 POP JUMP JUMPDEST PUSH1 0x40 DUP3 ADD PUSH1 0x0 DUP3 ADD MLOAD PUSH2 0x3F45 PUSH1 0x0 DUP6 ADD DUP3 PUSH2 0x410A JUMP JUMPDEST POP PUSH1 0x20 DUP3 ADD MLOAD PUSH2 0x3F58 PUSH1 0x20 DUP6 ADD DUP3 PUSH2 0x410A JUMP JUMPDEST POP POP POP POP JUMP JUMPDEST PUSH1 0x0 PUSH1 0x60 DUP4 ADD PUSH1 0x0 DUP4 ADD MLOAD PUSH2 0x3F76 PUSH1 0x0 DUP7 ADD DUP3 PUSH2 0x410A JUMP JUMPDEST POP PUSH1 0x20 DUP4 ADD MLOAD DUP5 DUP3 SUB PUSH1 0x20 DUP7 ADD MSTORE PUSH2 0x3F8E DUP3 DUP3 PUSH2 0x3C52 JUMP JUMPDEST SWAP2 POP POP PUSH1 0x40 DUP4 ADD MLOAD PUSH2 0x3FA3 PUSH1 0x40 DUP7 ADD DUP3 PUSH2 0x410A JUMP JUMPDEST POP DUP1 SWAP2 POP POP SWAP3 SWAP2 POP POP JUMP JUMPDEST PUSH1 0x0 PUSH1 0xC0 DUP4 ADD PUSH1 0x0 DUP4 ADD MLOAD PUSH2 0x3FC6 PUSH1 0x0 DUP7 ADD DUP3 PUSH2 0x3FEB JUMP JUMPDEST POP PUSH1 0x20 DUP4 ADD MLOAD DUP5 DUP3 SUB PUSH1 0xA0 DUP7 ADD MSTORE PUSH2 0x3FDE DUP3 DUP3 PUSH2 0x3BF4 JUMP JUMPDEST SWAP2 POP POP DUP1 SWAP2 POP POP SWAP3 SWAP2 POP POP JUMP JUMPDEST PUSH1 0xA0 DUP3 ADD PUSH1 0x0 DUP3 ADD MLOAD PUSH2 0x4001 PUSH1 0x0 DUP6 ADD DUP3 PUSH2 0x410A JUMP JUMPDEST POP PUSH1 0x20 DUP3 ADD MLOAD PUSH2 0x4014 PUSH1 0x20 DUP6 ADD DUP3 PUSH2 0x410A JUMP JUMPDEST POP PUSH1 0x40 DUP3 ADD MLOAD PUSH2 0x4027 PUSH1 0x40 DUP6 ADD DUP3 PUSH2 0x410A JUMP JUMPDEST POP PUSH1 0x60 DUP3 ADD MLOAD PUSH2 0x403A PUSH1 0x60 DUP6 ADD DUP3 PUSH2 0x3D8A JUMP JUMPDEST POP PUSH1 0x80 DUP3 ADD MLOAD PUSH2 0x404D PUSH1 0x80 DUP6 ADD DUP3 PUSH2 0x3D6C JUMP JUMPDEST POP POP POP POP JUMP JUMPDEST PUSH1 0x40 DUP3 ADD PUSH1 0x0 DUP3 ADD MLOAD PUSH2 0x4069 PUSH1 0x0 DUP6 ADD DUP3 PUSH2 0x410A JUMP JUMPDEST POP PUSH1 0x20 DUP3 ADD MLOAD PUSH2 0x407C PUSH1 0x20 DUP6 ADD DUP3 PUSH2 0x3E29 JUMP JUMPDEST POP POP POP POP JUMP JUMPDEST PUSH1 0x40 DUP3 ADD PUSH1 0x0 DUP3 ADD MLOAD PUSH2 0x4098 PUSH1 0x0 DUP6 ADD DUP3 PUSH2 0x410A JUMP JUMPDEST POP PUSH1 0x20 DUP3 ADD MLOAD PUSH2 0x40AB PUSH1 0x20 DUP6 ADD DUP3 PUSH2 0x3AEC JUMP JUMPDEST POP POP POP POP JUMP JUMPDEST PUSH1 0x40 DUP3 ADD PUSH1 0x0 DUP3 ADD MLOAD PUSH2 0x40C7 PUSH1 0x0 DUP6 ADD DUP3 PUSH2 0x410A JUMP JUMPDEST POP PUSH1 0x20 DUP3 ADD MLOAD PUSH2 0x40DA PUSH1 0x20 DUP6 ADD DUP3 PUSH2 0x3E29 JUMP JUMPDEST POP POP POP POP JUMP JUMPDEST PUSH1 0x0 PUSH1 0x20 DUP4 ADD PUSH1 0x0 DUP4 ADD MLOAD DUP5 DUP3 SUB PUSH1 0x0 DUP7 ADD MSTORE PUSH2 0x40FD DUP3 DUP3 PUSH2 0x3B7F JUMP JUMPDEST SWAP2 POP POP DUP1 SWAP2 POP POP SWAP3 SWAP2 POP POP JUMP JUMPDEST PUSH2 0x4113 DUP2 PUSH2 0x4AFC JUMP JUMPDEST DUP3 MSTORE POP POP JUMP JUMPDEST PUSH2 0x4122 DUP2 PUSH2 0x4AFC JUMP JUMPDEST DUP3 MSTORE POP POP JUMP JUMPDEST PUSH2 0x4131 DUP2 PUSH2 0x4B06 JUMP JUMPDEST DUP3 MSTORE POP POP JUMP JUMPDEST PUSH1 0x0 PUSH2 0x4143 DUP3 DUP6 PUSH2 0x3B0A JUMP JUMPDEST PUSH1 0x14 DUP3 ADD SWAP2 POP PUSH2 0x4153 DUP3 DUP5 PUSH2 0x3B0A JUMP JUMPDEST PUSH1 0x14 DUP3 ADD SWAP2 POP DUP2 SWAP1 POP SWAP4 SWAP3 POP POP POP JUMP JUMPDEST PUSH1 0x0 PUSH2 0x416F DUP3 DUP5 PUSH2 0x3DF8 JUMP JUMPDEST SWAP2 POP DUP2 SWAP1 POP SWAP3 SWAP2 POP POP JUMP JUMPDEST PUSH1 0x0 PUSH2 0x4185 DUP3 PUSH2 0x3EC6 JUMP JUMPDEST SWAP2 POP PUSH2 0x4191 DUP3 DUP5 PUSH2 0x3DA8 JUMP JUMPDEST PUSH1 0x20 DUP3 ADD SWAP2 POP DUP2 SWAP1 POP SWAP3 SWAP2 POP POP JUMP JUMPDEST PUSH1 0x0 PUSH1 0x40 DUP3 ADD SWAP1 POP DUP2 DUP2 SUB PUSH1 0x0 DUP4 ADD MSTORE PUSH2 0x41BA DUP2 DUP6 PUSH2 0x3CB0 JUMP JUMPDEST SWAP1 POP PUSH2 0x41C9 PUSH1 0x20 DUP4 ADD DUP5 PUSH2 0x4119 JUMP JUMPDEST SWAP4 SWAP3 POP POP POP JUMP JUMPDEST PUSH1 0x0 PUSH1 0x20 DUP3 ADD SWAP1 POP PUSH2 0x41E5 PUSH1 0x0 DUP4 ADD DUP5 PUSH2 0x3D7B JUMP JUMPDEST SWAP3 SWAP2 POP POP JUMP JUMPDEST PUSH1 0x0 PUSH1 0x80 DUP3 ADD SWAP1 POP PUSH2 0x4200 PUSH1 0x0 DUP4 ADD DUP8 PUSH2 0x3D99 JUMP JUMPDEST PUSH2 0x420D PUSH1 0x20 DUP4 ADD DUP7 PUSH2 0x4128 JUMP JUMPDEST PUSH2 0x421A PUSH1 0x40 DUP4 ADD DUP6 PUSH2 0x3D99 JUMP JUMPDEST PUSH2 0x4227 PUSH1 0x60 DUP4 ADD DUP5 PUSH2 0x3D99 JUMP JUMPDEST SWAP6 SWAP5 POP POP POP POP POP JUMP JUMPDEST PUSH1 0x0 PUSH1 0x20 DUP3 ADD SWAP1 POP DUP2 DUP2 SUB PUSH1 0x0 DUP4 ADD MSTORE PUSH2 0x424A DUP2 DUP5 PUSH2 0x3DBF JUMP JUMPDEST SWAP1 POP SWAP3 SWAP2 POP POP JUMP JUMPDEST PUSH1 0x0 PUSH1 0x60 DUP3 ADD SWAP1 POP DUP2 DUP2 SUB PUSH1 0x0 DUP4 ADD MSTORE PUSH2 0x426C DUP2 DUP7 PUSH2 0x3DBF JUMP JUMPDEST SWAP1 POP PUSH2 0x427B PUSH1 0x20 DUP4 ADD DUP6 PUSH2 0x4119 JUMP JUMPDEST DUP2 DUP2 SUB PUSH1 0x40 DUP4 ADD MSTORE PUSH2 0x428D DUP2 DUP5 PUSH2 0x3B21 JUMP JUMPDEST SWAP1 POP SWAP5 SWAP4 POP POP POP POP JUMP JUMPDEST PUSH1 0x0 PUSH1 0x60 DUP3 ADD SWAP1 POP DUP2 DUP2 SUB PUSH1 0x0 DUP4 ADD MSTORE PUSH2 0x42B1 DUP2 DUP7 PUSH2 0x3DBF JUMP JUMPDEST SWAP1 POP PUSH2 0x42C0 PUSH1 0x20 DUP4 ADD DUP6 PUSH2 0x4119 JUMP JUMPDEST DUP2 DUP2 SUB PUSH1 0x40 DUP4 ADD MSTORE PUSH2 0x42D2 DUP2 DUP5 PUSH2 0x3D0E JUMP JUMPDEST SWAP1 POP SWAP5 SWAP4 POP POP POP POP JUMP JUMPDEST PUSH1 0x0 PUSH1 0x20 DUP3 ADD SWAP1 POP DUP2 DUP2 SUB PUSH1 0x0 DUP4 ADD MSTORE PUSH2 0x42F6 DUP2 DUP5 PUSH2 0x3E47 JUMP JUMPDEST SWAP1 POP SWAP3 SWAP2 POP POP JUMP JUMPDEST PUSH1 0x0 PUSH1 0x40 DUP3 ADD SWAP1 POP DUP2 DUP2 SUB PUSH1 0x0 DUP4 ADD MSTORE PUSH2 0x4318 DUP2 DUP6 PUSH2 0x3E47 JUMP JUMPDEST SWAP1 POP PUSH2 0x4327 PUSH1 0x20 DUP4 ADD DUP5 PUSH2 0x3AFB JUMP JUMPDEST SWAP4 SWAP3 POP POP POP JUMP JUMPDEST PUSH1 0x0 PUSH1 0x40 DUP3 ADD SWAP1 POP DUP2 DUP2 SUB PUSH1 0x0 DUP4 ADD MSTORE PUSH2 0x4348 DUP2 DUP6 PUSH2 0x3E47 JUMP JUMPDEST SWAP1 POP PUSH2 0x4357 PUSH1 0x20 DUP4 ADD DUP5 PUSH2 0x3D7B JUMP JUMPDEST SWAP4 SWAP3 POP POP POP JUMP JUMPDEST PUSH1 0x0 PUSH1 0x40 DUP3 ADD SWAP1 POP DUP2 DUP2 SUB PUSH1 0x0 DUP4 ADD MSTORE PUSH2 0x4378 DUP2 DUP6 PUSH2 0x3E47 JUMP JUMPDEST SWAP1 POP PUSH2 0x4387 PUSH1 0x20 DUP4 ADD DUP5 PUSH2 0x3D99 JUMP JUMPDEST SWAP4 SWAP3 POP POP POP JUMP JUMPDEST PUSH1 0x0 PUSH1 0x40 DUP3 ADD SWAP1 POP DUP2 DUP2 SUB PUSH1 0x0 DUP4 ADD MSTORE PUSH2 0x43A8 DUP2 DUP6 PUSH2 0x3E47 JUMP JUMPDEST SWAP1 POP DUP2 DUP2 SUB PUSH1 0x20 DUP4 ADD MSTORE PUSH2 0x43BC DUP2 DUP5 PUSH2 0x3DBF JUMP JUMPDEST SWAP1 POP SWAP4 SWAP3 POP POP POP JUMP JUMPDEST PUSH1 0x0 PUSH1 0x40 DUP3 ADD SWAP1 POP DUP2 DUP2 SUB PUSH1 0x0 DUP4 ADD MSTORE PUSH2 0x43DF DUP2 DUP6 PUSH2 0x3E47 JUMP JUMPDEST SWAP1 POP PUSH2 0x43EE PUSH1 0x20 DUP4 ADD DUP5 PUSH2 0x3E38 JUMP JUMPDEST SWAP4 SWAP3 POP POP POP JUMP JUMPDEST PUSH1 0x0 PUSH1 0x40 DUP3 ADD SWAP1 POP DUP2 DUP2 SUB PUSH1 0x0 DUP4 ADD MSTORE PUSH2 0x440F DUP2 DUP6 PUSH2 0x3E47 JUMP JUMPDEST SWAP1 POP PUSH2 0x441E PUSH1 0x20 DUP4 ADD DUP5 PUSH2 0x4119 JUMP JUMPDEST SWAP4 SWAP3 POP POP POP JUMP JUMPDEST PUSH1 0x0 PUSH1 0x20 DUP3 ADD SWAP1 POP DUP2 DUP2 SUB PUSH1 0x0 DUP4 ADD MSTORE PUSH2 0x443E DUP2 PUSH2 0x3E80 JUMP JUMPDEST SWAP1 POP SWAP2 SWAP1 POP JUMP JUMPDEST PUSH1 0x0 PUSH1 0x20 DUP3 ADD SWAP1 POP DUP2 DUP2 SUB PUSH1 0x0 DUP4 ADD MSTORE PUSH2 0x445E DUP2 PUSH2 0x3EA3 JUMP JUMPDEST SWAP1 POP SWAP2 SWAP1 POP JUMP JUMPDEST PUSH1 0x0 PUSH1 0x20 DUP3 ADD SWAP1 POP DUP2 DUP2 SUB PUSH1 0x0 DUP4 ADD MSTORE PUSH2 0x447E DUP2 PUSH2 0x3EE9 JUMP JUMPDEST SWAP1 POP SWAP2 SWAP1 POP JUMP JUMPDEST PUSH1 0x0 PUSH1 0x20 DUP3 ADD SWAP1 POP DUP2 DUP2 SUB PUSH1 0x0 DUP4 ADD MSTORE PUSH2 0x449E DUP2 PUSH2 0x3F0C JUMP JUMPDEST SWAP1 POP SWAP2 SWAP1 POP JUMP JUMPDEST PUSH1 0x0 PUSH1 0x20 DUP3 ADD SWAP1 POP DUP2 DUP2 SUB PUSH1 0x0 DUP4 ADD MSTORE PUSH2 0x44BF DUP2 DUP5 PUSH2 0x3FAE JUMP JUMPDEST SWAP1 POP SWAP3 SWAP2 POP POP JUMP JUMPDEST PUSH1 0x0 PUSH1 0x20 DUP3 ADD SWAP1 POP DUP2 DUP2 SUB PUSH1 0x0 DUP4 ADD MSTORE PUSH2 0x44E1 DUP2 DUP5 PUSH2 0x40E0 JUMP JUMPDEST SWAP1 POP SWAP3 SWAP2 POP POP JUMP JUMPDEST PUSH1 0x0 PUSH1 0x20 DUP3 ADD SWAP1 POP PUSH2 0x44FE PUSH1 0x0 DUP4 ADD DUP5 PUSH2 0x4119 JUMP JUMPDEST SWAP3 SWAP2 POP POP JUMP JUMPDEST PUSH1 0x0 PUSH1 0xA0 DUP3 ADD SWAP1 POP PUSH2 0x4519 PUSH1 0x0 DUP4 ADD DUP9 PUSH2 0x4119 JUMP JUMPDEST PUSH2 0x4526 PUSH1 0x20 DUP4 ADD DUP8 PUSH2 0x4119 JUMP JUMPDEST PUSH2 0x4533 PUSH1 0x40 DUP4 ADD DUP7 PUSH2 0x4119 JUMP JUMPDEST PUSH2 0x4540 PUSH1 0x60 DUP4 ADD DUP6 PUSH2 0x3D99 JUMP JUMPDEST PUSH2 0x454D PUSH1 0x80 DUP4 ADD DUP5 PUSH2 0x3D7B JUMP JUMPDEST SWAP7 SWAP6 POP POP POP POP POP POP JUMP JUMPDEST PUSH1 0x0 PUSH2 0x4561 PUSH2 0x4572 JUMP JUMPDEST SWAP1 POP PUSH2 0x456D DUP3 DUP3 PUSH2 0x4B87 JUMP JUMPDEST SWAP2 SWAP1 POP JUMP JUMPDEST PUSH1 0x0 PUSH1 0x40 MLOAD SWAP1 POP SWAP1 JUMP JUMPDEST PUSH1 0x0 PUSH8 0xFFFFFFFFFFFFFFFF DUP3 GT ISZERO PUSH2 0x4597 JUMPI PUSH2 0x4596 PUSH2 0x4D05 JUMP JUMPDEST JUMPDEST PUSH1 0x20 DUP3 MUL SWAP1 POP PUSH1 0x20 DUP2 ADD SWAP1 POP SWAP2 SWAP1 POP JUMP JUMPDEST PUSH1 0x0 PUSH8 0xFFFFFFFFFFFFFFFF DUP3 GT ISZERO PUSH2 0x45C3 JUMPI PUSH2 0x45C2 PUSH2 0x4D05 JUMP JUMPDEST JUMPDEST PUSH1 0x20 DUP3 MUL SWAP1 POP PUSH1 0x20 DUP2 ADD SWAP1 POP SWAP2 SWAP1 POP JUMP JUMPDEST PUSH1 0x0 PUSH8 0xFFFFFFFFFFFFFFFF DUP3 GT ISZERO PUSH2 0x45EF JUMPI PUSH2 0x45EE PUSH2 0x4D05 JUMP JUMPDEST JUMPDEST PUSH1 0x20 DUP3 MUL SWAP1 POP PUSH1 0x20 DUP2 ADD SWAP1 POP SWAP2 SWAP1 POP JUMP JUMPDEST PUSH1 0x0 PUSH8 0xFFFFFFFFFFFFFFFF DUP3 GT ISZERO PUSH2 0x461B JUMPI PUSH2 0x461A PUSH2 0x4D05 JUMP JUMPDEST JUMPDEST PUSH1 0x20 DUP3 MUL SWAP1 POP PUSH1 0x20 DUP2 ADD SWAP1 POP SWAP2 SWAP1 POP JUMP JUMPDEST PUSH1 0x0 PUSH8 0xFFFFFFFFFFFFFFFF DUP3 GT ISZERO PUSH2 0x4647 JUMPI PUSH2 0x4646 PUSH2 0x4D05 JUMP JUMPDEST JUMPDEST PUSH1 0x20 DUP3 MUL SWAP1 POP PUSH1 0x20 DUP2 ADD SWAP1 POP SWAP2 SWAP1 POP JUMP JUMPDEST PUSH1 0x0 PUSH8 0xFFFFFFFFFFFFFFFF DUP3 GT ISZERO PUSH2 0x4673 JUMPI PUSH2 0x4672 PUSH2 0x4D05 JUMP JUMPDEST JUMPDEST PUSH2 0x467C DUP3 PUSH2 0x4D34 JUMP JUMPDEST SWAP1 POP PUSH1 0x20 DUP2 ADD SWAP1 POP SWAP2 SWAP1 POP JUMP JUMPDEST PUSH1 0x0 PUSH8 0xFFFFFFFFFFFFFFFF DUP3 GT ISZERO PUSH2 0x46A4 JUMPI PUSH2 0x46A3 PUSH2 0x4D05 JUMP JUMPDEST JUMPDEST PUSH2 0x46AD DUP3 PUSH2 0x4D34 JUMP JUMPDEST SWAP1 POP PUSH1 0x20 DUP2 ADD SWAP1 POP SWAP2 SWAP1 POP JUMP JUMPDEST PUSH1 0x0 DUP2 SWAP1 POP PUSH1 0x20 DUP3 ADD SWAP1 POP SWAP2 SWAP1 POP JUMP JUMPDEST PUSH1 0x0 DUP2 SWAP1 POP PUSH1 0x20 DUP3 ADD SWAP1 POP SWAP2 SWAP1 POP JUMP JUMPDEST PUSH1 0x0 DUP2 SWAP1 POP PUSH1 0x20 DUP3 ADD SWAP1 POP SWAP2 SWAP1 POP JUMP JUMPDEST PUSH1 0x0 DUP2 SWAP1 POP PUSH1 0x20 DUP3 ADD SWAP1 POP SWAP2 SWAP1 POP JUMP JUMPDEST PUSH1 0x0 DUP2 SWAP1 POP PUSH1 0x20 DUP3 ADD SWAP1 POP SWAP2 SWAP1 POP JUMP JUMPDEST PUSH1 0x0 DUP2 MLOAD SWAP1 POP SWAP2 SWAP1 POP JUMP JUMPDEST PUSH1 0x0 DUP2 MLOAD SWAP1 POP SWAP2 SWAP1 POP JUMP JUMPDEST PUSH1 0x0 DUP2 MLOAD SWAP1 POP SWAP2 SWAP1 POP JUMP JUMPDEST PUSH1 0x0 DUP2 MLOAD SWAP1 POP SWAP2 SWAP1 POP JUMP JUMPDEST PUSH1 0x0 DUP2 MLOAD SWAP1 POP SWAP2 SWAP1 POP JUMP JUMPDEST PUSH1 0x0 DUP2 MLOAD SWAP1 POP SWAP2 SWAP1 POP JUMP JUMPDEST PUSH1 0x0 DUP2 MLOAD SWAP1 POP SWAP2 SWAP1 POP JUMP JUMPDEST PUSH1 0x0 PUSH1 0x20 DUP3 ADD SWAP1 POP SWAP2 SWAP1 POP JUMP JUMPDEST PUSH1 0x0 PUSH1 0x20 DUP3 ADD SWAP1 POP SWAP2 SWAP1 POP JUMP JUMPDEST PUSH1 0x0 PUSH1 0x20 DUP3 ADD SWAP1 POP SWAP2 SWAP1 POP JUMP JUMPDEST PUSH1 0x0 PUSH1 0x20 DUP3 ADD SWAP1 POP SWAP2 SWAP1 POP JUMP JUMPDEST PUSH1 0x0 PUSH1 0x20 DUP3 ADD SWAP1 POP SWAP2 SWAP1 POP JUMP JUMPDEST PUSH1 0x0 DUP3 DUP3 MSTORE PUSH1 0x20 DUP3 ADD SWAP1 POP SWAP3 SWAP2 POP POP JUMP JUMPDEST PUSH1 0x0 DUP3 DUP3 MSTORE PUSH1 0x20 DUP3 ADD SWAP1 POP SWAP3 SWAP2 POP POP JUMP JUMPDEST PUSH1 0x0 DUP3 DUP3 MSTORE PUSH1 0x20 DUP3 ADD SWAP1 POP SWAP3 SWAP2 POP POP JUMP JUMPDEST PUSH1 0x0 DUP3 DUP3 MSTORE PUSH1 0x20 DUP3 ADD SWAP1 POP SWAP3 SWAP2 POP POP JUMP JUMPDEST PUSH1 0x0 DUP3 DUP3 MSTORE PUSH1 0x20 DUP3 ADD SWAP1 POP SWAP3 SWAP2 POP POP JUMP JUMPDEST PUSH1 0x0 DUP3 DUP3 MSTORE PUSH1 0x20 DUP3 ADD SWAP1 POP SWAP3 SWAP2 POP POP JUMP JUMPDEST PUSH1 0x0 DUP3 DUP3 MSTORE PUSH1 0x20 DUP3 ADD SWAP1 POP SWAP3 SWAP2 POP POP JUMP JUMPDEST PUSH1 0x0 DUP2 SWAP1 POP SWAP3 SWAP2 POP POP JUMP JUMPDEST PUSH1 0x0 DUP3 DUP3 MSTORE PUSH1 0x20 DUP3 ADD SWAP1 POP SWAP3 SWAP2 POP POP JUMP JUMPDEST PUSH1 0x0 DUP2 SWAP1 POP SWAP3 SWAP2 POP POP JUMP JUMPDEST PUSH1 0x0 PUSH2 0x4841 DUP3 PUSH2 0x4AD2 JUMP JUMPDEST SWAP2 POP PUSH2 0x484C DUP4 PUSH2 0x4AD2 JUMP JUMPDEST SWAP3 POP DUP2 PUSH32 0x7FFFFFFFFFFFFFFFFFFFFFFFFFFFFFFFFFFFFFFFFFFFFFFFFFFFFFFFFFFFFFFF SUB DUP4 SGT PUSH1 0x0 DUP4 SLT ISZERO AND ISZERO PUSH2 0x4887 JUMPI PUSH2 0x4886 PUSH2 0x4C78 JUMP JUMPDEST JUMPDEST DUP2 PUSH32 0x8000000000000000000000000000000000000000000000000000000000000000 SUB DUP4 SLT PUSH1 0x0 DUP4 SLT AND ISZERO PUSH2 0x48BF JUMPI PUSH2 0x48BE PUSH2 0x4C78 JUMP JUMPDEST JUMPDEST DUP3 DUP3 ADD SWAP1 POP SWAP3 SWAP2 POP POP JUMP JUMPDEST PUSH1 0x0 PUSH2 0x48D5 DUP3 PUSH2 0x4AFC JUMP JUMPDEST SWAP2 POP PUSH2 0x48E0 DUP4 PUSH2 0x4AFC JUMP JUMPDEST SWAP3 POP DUP3 PUSH32 0xFFFFFFFFFFFFFFFFFFFFFFFFFFFFFFFFFFFFFFFFFFFFFFFFFFFFFFFFFFFFFFFF SUB DUP3 GT ISZERO PUSH2 0x4915 JUMPI PUSH2 0x4914 PUSH2 0x4C78 JUMP JUMPDEST JUMPDEST DUP3 DUP3 ADD SWAP1 POP SWAP3 SWAP2 POP POP JUMP JUMPDEST PUSH1 0x0 PUSH2 0x492B DUP3 PUSH2 0x4B06 JUMP JUMPDEST SWAP2 POP PUSH2 0x4936 DUP4 PUSH2 0x4B06 JUMP JUMPDEST SWAP3 POP DUP3 PUSH1 0xFF SUB DUP3 GT ISZERO PUSH2 0x494C JUMPI PUSH2 0x494B PUSH2 0x4C78 JUMP JUMPDEST JUMPDEST DUP3 DUP3 ADD SWAP1 POP SWAP3 SWAP2 POP POP JUMP JUMPDEST PUSH1 0x0 PUSH2 0x4962 DUP3 PUSH2 0x4AFC JUMP JUMPDEST SWAP2 POP PUSH2 0x496D DUP4 PUSH2 0x4AFC JUMP JUMPDEST SWAP3 POP DUP3 PUSH2 0x497D JUMPI PUSH2 0x497C PUSH2 0x4CA7 JUMP JUMPDEST JUMPDEST DUP3 DUP3 DIV SWAP1 POP SWAP3 SWAP2 POP POP JUMP JUMPDEST PUSH1 0x0 PUSH2 0x4993 DUP3 PUSH2 0x4AFC JUMP JUMPDEST SWAP2 POP PUSH2 0x499E DUP4 PUSH2 0x4AFC JUMP JUMPDEST SWAP3 POP DUP2 PUSH32 0xFFFFFFFFFFFFFFFFFFFFFFFFFFFFFFFFFFFFFFFFFFFFFFFFFFFFFFFFFFFFFFFF DIV DUP4 GT DUP3 ISZERO ISZERO AND ISZERO PUSH2 0x49D7 JUMPI PUSH2 0x49D6 PUSH2 0x4C78 JUMP JUMPDEST JUMPDEST DUP3 DUP3 MUL SWAP1 POP SWAP3 SWAP2 POP POP JUMP JUMPDEST PUSH1 0x0 PUSH2 0x49ED DUP3 PUSH2 0x4AD2 JUMP JUMPDEST SWAP2 POP PUSH2 0x49F8 DUP4 PUSH2 0x4AD2 JUMP JUMPDEST SWAP3 POP DUP3 PUSH32 0x8000000000000000000000000000000000000000000000000000000000000000 ADD DUP3 SLT PUSH1 0x0 DUP5 SLT ISZERO AND ISZERO PUSH2 0x4A33 JUMPI PUSH2 0x4A32 PUSH2 0x4C78 JUMP JUMPDEST JUMPDEST DUP3 PUSH32 0x7FFFFFFFFFFFFFFFFFFFFFFFFFFFFFFFFFFFFFFFFFFFFFFFFFFFFFFFFFFFFFFF ADD DUP3 SGT PUSH1 0x0 DUP5 SLT AND ISZERO PUSH2 0x4A6B JUMPI PUSH2 0x4A6A PUSH2 0x4C78 JUMP JUMPDEST JUMPDEST DUP3 DUP3 SUB SWAP1 POP SWAP3 SWAP2 POP POP JUMP JUMPDEST PUSH1 0x0 PUSH2 0x4A81 DUP3 PUSH2 0x4AFC JUMP JUMPDEST SWAP2 POP PUSH2 0x4A8C DUP4 PUSH2 0x4AFC JUMP JUMPDEST SWAP3 POP DUP3 DUP3 LT ISZERO PUSH2 0x4A9F JUMPI PUSH2 0x4A9E PUSH2 0x4C78 JUMP JUMPDEST JUMPDEST DUP3 DUP3 SUB SWAP1 POP SWAP3 SWAP2 POP POP JUMP JUMPDEST PUSH1 0x0 PUSH2 0x4AB5 DUP3 PUSH2 0x4ADC JUMP JUMPDEST SWAP1 POP SWAP2 SWAP1 POP JUMP JUMPDEST PUSH1 0x0 DUP2 ISZERO ISZERO SWAP1 POP SWAP2 SWAP1 POP JUMP JUMPDEST PUSH1 0x0 DUP2 SWAP1 POP SWAP2 SWAP1 POP JUMP JUMPDEST PUSH1 0x0 DUP2 SWAP1 POP SWAP2 SWAP1 POP JUMP JUMPDEST PUSH1 0x0 PUSH20 0xFFFFFFFFFFFFFFFFFFFFFFFFFFFFFFFFFFFFFFFF DUP3 AND SWAP1 POP SWAP2 SWAP1 POP JUMP JUMPDEST PUSH1 0x0 DUP2 SWAP1 POP SWAP2 SWAP1 POP JUMP JUMPDEST PUSH1 0x0 PUSH1 0xFF DUP3 AND SWAP1 POP SWAP2 SWAP1 POP JUMP JUMPDEST DUP3 DUP2 DUP4 CALLDATACOPY PUSH1 0x0 DUP4 DUP4 ADD MSTORE POP POP POP JUMP JUMPDEST PUSH1 0x0 JUMPDEST DUP4 DUP2 LT ISZERO PUSH2 0x4B40 JUMPI DUP1 DUP3 ADD MLOAD DUP2 DUP5 ADD MSTORE PUSH1 0x20 DUP2 ADD SWAP1 POP PUSH2 0x4B25 JUMP JUMPDEST DUP4 DUP2 GT ISZERO PUSH2 0x4B4F JUMPI PUSH1 0x0 DUP5 DUP5 ADD MSTORE JUMPDEST POP POP POP POP JUMP JUMPDEST PUSH1 0x0 PUSH1 0x2 DUP3 DIV SWAP1 POP PUSH1 0x1 DUP3 AND DUP1 PUSH2 0x4B6D JUMPI PUSH1 0x7F DUP3 AND SWAP2 POP JUMPDEST PUSH1 0x20 DUP3 LT DUP2 EQ ISZERO PUSH2 0x4B81 JUMPI PUSH2 0x4B80 PUSH2 0x4CD6 JUMP JUMPDEST JUMPDEST POP SWAP2 SWAP1 POP JUMP JUMPDEST PUSH2 0x4B90 DUP3 PUSH2 0x4D34 JUMP JUMPDEST DUP2 ADD DUP2 DUP2 LT PUSH8 0xFFFFFFFFFFFFFFFF DUP3 GT OR ISZERO PUSH2 0x4BAF JUMPI PUSH2 0x4BAE PUSH2 0x4D05 JUMP JUMPDEST JUMPDEST DUP1 PUSH1 0x40 MSTORE POP POP POP JUMP JUMPDEST PUSH1 0x0 PUSH2 0x4BC3 DUP3 PUSH2 0x4AFC JUMP JUMPDEST SWAP2 POP PUSH32 0xFFFFFFFFFFFFFFFFFFFFFFFFFFFFFFFFFFFFFFFFFFFFFFFFFFFFFFFFFFFFFFFF DUP3 EQ ISZERO PUSH2 0x4BF6 JUMPI PUSH2 0x4BF5 PUSH2 0x4C78 JUMP JUMPDEST JUMPDEST PUSH1 0x1 DUP3 ADD SWAP1 POP SWAP2 SWAP1 POP JUMP JUMPDEST PUSH1 0x0 PUSH2 0x4C0C DUP3 PUSH2 0x4C1D JUMP JUMPDEST SWAP1 POP SWAP2 SWAP1 POP JUMP JUMPDEST PUSH1 0x0 DUP2 SWAP1 POP SWAP2 SWAP1 POP JUMP JUMPDEST PUSH1 0x0 PUSH2 0x4C28 DUP3 PUSH2 0x4D45 JUMP JUMPDEST SWAP1 POP SWAP2 SWAP1 POP JUMP JUMPDEST PUSH1 0x0 PUSH2 0x4C3A DUP3 PUSH2 0x4AD2 JUMP JUMPDEST SWAP2 POP PUSH32 0x8000000000000000000000000000000000000000000000000000000000000000 DUP3 EQ ISZERO PUSH2 0x4C6D JUMPI PUSH2 0x4C6C PUSH2 0x4C78 JUMP JUMPDEST JUMPDEST DUP2 PUSH1 0x0 SUB SWAP1 POP SWAP2 SWAP1 POP JUMP JUMPDEST PUSH32 0x4E487B7100000000000000000000000000000000000000000000000000000000 PUSH1 0x0 MSTORE PUSH1 0x11 PUSH1 0x4 MSTORE PUSH1 0x24 PUSH1 0x0 REVERT JUMPDEST PUSH32 0x4E487B7100000000000000000000000000000000000000000000000000000000 PUSH1 0x0 MSTORE PUSH1 0x12 PUSH1 0x4 MSTORE PUSH1 0x24 PUSH1 0x0 REVERT JUMPDEST PUSH32 0x4E487B7100000000000000000000000000000000000000000000000000000000 PUSH1 0x0 MSTORE PUSH1 0x22 PUSH1 0x4 MSTORE PUSH1 0x24 PUSH1 0x0 REVERT JUMPDEST PUSH32 0x4E487B7100000000000000000000000000000000000000000000000000000000 PUSH1 0x0 MSTORE PUSH1 0x41 PUSH1 0x4 MSTORE PUSH1 0x24 PUSH1 0x0 REVERT JUMPDEST PUSH1 0x0 PUSH1 0x1F NOT PUSH1 0x1F DUP4 ADD AND SWAP1 POP SWAP2 SWAP1 POP JUMP JUMPDEST PUSH1 0x0 DUP2 PUSH1 0x60 SHL SWAP1 POP SWAP2 SWAP1 POP JUMP JUMPDEST PUSH32 0x45434453413A20696E76616C6964207369676E61747572650000000000000000 PUSH1 0x0 DUP3 ADD MSTORE POP JUMP JUMPDEST PUSH32 0x45434453413A20696E76616C6964207369676E6174757265206C656E67746800 PUSH1 0x0 DUP3 ADD MSTORE POP JUMP JUMPDEST PUSH32 0x19457468657265756D205369676E6564204D6573736167653A0A333200000000 PUSH1 0x0 DUP3 ADD MSTORE POP JUMP JUMPDEST PUSH32 0x45434453413A20696E76616C6964207369676E6174757265202773272076616C PUSH1 0x0 DUP3 ADD MSTORE PUSH32 0x7565000000000000000000000000000000000000000000000000000000000000 PUSH1 0x20 DUP3 ADD MSTORE POP JUMP JUMPDEST PUSH32 0x45434453413A20696E76616C6964207369676E6174757265202776272076616C PUSH1 0x0 DUP3 ADD MSTORE PUSH32 0x7565000000000000000000000000000000000000000000000000000000000000 PUSH1 0x20 DUP3 ADD MSTORE POP JUMP JUMPDEST PUSH2 0x4E74 DUP2 PUSH2 0x4AAA JUMP JUMPDEST DUP2 EQ PUSH2 0x4E7F JUMPI PUSH1 0x0 DUP1 REVERT JUMPDEST POP JUMP JUMPDEST PUSH2 0x4E8B DUP2 PUSH2 0x4ABC JUMP JUMPDEST DUP2 EQ PUSH2 0x4E96 JUMPI PUSH1 0x0 DUP1 REVERT JUMPDEST POP JUMP JUMPDEST PUSH2 0x4EA2 DUP2 PUSH2 0x4AC8 JUMP JUMPDEST DUP2 EQ PUSH2 0x4EAD JUMPI PUSH1 0x0 DUP1 REVERT JUMPDEST POP JUMP JUMPDEST PUSH2 0x4EB9 DUP2 PUSH2 0x4AD2 JUMP JUMPDEST DUP2 EQ PUSH2 0x4EC4 JUMPI PUSH1 0x0 DUP1 REVERT JUMPDEST POP JUMP JUMPDEST PUSH2 0x4ED0 DUP2 PUSH2 0x4AFC JUMP JUMPDEST DUP2 EQ PUSH2 0x4EDB JUMPI PUSH1 0x0 DUP1 REVERT JUMPDEST POP JUMP INVALID LOG2 PUSH5 0x6970667358 0x22 SLT KECCAK256 SELFBALANCE 0xD9 MSIZE DUP15 EQ 0xBC 0x5F 0xEE 0xC6 CODESIZE 0xD0 0xE3 0x2A 0xAA PUSH23 0xC81C2C4B2AE957EEA711D648090AB8A7F264736F6C6343 STOP ADDMOD ADD STOP CALLER "
		},
		"gasEstimates": {
			"creation": {
				"codeDepositCost": "4048800",
				"executionCost": "infinite",
				"totalCost": "infinite"
			},
			"external": {
				"assets(uint256)": "infinite",
				"batchRebalance((address,uint256,(uint256,uint256)[],bytes)[],(address,address,(uint256,uint256)[])[],(address,uint256,(uint256,int256)[],bytes)[])": "infinite",
				"channelKey(address,address)": "infinite",
				"channels(bytes)": "infinite",
				"createDebt(address,address,uint256)": "infinite",
				"depositToChannel((address,address,(uint256,uint256)[]))": "infinite",
				"getChannel(address,address)": "infinite",
				"getDebts(address)": "infinite",
				"getUser(address)": "infinite",
				"log(string,address)": "infinite",
				"log(string,bool)": "infinite",
				"log(string,bytes)": "infinite",
				"log(string,bytes32)": "infinite",
				"log(string,int256)": "infinite",
				"log(string,uint256)": "infinite",
				"logChannel(address,address)": "infinite",
				"payDebts(address,uint256)": "infinite",
				"startDispute((address,uint256,(uint256,int256)[],bytes))": "infinite",
				"withdrawFromChannel((address,uint256,(uint256,uint256)[],bytes))": "infinite"
			}
		},
		"methodIdentifiers": {
			"assets(uint256)": "cf35bdd0",
			"batchRebalance((address,uint256,(uint256,uint256)[],bytes)[],(address,address,(uint256,uint256)[])[],(address,uint256,(uint256,int256)[],bytes)[])": "334f5940",
			"channelKey(address,address)": "3c4deb11",
			"channels(bytes)": "a1a96a13",
			"createDebt(address,address,uint256)": "0eb0afa6",
			"depositToChannel((address,address,(uint256,uint256)[]))": "d3d90b68",
			"getChannel(address,address)": "aee26d3f",
			"getDebts(address)": "bcd1e5f9",
			"getUser(address)": "6f77926b",
			"log(string,address)": "319af333",
			"log(string,bool)": "c3b55635",
			"log(string,bytes)": "23cdd8e8",
			"log(string,bytes32)": "3692d61a",
			"log(string,int256)": "3ca6268e",
			"log(string,uint256)": "b60e72cc",
			"logChannel(address,address)": "bf52638c",
			"payDebts(address,uint256)": "428d9cc5",
			"startDispute((address,uint256,(uint256,int256)[],bytes))": "b7340e42",
			"withdrawFromChannel((address,uint256,(uint256,uint256)[],bytes))": "8b86be3c"
		}
	},
	"abi": [
		{
			"inputs": [],
			"stateMutability": "nonpayable",
			"type": "constructor"
		},
		{
			"anonymous": false,
			"inputs": [
				{
					"indexed": false,
					"internalType": "string",
					"name": "",
					"type": "string"
				},
				{
					"indexed": false,
					"internalType": "address",
					"name": "",
					"type": "address"
				}
			],
			"name": "LogAddress",
			"type": "event"
		},
		{
			"anonymous": false,
			"inputs": [
				{
					"indexed": false,
					"internalType": "string",
					"name": "",
					"type": "string"
				},
				{
					"indexed": false,
					"internalType": "bool",
					"name": "",
					"type": "bool"
				}
			],
			"name": "LogBool",
			"type": "event"
		},
		{
			"anonymous": false,
			"inputs": [
				{
					"indexed": false,
					"internalType": "string",
					"name": "",
					"type": "string"
				},
				{
					"indexed": false,
					"internalType": "bytes",
					"name": "",
					"type": "bytes"
				}
			],
			"name": "LogBytes",
			"type": "event"
		},
		{
			"anonymous": false,
			"inputs": [
				{
					"indexed": false,
					"internalType": "string",
					"name": "",
					"type": "string"
				},
				{
					"indexed": false,
					"internalType": "bytes32",
					"name": "",
					"type": "bytes32"
				}
			],
			"name": "LogBytes32",
			"type": "event"
		},
		{
			"anonymous": false,
			"inputs": [
				{
					"indexed": false,
					"internalType": "string",
					"name": "",
					"type": "string"
				},
				{
					"indexed": false,
					"internalType": "int256",
					"name": "",
					"type": "int256"
				}
			],
			"name": "LogInt",
			"type": "event"
		},
		{
			"anonymous": false,
			"inputs": [
				{
					"indexed": false,
					"internalType": "string",
					"name": "",
					"type": "string"
				},
				{
					"indexed": false,
					"internalType": "uint256",
					"name": "",
					"type": "uint256"
				}
			],
			"name": "LogUint",
			"type": "event"
		},
		{
			"inputs": [
				{
					"internalType": "uint256",
					"name": "",
					"type": "uint256"
				}
			],
			"name": "assets",
			"outputs": [
				{
					"internalType": "string",
					"name": "name",
					"type": "string"
				}
			],
			"stateMutability": "view",
			"type": "function"
		},
		{
			"inputs": [
				{
					"components": [
						{
							"internalType": "address",
							"name": "a2",
							"type": "address"
						},
						{
							"internalType": "uint256",
							"name": "withdraw_nonce",
							"type": "uint256"
						},
						{
							"components": [
								{
									"internalType": "uint256",
									"name": "asset_id",
									"type": "uint256"
								},
								{
									"internalType": "uint256",
									"name": "amount",
									"type": "uint256"
								}
							],
							"internalType": "struct XLN.AssetAmountPair[]",
							"name": "pairs",
							"type": "tuple[]"
						},
						{
							"internalType": "bytes",
							"name": "sig",
							"type": "bytes"
						}
					],
					"internalType": "struct XLN.WithdrawFromChannelParams[]",
					"name": "withdrawArray",
					"type": "tuple[]"
				},
				{
					"components": [
						{
							"internalType": "address",
							"name": "a1",
							"type": "address"
						},
						{
							"internalType": "address",
							"name": "a2",
							"type": "address"
						},
						{
							"components": [
								{
									"internalType": "uint256",
									"name": "asset_id",
									"type": "uint256"
								},
								{
									"internalType": "uint256",
									"name": "amount",
									"type": "uint256"
								}
							],
							"internalType": "struct XLN.AssetAmountPair[]",
							"name": "pairs",
							"type": "tuple[]"
						}
					],
					"internalType": "struct XLN.DepositToChannelParams[]",
					"name": "depositArray",
					"type": "tuple[]"
				},
				{
					"components": [
						{
							"internalType": "address",
							"name": "a2",
							"type": "address"
						},
						{
							"internalType": "uint256",
							"name": "dispute_nonce",
							"type": "uint256"
						},
						{
							"components": [
								{
									"internalType": "uint256",
									"name": "asset_id",
									"type": "uint256"
								},
								{
									"internalType": "int256",
									"name": "offdelta",
									"type": "int256"
								}
							],
							"internalType": "struct XLN.Offdelta[]",
							"name": "offdeltas",
							"type": "tuple[]"
						},
						{
							"internalType": "bytes",
							"name": "sig",
							"type": "bytes"
						}
					],
					"internalType": "struct XLN.StartDisputeParams[]",
					"name": "disputeArray",
					"type": "tuple[]"
				}
			],
			"name": "batchRebalance",
			"outputs": [
				{
					"internalType": "bool",
					"name": "",
					"type": "bool"
				}
			],
			"stateMutability": "nonpayable",
			"type": "function"
		},
		{
			"inputs": [
				{
					"internalType": "address",
					"name": "a1",
					"type": "address"
				},
				{
					"internalType": "address",
					"name": "a2",
					"type": "address"
				}
			],
			"name": "channelKey",
			"outputs": [
				{
					"internalType": "bytes",
					"name": "",
					"type": "bytes"
				}
			],
			"stateMutability": "pure",
			"type": "function"
		},
		{
			"inputs": [
				{
					"internalType": "bytes",
					"name": "",
					"type": "bytes"
				}
			],
			"name": "channels",
			"outputs": [
				{
					"internalType": "uint256",
					"name": "withdraw_nonce",
					"type": "uint256"
				},
				{
					"internalType": "uint256",
					"name": "dispute_nonce",
					"type": "uint256"
				},
				{
					"internalType": "uint256",
					"name": "dispute_until_block",
					"type": "uint256"
				},
				{
					"internalType": "bytes32",
					"name": "hash_outcome_proposed",
					"type": "bytes32"
				},
				{
					"internalType": "bool",
					"name": "dispute_by_left",
					"type": "bool"
				}
			],
			"stateMutability": "view",
			"type": "function"
		},
		{
			"inputs": [
				{
					"internalType": "address",
					"name": "fromUser",
					"type": "address"
				},
				{
					"internalType": "address",
					"name": "toUser",
					"type": "address"
				},
				{
					"internalType": "uint256",
					"name": "amount",
					"type": "uint256"
				}
			],
			"name": "createDebt",
			"outputs": [],
			"stateMutability": "nonpayable",
			"type": "function"
		},
		{
			"inputs": [
				{
					"components": [
						{
							"internalType": "address",
							"name": "a1",
							"type": "address"
						},
						{
							"internalType": "address",
							"name": "a2",
							"type": "address"
						},
						{
							"components": [
								{
									"internalType": "uint256",
									"name": "asset_id",
									"type": "uint256"
								},
								{
									"internalType": "uint256",
									"name": "amount",
									"type": "uint256"
								}
							],
							"internalType": "struct XLN.AssetAmountPair[]",
							"name": "pairs",
							"type": "tuple[]"
						}
					],
					"internalType": "struct XLN.DepositToChannelParams",
					"name": "params",
					"type": "tuple"
				}
			],
			"name": "depositToChannel",
			"outputs": [
				{
					"internalType": "bool",
					"name": "",
					"type": "bool"
				}
			],
			"stateMutability": "nonpayable",
			"type": "function"
		},
		{
			"inputs": [
				{
					"internalType": "address",
					"name": "a1",
					"type": "address"
				},
				{
					"internalType": "address",
					"name": "a2",
					"type": "address"
				}
			],
			"name": "getChannel",
			"outputs": [
				{
					"components": [
						{
							"components": [
								{
									"internalType": "uint256",
									"name": "withdraw_nonce",
									"type": "uint256"
								},
								{
									"internalType": "uint256",
									"name": "dispute_nonce",
									"type": "uint256"
								},
								{
									"internalType": "uint256",
									"name": "dispute_until_block",
									"type": "uint256"
								},
								{
									"internalType": "bytes32",
									"name": "hash_outcome_proposed",
									"type": "bytes32"
								},
								{
									"internalType": "bool",
									"name": "dispute_by_left",
									"type": "bool"
								}
							],
							"internalType": "struct XLN.Channel",
							"name": "channel",
							"type": "tuple"
						},
						{
							"components": [
								{
									"internalType": "uint256",
									"name": "collateral",
									"type": "uint256"
								},
								{
									"internalType": "int256",
									"name": "ondelta",
									"type": "int256"
								}
							],
							"internalType": "struct XLN.Collateral[]",
							"name": "collaterals",
							"type": "tuple[]"
						}
					],
					"internalType": "struct XLN.ChannelReturn",
					"name": "ch",
					"type": "tuple"
				}
			],
			"stateMutability": "view",
			"type": "function"
		},
		{
			"inputs": [
				{
					"internalType": "address",
					"name": "fromUser",
					"type": "address"
				}
			],
			"name": "getDebts",
			"outputs": [
				{
					"components": [
						{
							"internalType": "uint256",
							"name": "amount",
							"type": "uint256"
						},
						{
							"internalType": "address",
							"name": "pay_to",
							"type": "address"
						}
					],
					"internalType": "struct XLN.Debt[]",
					"name": "allDebts",
					"type": "tuple[]"
				},
				{
					"internalType": "uint256",
					"name": "memoryIndex",
					"type": "uint256"
				}
			],
			"stateMutability": "view",
			"type": "function"
		},
		{
			"inputs": [
				{
					"internalType": "address",
					"name": "a1",
					"type": "address"
				}
			],
			"name": "getUser",
			"outputs": [
				{
					"components": [
						{
							"components": [
								{
									"internalType": "uint256",
									"name": "reserve",
									"type": "uint256"
								},
								{
									"components": [
										{
											"internalType": "uint256",
											"name": "amount",
											"type": "uint256"
										},
										{
											"internalType": "address",
											"name": "pay_to",
											"type": "address"
										}
									],
									"internalType": "struct XLN.Debt[]",
									"name": "debts",
									"type": "tuple[]"
								},
								{
									"internalType": "uint256",
									"name": "debtIndex",
									"type": "uint256"
								}
							],
							"internalType": "struct XLN.AssetReserveDebts[]",
							"name": "reserves",
							"type": "tuple[]"
						}
					],
					"internalType": "struct XLN.User",
					"name": "",
					"type": "tuple"
				}
			],
			"stateMutability": "view",
			"type": "function"
		},
		{
			"inputs": [
				{
					"internalType": "string",
					"name": "s",
					"type": "string"
				},
				{
					"internalType": "bytes",
					"name": "x",
					"type": "bytes"
				}
			],
			"name": "log",
			"outputs": [],
			"stateMutability": "nonpayable",
			"type": "function"
		},
		{
			"inputs": [
				{
					"internalType": "string",
					"name": "s",
					"type": "string"
				},
				{
					"internalType": "address",
					"name": "x",
					"type": "address"
				}
			],
			"name": "log",
			"outputs": [],
			"stateMutability": "nonpayable",
			"type": "function"
		},
		{
			"inputs": [
				{
					"internalType": "string",
					"name": "s",
					"type": "string"
				},
				{
					"internalType": "bytes32",
					"name": "x",
					"type": "bytes32"
				}
			],
			"name": "log",
			"outputs": [],
			"stateMutability": "nonpayable",
			"type": "function"
		},
		{
			"inputs": [
				{
					"internalType": "string",
					"name": "s",
					"type": "string"
				},
				{
					"internalType": "int256",
					"name": "x",
					"type": "int256"
				}
			],
			"name": "log",
			"outputs": [],
			"stateMutability": "nonpayable",
			"type": "function"
		},
		{
			"inputs": [
				{
					"internalType": "string",
					"name": "s",
					"type": "string"
				},
				{
					"internalType": "uint256",
					"name": "x",
					"type": "uint256"
				}
			],
			"name": "log",
			"outputs": [],
			"stateMutability": "nonpayable",
			"type": "function"
		},
		{
			"inputs": [
				{
					"internalType": "string",
					"name": "s",
					"type": "string"
				},
				{
					"internalType": "bool",
					"name": "x",
					"type": "bool"
				}
			],
			"name": "log",
			"outputs": [],
			"stateMutability": "nonpayable",
			"type": "function"
		},
		{
			"inputs": [
				{
					"internalType": "address",
					"name": "a1",
					"type": "address"
				},
				{
					"internalType": "address",
					"name": "a2",
					"type": "address"
				}
			],
			"name": "logChannel",
			"outputs": [],
			"stateMutability": "nonpayable",
			"type": "function"
		},
		{
			"inputs": [
				{
					"internalType": "address",
					"name": "fromUser",
					"type": "address"
				},
				{
					"internalType": "uint256",
					"name": "top_up",
					"type": "uint256"
				}
			],
			"name": "payDebts",
			"outputs": [
				{
					"internalType": "uint256",
					"name": "totalDebts",
					"type": "uint256"
				}
			],
			"stateMutability": "nonpayable",
			"type": "function"
		},
		{
			"inputs": [
				{
					"components": [
						{
							"internalType": "address",
							"name": "a2",
							"type": "address"
						},
						{
							"internalType": "uint256",
							"name": "dispute_nonce",
							"type": "uint256"
						},
						{
							"components": [
								{
									"internalType": "uint256",
									"name": "asset_id",
									"type": "uint256"
								},
								{
									"internalType": "int256",
									"name": "offdelta",
									"type": "int256"
								}
							],
							"internalType": "struct XLN.Offdelta[]",
							"name": "offdeltas",
							"type": "tuple[]"
						},
						{
							"internalType": "bytes",
							"name": "sig",
							"type": "bytes"
						}
					],
					"internalType": "struct XLN.StartDisputeParams",
					"name": "params",
					"type": "tuple"
				}
			],
			"name": "startDispute",
			"outputs": [
				{
					"internalType": "bool",
					"name": "",
					"type": "bool"
				}
			],
			"stateMutability": "nonpayable",
			"type": "function"
		},
		{
			"inputs": [
				{
					"components": [
						{
							"internalType": "address",
							"name": "a2",
							"type": "address"
						},
						{
							"internalType": "uint256",
							"name": "withdraw_nonce",
							"type": "uint256"
						},
						{
							"components": [
								{
									"internalType": "uint256",
									"name": "asset_id",
									"type": "uint256"
								},
								{
									"internalType": "uint256",
									"name": "amount",
									"type": "uint256"
								}
							],
							"internalType": "struct XLN.AssetAmountPair[]",
							"name": "pairs",
							"type": "tuple[]"
						},
						{
							"internalType": "bytes",
							"name": "sig",
							"type": "bytes"
						}
					],
					"internalType": "struct XLN.WithdrawFromChannelParams",
					"name": "params",
					"type": "tuple"
				}
			],
			"name": "withdrawFromChannel",
			"outputs": [
				{
					"internalType": "bool",
					"name": "",
					"type": "bool"
				}
			],
			"stateMutability": "nonpayable",
			"type": "function"
		}
	]
}