{
  "_format": "hh-sol-artifact-1",
  "contractName": "ConvertLib",
  "sourceName": "contracts/ConvertLib.sol",
  "abi": [
    {
      "inputs": [
        {
          "internalType": "uint256",
          "name": "amount",
          "type": "uint256"
        },
        {
          "internalType": "uint256",
          "name": "conversionRate",
          "type": "uint256"
        }
      ],
      "name": "convert",
      "outputs": [
        {
          "internalType": "uint256",
          "name": "convertedAmount",
          "type": "uint256"
        }
      ],
      "stateMutability": "pure",
      "type": "function"
    }
  ],
  "bytecode": "0x6101db610053600b82828239805160001a607314610046577f4e487b7100000000000000000000000000000000000000000000000000000000600052600060045260246000fd5b30600052607381538281f3fe73000000000000000000000000000000000000000030146080604052600436106100355760003560e01c806396e4ee3d1461003a575b600080fd5b610054600480360381019061004f9190610095565b61006a565b60405161006191906100e0565b60405180910390f35b6000818361007891906100fb565b905092915050565b60008135905061008f8161018e565b92915050565b600080604083850312156100a857600080fd5b60006100b685828601610080565b92505060206100c785828601610080565b9150509250929050565b6100da81610155565b82525050565b60006020820190506100f560008301846100d1565b92915050565b600061010682610155565b915061011183610155565b9250817fffffffffffffffffffffffffffffffffffffffffffffffffffffffffffffffff048311821515161561014a5761014961015f565b5b828202905092915050565b6000819050919050565b7f4e487b7100000000000000000000000000000000000000000000000000000000600052601160045260246000fd5b61019781610155565b81146101a257600080fd5b5056fea264697066735822122063c7b4252c25837486cb03bd7bf2c111bde77e209a0b2baa16ac39a003eb818b64736f6c63430008000033",
  "linkReferences": {},
  "deployedLinkReferences": {}
}