{
  "contractName": "Console",
  "abi": [
    {
      "anonymous": false,
      "inputs": [
        {
          "indexed": false,
          "internalType": "string",
          "name": "",
          "type": "string"
        },
        {
          "indexed": false,
          "internalType": "address",
          "name": "",
          "type": "address"
        }
      ],
      "name": "LogAddress",
      "type": "event"
    },
    {
      "anonymous": false,
      "inputs": [
        {
          "indexed": false,
          "internalType": "string",
          "name": "",
          "type": "string"
        },
        {
          "indexed": false,
          "internalType": "bool",
          "name": "",
          "type": "bool"
        }
      ],
      "name": "LogBool",
      "type": "event"
    },
    {
      "anonymous": false,
      "inputs": [
        {
          "indexed": false,
          "internalType": "string",
          "name": "",
          "type": "string"
        },
        {
          "indexed": false,
          "internalType": "bytes",
          "name": "",
          "type": "bytes"
        }
      ],
      "name": "LogBytes",
      "type": "event"
    },
    {
      "anonymous": false,
      "inputs": [
        {
          "indexed": false,
          "internalType": "string",
          "name": "",
          "type": "string"
        },
        {
          "indexed": false,
          "internalType": "bytes32",
          "name": "",
          "type": "bytes32"
        }
      ],
      "name": "LogBytes32",
      "type": "event"
    },
    {
      "anonymous": false,
      "inputs": [
        {
          "indexed": false,
          "internalType": "string",
          "name": "",
          "type": "string"
        },
        {
          "indexed": false,
          "internalType": "int256",
          "name": "",
          "type": "int256"
        }
      ],
      "name": "LogInt",
      "type": "event"
    },
    {
      "anonymous": false,
      "inputs": [
        {
          "indexed": false,
          "internalType": "string",
          "name": "",
          "type": "string"
        },
        {
          "indexed": false,
          "internalType": "string",
          "name": "",
          "type": "string"
        }
      ],
      "name": "LogString",
      "type": "event"
    },
    {
      "anonymous": false,
      "inputs": [
        {
          "indexed": false,
          "internalType": "string",
          "name": "",
          "type": "string"
        },
        {
          "indexed": false,
          "internalType": "uint256",
          "name": "",
          "type": "uint256"
        }
      ],
      "name": "LogUint",
      "type": "event"
    },
    {
      "inputs": [
        {
          "internalType": "string",
          "name": "s",
          "type": "string"
        },
        {
          "internalType": "bytes",
          "name": "x",
          "type": "bytes"
        }
      ],
      "name": "log",
      "outputs": [],
      "stateMutability": "nonpayable",
      "type": "function"
    },
    {
      "inputs": [
        {
          "internalType": "string",
          "name": "s",
          "type": "string"
        },
        {
          "internalType": "address",
          "name": "x",
          "type": "address"
        }
      ],
      "name": "log",
      "outputs": [],
      "stateMutability": "nonpayable",
      "type": "function"
    },
    {
      "inputs": [
        {
          "internalType": "string",
          "name": "s",
          "type": "string"
        },
        {
          "internalType": "bytes32",
          "name": "x",
          "type": "bytes32"
        }
      ],
      "name": "log",
      "outputs": [],
      "stateMutability": "nonpayable",
      "type": "function"
    },
    {
      "inputs": [
        {
          "internalType": "string",
          "name": "s",
          "type": "string"
        },
        {
          "internalType": "int256",
          "name": "x",
          "type": "int256"
        }
      ],
      "name": "log",
      "outputs": [],
      "stateMutability": "nonpayable",
      "type": "function"
    },
    {
      "inputs": [
        {
          "internalType": "string",
          "name": "s",
          "type": "string"
        },
        {
          "internalType": "string",
          "name": "x",
          "type": "string"
        }
      ],
      "name": "log",
      "outputs": [],
      "stateMutability": "nonpayable",
      "type": "function"
    },
    {
      "inputs": [
        {
          "internalType": "string",
          "name": "s",
          "type": "string"
        },
        {
          "internalType": "uint256",
          "name": "x",
          "type": "uint256"
        }
      ],
      "name": "log",
      "outputs": [],
      "stateMutability": "nonpayable",
      "type": "function"
    },
    {
      "inputs": [
        {
          "internalType": "string",
          "name": "s",
          "type": "string"
        },
        {
          "internalType": "bool",
          "name": "x",
          "type": "bool"
        }
      ],
      "name": "log",
      "outputs": [],
      "stateMutability": "nonpayable",
      "type": "function"
    }
  ],
  "bytecode": "0x608060405234801561001057600080fd5b506105e9806100206000396000f3fe608060405234801561001057600080fd5b506004361061007d5760003560e01c80633ca6268e1161005b5780633ca6268e146100bd5780634b5c4277146100d0578063b60e72cc146100e3578063c3b55635146100f65761007d565b806323cdd8e814610082578063319af333146100975780633692d61a146100aa575b600080fd5b6100956100903660046103e9565b610109565b005b6100956100a5366004610302565b610146565b6100956100b83660046103a6565b610177565b6100956100cb3660046103a6565b6101a8565b6100956100de36600461045d565b6101d9565b6100956100f13660046103a6565b61020a565b61009561010436600461035d565b61023b565b7fe8407a0209fa99ec3a7228aff140c3d3e68bd279391739c7e0b65cd406cc93b5828260405161013a92919061056f565b60405180910390a15050565b7f62ddffe5b5108385f7a590f100e1ee414ad9551a31f089e64e82998440785e1e828260405161013a9291906104ff565b7f02d93529bba9d141e5e06733c52c7e6fbcb1149586adb5c24064b522ab26f1d7828260405161013a92919061054d565b7f6a837ff3973aa4181e7b9f07756f8b7ee366dd85a36655d2cb42cd47f10b9638828260405161013a92919061054d565b7f27a8767ed172b48d7cf6dbb25d2840c5fa91ef78fa6e05c13c82763d099f03ca828260405161013a92919061056f565b7f941296a39ea107bde685522318a4b6c2b544904a5dd82a512748ca2cf839bef7828260405161013a92919061054d565b7f4c34c2f9a78632f29fa59aaed5514cb742fd9fbcfd7ccc2c03c85f2bbc621c47828260405161013a929190610529565b600067ffffffffffffffff808411156102875761028761059d565b604051601f8501601f1916810160200182811182821017156102ab576102ab61059d565b6040528481529150818385018610156102c357600080fd5b8484602083013760006020868301015250509392505050565b600082601f8301126102ec578081fd5b6102fb8383356020850161026c565b9392505050565b60008060408385031215610314578182fd5b823567ffffffffffffffff81111561032a578283fd5b610336858286016102dc565b92505060208301356001600160a01b0381168114610352578182fd5b809150509250929050565b6000806040838503121561036f578182fd5b823567ffffffffffffffff811115610385578283fd5b610391858286016102dc565b92505060208301358015158114610352578182fd5b600080604083850312156103b8578182fd5b823567ffffffffffffffff8111156103ce578283fd5b6103da858286016102dc565b95602094909401359450505050565b600080604083850312156103fb578182fd5b823567ffffffffffffffff80821115610412578384fd5b61041e868387016102dc565b93506020850135915080821115610433578283fd5b508301601f81018513610444578182fd5b6104538582356020840161026c565b9150509250929050565b6000806040838503121561046f578182fd5b823567ffffffffffffffff80821115610486578384fd5b610492868387016102dc565b935060208501359150808211156104a7578283fd5b50610453858286016102dc565b60008151808452815b818110156104d9576020818501810151868301820152016104bd565b818111156104ea5782602083870101525b50601f01601f19169290920160200192915050565b60006040825261051260408301856104b4565b905060018060a01b03831660208301529392505050565b60006040825261053c60408301856104b4565b905082151560208301529392505050565b60006040825261056060408301856104b4565b90508260208301529392505050565b60006040825261058260408301856104b4565b828103602084015261059481856104b4565b95945050505050565b634e487b7160e01b600052604160045260246000fdfea2646970667358221220c9dd0bb23d8d3070f9df19e6f5a4589be728c550cc8eddc696cbf27ade1c426364736f6c63430008000033",
  "immutableReferences": {},
  "source": "// SPDX-License-Identifier: MIT\npragma solidity ^0.8.0;\ncontract Console {\n  event LogString(string, string);\n  function log(string  memory s , string memory x) public {\n    emit LogString(s, x);\n  }\n\n  event LogUint(string, uint);\n  function log(string  memory s , uint  x) public {\n    emit LogUint(s, x);\n  }\n\n  event LogInt(string, int);\n  function log(string  memory s , int  x) public  {\n    emit LogInt(s, x);\n  }\n  \n  event LogBytes(string, bytes);\n  function log(string  memory s , bytes  memory x) public  {\n    emit LogBytes(s, x);\n  }\n  \n  event LogBytes32(string, bytes32);\n  function log(string  memory s , bytes32  x)  public {\n    emit LogBytes32(s, x);\n  }\n\n  event LogAddress(string, address);\n  function log(string  memory s , address  x) public  {\n    emit LogAddress(s, x);\n  }\n\n  event LogBool(string, bool);\n  function log(string  memory s , bool  x)  public {\n    emit LogBool(s, x);\n  }\n}",
  "sourcePath": "/Users/homakov/work/AAAxln/contracts/console.sol",
  "compiler": {
    "name": "solc",
    "version": "0.8.0+commit.c7dfd78e.Emscripten.clang"
  },
  "schemaVersion": "3.3.4",
  "updatedAt": "2021-03-30T14:45:27.670Z",
  "devdoc": {
    "kind": "dev",
    "methods": {},
    "version": 1
  },
  "userdoc": {
    "kind": "user",
    "methods": {},
    "version": 1
  }
}