{
  "contractName": "Console",
  "abi": [
    {
      "anonymous": false,
      "inputs": [
        {
          "indexed": false,
          "internalType": "string",
          "name": "",
          "type": "string"
        },
        {
          "indexed": false,
          "internalType": "address",
          "name": "",
          "type": "address"
        }
      ],
      "name": "LogAddress",
      "type": "event"
    },
    {
      "anonymous": false,
      "inputs": [
        {
          "indexed": false,
          "internalType": "string",
          "name": "",
          "type": "string"
        },
        {
          "indexed": false,
          "internalType": "bool",
          "name": "",
          "type": "bool"
        }
      ],
      "name": "LogBool",
      "type": "event"
    },
    {
      "anonymous": false,
      "inputs": [
        {
          "indexed": false,
          "internalType": "string",
          "name": "",
          "type": "string"
        },
        {
          "indexed": false,
          "internalType": "bytes",
          "name": "",
          "type": "bytes"
        }
      ],
      "name": "LogBytes",
      "type": "event"
    },
    {
      "anonymous": false,
      "inputs": [
        {
          "indexed": false,
          "internalType": "string",
          "name": "",
          "type": "string"
        },
        {
          "indexed": false,
          "internalType": "bytes32",
          "name": "",
          "type": "bytes32"
        }
      ],
      "name": "LogBytes32",
      "type": "event"
    },
    {
      "anonymous": false,
      "inputs": [
        {
          "indexed": false,
          "internalType": "string",
          "name": "",
          "type": "string"
        },
        {
          "indexed": false,
          "internalType": "int256",
          "name": "",
          "type": "int256"
        }
      ],
      "name": "LogInt",
      "type": "event"
    },
    {
      "anonymous": false,
      "inputs": [
        {
          "indexed": false,
          "internalType": "string",
          "name": "",
          "type": "string"
        },
        {
          "indexed": false,
          "internalType": "uint256",
          "name": "",
          "type": "uint256"
        }
      ],
      "name": "LogUint",
      "type": "event"
    },
    {
      "inputs": [
        {
          "internalType": "string",
          "name": "s",
          "type": "string"
        },
        {
          "internalType": "bytes",
          "name": "x",
          "type": "bytes"
        }
      ],
      "name": "log",
      "outputs": [],
      "stateMutability": "nonpayable",
      "type": "function"
    },
    {
      "inputs": [
        {
          "internalType": "string",
          "name": "s",
          "type": "string"
        },
        {
          "internalType": "address",
          "name": "x",
          "type": "address"
        }
      ],
      "name": "log",
      "outputs": [],
      "stateMutability": "nonpayable",
      "type": "function"
    },
    {
      "inputs": [
        {
          "internalType": "string",
          "name": "s",
          "type": "string"
        },
        {
          "internalType": "bytes32",
          "name": "x",
          "type": "bytes32"
        }
      ],
      "name": "log",
      "outputs": [],
      "stateMutability": "nonpayable",
      "type": "function"
    },
    {
      "inputs": [
        {
          "internalType": "string",
          "name": "s",
          "type": "string"
        },
        {
          "internalType": "int256",
          "name": "x",
          "type": "int256"
        }
      ],
      "name": "log",
      "outputs": [],
      "stateMutability": "nonpayable",
      "type": "function"
    },
    {
      "inputs": [
        {
          "internalType": "string",
          "name": "s",
          "type": "string"
        },
        {
          "internalType": "uint256",
          "name": "x",
          "type": "uint256"
        }
      ],
      "name": "log",
      "outputs": [],
      "stateMutability": "nonpayable",
      "type": "function"
    },
    {
      "inputs": [
        {
          "internalType": "string",
          "name": "s",
          "type": "string"
        },
        {
          "internalType": "bool",
          "name": "x",
          "type": "bool"
        }
      ],
      "name": "log",
      "outputs": [],
      "stateMutability": "nonpayable",
      "type": "function"
    }
  ],
  "bytecode": "0x608060405234801561001057600080fd5b506109fa806100206000396000f3fe608060405234801561001057600080fd5b50600436106100625760003560e01c806323cdd8e814610067578063319af333146100835780633692d61a1461009f5780633ca6268e146100bb578063b60e72cc146100d7578063c3b55635146100f3575b600080fd5b610081600480360381019061007c91906104b2565b61010f565b005b61009d600480360381019061009891906103b6565b61014c565b005b6100b960048036038101906100b4919061045e565b610189565b005b6100d560048036038101906100d0919061051e565b6101c6565b005b6100f160048036038101906100ec9190610572565b610203565b005b61010d6004803603810190610108919061040a565b610240565b005b7fe8407a0209fa99ec3a7228aff140c3d3e68bd279391739c7e0b65cd406cc93b58282604051610140929190610713565b60405180910390a15050565b7f62ddffe5b5108385f7a590f100e1ee414ad9551a31f089e64e82998440785e1e828260405161017d929190610683565b60405180910390a15050565b7f02d93529bba9d141e5e06733c52c7e6fbcb1149586adb5c24064b522ab26f1d782826040516101ba9291906106e3565b60405180910390a15050565b7f6a837ff3973aa4181e7b9f07756f8b7ee366dd85a36655d2cb42cd47f10b963882826040516101f792919061074a565b60405180910390a15050565b7f941296a39ea107bde685522318a4b6c2b544904a5dd82a512748ca2cf839bef7828260405161023492919061077a565b60405180910390a15050565b7f4c34c2f9a78632f29fa59aaed5514cb742fd9fbcfd7ccc2c03c85f2bbc621c4782826040516102719291906106b3565b60405180910390a15050565b600061029061028b846107db565b6107aa565b9050828152602081018484840111156102a857600080fd5b6102b38482856108cf565b509392505050565b60006102ce6102c98461080b565b6107aa565b9050828152602081018484840111156102e657600080fd5b6102f18482856108cf565b509392505050565b60008135905061030881610951565b92915050565b60008135905061031d81610968565b92915050565b6000813590506103328161097f565b92915050565b600082601f83011261034957600080fd5b813561035984826020860161027d565b91505092915050565b60008135905061037181610996565b92915050565b600082601f83011261038857600080fd5b81356103988482602086016102bb565b91505092915050565b6000813590506103b0816109ad565b92915050565b600080604083850312156103c957600080fd5b600083013567ffffffffffffffff8111156103e357600080fd5b6103ef85828601610377565b9250506020610400858286016102f9565b9150509250929050565b6000806040838503121561041d57600080fd5b600083013567ffffffffffffffff81111561043757600080fd5b61044385828601610377565b92505060206104548582860161030e565b9150509250929050565b6000806040838503121561047157600080fd5b600083013567ffffffffffffffff81111561048b57600080fd5b61049785828601610377565b92505060206104a885828601610323565b9150509250929050565b600080604083850312156104c557600080fd5b600083013567ffffffffffffffff8111156104df57600080fd5b6104eb85828601610377565b925050602083013567ffffffffffffffff81111561050857600080fd5b61051485828601610338565b9150509250929050565b6000806040838503121561053157600080fd5b600083013567ffffffffffffffff81111561054b57600080fd5b61055785828601610377565b925050602061056885828601610362565b9150509250929050565b6000806040838503121561058557600080fd5b600083013567ffffffffffffffff81111561059f57600080fd5b6105ab85828601610377565b92505060206105bc858286016103a1565b9150509250929050565b6105cf81610873565b82525050565b6105de81610885565b82525050565b6105ed81610891565b82525050565b60006105fe8261083b565b6106088185610851565b93506106188185602086016108de565b61062181610940565b840191505092915050565b6106358161089b565b82525050565b600061064682610846565b6106508185610862565b93506106608185602086016108de565b61066981610940565b840191505092915050565b61067d816108c5565b82525050565b6000604082019050818103600083015261069d818561063b565b90506106ac60208301846105c6565b9392505050565b600060408201905081810360008301526106cd818561063b565b90506106dc60208301846105d5565b9392505050565b600060408201905081810360008301526106fd818561063b565b905061070c60208301846105e4565b9392505050565b6000604082019050818103600083015261072d818561063b565b9050818103602083015261074181846105f3565b90509392505050565b60006040820190508181036000830152610764818561063b565b9050610773602083018461062c565b9392505050565b60006040820190508181036000830152610794818561063b565b90506107a36020830184610674565b9392505050565b6000604051905081810181811067ffffffffffffffff821117156107d1576107d0610911565b5b8060405250919050565b600067ffffffffffffffff8211156107f6576107f5610911565b5b601f19601f8301169050602081019050919050565b600067ffffffffffffffff82111561082657610825610911565b5b601f19601f8301169050602081019050919050565b600081519050919050565b600081519050919050565b600082825260208201905092915050565b600082825260208201905092915050565b600061087e826108a5565b9050919050565b60008115159050919050565b6000819050919050565b6000819050919050565b600073ffffffffffffffffffffffffffffffffffffffff82169050919050565b6000819050919050565b82818337600083830152505050565b60005b838110156108fc5780820151818401526020810190506108e1565b8381111561090b576000848401525b50505050565b7f4e487b7100000000000000000000000000000000000000000000000000000000600052604160045260246000fd5b6000601f19601f8301169050919050565b61095a81610873565b811461096557600080fd5b50565b61097181610885565b811461097c57600080fd5b50565b61098881610891565b811461099357600080fd5b50565b61099f8161089b565b81146109aa57600080fd5b50565b6109b6816108c5565b81146109c157600080fd5b5056fea264697066735822122045d6cbc247a34c96143c782d9af8a8e44134e4893a7162d0c0cb92c712f0b02064736f6c63430008000033",
  "immutableReferences": {},
  "source": "// SPDX-License-Identifier: MIT\npragma solidity ^0.8.0;\ncontract Console {\n  event LogUint(string, uint);\n  function log(string  memory s , uint  x) public {\n    emit LogUint(s, x);\n  }\n  \n  event LogInt(string, int);\n  function log(string  memory s , int  x) public  {\n    emit LogInt(s, x);\n  }\n  \n  event LogBytes(string, bytes);\n  function log(string  memory s , bytes  memory x) public  {\n    emit LogBytes(s, x);\n  }\n  \n  event LogBytes32(string, bytes32);\n  function log(string  memory s , bytes32  x)  public {\n    emit LogBytes32(s, x);\n  }\n\n  event LogAddress(string, address);\n  function log(string  memory s , address  x) public  {\n    emit LogAddress(s, x);\n  }\n\n  event LogBool(string, bool);\n  function log(string  memory s , bool  x)  public {\n    emit LogBool(s, x);\n  }\n}",
  "sourcePath": "/Users/homakov/work/AAAxln/contracts/console.sol",
  "compiler": {
    "name": "solc",
    "version": "0.8.0+commit.c7dfd78e.Emscripten.clang"
  },
  "schemaVersion": "3.3.3",
  "updatedAt": "2021-03-17T21:34:16.573Z",
  "devdoc": {
    "kind": "dev",
    "methods": {},
    "version": 1
  },
  "userdoc": {
    "kind": "user",
    "methods": {},
    "version": 1
  }
}