{
  "contractName": "XLN",
  "abi": [
    {
      "inputs": [],
      "payable": false,
      "stateMutability": "nonpayable",
      "type": "constructor"
    },
    {
      "anonymous": false,
      "inputs": [
        {
          "indexed": false,
          "internalType": "string",
          "name": "",
          "type": "string"
        }
      ],
      "name": "L",
      "type": "event"
    },
    {
      "constant": true,
      "inputs": [
        {
          "internalType": "uint256",
          "name": "",
          "type": "uint256"
        }
      ],
      "name": "assets",
      "outputs": [
        {
          "internalType": "string",
          "name": "name",
          "type": "string"
        }
      ],
      "payable": false,
      "stateMutability": "view",
      "type": "function"
    },
    {
      "constant": true,
      "inputs": [
        {
          "internalType": "bytes",
          "name": "",
          "type": "bytes"
        }
      ],
      "name": "channels",
      "outputs": [
        {
          "internalType": "uint256",
          "name": "dispute_nonce",
          "type": "uint256"
        },
        {
          "internalType": "uint256",
          "name": "withdrawal_nonce",
          "type": "uint256"
        }
      ],
      "payable": false,
      "stateMutability": "view",
      "type": "function"
    },
    {
      "constant": false,
      "inputs": [
        {
          "internalType": "address",
          "name": "a1",
          "type": "address"
        },
        {
          "internalType": "address",
          "name": "a2",
          "type": "address"
        },
        {
          "internalType": "uint256",
          "name": "assetId",
          "type": "uint256"
        },
        {
          "internalType": "uint256",
          "name": "amount",
          "type": "uint256"
        }
      ],
      "name": "depositToChannel",
      "outputs": [
        {
          "components": [
            {
              "internalType": "uint256",
              "name": "collateral",
              "type": "uint256"
            },
            {
              "internalType": "uint256",
              "name": "ondelta",
              "type": "uint256"
            }
          ],
          "internalType": "struct XLN.Coverage",
          "name": "cov",
          "type": "tuple"
        }
      ],
      "payable": false,
      "stateMutability": "nonpayable",
      "type": "function"
    },
    {
      "constant": false,
      "inputs": [
        {
          "internalType": "uint256[][]",
          "name": "nested",
          "type": "uint256[][]"
        }
      ],
      "name": "nest",
      "outputs": [],
      "payable": false,
      "stateMutability": "nonpayable",
      "type": "function"
    },
    {
      "constant": false,
      "inputs": [
        {
          "internalType": "address",
          "name": "a2",
          "type": "address"
        },
        {
          "internalType": "uint256",
          "name": "assetId",
          "type": "uint256"
        },
        {
          "internalType": "uint256",
          "name": "amount",
          "type": "uint256"
        }
      ],
      "name": "withdrawFromChannel",
      "outputs": [],
      "payable": false,
      "stateMutability": "nonpayable",
      "type": "function"
    },
    {
      "constant": true,
      "inputs": [
        {
          "internalType": "address",
          "name": "a1",
          "type": "address"
        },
        {
          "internalType": "address",
          "name": "a2",
          "type": "address"
        }
      ],
      "name": "channelKey",
      "outputs": [
        {
          "internalType": "bytes",
          "name": "",
          "type": "bytes"
        }
      ],
      "payable": false,
      "stateMutability": "pure",
      "type": "function"
    },
    {
      "constant": true,
      "inputs": [
        {
          "internalType": "address",
          "name": "a1",
          "type": "address"
        }
      ],
      "name": "getUser",
      "outputs": [
        {
          "internalType": "uint256",
          "name": "balance",
          "type": "uint256"
        }
      ],
      "payable": false,
      "stateMutability": "view",
      "type": "function"
    },
    {
      "constant": true,
      "inputs": [
        {
          "internalType": "address",
          "name": "a1",
          "type": "address"
        },
        {
          "internalType": "address",
          "name": "a2",
          "type": "address"
        },
        {
          "internalType": "uint256",
          "name": "assetId",
          "type": "uint256"
        }
      ],
      "name": "getCoverage",
      "outputs": [
        {
          "components": [
            {
              "internalType": "uint256",
              "name": "collateral",
              "type": "uint256"
            },
            {
              "internalType": "uint256",
              "name": "ondelta",
              "type": "uint256"
            }
          ],
          "internalType": "struct XLN.Coverage",
          "name": "cov",
          "type": "tuple"
        }
      ],
      "payable": false,
      "stateMutability": "view",
      "type": "function"
    }
  ],
  "bytecode": "0x608060405273627306090abab3a6e1400e9345bc60c78a8bef576000806101000a81548173ffffffffffffffffffffffffffffffffffffffff021916908373ffffffffffffffffffffffffffffffffffffffff16021790555073f17f52151ebef6c7334fad080c5704d77216b732600160006101000a81548173ffffffffffffffffffffffffffffffffffffffff021916908373ffffffffffffffffffffffffffffffffffffffff1602179055503480156100b957600080fd5b507f2009ada3f80c71eb70706056ac86db15b882e43eb0b4fd76e5b79acb9833617c6040516100e7906101ae565b60405180910390a164e8d4a51000600360003373ffffffffffffffffffffffffffffffffffffffff1673ffffffffffffffffffffffffffffffffffffffff16815260200190815260200160002060000160008081526020019081526020016000208190555060008090505b6002811015610168578080600101915050610152565b506101df565b600061017b6002836101ce565b91507f676f0000000000000000000000000000000000000000000000000000000000006000830152602082019050919050565b600060208201905081810360008301526101c78161016e565b9050919050565b600082825260208201905092915050565b611377806101ee6000396000f3fe608060405234801561001057600080fd5b50600436106100885760003560e01c806395322b8a1161005b57806395322b8a1461013957806395c84e9c14610169578063a1a96a1314610185578063cf35bdd0146101b657610088565b80633c4deb111461008d57806353efdabb146100bd5780636f77926b146100d9578063826b6eef14610109575b600080fd5b6100a760048036036100a29190810190610bff565b6101e6565b6040516100b4919061102a565b60405180910390f35b6100d760048036036100d29190810190610d3c565b61026d565b005b6100f360048036036100ee9190810190610bd6565b610441565b604051610100919061110b565b60405180910390f35b610123600480360361011e9190810190610c3b565b61049e565b60405161013091906110f0565b60405180910390f35b610153600480360361014e9190810190610c8a565b610509565b60405161016091906110f0565b60405180910390f35b610183600480360361017e9190810190610ced565b6106ca565b005b61019f600480360361019a9190810190610d7d565b610815565b6040516101ad929190611126565b60405180910390f35b6101d060048036036101cb9190810190610dbe565b61084f565b6040516101dd919061104c565b60405180910390f35b60608173ffffffffffffffffffffffffffffffffffffffff168373ffffffffffffffffffffffffffffffffffffffff161061024257818360405160200161022e929190610fe7565b604051602081830303815290604052610265565b8282604051602001610255929190610fe7565b6040516020818303038152906040525b905092915050565b7f2009ada3f80c71eb70706056ac86db15b882e43eb0b4fd76e5b79acb9833617c60405161029a90611090565b60405180910390a17f2009ada3f80c71eb70706056ac86db15b882e43eb0b4fd76e5b79acb9833617c6102f4826000815181106102d357fe5b60200260200101516000815181106102e757fe5b602002602001015161090e565b604051610301919061106e565b60405180910390a17f2009ada3f80c71eb70706056ac86db15b882e43eb0b4fd76e5b79acb9833617c61035b8260008151811061033a57fe5b602002602001015160018151811061034e57fe5b602002602001015161090e565b604051610368919061106e565b60405180910390a17f2009ada3f80c71eb70706056ac86db15b882e43eb0b4fd76e5b79acb9833617c6103c2826001815181106103a157fe5b60200260200101516000815181106103b557fe5b602002602001015161090e565b6040516103cf919061106e565b60405180910390a17f2009ada3f80c71eb70706056ac86db15b882e43eb0b4fd76e5b79acb9833617c6104298260018151811061040857fe5b602002602001015160018151811061041c57fe5b602002602001015161090e565b604051610436919061106e565b60405180910390a150565b6000600360008373ffffffffffffffffffffffffffffffffffffffff1673ffffffffffffffffffffffffffffffffffffffff1681526020019081526020016000206000016000808152602001908152602001600020549050919050565b6104a6610a47565b60026104b285856101e6565b6040516104bf9190611013565b908152602001604051809103902060000160008381526020019081526020016000206040518060400160405290816000820154815260200160018201548152505090509392505050565b610511610a47565b81600360003373ffffffffffffffffffffffffffffffffffffffff1673ffffffffffffffffffffffffffffffffffffffff168152602001908152602001600020600001600080815260200190815260200160002054101561057157600080fd5b81600360003373ffffffffffffffffffffffffffffffffffffffff1673ffffffffffffffffffffffffffffffffffffffff168152602001908152602001600020600001600080815260200190815260200160002060008282540392505081905550600060026105e087876101e6565b6040516105ed9190611013565b9081526020016040518091039020600001600085815260200190815260200160002090508281600001600082825401925050819055508473ffffffffffffffffffffffffffffffffffffffff168673ffffffffffffffffffffffffffffffffffffffff16101561066a578281600101600082825401925050819055505b7f2009ada3f80c71eb70706056ac86db15b882e43eb0b4fd76e5b79acb9833617c604051610697906110b0565b60405180910390a18060405180604001604052908160008201548152602001600182015481525050915050949350505050565b6000339050600060026106dd83876101e6565b6040516106ea9190611013565b908152602001604051809103902060000160008581526020019081526020016000209050828160000154101561071f57600080fd5b8281600001600082825403925050819055508473ffffffffffffffffffffffffffffffffffffffff168273ffffffffffffffffffffffffffffffffffffffff161015610778578281600101600082825403925050819055505b82600360008473ffffffffffffffffffffffffffffffffffffffff1673ffffffffffffffffffffffffffffffffffffffff1681526020019081526020016000206000016000868152602001908152602001600020600082825401925050819055507f2009ada3f80c71eb70706056ac86db15b882e43eb0b4fd76e5b79acb9833617c604051610806906110d0565b60405180910390a15050505050565b6002818051602081018201805184825260208301602085012081835280955050505050506000915090508060010154908060020154905082565b6004818154811061085c57fe5b90600052602060002001600091509050806000018054600181600116156101000203166002900480601f0160208091040260200160405190810160405280929190818152602001828054600181600116156101000203166002900480156109045780601f106108d957610100808354040283529160200191610904565b820191906000526020600020905b8154815290600101906020018083116108e757829003601f168201915b5050505050905081565b60606000821415610956576040518060400160405280600181526020017f30000000000000000000000000000000000000000000000000000000000000008152509050610a42565b600082905060005b60008214610980578080600101915050600a828161097857fe5b04915061095e565b6060816040519080825280601f01601f1916602001820160405280156109b55781602001600182028038833980820191505090505b50905060008290505b60008614610a3a576001810390506000600a8088816109d957fe5b04028703603001905060008160f81b9050808484815181106109f757fe5b60200101907effffffffffffffffffffffffffffffffffffffffffffffffffffffffffffff1916908160001a905350600a8881610a3057fe5b04975050506109be565b819450505050505b919050565b604051806040016040528060008152602001600081525090565b600081359050610a7081611306565b92915050565b600082601f830112610a8757600080fd5b8135610a9a610a958261117c565b61114f565b9150818183526020840193506020810190508360005b83811015610ae05781358601610ac68882610aea565b845260208401935060208301925050600181019050610ab0565b5050505092915050565b600082601f830112610afb57600080fd5b8135610b0e610b09826111a4565b61114f565b91508181835260208401935060208101905083856020840282011115610b3357600080fd5b60005b83811015610b635781610b498882610bc1565b845260208401935060208301925050600181019050610b36565b5050505092915050565b600082601f830112610b7e57600080fd5b8135610b91610b8c826111cc565b61114f565b91508082526020830160208301858383011115610bad57600080fd5b610bb8838284611282565b50505092915050565b600081359050610bd08161131d565b92915050565b600060208284031215610be857600080fd5b6000610bf684828501610a61565b91505092915050565b60008060408385031215610c1257600080fd5b6000610c2085828601610a61565b9250506020610c3185828601610a61565b9150509250929050565b600080600060608486031215610c5057600080fd5b6000610c5e86828701610a61565b9350506020610c6f86828701610a61565b9250506040610c8086828701610bc1565b9150509250925092565b60008060008060808587031215610ca057600080fd5b6000610cae87828801610a61565b9450506020610cbf87828801610a61565b9350506040610cd087828801610bc1565b9250506060610ce187828801610bc1565b91505092959194509250565b600080600060608486031215610d0257600080fd5b6000610d1086828701610a61565b9350506020610d2186828701610bc1565b9250506040610d3286828701610bc1565b9150509250925092565b600060208284031215610d4e57600080fd5b600082013567ffffffffffffffff811115610d6857600080fd5b610d7484828501610a76565b91505092915050565b600060208284031215610d8f57600080fd5b600082013567ffffffffffffffff811115610da957600080fd5b610db584828501610b6d565b91505092915050565b600060208284031215610dd057600080fd5b6000610dde84828501610bc1565b91505092915050565b610df8610df382611246565b6112c4565b82525050565b6000610e09826111f8565b610e138185611219565b9350610e23818560208601611291565b610e2c816112e8565b840191505092915050565b6000610e42826111f8565b610e4c818561122a565b9350610e5c818560208601611291565b80840191505092915050565b6000610e738261120e565b610e7d8185611235565b9350610e8d818560208601611291565b610e96816112e8565b840191505092915050565b6000610eac82611203565b610eb68185611235565b9350610ec6818560208601611291565b610ecf816112e8565b840191505092915050565b6000610ee7600483611235565b91507f646f6e65000000000000000000000000000000000000000000000000000000006000830152602082019050919050565b6000610f27600783611235565b91507f6465706f736974000000000000000000000000000000000000000000000000006000830152602082019050919050565b6000610f67600883611235565b91507f77697468647261770000000000000000000000000000000000000000000000006000830152602082019050919050565b604082016000820151610fb06000850182610fc9565b506020820151610fc36020850182610fc9565b50505050565b610fd281611278565b82525050565b610fe181611278565b82525050565b6000610ff38285610de7565b6014820191506110038284610de7565b6014820191508190509392505050565b600061101f8284610e37565b915081905092915050565b600060208201905081810360008301526110448184610dfe565b905092915050565b600060208201905081810360008301526110668184610ea1565b905092915050565b600060208201905081810360008301526110888184610e68565b905092915050565b600060208201905081810360008301526110a981610eda565b9050919050565b600060208201905081810360008301526110c981610f1a565b9050919050565b600060208201905081810360008301526110e981610f5a565b9050919050565b60006040820190506111056000830184610f9a565b92915050565b60006020820190506111206000830184610fd8565b92915050565b600060408201905061113b6000830185610fd8565b6111486020830184610fd8565b9392505050565b6000604051905081810181811067ffffffffffffffff8211171561117257600080fd5b8060405250919050565b600067ffffffffffffffff82111561119357600080fd5b602082029050602081019050919050565b600067ffffffffffffffff8211156111bb57600080fd5b602082029050602081019050919050565b600067ffffffffffffffff8211156111e357600080fd5b601f19601f8301169050602081019050919050565b600081519050919050565b600081519050919050565b600081519050919050565b600082825260208201905092915050565b600081905092915050565b600082825260208201905092915050565b600061125182611258565b9050919050565b600073ffffffffffffffffffffffffffffffffffffffff82169050919050565b6000819050919050565b82818337600083830152505050565b60005b838110156112af578082015181840152602081019050611294565b838111156112be576000848401525b50505050565b60006112cf826112d6565b9050919050565b60006112e1826112f9565b9050919050565b6000601f19601f8301169050919050565b60008160601b9050919050565b61130f81611246565b811461131a57600080fd5b50565b61132681611278565b811461133157600080fd5b5056fea365627a7a72315820697224739eac3beb4e48fa1d00984c366b4aca14d60cf756ab33ec52316177756c6578706572696d656e74616cf564736f6c63430005100040",
  "source": "pragma solidity >=0.4.25;\npragma experimental ABIEncoderV2;\n\nimport \"./ConvertLib.sol\";\n\ncontract XLN {\n\n\n  struct Asset{\n    string name;\n  }\n\n\n  struct Debt{\n    uint amount_left;\n    address pay_to;\n  }\n  \n  struct User{\n    mapping (uint => uint) standalone;\n    Debt[] debts;\n    string uri;\n\n  }\n  //coverage_balance\n  struct Coverage {\n    uint collateral;\n    uint ondelta;\n  }\n  \n  struct Channel{\n    mapping (uint => Coverage) coverages;\n    \n    uint dispute_nonce;\n    uint withdrawal_nonce;\n  }\n\n  address ad1 = 0x627306090abaB3A6e1400e9345bC60c78a8BEf57;\n  address ad2 = 0xf17f52151EbEF6C7334FAD080c5704D77216b732;\n\n  mapping (bytes => Channel) public channels;\n  \n  mapping (address => User) users;\n\n  Asset[] public assets;\n  \n  event L(string);\n  constructor() public {\n      \n    emit L(\"go\");\n    \n    users[msg.sender].standalone[0] = 1000000000000;\n\n\n    //channels[channelKey(ad1, ad2)].coverages[0].collateral = 10000;\n\n\n    for (uint i = 0; i < 2; i++) {\n      /*\n      assets.push(Asset({\n        name: \"DAI\"\n      }));\n      */\n      \n\n\n    }\n  }\n  \n  \n  \n  function depositToChannel(address a1, address a2, uint assetId, uint amount) public returns (Coverage memory cov) {\n    require(users[msg.sender].standalone[0] >= amount);\n    users[msg.sender].standalone[0] -= amount;\n    \n    Coverage storage cov = channels[channelKey(a1, a2)].coverages[assetId];\n    \n\n    \n    cov.collateral += amount;\n    if (a1 < a2) {\n      cov.ondelta += amount;\n    }\n    emit L(\"deposit\");\n\n\n    return cov;\n \n  }\n\n  \n  \n  function nest(uint[][] memory nested) public {\n    emit L('done');\n    emit L(ConvertLib.uint2str(nested[0][0]));\n    emit L(ConvertLib.uint2str(nested[0][1]));\n    emit L(ConvertLib.uint2str(nested[1][0]));\n    emit L(ConvertLib.uint2str(nested[1][1]));\n  }\n\n  function withdrawFromChannel(address a2, uint assetId, uint amount) public {\n    address a1 = msg.sender;\n    Coverage storage cov = channels[channelKey(a1, a2)].coverages[assetId];\n\n    require (cov.collateral >= amount);\n\n\n    cov.collateral -= amount;\n    if (a1 < a2) cov.ondelta -= amount;\n\n    users[a1].standalone[assetId] += amount;\n    emit L('withdraw');\n  }\n\n\n\n\n  // views\n  \n  function channelKey(address a1, address a2) public pure returns (bytes memory) {\n    //determenistic channel key is 40 bytes: concatenated lowerKey + higherKey\n    return a1 < a2 ? abi.encodePacked(a1, a2) : abi.encodePacked(a2, a1);\n  }\n  /*\n  function getChannel(bytes key) public view returns ( Channel memory ch) {\n    ch = channels[key];\n  }\n  */\n\n  function getUser(address a1) external view returns (uint balance) {\n    return users[a1].standalone[0];\n  }\n\n  //bytes memory key, uint  memory assetId\n  \n  function getCoverage(address  a1, address  a2, uint assetId) public view returns (Coverage memory cov) {\n    cov = channels[channelKey(a1, a2)].coverages[assetId];\n  }\n  \n  \n}\n  \n\n\n\n\n\n/*\npragma solidity ^0.4.0;\npragma experimental ABIEncoderV2;\n\ncontract XLN {\n\n  struct Asset{\n    string name;\n\n  }\n\n\n  struct User{\n    uint standalone;\n    \n    mapping (address => Channel) channels;\n  }\n  \n  struct Channel{\n    uint collateral;\n    uint ondelta;\n\n    uint withdrawal_nonce;\n  }\n\n\n  struct Debt{\n    uint amount_left;\n    address pay_to;\n  }\n\n  mapping (address => Bank) public banks;\n\n\n  constructor() {\n    for (uint i = 0; i < 5; i++) {\n      assets.push(Asset({\n        name: \"DAI\"\n      }))\n\n      users.push(User({\n\n      }))\n\n\n    }\n  }\n}\n  \n\n\n\n\n\n\n\n  \n   \n  function openBank(string uri){\n    Bank storage b = banks[msg.sender];\n    b.uri = uri;\n  }\n  \n\n\n   \n  function close(bytes pf) {\n    Peer p = peers[msg.sender];\n    \n    // make sure peer is not locked yet\n    require(p.until == 0);\n    \n    // anything in collateral anyway?  \n    require(p.capacity > 0);\n\n    if(pf.length > 0){\n      var (signer, is_bond, delay, nonce, amount) = verify(pf, 0);\n      amount -= p.taken_amount;\n\n      // delayed type\n      require(delay == 2);\n      \n      \n      require(p.capacity >= amount);\n    }else{\n       amount = 0; // hub's part of collateral\n       delay = 2;\n       nonce = 0;\n    }\n    \n    // prevent replay attack\n    require(nonce > p.nonce);\n      \n      p.until = uint32(getBlock() + TIMEOUT);\n      p.nonce = nonce;\n      p.amount = amount;\n      p.locked_by_peer = true;\n      \n      // finally let's notify the hub about close event\n      // so they could dispute it with latest nonce if needed\n      NotifyHubAboutClose(msg.sender, p.amount);\n   }\n    \n    function settle() {\n       Peer p = peers[msg.sender];        \n       \n        // make sure it's locked\n        require(p.until > 0);\n        \n        // if closed by peer, wait timeout\n        if(p.locked_by_peer) require(getBlock() > p.until);\n        \n        uint peerBalance = p.capacity.sub(p.amount);\n        ownerBalance = ownerBalance.add(p.amount);\n        \n        p.amount = 0;\n        p.capacity = 0;\n        p.until = 0;\n        \n        // send back to the peer their part\n        msg.sender.transfer(peerBalance);\n        \n    }\n    \n    // someone posted dispute_proof\n    function dispute(bytes pf) {\n      Peer p = peers[msg.sender];\n\n      // is locked\n      require(p.until > 0);\n\n      // peer can only dispute if closed by hub\n      require(p.locked_by_peer == false);\n      \n        // make sure proof was signed by hub\n       var (signer, is_bond, delay, nonce, amount) = verify(pf, 0);\n       require(signer == owner);\n       \n       amount -= p.taken_amount;\n       require(amount <= p.capacity);\n\n       // peer can dispute with bigger or same nonce if odd\n    require(nonce > p.nonce || (p.nonce == nonce && odd(p.nonce)) );\n\n    \n    ownerBalance = ownerBalance.add(amount);\n    uint peerBalance = p.capacity.sub(amount);\n    \n    p.capacity = 0;\n    p.amount = 0;\n    p.nonce = nonce;\n    p.until = 0;\n\n    msg.sender.transfer(peerBalance);        \n        \n    }\n    \n    // hub is responsive and approves a transfer\n    function transfer(bytes pf, address _peer, address _hub){\n      Peer p = peers[msg.sender];\n\n      var (signer, is_bond, delay, nonce, amount) = verify(pf, 0);\n      \n      require(signer == owner);\n      require(delay == 0); // mutual and instant\n      require(p.until == 0); // unlocked\n      require(p.capacity >= amount); // is there enough collateral\n      require(p.instant_nonce == nonce); // no replay\n      p.instant_nonce += 1;     \n      \n      p.capacity = p.capacity.sub(amount);\n    }\n\n\n\n\n\n  \n  function rebalance(bytes inputs, address[] outputs, uint[] amounts) onlyOwner {\n     // Solidity doesn't support nested arrays yet, so we send instant proofs in one long string\n     // and manually extract using offsets\n     uint8 total_inputs = uint8(inputs.length / PROOF_LENGTH);\n    \n\n    // Step 1: collect collateral to ownerBalance from the peers who gave mutual close proofs\n    for(uint8 i = 0; i < total_inputs; i++){\n        var (signer, is_bond, delay, nonce, amount) = verify(inputs, i);\n        Peer p = peers[signer];\n        \n        require(delay == 0); // mutual close type\n        \n        //require(p.until == 0); // unlocked\n        require(p.capacity >= amount); // is there enough collateral\n        require(p.instant_nonce == nonce); // no replay\n        p.instant_nonce += 1;\n        \n        // first of all we add all amounts to hub balance\n        ownerBalance = ownerBalance.add(amount);\n        p.capacity = p.capacity.sub(amount);\n        \n        // amounts in old proofs are summed with net which gives current amount\n        // i.e. you have proof with hub's amount = 10, then hub instant closed 5\n        // but you can still post amount=10 proof and get the withdrawn -5 deducted \n        p.taken_amount = p.taken_amount.add(amount);\n    }\n    \n    // Step 2: settled bonds must be paid first (first-in-first-out)\n    for(i = 0; i < uint8(payBondsFirst.length); i++){\n        Bond b = bonds[payBondsFirst[i]];\n        \n        \n    }\n    \n    // Step 3: send ownerBalance to outputs (increase their collateral)\n    // two arrays outputs and amounts work as a mapping\n    require(outputs.length == amounts.length);\n    \n    for(i = 0; i < outputs.length; i++){\n        p = peers[outputs[i]];\n        \n        require(ownerBalance >= amounts[i]);\n        ownerBalance = ownerBalance.sub(amounts[i]);\n        p.capacity = p.capacity.add(amounts[i]);\n        \n        // adds to how much bonds were covered in total\n        p.given_amount = p.given_amount.add(amounts[i]);\n        \n    }\n    \n    \n\n  }\n  \n  function ownerClose(bytes pf) onlyOwner {\n      var (signer, is_bond, delay, nonce, amount) = verify(pf, 0);\n      \n      Peer storage p = peers[signer];\n      \n      // make sure peer is not locked\n      require(p.until == 0);\n    \n      require(delay == 2);\n      require(p.capacity > 0);\n      require(p.capacity >= amount);\n      \n\n      \n      p.until = uint32(getBlock() + TIMEOUT);\n      p.nonce = nonce;\n      p.amount = amount;\n      p.locked_by_peer = false;\n      \n      // finally let's notify the peer about close event\n      NotifyPeerAboutClose(signer, p.amount);\n  }\n  \n  function ownerSettle(address peer) onlyOwner {\n        Peer storage p = peers[peer];\n        \n        // make sure it's locked\n        require(p.until > 0);\n        \n        // if closed by hub, wait delay\n        if(!p.locked_by_peer) require(getBlock() > p.until);\n\n        ownerBalance += p.amount;\n        uint peerBalance = p.capacity - p.amount;\n        \n        p.amount = 0;\n        p.capacity = 0;\n        p.until = 0;\n        \n        // send back to the peer their part\n        peer.transfer(peerBalance);      \n  }\n\n\n  // owner disputes a close by a peer\n  function ownerDispute(bytes pf) onlyOwner {\n    var (signer, is_bond, delay, nonce, amount) = verify(pf, 0);\n    \n    Peer storage p = peers[signer];\n    \n    // is locked\n    require(p.until > 0);\n    \n    // we can only dispute if close started by peer\n    require(p.locked_by_peer);\n    \n    // owner can dispute with bigger or same nonce if even\n    require(nonce > p.nonce || (p.nonce == nonce && !odd(p.nonce)) );\n    \n    ownerBalance += amount;\n    uint peerBalance = p.capacity - amount;\n    \n    p.capacity = 0;\n    p.amount = 0;\n    p.nonce = nonce;\n    p.until = 0;\n\n    signer.transfer(peerBalance);\n  } \n  \n\n    \n    \n  // parses proof and recovers the signer. delay means type of proof\n  // 0 means instant (mutual) close, 1 is bond, 2 is delayed close\n  // pf is dynamically sized array that can contain a lot of proofs one by one (nested arrays are not supported) \n  // offset 0..255 \n\n    function verify(bytes pf, uint8 offset) constant returns (address signer, bool is_bond, uint8 delay, uint24 nonce, uint amount) {\n        bytes32 r;\n        bytes32 s;\n        uint8 v;\n\n        // find offset where current proof starts in dynamic bytes array\n        uint bytes_offset = offset * PROOF_LENGTH;\n        uint8 header;\n    \n        //amount will be 32->12 bytes soon\n        assembly {\n            r := mload(add(pf, 32))\n            s := mload(add(pf, 64))\n            amount := mload(add(pf, 96))\n            header := and(mload(add(pf, 97)), 0xff)\n            nonce := and(mload(add(pf, 100)), 0xffffff)\n            v := and(mload(add(pf, 101)), 0xff)\n        }\n        \n        require(v == 27 || v == 28);\n        \n        is_bond = (header & 0x80) == 0x80; // works as sign magnitude. -10 is bond\n        delay = header & 0x7f; // 0 means instant. \n        \n        \n        // includes current contract this, and recepient to avoid replay attacks\n        bytes32 signed_hash = sha3(msg.sender, amount, header, nonce);\n        \n        // returns who signed this proof (peer or hub)\n        signer = ecrecover(signed_hash, v, r, s);\n    }\n    \n    \n    function odd(uint num) constant returns (bool){\n        return bool(num % 2 != 0);\n    }\n    \n    function getBlock() constant returns (uint){\n        // we should return block.number but in JS VM we immitate with timestamp instread\n        return block.timestamp - 1500000000;\n    }\n    \n    \n\n\n}\n*/\n\n\n\n",
  "sourcePath": "/Users/homakov/work/MetaCoin/contracts/xln.sol",
  "compiler": {
    "name": "solc",
    "version": "0.5.16+commit.9c3226ce.Emscripten.clang"
  },
  "schemaVersion": "3.3.3",
  "updatedAt": "2021-02-24T23:11:26.172Z",
  "devdoc": {
    "methods": {}
  },
  "userdoc": {
    "methods": {}
  }
}