{
  "contractName": "XLN",
  "abi": [
    {
      "inputs": [],
      "payable": false,
      "stateMutability": "nonpayable",
      "type": "constructor"
    },
    {
      "anonymous": false,
      "inputs": [
        {
          "indexed": false,
          "internalType": "string",
          "name": "",
          "type": "string"
        }
      ],
      "name": "L",
      "type": "event"
    },
    {
      "constant": true,
      "inputs": [
        {
          "internalType": "uint256",
          "name": "",
          "type": "uint256"
        }
      ],
      "name": "assets",
      "outputs": [
        {
          "internalType": "string",
          "name": "name",
          "type": "string"
        }
      ],
      "payable": false,
      "stateMutability": "view",
      "type": "function"
    },
    {
      "constant": false,
      "inputs": [
        {
          "internalType": "address",
          "name": "a1",
          "type": "address"
        },
        {
          "internalType": "address",
          "name": "a2",
          "type": "address"
        },
        {
          "internalType": "uint256",
          "name": "assetId",
          "type": "uint256"
        },
        {
          "internalType": "uint256",
          "name": "amount",
          "type": "uint256"
        }
      ],
      "name": "depositToChannel",
      "outputs": [],
      "payable": false,
      "stateMutability": "nonpayable",
      "type": "function"
    },
    {
      "constant": false,
      "inputs": [
        {
          "internalType": "address",
          "name": "a2",
          "type": "address"
        },
        {
          "internalType": "uint256",
          "name": "amount",
          "type": "uint256"
        },
        {
          "internalType": "uint256",
          "name": "assetId",
          "type": "uint256"
        }
      ],
      "name": "withdrawFromChannel",
      "outputs": [],
      "payable": false,
      "stateMutability": "nonpayable",
      "type": "function"
    },
    {
      "constant": true,
      "inputs": [
        {
          "internalType": "address",
          "name": "a1",
          "type": "address"
        },
        {
          "internalType": "address",
          "name": "a2",
          "type": "address"
        }
      ],
      "name": "channelKey",
      "outputs": [
        {
          "internalType": "bytes",
          "name": "",
          "type": "bytes"
        }
      ],
      "payable": false,
      "stateMutability": "pure",
      "type": "function"
    }
  ],
  "bytecode": "0x608060405234801561001057600080fd5b507f2009ada3f80c71eb70706056ac86db15b882e43eb0b4fd76e5b79acb9833617c60405161003e90610234565b60405180910390a160008090505b600281101561014957600260405180602001604052806040518060400160405280600381526020017f444149000000000000000000000000000000000000000000000000000000000081525081525090806001815401808255809150509060018203906000526020600020016000909192909190915060008201518160000190805190602001906100de92919061014f565b505050506064600160003373ffffffffffffffffffffffffffffffffffffffff1673ffffffffffffffffffffffffffffffffffffffff16815260200190815260200160002060000160006001815260200190815260200160002081905550808060010191505061004c565b50610265565b828054600181600116156101000203166002900490600052602060002090601f016020900481019282601f1061019057805160ff19168380011785556101be565b828001600101855582156101be579182015b828111156101bd5782518255916020019190600101906101a2565b5b5090506101cb91906101cf565b5090565b6101f191905b808211156101ed5760008160009055506001016101d5565b5090565b90565b6000610201600283610254565b91507f676f0000000000000000000000000000000000000000000000000000000000006000830152602082019050919050565b6000602082019050818103600083015261024d816101f4565b9050919050565b600082825260208201905092915050565b610785806102746000396000f3fe608060405234801561001057600080fd5b506004361061004c5760003560e01c80633c4deb111461005157806395322b8a1461008157806395c84e9c1461009d578063cf35bdd0146100b9575b600080fd5b61006b600480360361006691908101906103c8565b6100e9565b60405161007891906105dc565b60405180910390f35b61009b60048036036100969190810190610404565b610170565b005b6100b760048036036100b29190810190610467565b610283565b005b6100d360048036036100ce91908101906104b6565b6102df565b6040516100e091906105fe565b60405180910390f35b60608173ffffffffffffffffffffffffffffffffffffffff168373ffffffffffffffffffffffffffffffffffffffff1610610145578183604051602001610131929190610599565b604051602081830303815290604052610168565b8282604051602001610158929190610599565b6040516020818303038152906040525b905092915050565b80600160003373ffffffffffffffffffffffffffffffffffffffff1673ffffffffffffffffffffffffffffffffffffffff1681526020019081526020016000206000016000848152602001908152602001600020600082825403925050819055506000806101de86866100e9565b6040516101eb91906105c5565b9081526020016040518091039020905081816000016000858152602001908152602001600020600001600082825401925050819055508373ffffffffffffffffffffffffffffffffffffffff168573ffffffffffffffffffffffffffffffffffffffff16101561027c5781816000016000858152602001908152602001600020600101600082825401925050819055505b5050505050565b600033905060008061029583876100e9565b6040516102a291906105c5565b9081526020016040518091039020905083816000016000858152602001908152602001600020600001600082825403925050819055505050505050565b600281815481106102ec57fe5b90600052602060002001600091509050806000018054600181600116156101000203166002900480601f0160208091040260200160405190810160405280929190818152602001828054600181600116156101000203166002900480156103945780601f1061036957610100808354040283529160200191610394565b820191906000526020600020905b81548152906001019060200180831161037757829003601f168201915b5050505050905081565b6000813590506103ad81610714565b92915050565b6000813590506103c28161072b565b92915050565b600080604083850312156103db57600080fd5b60006103e98582860161039e565b92505060206103fa8582860161039e565b9150509250929050565b6000806000806080858703121561041a57600080fd5b60006104288782880161039e565b94505060206104398782880161039e565b935050604061044a878288016103b3565b925050606061045b878288016103b3565b91505092959194509250565b60008060006060848603121561047c57600080fd5b600061048a8682870161039e565b935050602061049b868287016103b3565b92505060406104ac868287016103b3565b9150509250925092565b6000602082840312156104c857600080fd5b60006104d6848285016103b3565b91505092915050565b6104f06104eb82610663565b6106d2565b82525050565b600061050182610620565b61050b8185610636565b935061051b81856020860161069f565b610524816106f6565b840191505092915050565b600061053a82610620565b6105448185610647565b935061055481856020860161069f565b80840191505092915050565b600061056b8261062b565b6105758185610652565b935061058581856020860161069f565b61058e816106f6565b840191505092915050565b60006105a582856104df565b6014820191506105b582846104df565b6014820191508190509392505050565b60006105d1828461052f565b915081905092915050565b600060208201905081810360008301526105f681846104f6565b905092915050565b600060208201905081810360008301526106188184610560565b905092915050565b600081519050919050565b600081519050919050565b600082825260208201905092915050565b600081905092915050565b600082825260208201905092915050565b600061066e82610675565b9050919050565b600073ffffffffffffffffffffffffffffffffffffffff82169050919050565b6000819050919050565b60005b838110156106bd5780820151818401526020810190506106a2565b838111156106cc576000848401525b50505050565b60006106dd826106e4565b9050919050565b60006106ef82610707565b9050919050565b6000601f19601f8301169050919050565b60008160601b9050919050565b61071d81610663565b811461072857600080fd5b50565b61073481610695565b811461073f57600080fd5b5056fea365627a7a723158205df41fc42233e8a0a920be860de25e9c725606c1a26d801c26df213e77872e746c6578706572696d656e74616cf564736f6c63430005100040",
  "source": "pragma solidity >=0.4.25;\npragma experimental ABIEncoderV2;\n\ncontract XLN {\n\n  struct Asset{\n    string name;\n\n  }\n\n\n  struct Debt{\n    uint amount_left;\n    address pay_to;\n  }\n  \n  struct User{\n    mapping (uint => uint) standalone;\n\n  }\n  \n  struct Coverage {\n\n    uint collateral;\n    uint ondelta;\n          \n  }\n  \n  struct Channel{\n    mapping (uint => Coverage) coverages;\n    \n    uint dispute_nonce;\n    uint withdrawal_nonce;\n  }\n\n  mapping (bytes =>Channel) channels;\n  \n  mapping (address => User) users;\n\n  Asset[] public assets;\n  \n  event L(string);\n  constructor() public {\n      \n    emit L(\"go\");\n     \n    for (uint i = 0; i < 2; i++) {\n      assets.push(Asset({\n        name: \"DAI\"\n      }));\n      \n      users[msg.sender].standalone[1] = 100;\n\n\n    }\n  }\n  \n  \n  \n  function depositToChannel(address a1, address a2, uint assetId, uint amount) public {\n    users[msg.sender].standalone[assetId] -= amount;\n    \n     Channel storage ch = channels[channelKey(a1,a2)];\n\n    //emit L(\"deposit\");\n    \n    ch.coverages[assetId].collateral += amount;\n    if (a1 < a2) {\n      ch.coverages[assetId].ondelta += amount;\n    }\n      \n  }\n  \n  \n  function withdrawFromChannel(address a2, uint amount, uint assetId) public {\n     address a1 = msg.sender;\n     Channel storage ch = channels[channelKey(a1,a2)];\n\n    ch.coverages[assetId].collateral -= amount;\n  }\n  \n  function channelKey(address a1, address a2) public pure returns (bytes memory) {\n    //determenistic channel key is 40 bytes: concatenated lowerKey + higherKey\n    return a1 < a2 ? abi.encodePacked(a1, a2) : abi.encodePacked(a2, a1);\n  }\n  \n  \n}\n  \n\n\n\n\n\n/*\npragma solidity ^0.4.0;\npragma experimental ABIEncoderV2;\n\ncontract XLN {\n\n  struct Asset{\n    string name;\n\n  }\n\n\n  struct User{\n    uint standalone;\n    \n    mapping (address => Channel) channels;\n  }\n  \n  struct Channel{\n    uint collateral;\n    uint ondelta;\n\n    uint withdrawal_nonce;\n  }\n\n\n  struct Debt{\n    uint amount_left;\n    address pay_to;\n  }\n\n  mapping (address => Bank) public banks;\n\n\n  constructor() {\n    for (uint i = 0; i < 5; i++) {\n      assets.push(Asset({\n        name: \"DAI\"\n      }))\n\n      users.push(User({\n\n      }))\n\n\n    }\n  }\n}\n  \n\n\n\n\n\n\n\n  \n   \n  function openBank(string uri){\n    Bank storage b = banks[msg.sender];\n    b.uri = uri;\n  }\n  \n\n\n   \n  function close(bytes pf) {\n    Peer p = peers[msg.sender];\n    \n    // make sure peer is not locked yet\n    require(p.until == 0);\n    \n    // anything in collateral anyway?  \n    require(p.capacity > 0);\n\n    if(pf.length > 0){\n      var (signer, is_bond, delay, nonce, amount) = verify(pf, 0);\n      amount -= p.taken_amount;\n\n      // delayed type\n      require(delay == 2);\n      \n      \n      require(p.capacity >= amount);\n    }else{\n       amount = 0; // hub's part of collateral\n       delay = 2;\n       nonce = 0;\n    }\n    \n    // prevent replay attack\n    require(nonce > p.nonce);\n      \n      p.until = uint32(getBlock() + TIMEOUT);\n      p.nonce = nonce;\n      p.amount = amount;\n      p.locked_by_peer = true;\n      \n      // finally let's notify the hub about close event\n      // so they could dispute it with latest nonce if needed\n      NotifyHubAboutClose(msg.sender, p.amount);\n   }\n    \n    function settle() {\n       Peer p = peers[msg.sender];        \n       \n        // make sure it's locked\n        require(p.until > 0);\n        \n        // if closed by peer, wait timeout\n        if(p.locked_by_peer) require(getBlock() > p.until);\n        \n        uint peerBalance = p.capacity.sub(p.amount);\n        ownerBalance = ownerBalance.add(p.amount);\n        \n        p.amount = 0;\n        p.capacity = 0;\n        p.until = 0;\n        \n        // send back to the peer their part\n        msg.sender.transfer(peerBalance);\n        \n    }\n    \n    // someone posted dispute_proof\n    function dispute(bytes pf) {\n      Peer p = peers[msg.sender];\n\n      // is locked\n      require(p.until > 0);\n\n      // peer can only dispute if closed by hub\n      require(p.locked_by_peer == false);\n      \n        // make sure proof was signed by hub\n       var (signer, is_bond, delay, nonce, amount) = verify(pf, 0);\n       require(signer == owner);\n       \n       amount -= p.taken_amount;\n       require(amount <= p.capacity);\n\n       // peer can dispute with bigger or same nonce if odd\n    require(nonce > p.nonce || (p.nonce == nonce && odd(p.nonce)) );\n\n    \n    ownerBalance = ownerBalance.add(amount);\n    uint peerBalance = p.capacity.sub(amount);\n    \n    p.capacity = 0;\n    p.amount = 0;\n    p.nonce = nonce;\n    p.until = 0;\n\n    msg.sender.transfer(peerBalance);        \n        \n    }\n    \n    // hub is responsive and approves a transfer\n    function transfer(bytes pf, address _peer, address _hub){\n      Peer p = peers[msg.sender];\n\n      var (signer, is_bond, delay, nonce, amount) = verify(pf, 0);\n      \n      require(signer == owner);\n      require(delay == 0); // mutual and instant\n      require(p.until == 0); // unlocked\n      require(p.capacity >= amount); // is there enough collateral\n      require(p.instant_nonce == nonce); // no replay\n      p.instant_nonce += 1;     \n      \n      p.capacity = p.capacity.sub(amount);\n    }\n\n\n\n\n\n  \n  function rebalance(bytes inputs, address[] outputs, uint[] amounts) onlyOwner {\n     // Solidity doesn't support nested arrays yet, so we send instant proofs in one long string\n     // and manually extract using offsets\n     uint8 total_inputs = uint8(inputs.length / PROOF_LENGTH);\n    \n\n    // Step 1: collect collateral to ownerBalance from the peers who gave mutual close proofs\n    for(uint8 i = 0; i < total_inputs; i++){\n        var (signer, is_bond, delay, nonce, amount) = verify(inputs, i);\n        Peer p = peers[signer];\n        \n        require(delay == 0); // mutual close type\n        \n        //require(p.until == 0); // unlocked\n        require(p.capacity >= amount); // is there enough collateral\n        require(p.instant_nonce == nonce); // no replay\n        p.instant_nonce += 1;\n        \n        // first of all we add all amounts to hub balance\n        ownerBalance = ownerBalance.add(amount);\n        p.capacity = p.capacity.sub(amount);\n        \n        // amounts in old proofs are summed with net which gives current amount\n        // i.e. you have proof with hub's amount = 10, then hub instant closed 5\n        // but you can still post amount=10 proof and get the withdrawn -5 deducted \n        p.taken_amount = p.taken_amount.add(amount);\n    }\n    \n    // Step 2: settled bonds must be paid first (first-in-first-out)\n    for(i = 0; i < uint8(payBondsFirst.length); i++){\n        Bond b = bonds[payBondsFirst[i]];\n        \n        \n    }\n    \n    // Step 3: send ownerBalance to outputs (increase their collateral)\n    // two arrays outputs and amounts work as a mapping\n    require(outputs.length == amounts.length);\n    \n    for(i = 0; i < outputs.length; i++){\n        p = peers[outputs[i]];\n        \n        require(ownerBalance >= amounts[i]);\n        ownerBalance = ownerBalance.sub(amounts[i]);\n        p.capacity = p.capacity.add(amounts[i]);\n        \n        // adds to how much bonds were covered in total\n        p.given_amount = p.given_amount.add(amounts[i]);\n        \n    }\n    \n    \n\n  }\n  \n  function ownerClose(bytes pf) onlyOwner {\n      var (signer, is_bond, delay, nonce, amount) = verify(pf, 0);\n      \n      Peer storage p = peers[signer];\n      \n      // make sure peer is not locked\n      require(p.until == 0);\n    \n      require(delay == 2);\n      require(p.capacity > 0);\n      require(p.capacity >= amount);\n      \n\n      \n      p.until = uint32(getBlock() + TIMEOUT);\n      p.nonce = nonce;\n      p.amount = amount;\n      p.locked_by_peer = false;\n      \n      // finally let's notify the peer about close event\n      NotifyPeerAboutClose(signer, p.amount);\n  }\n  \n  function ownerSettle(address peer) onlyOwner {\n        Peer storage p = peers[peer];\n        \n        // make sure it's locked\n        require(p.until > 0);\n        \n        // if closed by hub, wait delay\n        if(!p.locked_by_peer) require(getBlock() > p.until);\n\n        ownerBalance += p.amount;\n        uint peerBalance = p.capacity - p.amount;\n        \n        p.amount = 0;\n        p.capacity = 0;\n        p.until = 0;\n        \n        // send back to the peer their part\n        peer.transfer(peerBalance);      \n  }\n\n\n  // owner disputes a close by a peer\n  function ownerDispute(bytes pf) onlyOwner {\n    var (signer, is_bond, delay, nonce, amount) = verify(pf, 0);\n    \n    Peer storage p = peers[signer];\n    \n    // is locked\n    require(p.until > 0);\n    \n    // we can only dispute if close started by peer\n    require(p.locked_by_peer);\n    \n    // owner can dispute with bigger or same nonce if even\n    require(nonce > p.nonce || (p.nonce == nonce && !odd(p.nonce)) );\n    \n    ownerBalance += amount;\n    uint peerBalance = p.capacity - amount;\n    \n    p.capacity = 0;\n    p.amount = 0;\n    p.nonce = nonce;\n    p.until = 0;\n\n    signer.transfer(peerBalance);\n  } \n  \n\n    \n    \n  // parses proof and recovers the signer. delay means type of proof\n  // 0 means instant (mutual) close, 1 is bond, 2 is delayed close\n  // pf is dynamically sized array that can contain a lot of proofs one by one (nested arrays are not supported) \n  // offset 0..255 \n\n    function verify(bytes pf, uint8 offset) constant returns (address signer, bool is_bond, uint8 delay, uint24 nonce, uint amount) {\n        bytes32 r;\n        bytes32 s;\n        uint8 v;\n\n        // find offset where current proof starts in dynamic bytes array\n        uint bytes_offset = offset * PROOF_LENGTH;\n        uint8 header;\n    \n        //amount will be 32->12 bytes soon\n        assembly {\n            r := mload(add(pf, 32))\n            s := mload(add(pf, 64))\n            amount := mload(add(pf, 96))\n            header := and(mload(add(pf, 97)), 0xff)\n            nonce := and(mload(add(pf, 100)), 0xffffff)\n            v := and(mload(add(pf, 101)), 0xff)\n        }\n        \n        require(v == 27 || v == 28);\n        \n        is_bond = (header & 0x80) == 0x80; // works as sign magnitude. -10 is bond\n        delay = header & 0x7f; // 0 means instant. \n        \n        \n        // includes current contract this, and recepient to avoid replay attacks\n        bytes32 signed_hash = sha3(msg.sender, amount, header, nonce);\n        \n        // returns who signed this proof (peer or hub)\n        signer = ecrecover(signed_hash, v, r, s);\n    }\n    \n    \n    function odd(uint num) constant returns (bool){\n        return bool(num % 2 != 0);\n    }\n    \n    function getBlock() constant returns (uint){\n        // we should return block.number but in JS VM we immitate with timestamp instread\n        return block.timestamp - 1500000000;\n    }\n    \n    \n\n\n}\n*/\n\n\n\n",
  "sourcePath": "/Users/homakov/work/MetaCoin/contracts/xln.sol",
  "compiler": {
    "name": "solc",
    "version": "0.5.16+commit.9c3226ce.Emscripten.clang"
  },
  "schemaVersion": "3.3.3",
  "updatedAt": "2021-02-23T17:38:08.905Z",
  "devdoc": {
    "methods": {}
  },
  "userdoc": {
    "methods": {}
  }
}