{
  "contractName": "XLN",
  "abi": [
    {
      "inputs": [],
      "stateMutability": "nonpayable",
      "type": "constructor"
    },
    {
      "anonymous": false,
      "inputs": [
        {
          "indexed": false,
          "internalType": "string",
          "name": "",
          "type": "string"
        },
        {
          "indexed": false,
          "internalType": "address",
          "name": "",
          "type": "address"
        }
      ],
      "name": "LogAddress",
      "type": "event"
    },
    {
      "anonymous": false,
      "inputs": [
        {
          "indexed": false,
          "internalType": "string",
          "name": "",
          "type": "string"
        },
        {
          "indexed": false,
          "internalType": "bool",
          "name": "",
          "type": "bool"
        }
      ],
      "name": "LogBool",
      "type": "event"
    },
    {
      "anonymous": false,
      "inputs": [
        {
          "indexed": false,
          "internalType": "string",
          "name": "",
          "type": "string"
        },
        {
          "indexed": false,
          "internalType": "bytes",
          "name": "",
          "type": "bytes"
        }
      ],
      "name": "LogBytes",
      "type": "event"
    },
    {
      "anonymous": false,
      "inputs": [
        {
          "indexed": false,
          "internalType": "string",
          "name": "",
          "type": "string"
        },
        {
          "indexed": false,
          "internalType": "bytes32",
          "name": "",
          "type": "bytes32"
        }
      ],
      "name": "LogBytes32",
      "type": "event"
    },
    {
      "anonymous": false,
      "inputs": [
        {
          "indexed": false,
          "internalType": "string",
          "name": "",
          "type": "string"
        },
        {
          "indexed": false,
          "internalType": "int256",
          "name": "",
          "type": "int256"
        }
      ],
      "name": "LogInt",
      "type": "event"
    },
    {
      "anonymous": false,
      "inputs": [
        {
          "indexed": false,
          "internalType": "string",
          "name": "",
          "type": "string"
        },
        {
          "indexed": false,
          "internalType": "uint256",
          "name": "",
          "type": "uint256"
        }
      ],
      "name": "LogUint",
      "type": "event"
    },
    {
      "inputs": [
        {
          "internalType": "uint256",
          "name": "",
          "type": "uint256"
        }
      ],
      "name": "assets",
      "outputs": [
        {
          "internalType": "string",
          "name": "name",
          "type": "string"
        }
      ],
      "stateMutability": "view",
      "type": "function"
    },
    {
      "inputs": [
        {
          "internalType": "bytes",
          "name": "",
          "type": "bytes"
        }
      ],
      "name": "channels",
      "outputs": [
        {
          "internalType": "uint256",
          "name": "channel_counter",
          "type": "uint256"
        },
        {
          "internalType": "uint256",
          "name": "cooperative_nonce",
          "type": "uint256"
        },
        {
          "internalType": "uint256",
          "name": "dispute_nonce",
          "type": "uint256"
        },
        {
          "internalType": "bool",
          "name": "dispute_by_left",
          "type": "bool"
        },
        {
          "internalType": "uint256",
          "name": "dispute_until_block",
          "type": "uint256"
        },
        {
          "internalType": "bytes32",
          "name": "hash_outcome_proposed",
          "type": "bytes32"
        }
      ],
      "stateMutability": "view",
      "type": "function"
    },
    {
      "inputs": [
        {
          "internalType": "string",
          "name": "s",
          "type": "string"
        },
        {
          "internalType": "bytes",
          "name": "x",
          "type": "bytes"
        }
      ],
      "name": "log",
      "outputs": [],
      "stateMutability": "nonpayable",
      "type": "function"
    },
    {
      "inputs": [
        {
          "internalType": "string",
          "name": "s",
          "type": "string"
        },
        {
          "internalType": "address",
          "name": "x",
          "type": "address"
        }
      ],
      "name": "log",
      "outputs": [],
      "stateMutability": "nonpayable",
      "type": "function"
    },
    {
      "inputs": [
        {
          "internalType": "string",
          "name": "s",
          "type": "string"
        },
        {
          "internalType": "bytes32",
          "name": "x",
          "type": "bytes32"
        }
      ],
      "name": "log",
      "outputs": [],
      "stateMutability": "nonpayable",
      "type": "function"
    },
    {
      "inputs": [
        {
          "internalType": "string",
          "name": "s",
          "type": "string"
        },
        {
          "internalType": "int256",
          "name": "x",
          "type": "int256"
        }
      ],
      "name": "log",
      "outputs": [],
      "stateMutability": "nonpayable",
      "type": "function"
    },
    {
      "inputs": [
        {
          "internalType": "string",
          "name": "s",
          "type": "string"
        },
        {
          "internalType": "uint256",
          "name": "x",
          "type": "uint256"
        }
      ],
      "name": "log",
      "outputs": [],
      "stateMutability": "nonpayable",
      "type": "function"
    },
    {
      "inputs": [
        {
          "internalType": "string",
          "name": "s",
          "type": "string"
        },
        {
          "internalType": "bool",
          "name": "x",
          "type": "bool"
        }
      ],
      "name": "log",
      "outputs": [],
      "stateMutability": "nonpayable",
      "type": "function"
    },
    {
      "inputs": [
        {
          "components": [
            {
              "internalType": "address",
              "name": "receiver",
              "type": "address"
            },
            {
              "internalType": "address",
              "name": "partner",
              "type": "address"
            },
            {
              "components": [
                {
                  "internalType": "uint256",
                  "name": "asset_id",
                  "type": "uint256"
                },
                {
                  "internalType": "uint256",
                  "name": "amount",
                  "type": "uint256"
                }
              ],
              "internalType": "struct XLN.AssetAmountPair[]",
              "name": "pairs",
              "type": "tuple[]"
            }
          ],
          "internalType": "struct XLN.DepositToChannelParams",
          "name": "params",
          "type": "tuple"
        }
      ],
      "name": "depositToChannel",
      "outputs": [
        {
          "internalType": "bool",
          "name": "",
          "type": "bool"
        }
      ],
      "stateMutability": "nonpayable",
      "type": "function"
    },
    {
      "inputs": [
        {
          "components": [
            {
              "internalType": "address",
              "name": "partner",
              "type": "address"
            },
            {
              "components": [
                {
                  "internalType": "uint256",
                  "name": "asset_id",
                  "type": "uint256"
                },
                {
                  "internalType": "uint256",
                  "name": "amount",
                  "type": "uint256"
                }
              ],
              "internalType": "struct XLN.AssetAmountPair[]",
              "name": "pairs",
              "type": "tuple[]"
            },
            {
              "internalType": "bytes",
              "name": "sig",
              "type": "bytes"
            }
          ],
          "internalType": "struct XLN.WithdrawProof",
          "name": "params",
          "type": "tuple"
        }
      ],
      "name": "withdrawFromChannel",
      "outputs": [
        {
          "internalType": "bool",
          "name": "",
          "type": "bool"
        }
      ],
      "stateMutability": "nonpayable",
      "type": "function"
    },
    {
      "inputs": [
        {
          "components": [
            {
              "internalType": "address",
              "name": "partner",
              "type": "address"
            },
            {
              "components": [
                {
                  "internalType": "uint256",
                  "name": "asset_id",
                  "type": "uint256"
                },
                {
                  "internalType": "int256",
                  "name": "offdelta",
                  "type": "int256"
                }
              ],
              "internalType": "struct XLN.Entry[]",
              "name": "entries",
              "type": "tuple[]"
            },
            {
              "internalType": "bytes",
              "name": "sig",
              "type": "bytes"
            }
          ],
          "internalType": "struct XLN.CooperativeProof",
          "name": "params",
          "type": "tuple"
        }
      ],
      "name": "cooperativeClose",
      "outputs": [
        {
          "internalType": "bool",
          "name": "",
          "type": "bool"
        }
      ],
      "stateMutability": "nonpayable",
      "type": "function"
    },
    {
      "inputs": [
        {
          "components": [
            {
              "internalType": "address",
              "name": "partner",
              "type": "address"
            },
            {
              "internalType": "uint256",
              "name": "dispute_nonce",
              "type": "uint256"
            },
            {
              "components": [
                {
                  "internalType": "uint256",
                  "name": "asset_id",
                  "type": "uint256"
                },
                {
                  "internalType": "int256",
                  "name": "offdelta",
                  "type": "int256"
                }
              ],
              "internalType": "struct XLN.Entry[]",
              "name": "entries",
              "type": "tuple[]"
            },
            {
              "internalType": "bytes",
              "name": "sig",
              "type": "bytes"
            }
          ],
          "internalType": "struct XLN.DisputeProof",
          "name": "params",
          "type": "tuple"
        }
      ],
      "name": "disputeClose",
      "outputs": [
        {
          "internalType": "bool",
          "name": "",
          "type": "bool"
        }
      ],
      "stateMutability": "nonpayable",
      "type": "function"
    },
    {
      "inputs": [
        {
          "internalType": "address",
          "name": "fromUser",
          "type": "address"
        },
        {
          "internalType": "address",
          "name": "toUser",
          "type": "address"
        },
        {
          "internalType": "uint256",
          "name": "amount",
          "type": "uint256"
        }
      ],
      "name": "createDebt",
      "outputs": [],
      "stateMutability": "nonpayable",
      "type": "function"
    },
    {
      "inputs": [
        {
          "internalType": "address",
          "name": "fromUser",
          "type": "address"
        }
      ],
      "name": "getDebts",
      "outputs": [
        {
          "components": [
            {
              "internalType": "uint256",
              "name": "amount",
              "type": "uint256"
            },
            {
              "internalType": "address",
              "name": "pay_to",
              "type": "address"
            }
          ],
          "internalType": "struct XLN.Debt[]",
          "name": "allDebts",
          "type": "tuple[]"
        },
        {
          "internalType": "uint256",
          "name": "memoryIndex",
          "type": "uint256"
        }
      ],
      "stateMutability": "view",
      "type": "function"
    },
    {
      "inputs": [
        {
          "internalType": "address",
          "name": "fromUser",
          "type": "address"
        },
        {
          "internalType": "uint256",
          "name": "top_up",
          "type": "uint256"
        }
      ],
      "name": "payDebts",
      "outputs": [
        {
          "internalType": "uint256",
          "name": "totalDebts",
          "type": "uint256"
        }
      ],
      "stateMutability": "nonpayable",
      "type": "function"
    },
    {
      "inputs": [
        {
          "components": [
            {
              "internalType": "address",
              "name": "partner",
              "type": "address"
            },
            {
              "components": [
                {
                  "internalType": "uint256",
                  "name": "asset_id",
                  "type": "uint256"
                },
                {
                  "internalType": "uint256",
                  "name": "amount",
                  "type": "uint256"
                }
              ],
              "internalType": "struct XLN.AssetAmountPair[]",
              "name": "pairs",
              "type": "tuple[]"
            },
            {
              "internalType": "bytes",
              "name": "sig",
              "type": "bytes"
            }
          ],
          "internalType": "struct XLN.WithdrawProof[]",
          "name": "withdrawProofs",
          "type": "tuple[]"
        },
        {
          "components": [
            {
              "internalType": "address",
              "name": "partner",
              "type": "address"
            },
            {
              "components": [
                {
                  "internalType": "uint256",
                  "name": "asset_id",
                  "type": "uint256"
                },
                {
                  "internalType": "int256",
                  "name": "offdelta",
                  "type": "int256"
                }
              ],
              "internalType": "struct XLN.Entry[]",
              "name": "entries",
              "type": "tuple[]"
            },
            {
              "internalType": "bytes",
              "name": "sig",
              "type": "bytes"
            }
          ],
          "internalType": "struct XLN.CooperativeProof[]",
          "name": "cooperativeProofs",
          "type": "tuple[]"
        },
        {
          "components": [
            {
              "internalType": "address",
              "name": "partner",
              "type": "address"
            },
            {
              "internalType": "uint256",
              "name": "dispute_nonce",
              "type": "uint256"
            },
            {
              "components": [
                {
                  "internalType": "uint256",
                  "name": "asset_id",
                  "type": "uint256"
                },
                {
                  "internalType": "int256",
                  "name": "offdelta",
                  "type": "int256"
                }
              ],
              "internalType": "struct XLN.Entry[]",
              "name": "entries",
              "type": "tuple[]"
            },
            {
              "internalType": "bytes",
              "name": "sig",
              "type": "bytes"
            }
          ],
          "internalType": "struct XLN.DisputeProof[]",
          "name": "disputeProofs",
          "type": "tuple[]"
        },
        {
          "components": [
            {
              "internalType": "address",
              "name": "receiver",
              "type": "address"
            },
            {
              "internalType": "address",
              "name": "partner",
              "type": "address"
            },
            {
              "components": [
                {
                  "internalType": "uint256",
                  "name": "asset_id",
                  "type": "uint256"
                },
                {
                  "internalType": "uint256",
                  "name": "amount",
                  "type": "uint256"
                }
              ],
              "internalType": "struct XLN.AssetAmountPair[]",
              "name": "pairs",
              "type": "tuple[]"
            }
          ],
          "internalType": "struct XLN.DepositToChannelParams[]",
          "name": "depositArray",
          "type": "tuple[]"
        }
      ],
      "name": "batchRebalance",
      "outputs": [
        {
          "internalType": "bool",
          "name": "",
          "type": "bool"
        }
      ],
      "stateMutability": "nonpayable",
      "type": "function"
    },
    {
      "inputs": [
        {
          "internalType": "address",
          "name": "a1",
          "type": "address"
        },
        {
          "internalType": "address",
          "name": "a2",
          "type": "address"
        }
      ],
      "name": "logChannel",
      "outputs": [],
      "stateMutability": "nonpayable",
      "type": "function"
    },
    {
      "inputs": [
        {
          "internalType": "address",
          "name": "a1",
          "type": "address"
        },
        {
          "internalType": "address",
          "name": "a2",
          "type": "address"
        }
      ],
      "name": "channelKey",
      "outputs": [
        {
          "internalType": "bytes",
          "name": "",
          "type": "bytes"
        }
      ],
      "stateMutability": "pure",
      "type": "function"
    },
    {
      "inputs": [
        {
          "internalType": "address",
          "name": "addr",
          "type": "address"
        }
      ],
      "name": "getUser",
      "outputs": [
        {
          "components": [
            {
              "components": [
                {
                  "internalType": "uint256",
                  "name": "reserve",
                  "type": "uint256"
                },
                {
                  "components": [
                    {
                      "internalType": "uint256",
                      "name": "amount",
                      "type": "uint256"
                    },
                    {
                      "internalType": "address",
                      "name": "pay_to",
                      "type": "address"
                    }
                  ],
                  "internalType": "struct XLN.Debt[]",
                  "name": "debts",
                  "type": "tuple[]"
                },
                {
                  "internalType": "uint256",
                  "name": "debtIndex",
                  "type": "uint256"
                }
              ],
              "internalType": "struct XLN.AssetReserveDebts[]",
              "name": "assets",
              "type": "tuple[]"
            }
          ],
          "internalType": "struct XLN.User",
          "name": "",
          "type": "tuple"
        }
      ],
      "stateMutability": "view",
      "type": "function"
    },
    {
      "inputs": [
        {
          "internalType": "address",
          "name": "a1",
          "type": "address"
        },
        {
          "internalType": "address",
          "name": "a2",
          "type": "address"
        }
      ],
      "name": "getChannel",
      "outputs": [
        {
          "components": [
            {
              "internalType": "bytes",
              "name": "channelKey",
              "type": "bytes"
            },
            {
              "components": [
                {
                  "internalType": "uint256",
                  "name": "channel_counter",
                  "type": "uint256"
                },
                {
                  "internalType": "uint256",
                  "name": "cooperative_nonce",
                  "type": "uint256"
                },
                {
                  "internalType": "uint256",
                  "name": "dispute_nonce",
                  "type": "uint256"
                },
                {
                  "internalType": "bool",
                  "name": "dispute_by_left",
                  "type": "bool"
                },
                {
                  "internalType": "uint256",
                  "name": "dispute_until_block",
                  "type": "uint256"
                },
                {
                  "internalType": "bytes32",
                  "name": "hash_outcome_proposed",
                  "type": "bytes32"
                }
              ],
              "internalType": "struct XLN.Channel",
              "name": "channel",
              "type": "tuple"
            },
            {
              "components": [
                {
                  "internalType": "uint256",
                  "name": "collateral",
                  "type": "uint256"
                },
                {
                  "internalType": "int256",
                  "name": "ondelta",
                  "type": "int256"
                }
              ],
              "internalType": "struct XLN.Collateral[]",
              "name": "collaterals",
              "type": "tuple[]"
            }
          ],
          "internalType": "struct XLN.ChannelReturn",
          "name": "ch",
          "type": "tuple"
        }
      ],
      "stateMutability": "view",
      "type": "function"
    }
  ],
  "bytecode": "0x60806040523480156200001157600080fd5b50600560405180602001604052806040518060400160405280600481526020017f57455448000000000000000000000000000000000000000000000000000000008152508152509080600181540180825580915050600190039060005260206000200160009091909190915060008201518160000190805190602001906200009b9291906200023a565b505050600560405180602001604052806040518060400160405280600381526020017f4441490000000000000000000000000000000000000000000000000000000000815250815250908060018154018082558091505060019003906000526020600020016000909190919091506000820151816000019080519060200190620001279291906200023a565b5050506305f5e1006000803373ffffffffffffffffffffffffffffffffffffffff1673ffffffffffffffffffffffffffffffffffffffff1681526020019081526020016000206000808152602001908152602001600020819055506305f5e1006000803373ffffffffffffffffffffffffffffffffffffffff1673ffffffffffffffffffffffffffffffffffffffff168152602001908152602001600020600060018152602001908152602001600020819055506305f5e1006000803373ffffffffffffffffffffffffffffffffffffffff1673ffffffffffffffffffffffffffffffffffffffff168152602001908152602001600020600060028152602001908152602001600020819055506200034f565b8280546200024890620002ea565b90600052602060002090601f0160209004810192826200026c5760008555620002b8565b82601f106200028757805160ff1916838001178555620002b8565b82800160010185558215620002b8579182015b82811115620002b75782518255916020019190600101906200029a565b5b509050620002c79190620002cb565b5090565b5b80821115620002e6576000816000905550600101620002cc565b5090565b600060028204905060018216806200030357607f821691505b602082108114156200031a576200031962000320565b5b50919050565b7f4e487b7100000000000000000000000000000000000000000000000000000000600052602260045260246000fd5b61530b806200035f6000396000f3fe608060405234801561001057600080fd5b506004361061012c5760003560e01c8063a1a96a13116100ad578063bf6b5b8811610071578063bf6b5b881461037b578063c3b55635146103ab578063cf35bdd0146103c7578063d3d90b68146103f7578063db90b3f8146104275761012c565b8063a1a96a13146102ad578063aee26d3f146102e2578063b60e72cc14610312578063bcd1e5f91461032e578063bf52638c1461035f5761012c565b80633692d61a116100f45780633692d61a146101e55780633c4deb11146102015780633ca6268e14610231578063428d9cc51461024d5780636f77926b1461027d5761012c565b806304af0562146101315780630eb0afa61461016157806323cdd8e81461017d578063319af333146101995780633243aff2146101b5575b600080fd5b61014b60048036038101906101469190613cab565b610457565b6040516101589190614601565b60405180910390f35b61017b6004803603810190610176919061388a565b610462565b005b61019760048036038101906101929190613b15565b61055e565b005b6101b360048036038101906101ae9190613a19565b61059b565b005b6101cf60048036038101906101ca9190613cec565b6105d8565b6040516101dc9190614601565b60405180910390f35b6101ff60048036038101906101fa9190613ac1565b610a17565b005b61021b6004803603810190610216919061384e565b610a54565b6040516102289190614661565b60405180910390f35b61024b60048036038101906102469190613b81565b610adb565b005b610267600480360381019061026291906138d9565b610b18565b604051610274919061496d565b60405180910390f35b61029760048036038101906102929190613825565b611073565b6040516102a4919061494b565b60405180910390f35b6102c760048036038101906102c291906139d8565b611340565b6040516102d996959493929190614988565b60405180910390f35b6102fc60048036038101906102f7919061384e565b61139f565b6040516103099190614929565b60405180910390f35b61032c60048036038101906103279190613bd5565b611586565b005b61034860048036038101906103439190613825565b6115c3565b6040516103569291906145d1565b60405180910390f35b6103796004803603810190610374919061384e565b611727565b005b61039560048036038101906103909190613c29565b611a9a565b6040516103a29190614601565b60405180910390f35b6103c560048036038101906103c09190613a6d565b61253d565b005b6103e160048036038101906103dc9190613d2d565b61257a565b6040516103ee9190614760565b60405180910390f35b610411600480360381019061040c9190613c6a565b61262c565b60405161041e9190614601565b60405180910390f35b610441600480360381019061043c9190613915565b6129d1565b60405161044e9190614601565b60405180910390f35b600060019050919050565b600260008473ffffffffffffffffffffffffffffffffffffffff1673ffffffffffffffffffffffffffffffffffffffff168152602001908152602001600020600080815260200190815260200160002060405180604001604052808381526020018473ffffffffffffffffffffffffffffffffffffffff1681525090806001815401808255809150506001900390600052602060002090600202016000909190919091506000820151816000015560208201518160010160006101000a81548173ffffffffffffffffffffffffffffffffffffffff021916908373ffffffffffffffffffffffffffffffffffffffff1602179055505050505050565b7fe8407a0209fa99ec3a7228aff140c3d3e68bd279391739c7e0b65cd406cc93b5828260405161058f929190614812565b60405180910390a15050565b7f62ddffe5b5108385f7a590f100e1ee414ad9551a31f089e64e82998440785e1e82826040516105cc929190614782565b60405180910390a15050565b600080826000015173ffffffffffffffffffffffffffffffffffffffff163373ffffffffffffffffffffffffffffffffffffffff1610905061061e338460000151611727565b600061062e338560000151610a54565b905060006001826003846040516106459190614594565b9081526020016040518091039020600001546003856040516106679190614594565b90815260200160405180910390206001015488602001516040516020016106929594939291906146d6565b604051602081830303815290604052905060006106b58280519060200120612bac565b90506106f66040518060400160405280600b81526020017f656e636f646564206d73670000000000000000000000000000000000000000008152508361055e565b6000610706828860400151612bdc565b90506107476040518060400160405280600681526020017f7369676e657200000000000000000000000000000000000000000000000000008152508261059b565b8073ffffffffffffffffffffffffffffffffffffffff16876000015173ffffffffffffffffffffffffffffffffffffffff161461080e576107c16040518060400160405280601081526020017f70726f706f736564207369676e65722000000000000000000000000000000000815250886000015161059b565b6108006040518060400160405280600e81526020017f496e76616c6964207369676e65720000000000000000000000000000000000008152508261059b565b600095505050505050610a12565b60038460405161081e9190614594565b9081526020016040518091039020600101600081548092919061084090615085565b919050555060005b8760200151518110156109f957600088602001518281518110610894577f4e487b7100000000000000000000000000000000000000000000000000000000600052603260045260246000fd5b60200260200101516000015190506000896020015183815181106108e1577f4e487b7100000000000000000000000000000000000000000000000000000000600052603260045260246000fd5b602002602001015160200151905060006004886040516109019190614594565b908152602001604051809103902060008481526020019081526020016000209050818160000154106109e357818160000160008282546109419190614f4f565b92505081905550881561096a57818160010160008282546109629190614ebb565b925050819055505b816000803373ffffffffffffffffffffffffffffffffffffffff1673ffffffffffffffffffffffffffffffffffffffff168152602001908152602001600020600085815260200190815260200160002060008282546109c99190614da3565b925050819055506109e26109dc84612c56565b83611586565b5b50505080806109f190615085565b915050610848565b50610a08338860000151611727565b6001955050505050505b919050565b7f02d93529bba9d141e5e06733c52c7e6fbcb1149586adb5c24064b522ab26f1d78282604051610a489291906147e2565b60405180910390a15050565b60608173ffffffffffffffffffffffffffffffffffffffff168373ffffffffffffffffffffffffffffffffffffffff1610610ab0578183604051602001610a9c929190614568565b604051602081830303815290604052610ad3565b8282604051602001610ac3929190614568565b6040516020818303038152906040525b905092915050565b7f6a837ff3973aa4181e7b9f07756f8b7ee366dd85a36655d2cb42cd47f10b96388282604051610b0c929190614849565b60405180910390a15050565b600080600260008573ffffffffffffffffffffffffffffffffffffffff1673ffffffffffffffffffffffffffffffffffffffff16815260200190815260200160002060008081526020019081526020016000208054905090506000811415610b8457600091505061106d565b6000836000808773ffffffffffffffffffffffffffffffffffffffff1673ffffffffffffffffffffffffffffffffffffffff168152602001908152602001600020600080815260200190815260200160002054610be19190614da3565b90506000600160008773ffffffffffffffffffffffffffffffffffffffff1673ffffffffffffffffffffffffffffffffffffffff16815260200190815260200160002060008081526020019081526020016000205490506000821415610c57578083610c4d9190614f4f565b935050505061106d565b5b600115610fb2576000600260008873ffffffffffffffffffffffffffffffffffffffff1673ffffffffffffffffffffffffffffffffffffffff16815260200190815260200160002060008081526020019081526020016000208281548110610ce9577f4e487b7100000000000000000000000000000000000000000000000000000000600052603260045260246000fd5b9060005260206000209060020201905080600001548310610efd57806000015483610d149190614f4f565b925080600001546000808360010160009054906101000a900473ffffffffffffffffffffffffffffffffffffffff1673ffffffffffffffffffffffffffffffffffffffff1673ffffffffffffffffffffffffffffffffffffffff16815260200190815260200160002060008081526020019081526020016000206000828254610d9d9190614da3565b92505081905550600260008873ffffffffffffffffffffffffffffffffffffffff1673ffffffffffffffffffffffffffffffffffffffff16815260200190815260200160002060008081526020019081526020016000208281548110610e2c577f4e487b7100000000000000000000000000000000000000000000000000000000600052603260045260246000fd5b90600052602060002090600202016000808201600090556001820160006101000a81549073ffffffffffffffffffffffffffffffffffffffff0219169055505083600183610e7a9190614da3565b1415610eea5760009150600260008873ffffffffffffffffffffffffffffffffffffffff1673ffffffffffffffffffffffffffffffffffffffff16815260200190815260200160002060008081526020019081526020016000206000610ee09190612fb6565b6000935050610fb2565b8180610ef590615085565b925050610fac565b826000808360010160009054906101000a900473ffffffffffffffffffffffffffffffffffffffff1673ffffffffffffffffffffffffffffffffffffffff1673ffffffffffffffffffffffffffffffffffffffff16815260200190815260200160002060008081526020019081526020016000206000828254610f809190614da3565b9250508190555082816000016000828254610f9b9190614f4f565b925050819055506000925050610fb2565b50610c58565b816000808873ffffffffffffffffffffffffffffffffffffffff1673ffffffffffffffffffffffffffffffffffffffff16815260200190815260200160002060008081526020019081526020016000208190555080600160008873ffffffffffffffffffffffffffffffffffffffff1673ffffffffffffffffffffffffffffffffffffffff16815260200190815260200160002060008081526020019081526020016000208190555080836110679190614f4f565b93505050505b92915050565b61107b612fda565b6000604051806020016040528060058054905067ffffffffffffffff8111156110cd577f4e487b7100000000000000000000000000000000000000000000000000000000600052604160045260246000fd5b60405190808252806020026020018201604052801561110657816020015b6110f3612fed565b8152602001906001900390816110eb5790505b50815250905060005b6005805490508110156113365760405180606001604052806000808773ffffffffffffffffffffffffffffffffffffffff1673ffffffffffffffffffffffffffffffffffffffff1681526020019081526020016000206000848152602001908152602001600020548152602001600260008773ffffffffffffffffffffffffffffffffffffffff1673ffffffffffffffffffffffffffffffffffffffff1681526020019081526020016000206000848152602001908152602001600020805480602002602001604051908101604052809291908181526020016000905b8282101561127e5783829060005260206000209060020201604051806040016040529081600082015481526020016001820160009054906101000a900473ffffffffffffffffffffffffffffffffffffffff1673ffffffffffffffffffffffffffffffffffffffff1673ffffffffffffffffffffffffffffffffffffffff1681525050815260200190600101906111ec565b505050508152602001600160008773ffffffffffffffffffffffffffffffffffffffff1673ffffffffffffffffffffffffffffffffffffffff16815260200190815260200160002060008481526020019081526020016000205481525082600001518281518110611318577f4e487b7100000000000000000000000000000000000000000000000000000000600052603260045260246000fd5b6020026020010181905250808061132e90615085565b91505061110f565b5080915050919050565b6003818051602081018201805184825260208301602085012081835280955050505050506000915090508060000154908060010154908060020154908060030160009054906101000a900460ff16908060040154908060050154905086565b6113a761300e565b60006113b38484610a54565b905060405180606001604052808281526020016003836040516113d69190614594565b90815260200160405180910390206040518060c00160405290816000820154815260200160018201548152602001600282015481526020016003820160009054906101000a900460ff1615151515815260200160048201548152602001600582015481525050815260200160058054905067ffffffffffffffff811115611486577f4e487b7100000000000000000000000000000000000000000000000000000000600052604160045260246000fd5b6040519080825280602002602001820160405280156114bf57816020015b6114ac613035565b8152602001906001900390816114a45790505b50815250915060005b60058054905081101561157e576004826040516114e59190614594565b908152602001604051809103902060008281526020019081526020016000206040518060400160405290816000820154815260200160018201548152505083604001518281518110611560577f4e487b7100000000000000000000000000000000000000000000000000000000600052603260045260246000fd5b6020026020010181905250808061157690615085565b9150506114c8565b505092915050565b7f941296a39ea107bde685522318a4b6c2b544904a5dd82a512748ca2cf839bef782826040516115b7929190614879565b60405180910390a15050565b60606000600160008473ffffffffffffffffffffffffffffffffffffffff1673ffffffffffffffffffffffffffffffffffffffff1681526020019081526020016000206000808152602001908152602001600020549050600260008473ffffffffffffffffffffffffffffffffffffffff1673ffffffffffffffffffffffffffffffffffffffff1681526020019081526020016000206000808152602001908152602001600020805480602002602001604051908101604052809291908181526020016000905b8282101561171c5783829060005260206000209060020201604051806040016040529081600082015481526020016001820160009054906101000a900473ffffffffffffffffffffffffffffffffffffffff1673ffffffffffffffffffffffffffffffffffffffff1673ffffffffffffffffffffffffffffffffffffffff16815250508152602001906001019061168a565b505050509150915091565b60006117338383610a54565b90506117746040518060400160405280601281526020017f3e3e3e4c6f6767696e67206368616e6e656c00000000000000000000000000008152508261055e565b6117d46040518060400160405280601181526020017f636f6f70657261746976655f6e6f6e63650000000000000000000000000000008152506003836040516117bd9190614594565b908152602001604051809103902060010154611586565b6118346040518060400160405280600d81526020017f646973707574655f6e6f6e63650000000000000000000000000000000000000081525060038360405161181d9190614594565b908152602001604051809103902060020154611586565b60005b600580549050811015611a94576118836040518060400160405280600581526020017f417373657400000000000000000000000000000000000000000000000000000081525082611586565b6119116040518060400160405280600981526020017f4c2062616c616e636500000000000000000000000000000000000000000000008152506000808773ffffffffffffffffffffffffffffffffffffffff1673ffffffffffffffffffffffffffffffffffffffff168152602001908152602001600020600084815260200190815260200160002054611586565b61199f6040518060400160405280600981526020017f522062616c616e636500000000000000000000000000000000000000000000008152506000808673ffffffffffffffffffffffffffffffffffffffff1673ffffffffffffffffffffffffffffffffffffffff168152602001908152602001600020600084815260200190815260200160002054611586565b611a106040518060400160405280600a81526020017f636f6c6c61746572616c000000000000000000000000000000000000000000008152506004846040516119e89190614594565b9081526020016040518091039020600084815260200190815260200160002060000154611586565b611a816040518060400160405280600781526020017f6f6e64656c746100000000000000000000000000000000000000000000000000815250600484604051611a599190614594565b9081526020016040518091039020600084815260200190815260200160002060010154610adb565b8080611a8c90615085565b915050611837565b50505050565b600080611aab338460000151610a54565b9050600081600383604051611ac09190614594565b908152602001604051809103902060000154600384604051611ae29190614594565b9081526020016040518091039020600101548660200151604051602001611b0c9493929190614683565b60405160208183030381529060405290506000611b2f8280519060200120612bac565b9050611b706040518060400160405280600b81526020017f656e636f646564206d73670000000000000000000000000000000000000000008152508361055e565b6000611b80828760400151612bdc565b9050611bc16040518060400160405280600681526020017f7369676e657200000000000000000000000000000000000000000000000000008152508261059b565b6000866000015173ffffffffffffffffffffffffffffffffffffffff163373ffffffffffffffffffffffffffffffffffffffff1610611c04578660000151611c06565b335b90506000876000015173ffffffffffffffffffffffffffffffffffffffff163373ffffffffffffffffffffffffffffffffffffffff1610611c475733611c4d565b87600001515b9050611c5d338960000151611727565b60005b8860200151518110156124c257600089602001518281518110611cac577f4e487b7100000000000000000000000000000000000000000000000000000000600052603260045260246000fd5b60200260200101516000015190506000600489604051611ccc9190614594565b908152602001604051809103902060008381526020019081526020016000209050600081600101548c602001518581518110611d31577f4e487b7100000000000000000000000000000000000000000000000000000000600052603260045260246000fd5b602002602001015160200151611d479190614d0f565b9050611d886040518060400160405280600581526020017f64656c746100000000000000000000000000000000000000000000000000000081525082610adb565b611e0f6040518060400160405280600881526020017f6f666664656c74610000000000000000000000000000000000000000000000008152508d602001518681518110611dfe577f4e487b7100000000000000000000000000000000000000000000000000000000600052603260045260246000fd5b602002602001015160200151610adb565b60008112158015611e24575081600001548113155b15611f0f576000819050806000808973ffffffffffffffffffffffffffffffffffffffff1673ffffffffffffffffffffffffffffffffffffffff16815260200190815260200160002060008681526020019081526020016000206000828254611e8d9190614da3565b92505081905550808360000154611ea49190614f4f565b6000808873ffffffffffffffffffffffffffffffffffffffff1673ffffffffffffffffffffffffffffffffffffffff16815260200190815260200160002060008681526020019081526020016000206000828254611f029190614da3565b925050819055505061246a565b6000808212611f1e5786611f20565b855b90506000808312611f315786611f33565b875b90506000808412611f5357846000015484611f4e9190614f4f565b611f5e565b83611f5d906150fc565b5b9050611f9f6040518060400160405280600f81526020017f6765747320636f6c6c61746572616c00000000000000000000000000000000008152508461059b565b611fde6040518060400160405280600981526020017f67657473206465627400000000000000000000000000000000000000000000008152508361059b565b61201d6040518060400160405280600481526020017f646562740000000000000000000000000000000000000000000000000000000081525082611586565b84600001546000808573ffffffffffffffffffffffffffffffffffffffff1673ffffffffffffffffffffffffffffffffffffffff168152602001908152602001600020600088815260200190815260200160002060008282546120809190614da3565b92505081905550806000808473ffffffffffffffffffffffffffffffffffffffff1673ffffffffffffffffffffffffffffffffffffffff168152602001908152602001600020600088815260200190815260200160002054106121ae57806000808573ffffffffffffffffffffffffffffffffffffffff1673ffffffffffffffffffffffffffffffffffffffff1681526020019081526020016000206000888152602001908152602001600020600082825461213c9190614da3565b92505081905550806000808473ffffffffffffffffffffffffffffffffffffffff1673ffffffffffffffffffffffffffffffffffffffff168152602001908152602001600020600088815260200190815260200160002060008282546121a29190614f4f565b92505081905550612466565b60008060008473ffffffffffffffffffffffffffffffffffffffff1673ffffffffffffffffffffffffffffffffffffffff168152602001908152602001600020600088815260200190815260200160002054111561236e576000808373ffffffffffffffffffffffffffffffffffffffff1673ffffffffffffffffffffffffffffffffffffffff1681526020019081526020016000206000878152602001908152602001600020546000808573ffffffffffffffffffffffffffffffffffffffff1673ffffffffffffffffffffffffffffffffffffffff168152602001908152602001600020600088815260200190815260200160002060008282546122b49190614da3565b925050819055506000808373ffffffffffffffffffffffffffffffffffffffff1673ffffffffffffffffffffffffffffffffffffffff168152602001908152602001600020600087815260200190815260200160002054816123169190614f4f565b905060008060008473ffffffffffffffffffffffffffffffffffffffff1673ffffffffffffffffffffffffffffffffffffffff1681526020019081526020016000206000888152602001908152602001600020819055505b600260008373ffffffffffffffffffffffffffffffffffffffff1673ffffffffffffffffffffffffffffffffffffffff168152602001908152602001600020600087815260200190815260200160002060405180604001604052808381526020018573ffffffffffffffffffffffffffffffffffffffff1681525090806001815401808255809150506001900390600052602060002090600202016000909190919091506000820151816000015560208201518160010160006101000a81548173ffffffffffffffffffffffffffffffffffffffff021916908373ffffffffffffffffffffffffffffffffffffffff16021790555050505b5050505b60048a60405161247a9190614594565b908152602001604051809103902060008481526020019081526020016000206000808201600090556001820160009055505050505080806124ba90615085565b915050611c60565b506003866040516124d39190614594565b9081526020016040518091039020600080820160009055600182016000905560028201600090556003820160006101000a81549060ff021916905560048201600090556005820160009055505061252e338960000151611727565b60019650505050505050919050565b7f4c34c2f9a78632f29fa59aaed5514cb742fd9fbcfd7ccc2c03c85f2bbc621c47828260405161256e9291906147b2565b60405180910390a15050565b6005818154811061258a57600080fd5b906000526020600020016000915090508060000180546125a990615053565b80601f01602080910402602001604051908101604052809291908181526020018280546125d590615053565b80156126225780601f106125f757610100808354040283529160200191612622565b820191906000526020600020905b81548152906001019060200180831161260557829003601f168201915b5050505050905081565b600080826020015173ffffffffffffffffffffffffffffffffffffffff16836000015173ffffffffffffffffffffffffffffffffffffffff16109050600061267c84600001518560200151610a54565b90506126e06040518060400160405280600981526020017f656e756d20747970650000000000000000000000000000000000000000000000815250600160036040516020016126cc929190614737565b60405160208183030381529060405261055e565b6126f284600001518560200151611727565b60005b8460400151518110156129b257600085604001518281518110612741577f4e487b7100000000000000000000000000000000000000000000000000000000600052603260045260246000fd5b602002602001015160000151905060008660400151838151811061278e577f4e487b7100000000000000000000000000000000000000000000000000000000600052603260045260246000fd5b6020026020010151602001519050806000803373ffffffffffffffffffffffffffffffffffffffff1673ffffffffffffffffffffffffffffffffffffffff168152602001908152602001600020600084815260200190815260200160002054106129505760006004856040516128049190614594565b908152602001604051809103902060008481526020019081526020016000209050816000803373ffffffffffffffffffffffffffffffffffffffff1673ffffffffffffffffffffffffffffffffffffffff168152602001908152602001600020600085815260200190815260200160002060008282546128849190614f4f565b925050819055508181600001600082825461289f9190614da3565b92505081905550851561290b57818160010160008282546128c09190614d0f565b9250508190555061290a6040518060400160405280600b81526020017f6e6577206f6e64656c74610000000000000000000000000000000000000000008152508260010154610adb565b5b61294a6040518060400160405280601581526020017f4465706f736974656420746f206368616e6e656c20000000000000000000000081525083611586565b5061299d565b61298f6040518060400160405280601081526020017f6e6f7420656e6f7567682066756e6473000000000000000000000000000000008152503361059b565b6000955050505050506129cc565b505080806129aa90615085565b9150506126f5565b506129c584600001518560200151611727565b6001925050505b919050565b6000806001905060005b8651811015612a4957612a2d878281518110612a20577f4e487b7100000000000000000000000000000000000000000000000000000000600052603260045260246000fd5b60200260200101516105d8565b612a3657600091505b8080612a4190615085565b9150506129db565b5060005b8551811015612abb57612a9f868281518110612a92577f4e487b7100000000000000000000000000000000000000000000000000000000600052603260045260246000fd5b6020026020010151611a9a565b612aa857600091505b8080612ab390615085565b915050612a4d565b5060005b8451811015612b2d57612b11858281518110612b04577f4e487b7100000000000000000000000000000000000000000000000000000000600052603260045260246000fd5b6020026020010151610457565b612b1a57600091505b8080612b2590615085565b915050612abf565b5060005b8351811015612b9f57612b83848281518110612b76577f4e487b7100000000000000000000000000000000000000000000000000000000600052603260045260246000fd5b602002602001015161262c565b612b8c57600091505b8080612b9790615085565b915050612b31565b5080915050949350505050565b600081604051602001612bbf91906145ab565b604051602081830303815290604052805190602001209050919050565b60006041825114612c22576040517f08c379a0000000000000000000000000000000000000000000000000000000008152600401612c19906148c9565b60405180910390fd5b60008060006020850151925060408501519150606085015160001a9050612c4b86828585612e2b565b935050505092915050565b60606000821415612c9e576040518060400160405280600181526020017f30000000000000000000000000000000000000000000000000000000000000008152509050612e26565b600082905060005b60008214612cd0578080612cb990615085565b915050600a82612cc99190614e30565b9150612ca6565b60008167ffffffffffffffff811115612d12577f4e487b7100000000000000000000000000000000000000000000000000000000600052604160045260246000fd5b6040519080825280601f01601f191660200182016040528015612d445781602001600182028036833780820191505090505b50905060008290505b60008614612e1e57600181612d629190614f4f565b90506000600a8088612d749190614e30565b612d7e9190614e61565b87612d899190614f4f565b6030612d959190614df9565b905060008160f81b905080848481518110612dd9577f4e487b7100000000000000000000000000000000000000000000000000000000600052603260045260246000fd5b60200101907effffffffffffffffffffffffffffffffffffffffffffffffffffffffffffff1916908160001a905350600a88612e159190614e30565b97505050612d4d565b819450505050505b919050565b60007f7fffffffffffffffffffffffffffffff5d576e7357a4501ddfe92f46681b20a08260001c1115612e93576040517f08c379a0000000000000000000000000000000000000000000000000000000008152600401612e8a906148e9565b60405180910390fd5b601b8460ff161480612ea85750601c8460ff16145b612ee7576040517f08c379a0000000000000000000000000000000000000000000000000000000008152600401612ede90614909565b60405180910390fd5b600060018686868660405160008152602001604052604051612f0c949392919061461c565b6020604051602081039080840390855afa158015612f2e573d6000803e3d6000fd5b505050602060405103519050600073ffffffffffffffffffffffffffffffffffffffff168173ffffffffffffffffffffffffffffffffffffffff161415612faa576040517f08c379a0000000000000000000000000000000000000000000000000000000008152600401612fa1906148a9565b60405180910390fd5b80915050949350505050565b5080546000825560020290600052602060002090810190612fd7919061304f565b50565b6040518060200160405280606081525090565b60405180606001604052806000815260200160608152602001600081525090565b604051806060016040528060608152602001613028613095565b8152602001606081525090565b604051806040016040528060008152602001600081525090565b5b80821115613091576000808201600090556001820160006101000a81549073ffffffffffffffffffffffffffffffffffffffff021916905550600201613050565b5090565b6040518060c0016040528060008152602001600081526020016000815260200160001515815260200160008152602001600080191681525090565b60006130e36130de84614a1a565b6149e9565b9050808382526020820190508285604086028201111561310257600080fd5b60005b858110156131325781613118888261353c565b845260208401935060408301925050600181019050613105565b5050509392505050565b600061314f61314a84614a46565b6149e9565b9050808382526020820190508260005b8581101561318f57813585016131758882613588565b84526020840193506020830192505060018101905061315f565b5050509392505050565b60006131ac6131a784614a72565b6149e9565b9050808382526020820190508260005b858110156131ec57813585016131d28882613618565b8452602084019350602083019250506001810190506131bc565b5050509392505050565b600061320961320484614a9e565b6149e9565b9050808382526020820190508260005b85811015613249578135850161322f8882613690565b845260208401935060208301925050600181019050613219565b5050509392505050565b600061326661326184614aca565b6149e9565b9050808382526020820190508285604086028201111561328557600080fd5b60005b858110156132b5578161329b8882613734565b845260208401935060408301925050600181019050613288565b5050509392505050565b60006132d26132cd84614af6565b6149e9565b9050808382526020820190508260005b8581101561331257813585016132f88882613780565b8452602084019350602083019250506001810190506132e2565b5050509392505050565b600061332f61332a84614b22565b6149e9565b90508281526020810184848401111561334757600080fd5b613352848285615011565b509392505050565b600061336d61336884614b52565b6149e9565b90508281526020810184848401111561338557600080fd5b613390848285615011565b509392505050565b6000813590506133a781615262565b92915050565b600082601f8301126133be57600080fd5b81356133ce8482602086016130d0565b91505092915050565b600082601f8301126133e857600080fd5b81356133f884826020860161313c565b91505092915050565b600082601f83011261341257600080fd5b8135613422848260208601613199565b91505092915050565b600082601f83011261343c57600080fd5b813561344c8482602086016131f6565b91505092915050565b600082601f83011261346657600080fd5b8135613476848260208601613253565b91505092915050565b600082601f83011261349057600080fd5b81356134a08482602086016132bf565b91505092915050565b6000813590506134b881615279565b92915050565b6000813590506134cd81615290565b92915050565b600082601f8301126134e457600080fd5b81356134f484826020860161331c565b91505092915050565b60008135905061350c816152a7565b92915050565b600082601f83011261352357600080fd5b813561353384826020860161335a565b91505092915050565b60006040828403121561354e57600080fd5b61355860406149e9565b9050600061356884828501613810565b600083015250602061357c84828501613810565b60208301525092915050565b60006060828403121561359a57600080fd5b6135a460606149e9565b905060006135b484828501613398565b600083015250602082013567ffffffffffffffff8111156135d457600080fd5b6135e084828501613455565b602083015250604082013567ffffffffffffffff81111561360057600080fd5b61360c848285016134d3565b60408301525092915050565b60006060828403121561362a57600080fd5b61363460606149e9565b9050600061364484828501613398565b600083015250602061365884828501613398565b602083015250604082013567ffffffffffffffff81111561367857600080fd5b613684848285016133ad565b60408301525092915050565b6000608082840312156136a257600080fd5b6136ac60806149e9565b905060006136bc84828501613398565b60008301525060206136d084828501613810565b602083015250604082013567ffffffffffffffff8111156136f057600080fd5b6136fc84828501613455565b604083015250606082013567ffffffffffffffff81111561371c57600080fd5b613728848285016134d3565b60608301525092915050565b60006040828403121561374657600080fd5b61375060406149e9565b9050600061376084828501613810565b6000830152506020613774848285016134fd565b60208301525092915050565b60006060828403121561379257600080fd5b61379c60606149e9565b905060006137ac84828501613398565b600083015250602082013567ffffffffffffffff8111156137cc57600080fd5b6137d8848285016133ad565b602083015250604082013567ffffffffffffffff8111156137f857600080fd5b613804848285016134d3565b60408301525092915050565b60008135905061381f816152be565b92915050565b60006020828403121561383757600080fd5b600061384584828501613398565b91505092915050565b6000806040838503121561386157600080fd5b600061386f85828601613398565b925050602061388085828601613398565b9150509250929050565b60008060006060848603121561389f57600080fd5b60006138ad86828701613398565b93505060206138be86828701613398565b92505060406138cf86828701613810565b9150509250925092565b600080604083850312156138ec57600080fd5b60006138fa85828601613398565b925050602061390b85828601613810565b9150509250929050565b6000806000806080858703121561392b57600080fd5b600085013567ffffffffffffffff81111561394557600080fd5b6139518782880161347f565b945050602085013567ffffffffffffffff81111561396e57600080fd5b61397a878288016133d7565b935050604085013567ffffffffffffffff81111561399757600080fd5b6139a38782880161342b565b925050606085013567ffffffffffffffff8111156139c057600080fd5b6139cc87828801613401565b91505092959194509250565b6000602082840312156139ea57600080fd5b600082013567ffffffffffffffff811115613a0457600080fd5b613a10848285016134d3565b91505092915050565b60008060408385031215613a2c57600080fd5b600083013567ffffffffffffffff811115613a4657600080fd5b613a5285828601613512565b9250506020613a6385828601613398565b9150509250929050565b60008060408385031215613a8057600080fd5b600083013567ffffffffffffffff811115613a9a57600080fd5b613aa685828601613512565b9250506020613ab7858286016134a9565b9150509250929050565b60008060408385031215613ad457600080fd5b600083013567ffffffffffffffff811115613aee57600080fd5b613afa85828601613512565b9250506020613b0b858286016134be565b9150509250929050565b60008060408385031215613b2857600080fd5b600083013567ffffffffffffffff811115613b4257600080fd5b613b4e85828601613512565b925050602083013567ffffffffffffffff811115613b6b57600080fd5b613b77858286016134d3565b9150509250929050565b60008060408385031215613b9457600080fd5b600083013567ffffffffffffffff811115613bae57600080fd5b613bba85828601613512565b9250506020613bcb858286016134fd565b9150509250929050565b60008060408385031215613be857600080fd5b600083013567ffffffffffffffff811115613c0257600080fd5b613c0e85828601613512565b9250506020613c1f85828601613810565b9150509250929050565b600060208284031215613c3b57600080fd5b600082013567ffffffffffffffff811115613c5557600080fd5b613c6184828501613588565b91505092915050565b600060208284031215613c7c57600080fd5b600082013567ffffffffffffffff811115613c9657600080fd5b613ca284828501613618565b91505092915050565b600060208284031215613cbd57600080fd5b600082013567ffffffffffffffff811115613cd757600080fd5b613ce384828501613690565b91505092915050565b600060208284031215613cfe57600080fd5b600082013567ffffffffffffffff811115613d1857600080fd5b613d2484828501613780565b91505092915050565b600060208284031215613d3f57600080fd5b6000613d4d84828501613810565b91505092915050565b6000613d628383614332565b60408301905092915050565b6000613d7a8383614361565b905092915050565b6000613d8e8383614484565b60408301905092915050565b6000613da683836144b3565b60408301905092915050565b6000613dbe83836144e2565b60408301905092915050565b613dd381614f83565b82525050565b613de281614f83565b82525050565b613df9613df482614f83565b6150ce565b82525050565b6000613e0a82614bd2565b613e148185614c60565b9350613e1f83614b82565b8060005b83811015613e50578151613e378882613d56565b9750613e4283614c1f565b925050600181019050613e23565b5085935050505092915050565b6000613e6882614bdd565b613e728185614c71565b935083602082028501613e8485614b92565b8060005b85811015613ec05784840389528151613ea18582613d6e565b9450613eac83614c2c565b925060208a01995050600181019050613e88565b50829750879550505050505092915050565b6000613edd82614be8565b613ee78185614c82565b9350613ef283614ba2565b8060005b83811015613f23578151613f0a8882613d82565b9750613f1583614c39565b925050600181019050613ef6565b5085935050505092915050565b6000613f3b82614bf3565b613f458185614c93565b9350613f5083614bb2565b8060005b83811015613f81578151613f688882613d9a565b9750613f7383614c46565b925050600181019050613f54565b5085935050505092915050565b6000613f9982614bf3565b613fa38185614ca4565b9350613fae83614bb2565b8060005b83811015613fdf578151613fc68882613d9a565b9750613fd183614c46565b925050600181019050613fb2565b5085935050505092915050565b6000613ff782614bfe565b6140018185614cb5565b935061400c83614bc2565b8060005b8381101561403d5781516140248882613db2565b975061402f83614c53565b925050600181019050614010565b5085935050505092915050565b61405381614f95565b82525050565b61406281614f95565b82525050565b61407181614fa1565b82525050565b61408081614fa1565b82525050565b61409761409282614fa1565b6150e0565b82525050565b60006140a882614c09565b6140b28185614cc6565b93506140c2818560208601615020565b6140cb81615230565b840191505092915050565b60006140e182614c09565b6140eb8185614cd7565b93506140fb818560208601615020565b61410481615230565b840191505092915050565b600061411a82614c09565b6141248185614ce8565b9350614134818560208601615020565b80840191505092915050565b61414981614fff565b82525050565b61415881614fbe565b82525050565b61416781614fbe565b82525050565b600061417882614c14565b6141828185614cf3565b9350614192818560208601615020565b61419b81615230565b840191505092915050565b60006141b3601883614cf3565b91507f45434453413a20696e76616c6964207369676e617475726500000000000000006000830152602082019050919050565b60006141f3601f83614cf3565b91507f45434453413a20696e76616c6964207369676e6174757265206c656e677468006000830152602082019050919050565b6000614233601c83614d04565b91507f19457468657265756d205369676e6564204d6573736167653a0a3332000000006000830152601c82019050919050565b6000614273602283614cf3565b91507f45434453413a20696e76616c6964207369676e6174757265202773272076616c60008301527f75650000000000000000000000000000000000000000000000000000000000006020830152604082019050919050565b60006142d9602283614cf3565b91507f45434453413a20696e76616c6964207369676e6174757265202776272076616c60008301527f75650000000000000000000000000000000000000000000000000000000000006020830152604082019050919050565b604082016000820151614348600085018261453b565b50602082015161435b602085018261453b565b50505050565b6000606083016000830151614379600086018261453b565b50602083015184820360208601526143918282613f30565b91505060408301516143a6604086018261453b565b508091505092915050565b60006101008301600083015184820360008601526143cf828261409d565b91505060208301516143e46020860182614409565b50604083015184820360e08601526143fc8282613ed2565b9150508091505092915050565b60c08201600082015161441f600085018261453b565b506020820151614432602085018261453b565b506040820151614445604085018261453b565b506060820151614458606085018261404a565b50608082015161446b608085018261453b565b5060a082015161447e60a0850182614068565b50505050565b60408201600082015161449a600085018261453b565b5060208201516144ad602085018261414f565b50505050565b6040820160008201516144c9600085018261453b565b5060208201516144dc6020850182613dca565b50505050565b6040820160008201516144f8600085018261453b565b50602082015161450b602085018261414f565b50505050565b6000602083016000830151848203600086015261452e8282613e5d565b9150508091505092915050565b61454481614fe8565b82525050565b61455381614fe8565b82525050565b61456281614ff2565b82525050565b60006145748285613de8565b6014820191506145848284613de8565b6014820191508190509392505050565b60006145a0828461410f565b915081905092915050565b60006145b682614226565b91506145c28284614086565b60208201915081905092915050565b600060408201905081810360008301526145eb8185613f8e565b90506145fa602083018461454a565b9392505050565b60006020820190506146166000830184614059565b92915050565b60006080820190506146316000830187614077565b61463e6020830186614559565b61464b6040830185614077565b6146586060830184614077565b95945050505050565b6000602082019050818103600083015261467b81846140d6565b905092915050565b6000608082019050818103600083015261469d81876140d6565b90506146ac602083018661454a565b6146b9604083018561454a565b81810360608301526146cb8184613fec565b905095945050505050565b600060a0820190506146eb6000830188614140565b81810360208301526146fd81876140d6565b905061470c604083018661454a565b614719606083018561454a565b818103608083015261472b8184613dff565b90509695505050505050565b600060408201905061474c6000830185614140565b6147596020830184614140565b9392505050565b6000602082019050818103600083015261477a818461416d565b905092915050565b6000604082019050818103600083015261479c818561416d565b90506147ab6020830184613dd9565b9392505050565b600060408201905081810360008301526147cc818561416d565b90506147db6020830184614059565b9392505050565b600060408201905081810360008301526147fc818561416d565b905061480b6020830184614077565b9392505050565b6000604082019050818103600083015261482c818561416d565b9050818103602083015261484081846140d6565b90509392505050565b60006040820190508181036000830152614863818561416d565b9050614872602083018461415e565b9392505050565b60006040820190508181036000830152614893818561416d565b90506148a2602083018461454a565b9392505050565b600060208201905081810360008301526148c2816141a6565b9050919050565b600060208201905081810360008301526148e2816141e6565b9050919050565b6000602082019050818103600083015261490281614266565b9050919050565b60006020820190508181036000830152614922816142cc565b9050919050565b6000602082019050818103600083015261494381846143b1565b905092915050565b600060208201905081810360008301526149658184614511565b905092915050565b6000602082019050614982600083018461454a565b92915050565b600060c08201905061499d600083018961454a565b6149aa602083018861454a565b6149b7604083018761454a565b6149c46060830186614059565b6149d1608083018561454a565b6149de60a0830184614077565b979650505050505050565b6000604051905081810181811067ffffffffffffffff82111715614a1057614a0f615201565b5b8060405250919050565b600067ffffffffffffffff821115614a3557614a34615201565b5b602082029050602081019050919050565b600067ffffffffffffffff821115614a6157614a60615201565b5b602082029050602081019050919050565b600067ffffffffffffffff821115614a8d57614a8c615201565b5b602082029050602081019050919050565b600067ffffffffffffffff821115614ab957614ab8615201565b5b602082029050602081019050919050565b600067ffffffffffffffff821115614ae557614ae4615201565b5b602082029050602081019050919050565b600067ffffffffffffffff821115614b1157614b10615201565b5b602082029050602081019050919050565b600067ffffffffffffffff821115614b3d57614b3c615201565b5b601f19601f8301169050602081019050919050565b600067ffffffffffffffff821115614b6d57614b6c615201565b5b601f19601f8301169050602081019050919050565b6000819050602082019050919050565b6000819050602082019050919050565b6000819050602082019050919050565b6000819050602082019050919050565b6000819050602082019050919050565b600081519050919050565b600081519050919050565b600081519050919050565b600081519050919050565b600081519050919050565b600081519050919050565b600081519050919050565b6000602082019050919050565b6000602082019050919050565b6000602082019050919050565b6000602082019050919050565b6000602082019050919050565b600082825260208201905092915050565b600082825260208201905092915050565b600082825260208201905092915050565b600082825260208201905092915050565b600082825260208201905092915050565b600082825260208201905092915050565b600082825260208201905092915050565b600082825260208201905092915050565b600081905092915050565b600082825260208201905092915050565b600081905092915050565b6000614d1a82614fbe565b9150614d2583614fbe565b9250817f7fffffffffffffffffffffffffffffffffffffffffffffffffffffffffffffff03831360008312151615614d6057614d5f615145565b5b817f8000000000000000000000000000000000000000000000000000000000000000038312600083121615614d9857614d97615145565b5b828201905092915050565b6000614dae82614fe8565b9150614db983614fe8565b9250827fffffffffffffffffffffffffffffffffffffffffffffffffffffffffffffffff03821115614dee57614ded615145565b5b828201905092915050565b6000614e0482614ff2565b9150614e0f83614ff2565b92508260ff03821115614e2557614e24615145565b5b828201905092915050565b6000614e3b82614fe8565b9150614e4683614fe8565b925082614e5657614e55615174565b5b828204905092915050565b6000614e6c82614fe8565b9150614e7783614fe8565b9250817fffffffffffffffffffffffffffffffffffffffffffffffffffffffffffffffff0483118215151615614eb057614eaf615145565b5b828202905092915050565b6000614ec682614fbe565b9150614ed183614fbe565b9250827f800000000000000000000000000000000000000000000000000000000000000001821260008412151615614f0c57614f0b615145565b5b827f7fffffffffffffffffffffffffffffffffffffffffffffffffffffffffffffff018213600084121615614f4457614f43615145565b5b828203905092915050565b6000614f5a82614fe8565b9150614f6583614fe8565b925082821015614f7857614f77615145565b5b828203905092915050565b6000614f8e82614fc8565b9050919050565b60008115159050919050565b6000819050919050565b6000819050614fb98261524e565b919050565b6000819050919050565b600073ffffffffffffffffffffffffffffffffffffffff82169050919050565b6000819050919050565b600060ff82169050919050565b600061500a82614fab565b9050919050565b82818337600083830152505050565b60005b8381101561503e578082015181840152602081019050615023565b8381111561504d576000848401525b50505050565b6000600282049050600182168061506b57607f821691505b6020821081141561507f5761507e6151d2565b5b50919050565b600061509082614fe8565b91507fffffffffffffffffffffffffffffffffffffffffffffffffffffffffffffffff8214156150c3576150c2615145565b5b600182019050919050565b60006150d9826150ea565b9050919050565b6000819050919050565b60006150f582615241565b9050919050565b600061510782614fbe565b91507f800000000000000000000000000000000000000000000000000000000000000082141561513a57615139615145565b5b816000039050919050565b7f4e487b7100000000000000000000000000000000000000000000000000000000600052601160045260246000fd5b7f4e487b7100000000000000000000000000000000000000000000000000000000600052601260045260246000fd5b7f4e487b7100000000000000000000000000000000000000000000000000000000600052602160045260246000fd5b7f4e487b7100000000000000000000000000000000000000000000000000000000600052602260045260246000fd5b7f4e487b7100000000000000000000000000000000000000000000000000000000600052604160045260246000fd5b6000601f19601f8301169050919050565b60008160601b9050919050565b6004811061525f5761525e6151a3565b5b50565b61526b81614f83565b811461527657600080fd5b50565b61528281614f95565b811461528d57600080fd5b50565b61529981614fa1565b81146152a457600080fd5b50565b6152b081614fbe565b81146152bb57600080fd5b50565b6152c781614fe8565b81146152d257600080fd5b5056fea2646970667358221220c232d49d19c40acf2468f2772bc01ff8ee4519b1a8dacadebc7c216b25fbc54864736f6c63430008000033",
  "immutableReferences": {},
  "source": "// SPDX-License-Identifier: MIT\npragma solidity 0.8.0;\npragma experimental ABIEncoderV2;\n\nimport \"./ConvertLib.sol\";\nimport \"./ECDSA.sol\";\nimport \"./console.sol\";\n\n\ncontract XLN is Console {\n\n  enum MessageType {\n    None,\n    WithdrawProof,\n    CooperativeProof,\n    DisputeProof\n  }\n\n  // Deposit structs\n  struct DepositToChannelParams {\n    address receiver;\n    address partner;\n    AssetAmountPair[] pairs;\n  }\n\n  struct AssetAmountPair {\n    uint asset_id;\n    uint amount;\n  }\n\n  // Withdraw structs\n  struct WithdrawProof {\n    address partner;\n    AssetAmountPair[] pairs;\n    // unlike deposits, withdrawals require an approval by counterparty\n    bytes sig; \n  }\n\n  // CooperativeProof structs\n  struct CooperativeProof{\n    address partner;\n    Entry[] entries;\n    bytes sig; \n  }\n\n  // DisputeProof structs\n  struct Lock {\n    uint amount;\n    uint until_block;\n    bytes32 hash;\n  }\n  // (uint, int)\n  struct Entry {\n    uint asset_id;\n    int offdelta;\n    //Lock[] left_locks;\n    //Lock[] right_locks;\n  }\n\n  struct DisputeProof {\n    address partner;\n\n    uint dispute_nonce;\n\n    Entry[] entries;\n\n    bytes sig; \n  }\n\n\n  // Internal structs\n  struct Asset{\n    string name;\n  }\n\n\n  struct Debt{\n    uint amount;\n    address pay_to;\n  }\n  \n  //Collateral_balance\n  struct Collateral {\n    uint collateral;\n    int ondelta;\n  }\n\n  struct Channel{\n     // stored indefinitely, incremented every time a channel is closed (dispute or cooperative) \n     // to invalidate all previously created proofs\n    uint channel_counter;\n\n    // used for withdrawals and cooperative close\n    uint cooperative_nonce;\n\n    // used for dispute (non-cooperative) close \n    uint dispute_nonce;\n\n    bool dispute_by_left;\n    uint dispute_until_block;\n    bytes32 hash_outcome_proposed;\n\n  }\n\n  // hub fees_paid\n\n  // mappings are stored outside of structs because solidity functions cannot return \n  //structs that contain mappings\n\n\n\n\n  // [address user][asset_id]\n  mapping (address => mapping (uint => uint)) reserves;\n  mapping (address => mapping (uint => uint)) debtIndex;\n  mapping (address => mapping (uint => Debt[])) debts;\n\n  // [bytes ch_key][asset_id]\n  mapping (bytes => Channel) public channels;\n  mapping (bytes => mapping(uint => Collateral)) collaterals;    \n \n  \n\n  Asset[] public assets;\n  \n\n  constructor() {\n    assets.push(Asset({\n      name: \"WETH\"\n    }));\n\n    assets.push(Asset({\n      name: \"DAI\"\n    }));\n \n    reserves[msg.sender][0] = 100000000;\n    reserves[msg.sender][1] = 100000000;\n    reserves[msg.sender][2] = 100000000;\n  }\n\n\n  function depositToChannel(DepositToChannelParams memory params) public returns (bool) {\n    bool receiver_is_left = params.receiver < params.partner;\n    bytes memory ch_key = channelKey(params.receiver, params.partner);\n\n    log('enum type', abi.encode(MessageType.WithdrawProof,MessageType.DisputeProof));\n    logChannel(params.receiver, params.partner);\n\n    for (uint i = 0; i < params.pairs.length; i++) {\n      uint asset_id = params.pairs[i].asset_id;\n      uint amount = params.pairs[i].amount;\n\n      if (reserves[msg.sender][asset_id] >= amount) {\n\n        Collateral storage col = collaterals[ch_key][asset_id];\n\n        reserves[msg.sender][asset_id] -= amount;\n        \n        col.collateral += amount;\n\n        if (receiver_is_left) {\n          col.ondelta += int(amount);\n          log('new ondelta', col.ondelta);\n        }\n\n        log(\"Deposited to channel \", amount);\n      } else {\n        log(\"not enough funds\", msg.sender);\n        return false;\n      }\n    }\n\n    logChannel(params.receiver, params.partner);\n\n    return true;\n  }\n\n  // we need to provide counterparty address to compile encoded message\n  //even though we get signer address returned by ecrecover\n\n  function withdrawFromChannel(WithdrawProof memory params) public  returns (bool) {\n    bool sender_is_left = msg.sender < params.partner;\n\n    logChannel(msg.sender, params.partner);\n\n    bytes memory ch_key = channelKey(msg.sender, params.partner);\n\n\n    bytes memory encoded_msg = abi.encode(MessageType.WithdrawProof,ch_key,  channels[ch_key].channel_counter, channels[ch_key].cooperative_nonce, params.pairs);\n\n\n    bytes32 hash = ECDSA.toEthSignedMessageHash(keccak256(encoded_msg));\n\n    log('encoded msg', encoded_msg);\n    \n    // ensure actual signer is provided counterparty address\n\n    address signer = ECDSA.recover(hash, params.sig);\n    log('signer', signer);\n\n    if(params.partner != signer) {\n      log(\"proposed signer \", params.partner);\n      log(\"Invalid signer\", signer);\n      return false;\n    }\n\n    channels[ch_key].cooperative_nonce++;\n\n\n    for (uint i = 0; i < params.pairs.length; i++) {\n      uint asset_id = params.pairs[i].asset_id;\n      uint amount = params.pairs[i].amount;\n\n      Collateral storage col = collaterals[ch_key][asset_id];\n\n      if (col.collateral >= amount) {\n        col.collateral -= amount;\n        if (sender_is_left) {\n          col.ondelta -= int(amount);\n        }\n\n        reserves[msg.sender][asset_id] += amount;\n\n        log(ConvertLib.uint2str(asset_id), amount);\n      }\n    }\n\n    logChannel(msg.sender, params.partner);\n\n    return true;\n    \n  }\n\n\n\n  function cooperativeClose(CooperativeProof memory params) public returns (bool) {\n    bytes memory ch_key = channelKey(msg.sender, params.partner);\n\n    bytes memory encoded_msg = abi.encode(ch_key, channels[ch_key].channel_counter, channels[ch_key].cooperative_nonce, params.entries);\n\n\n    bytes32 hash = ECDSA.toEthSignedMessageHash(keccak256(encoded_msg));\n\n    log('encoded msg',encoded_msg);\n    /*\n    log('encoded msg hash',keccak256(encoded_msg));\n    log('eth hash',hash);*/\n\n    // ensure actual signer is provided counterparty address\n\n    address signer = ECDSA.recover(hash, params.sig); \n    log('signer', signer);\n\n    address l_user = msg.sender < params.partner ? msg.sender : params.partner;\n    address r_user = msg.sender < params.partner ? params.partner : msg.sender;  \n\n    logChannel(msg.sender, params.partner);\n\n    // iterate over entries and split the assets\n    for (uint i = 0;i<params.entries.length;i++){\n      uint asset_id = params.entries[i].asset_id;\n      Collateral storage col = collaterals[ch_key][asset_id];\n\n      // final delta = offdelta + ondelta + unlocked hashlocks\n      int delta = params.entries[i].offdelta + col.ondelta;\n\n      log(\"delta\", delta);\n      log(\"offdelta\", params.entries[i].offdelta);\n      \n      if (delta >= 0 && delta <= int(col.collateral)) {\n        // Collateral is split (standard no-credit LN resolution)\n        uint left_gets = uint(delta);\n        reserves[l_user][asset_id] += left_gets;\n        reserves[r_user][asset_id] += col.collateral - left_gets;\n\n\n      } else {\n        // one user gets entire collateral, another gets debt (resolution enabled by XLN)\n        address getsCollateral = delta < 0 ? r_user : l_user;\n        address getsDebt = delta < 0 ? l_user : r_user;\n        uint debtAmount = delta < 0 ? uint(-delta) : uint(delta) - col.collateral;\n\n        log('gets collateral', getsCollateral);\n        log('gets debt', getsDebt);\n        log('debt', debtAmount);\n\n        reserves[getsCollateral][asset_id] += col.collateral;\n        if (reserves[getsDebt][asset_id] >= debtAmount) {\n          // will pay right away without creating Debt\n          reserves[getsCollateral][asset_id] += debtAmount;\n          reserves[getsDebt][asset_id] -= debtAmount;\n        } else {\n          // pay what they can, and create Debt\n          if (reserves[getsDebt][asset_id] > 0) {\n            reserves[getsCollateral][asset_id] += reserves[getsDebt][asset_id];\n            debtAmount -= reserves[getsDebt][asset_id];\n            reserves[getsDebt][asset_id] = 0;\n          }\n          debts[getsDebt][asset_id].push(Debt({\n            pay_to: getsCollateral,\n            amount: debtAmount\n          }));\n        }\n      }\n\n      delete collaterals[ch_key][asset_id];\n    }\n    delete channels[ch_key];\n   \n    logChannel(msg.sender, params.partner);\n\n    return true;\n\n  }\n\n\n  function disputeClose(DisputeProof memory params) public returns (bool) {\n\n     return true;\n  }\n\n\n\n\n\n\n\n\n\n\n  function createDebt(address fromUser, address toUser, uint amount) public {\n    debts[fromUser][0].push(Debt({\n      pay_to: toUser,\n      amount: amount\n    }));\n    \n  }\n  \n  function getDebts(address fromUser) public view returns (Debt[] memory allDebts, uint memoryIndex) {\n    memoryIndex = debtIndex[fromUser][0];\n    allDebts = debts[fromUser][0];\n  }\n\n  function payDebts(address fromUser, uint top_up) public returns (uint totalDebts) {\n    uint debtsLength = debts[fromUser][0].length;\n    if (debtsLength == 0) {\n      return 0;\n    }\n   \n    uint reserve = reserves[fromUser][0] + top_up; \n    uint memoryIndex = debtIndex[fromUser][0];\n    \n    if (reserve == 0){\n      return debtsLength - memoryIndex;\n    }\n    \n    while (true) {\n      Debt storage debt = debts[fromUser][0][memoryIndex];\n      \n      // can pay in full\n      if (reserve >= debt.amount) {\n        // transferToReserve\n        reserve -= debt.amount;\n        reserves[debt.pay_to][0] += debt.amount;\n\n        delete debts[fromUser][0][memoryIndex];\n\n        // last debt paid? the user is debt free\n        if (memoryIndex+1 == debtsLength) {\n          memoryIndex = 0;\n          // sets back internal .length to 0\n          delete debts[fromUser][0]; \n          debtsLength = 0;\n          break;\n        }\n        memoryIndex++;\n        \n      } else {\n        reserves[debt.pay_to][0] += reserve;\n        debt.amount -= reserve;\n        reserve = 0;\n        break;\n      }\n    }\n\n    reserves[fromUser][0] = reserve;\n    debtIndex[fromUser][0] = memoryIndex;\n    \n    return debtsLength - memoryIndex;\n  }\n\n\n\n\n\n\n\n\n\n  // this is expected to be the most called function \n  // hubs use it to rebalance from big senders to big receivers\n  function batchRebalance(\n    WithdrawProof[] memory withdrawProofs, \n    CooperativeProof[] memory cooperativeProofs,\n    DisputeProof[] memory disputeProofs,\n    DepositToChannelParams[] memory depositArray\n  ) public returns (bool) {\n\n    bool completeSuccess = true; \n\n\n    // withdrawals are processed first to pull funds from channels to standalone\n    for (uint i = 0; i < withdrawProofs.length; i++) {\n      if(!(withdrawFromChannel(withdrawProofs[i]))){\n        completeSuccess = false;\n      }\n    }\n\n    for (uint i = 0; i < cooperativeProofs.length; i++) {\n      if(!(cooperativeClose(cooperativeProofs[i]))){\n        completeSuccess = false;\n      }\n    }\n\n    for (uint i = 0; i < disputeProofs.length; i++) {\n      if(!(disputeClose(disputeProofs[i]))){\n        completeSuccess = false;\n      }\n    }\n\n\n    for (uint i = 0; i < depositArray.length; i++) {\n      if(!(depositToChannel(depositArray[i]))){\n        completeSuccess = false;\n      }\n    }\n\n    return completeSuccess;\n  }\n\n\n\n  // read only\n\n  function logChannel(address a1, address a2) public {\n    bytes memory ch_key = channelKey(a1, a2);\n    log(\">>>Logging channel\", ch_key);\n\n    log(\"cooperative_nonce\", channels[ch_key].cooperative_nonce);\n    log(\"dispute_nonce\", channels[ch_key].dispute_nonce);\n    for (uint i = 0; i < assets.length; i++) {\n      log(\"Asset\", i);\n      log(\"L balance\", reserves[a1][i]);\n      log(\"R balance\", reserves[a2][i]);\n\n      log(\"collateral\", collaterals[ch_key][i].collateral);\n      log(\"ondelta\", collaterals[ch_key][i].ondelta);\n\n    }\n\n\n  }\n  \n  function channelKey(address a1, address a2) public pure returns (bytes memory) {\n    //determenistic channel key is 40 bytes: concatenated lowerKey + higherKey\n    return a1 < a2 ? abi.encodePacked(a1, a2) : abi.encodePacked(a2, a1);\n  }\n  \n  struct AssetReserveDebts {\n    uint reserve;\n    Debt[] debts;\n    uint debtIndex;\n  }\n  \n  struct User {\n    AssetReserveDebts[] assets;\n  }\n\n  function getUser(address addr) external view returns (User memory) {\n    User memory u = User({\n      assets: new AssetReserveDebts[](assets.length)\n    });\n    \n    for (uint i = 0;i<assets.length;i++){\n      u.assets[i]=(AssetReserveDebts({\n        reserve: reserves[addr][i],\n        debtIndex: debtIndex[addr][i],\n        debts: debts[addr][i]\n      }));\n    }\n    \n    return u;\n  }\n  \n  struct ChannelReturn{\n    bytes channelKey;\n    Channel channel;\n    Collateral[] collaterals;\n  }\n\n  function getChannel(address  a1, address  a2) public view returns (ChannelReturn memory ch) {\n    bytes memory ch_key = channelKey(a1, a2);\n    ch = ChannelReturn({\n      channelKey: ch_key,\n      channel: channels[ch_key],\n      collaterals: new Collateral[](assets.length)\n    });\n    \n\n    for (uint i = 0;i<assets.length;i++){\n      ch.collaterals[i]=collaterals[ch_key][i];\n    }\n    \n    return ch;\n  }\n  \n    \n    \n    \n  \n    \n}",
  "sourcePath": "/Users/homakov/work/AAAxln/contracts/XLN.sol",
  "compiler": {
    "name": "solc",
    "version": "0.8.0+commit.c7dfd78e.Emscripten.clang"
  },
  "schemaVersion": "3.3.3",
  "updatedAt": "2021-03-16T01:54:54.213Z",
  "devdoc": {
    "kind": "dev",
    "methods": {},
    "version": 1
  },
  "userdoc": {
    "kind": "user",
    "methods": {},
    "version": 1
  }
}