{
  "contractName": "XLN",
  "abi": [
    {
      "inputs": [],
      "stateMutability": "nonpayable",
      "type": "constructor"
    },
    {
      "anonymous": false,
      "inputs": [
        {
          "indexed": false,
          "internalType": "string",
          "name": "",
          "type": "string"
        },
        {
          "indexed": false,
          "internalType": "address",
          "name": "",
          "type": "address"
        }
      ],
      "name": "LogAddress",
      "type": "event"
    },
    {
      "anonymous": false,
      "inputs": [
        {
          "indexed": false,
          "internalType": "string",
          "name": "",
          "type": "string"
        },
        {
          "indexed": false,
          "internalType": "bool",
          "name": "",
          "type": "bool"
        }
      ],
      "name": "LogBool",
      "type": "event"
    },
    {
      "anonymous": false,
      "inputs": [
        {
          "indexed": false,
          "internalType": "string",
          "name": "",
          "type": "string"
        },
        {
          "indexed": false,
          "internalType": "bytes",
          "name": "",
          "type": "bytes"
        }
      ],
      "name": "LogBytes",
      "type": "event"
    },
    {
      "anonymous": false,
      "inputs": [
        {
          "indexed": false,
          "internalType": "string",
          "name": "",
          "type": "string"
        },
        {
          "indexed": false,
          "internalType": "bytes32",
          "name": "",
          "type": "bytes32"
        }
      ],
      "name": "LogBytes32",
      "type": "event"
    },
    {
      "anonymous": false,
      "inputs": [
        {
          "indexed": false,
          "internalType": "string",
          "name": "",
          "type": "string"
        },
        {
          "indexed": false,
          "internalType": "int256",
          "name": "",
          "type": "int256"
        }
      ],
      "name": "LogInt",
      "type": "event"
    },
    {
      "anonymous": false,
      "inputs": [
        {
          "indexed": false,
          "internalType": "string",
          "name": "",
          "type": "string"
        },
        {
          "indexed": false,
          "internalType": "uint256",
          "name": "",
          "type": "uint256"
        }
      ],
      "name": "LogUint",
      "type": "event"
    },
    {
      "inputs": [
        {
          "internalType": "uint256",
          "name": "",
          "type": "uint256"
        }
      ],
      "name": "assets",
      "outputs": [
        {
          "internalType": "string",
          "name": "name",
          "type": "string"
        },
        {
          "internalType": "address",
          "name": "erc20address",
          "type": "address"
        }
      ],
      "stateMutability": "view",
      "type": "function"
    },
    {
      "inputs": [
        {
          "internalType": "bytes",
          "name": "",
          "type": "bytes"
        }
      ],
      "name": "channels",
      "outputs": [
        {
          "internalType": "uint256",
          "name": "channel_counter",
          "type": "uint256"
        },
        {
          "internalType": "uint256",
          "name": "cooperative_nonce",
          "type": "uint256"
        },
        {
          "internalType": "uint256",
          "name": "dispute_nonce",
          "type": "uint256"
        },
        {
          "internalType": "bool",
          "name": "dispute_by_left",
          "type": "bool"
        },
        {
          "internalType": "uint256",
          "name": "dispute_until_block",
          "type": "uint256"
        },
        {
          "internalType": "bytes32",
          "name": "entries_hash",
          "type": "bytes32"
        }
      ],
      "stateMutability": "view",
      "type": "function"
    },
    {
      "inputs": [
        {
          "internalType": "uint256",
          "name": "",
          "type": "uint256"
        }
      ],
      "name": "hubs",
      "outputs": [
        {
          "internalType": "address",
          "name": "addr",
          "type": "address"
        },
        {
          "internalType": "string",
          "name": "uri",
          "type": "string"
        }
      ],
      "stateMutability": "view",
      "type": "function"
    },
    {
      "inputs": [
        {
          "internalType": "string",
          "name": "s",
          "type": "string"
        },
        {
          "internalType": "bytes",
          "name": "x",
          "type": "bytes"
        }
      ],
      "name": "log",
      "outputs": [],
      "stateMutability": "nonpayable",
      "type": "function"
    },
    {
      "inputs": [
        {
          "internalType": "string",
          "name": "s",
          "type": "string"
        },
        {
          "internalType": "address",
          "name": "x",
          "type": "address"
        }
      ],
      "name": "log",
      "outputs": [],
      "stateMutability": "nonpayable",
      "type": "function"
    },
    {
      "inputs": [
        {
          "internalType": "string",
          "name": "s",
          "type": "string"
        },
        {
          "internalType": "bytes32",
          "name": "x",
          "type": "bytes32"
        }
      ],
      "name": "log",
      "outputs": [],
      "stateMutability": "nonpayable",
      "type": "function"
    },
    {
      "inputs": [
        {
          "internalType": "string",
          "name": "s",
          "type": "string"
        },
        {
          "internalType": "int256",
          "name": "x",
          "type": "int256"
        }
      ],
      "name": "log",
      "outputs": [],
      "stateMutability": "nonpayable",
      "type": "function"
    },
    {
      "inputs": [
        {
          "internalType": "string",
          "name": "s",
          "type": "string"
        },
        {
          "internalType": "uint256",
          "name": "x",
          "type": "uint256"
        }
      ],
      "name": "log",
      "outputs": [],
      "stateMutability": "nonpayable",
      "type": "function"
    },
    {
      "inputs": [
        {
          "internalType": "string",
          "name": "s",
          "type": "string"
        },
        {
          "internalType": "bool",
          "name": "x",
          "type": "bool"
        }
      ],
      "name": "log",
      "outputs": [],
      "stateMutability": "nonpayable",
      "type": "function"
    },
    {
      "inputs": [
        {
          "components": [
            {
              "internalType": "string",
              "name": "name",
              "type": "string"
            },
            {
              "internalType": "address",
              "name": "erc20address",
              "type": "address"
            }
          ],
          "internalType": "struct XLN.Asset",
          "name": "assetToRegister",
          "type": "tuple"
        }
      ],
      "name": "registerAsset",
      "outputs": [],
      "stateMutability": "nonpayable",
      "type": "function"
    },
    {
      "inputs": [
        {
          "internalType": "uint16",
          "name": "hub_id",
          "type": "uint16"
        },
        {
          "internalType": "string",
          "name": "new_uri",
          "type": "string"
        },
        {
          "internalType": "uint16[]",
          "name": "new_connections",
          "type": "uint16[]"
        }
      ],
      "name": "registerOrUpdateHub",
      "outputs": [
        {
          "internalType": "uint16",
          "name": "",
          "type": "uint16"
        }
      ],
      "stateMutability": "nonpayable",
      "type": "function"
    },
    {
      "inputs": [
        {
          "components": [
            {
              "internalType": "address",
              "name": "receiver",
              "type": "address"
            },
            {
              "internalType": "address",
              "name": "partner",
              "type": "address"
            },
            {
              "components": [
                {
                  "internalType": "uint256",
                  "name": "asset_id",
                  "type": "uint256"
                },
                {
                  "internalType": "uint256",
                  "name": "amount",
                  "type": "uint256"
                }
              ],
              "internalType": "struct XLN.AssetAmountPair[]",
              "name": "pairs",
              "type": "tuple[]"
            }
          ],
          "internalType": "struct XLN.DepositToChannelParams",
          "name": "params",
          "type": "tuple"
        }
      ],
      "name": "depositToChannel",
      "outputs": [
        {
          "internalType": "bool",
          "name": "completeSuccess",
          "type": "bool"
        }
      ],
      "stateMutability": "nonpayable",
      "type": "function"
    },
    {
      "inputs": [
        {
          "components": [
            {
              "internalType": "address",
              "name": "partner",
              "type": "address"
            },
            {
              "components": [
                {
                  "internalType": "uint256",
                  "name": "asset_id",
                  "type": "uint256"
                },
                {
                  "internalType": "uint256",
                  "name": "amount",
                  "type": "uint256"
                }
              ],
              "internalType": "struct XLN.AssetAmountPair[]",
              "name": "pairs",
              "type": "tuple[]"
            },
            {
              "internalType": "bytes",
              "name": "sig",
              "type": "bytes"
            }
          ],
          "internalType": "struct XLN.WithdrawProof",
          "name": "params",
          "type": "tuple"
        }
      ],
      "name": "withdrawFromChannel",
      "outputs": [
        {
          "internalType": "bool",
          "name": "",
          "type": "bool"
        }
      ],
      "stateMutability": "nonpayable",
      "type": "function"
    },
    {
      "inputs": [
        {
          "components": [
            {
              "internalType": "address",
              "name": "partner",
              "type": "address"
            },
            {
              "components": [
                {
                  "internalType": "uint256",
                  "name": "asset_id",
                  "type": "uint256"
                },
                {
                  "internalType": "int256",
                  "name": "offdelta",
                  "type": "int256"
                }
              ],
              "internalType": "struct XLN.Entry[]",
              "name": "entries",
              "type": "tuple[]"
            },
            {
              "internalType": "bytes",
              "name": "sig",
              "type": "bytes"
            }
          ],
          "internalType": "struct XLN.CooperativeProof",
          "name": "params",
          "type": "tuple"
        }
      ],
      "name": "cooperativeClose",
      "outputs": [
        {
          "internalType": "bool",
          "name": "",
          "type": "bool"
        }
      ],
      "stateMutability": "nonpayable",
      "type": "function"
    },
    {
      "inputs": [
        {
          "components": [
            {
              "internalType": "address",
              "name": "partner",
              "type": "address"
            },
            {
              "internalType": "uint256",
              "name": "dispute_nonce",
              "type": "uint256"
            },
            {
              "internalType": "bytes32",
              "name": "entries_hash",
              "type": "bytes32"
            },
            {
              "components": [
                {
                  "internalType": "uint256",
                  "name": "asset_id",
                  "type": "uint256"
                },
                {
                  "internalType": "int256",
                  "name": "offdelta",
                  "type": "int256"
                }
              ],
              "internalType": "struct XLN.Entry[]",
              "name": "entries",
              "type": "tuple[]"
            },
            {
              "internalType": "bytes",
              "name": "sig",
              "type": "bytes"
            }
          ],
          "internalType": "struct XLN.DisputeProof",
          "name": "params",
          "type": "tuple"
        }
      ],
      "name": "submitDisputeProof",
      "outputs": [
        {
          "internalType": "bool",
          "name": "",
          "type": "bool"
        }
      ],
      "stateMutability": "nonpayable",
      "type": "function"
    },
    {
      "inputs": [
        {
          "components": [
            {
              "internalType": "address",
              "name": "partner",
              "type": "address"
            },
            {
              "components": [
                {
                  "internalType": "uint256",
                  "name": "asset_id",
                  "type": "uint256"
                },
                {
                  "internalType": "int256",
                  "name": "offdelta",
                  "type": "int256"
                }
              ],
              "internalType": "struct XLN.Entry[]",
              "name": "entries",
              "type": "tuple[]"
            }
          ],
          "internalType": "struct XLN.AcceptDisputeParams",
          "name": "params",
          "type": "tuple"
        }
      ],
      "name": "acceptDispute",
      "outputs": [
        {
          "internalType": "bool",
          "name": "success",
          "type": "bool"
        }
      ],
      "stateMutability": "nonpayable",
      "type": "function"
    },
    {
      "inputs": [
        {
          "internalType": "address",
          "name": "addr",
          "type": "address"
        },
        {
          "internalType": "uint256",
          "name": "asset_id",
          "type": "uint256"
        }
      ],
      "name": "getDebts",
      "outputs": [
        {
          "components": [
            {
              "internalType": "uint256",
              "name": "amount",
              "type": "uint256"
            },
            {
              "internalType": "address",
              "name": "pay_to",
              "type": "address"
            }
          ],
          "internalType": "struct XLN.Debt[]",
          "name": "allDebts",
          "type": "tuple[]"
        },
        {
          "internalType": "uint256",
          "name": "currentDebtIndex",
          "type": "uint256"
        }
      ],
      "stateMutability": "view",
      "type": "function"
    },
    {
      "inputs": [
        {
          "internalType": "address",
          "name": "addr",
          "type": "address"
        },
        {
          "internalType": "uint256",
          "name": "asset_id",
          "type": "uint256"
        }
      ],
      "name": "enforceDebts",
      "outputs": [
        {
          "internalType": "uint256",
          "name": "totalDebts",
          "type": "uint256"
        }
      ],
      "stateMutability": "nonpayable",
      "type": "function"
    },
    {
      "inputs": [
        {
          "components": [
            {
              "components": [
                {
                  "internalType": "address",
                  "name": "partner",
                  "type": "address"
                },
                {
                  "components": [
                    {
                      "internalType": "uint256",
                      "name": "asset_id",
                      "type": "uint256"
                    },
                    {
                      "internalType": "uint256",
                      "name": "amount",
                      "type": "uint256"
                    }
                  ],
                  "internalType": "struct XLN.AssetAmountPair[]",
                  "name": "pairs",
                  "type": "tuple[]"
                },
                {
                  "internalType": "bytes",
                  "name": "sig",
                  "type": "bytes"
                }
              ],
              "internalType": "struct XLN.WithdrawProof[]",
              "name": "withdrawProofs",
              "type": "tuple[]"
            },
            {
              "components": [
                {
                  "internalType": "address",
                  "name": "partner",
                  "type": "address"
                },
                {
                  "components": [
                    {
                      "internalType": "uint256",
                      "name": "asset_id",
                      "type": "uint256"
                    },
                    {
                      "internalType": "int256",
                      "name": "offdelta",
                      "type": "int256"
                    }
                  ],
                  "internalType": "struct XLN.Entry[]",
                  "name": "entries",
                  "type": "tuple[]"
                },
                {
                  "internalType": "bytes",
                  "name": "sig",
                  "type": "bytes"
                }
              ],
              "internalType": "struct XLN.CooperativeProof[]",
              "name": "cooperativeProofs",
              "type": "tuple[]"
            },
            {
              "components": [
                {
                  "internalType": "address",
                  "name": "partner",
                  "type": "address"
                },
                {
                  "internalType": "uint256",
                  "name": "dispute_nonce",
                  "type": "uint256"
                },
                {
                  "internalType": "bytes32",
                  "name": "entries_hash",
                  "type": "bytes32"
                },
                {
                  "components": [
                    {
                      "internalType": "uint256",
                      "name": "asset_id",
                      "type": "uint256"
                    },
                    {
                      "internalType": "int256",
                      "name": "offdelta",
                      "type": "int256"
                    }
                  ],
                  "internalType": "struct XLN.Entry[]",
                  "name": "entries",
                  "type": "tuple[]"
                },
                {
                  "internalType": "bytes",
                  "name": "sig",
                  "type": "bytes"
                }
              ],
              "internalType": "struct XLN.DisputeProof[]",
              "name": "disputeProofs",
              "type": "tuple[]"
            },
            {
              "components": [
                {
                  "internalType": "address",
                  "name": "partner",
                  "type": "address"
                },
                {
                  "components": [
                    {
                      "internalType": "uint256",
                      "name": "asset_id",
                      "type": "uint256"
                    },
                    {
                      "internalType": "int256",
                      "name": "offdelta",
                      "type": "int256"
                    }
                  ],
                  "internalType": "struct XLN.Entry[]",
                  "name": "entries",
                  "type": "tuple[]"
                }
              ],
              "internalType": "struct XLN.AcceptDisputeParams[]",
              "name": "acceptDisputes",
              "type": "tuple[]"
            },
            {
              "components": [
                {
                  "internalType": "address",
                  "name": "receiver",
                  "type": "address"
                },
                {
                  "internalType": "address",
                  "name": "partner",
                  "type": "address"
                },
                {
                  "components": [
                    {
                      "internalType": "uint256",
                      "name": "asset_id",
                      "type": "uint256"
                    },
                    {
                      "internalType": "uint256",
                      "name": "amount",
                      "type": "uint256"
                    }
                  ],
                  "internalType": "struct XLN.AssetAmountPair[]",
                  "name": "pairs",
                  "type": "tuple[]"
                }
              ],
              "internalType": "struct XLN.DepositToChannelParams[]",
              "name": "depositArray",
              "type": "tuple[]"
            }
          ],
          "internalType": "struct XLN.Batch",
          "name": "b",
          "type": "tuple"
        }
      ],
      "name": "batch",
      "outputs": [
        {
          "internalType": "bool",
          "name": "completeSuccess",
          "type": "bool"
        }
      ],
      "stateMutability": "nonpayable",
      "type": "function"
    },
    {
      "inputs": [
        {
          "internalType": "address",
          "name": "a1",
          "type": "address"
        },
        {
          "internalType": "address",
          "name": "a2",
          "type": "address"
        }
      ],
      "name": "logChannel",
      "outputs": [],
      "stateMutability": "nonpayable",
      "type": "function"
    },
    {
      "inputs": [
        {
          "internalType": "address",
          "name": "a1",
          "type": "address"
        },
        {
          "internalType": "address",
          "name": "a2",
          "type": "address"
        }
      ],
      "name": "channelKey",
      "outputs": [
        {
          "internalType": "bytes",
          "name": "",
          "type": "bytes"
        }
      ],
      "stateMutability": "pure",
      "type": "function"
    },
    {
      "inputs": [
        {
          "internalType": "address",
          "name": "addr",
          "type": "address"
        }
      ],
      "name": "getUser",
      "outputs": [
        {
          "components": [
            {
              "components": [
                {
                  "internalType": "uint256",
                  "name": "reserve",
                  "type": "uint256"
                },
                {
                  "components": [
                    {
                      "internalType": "uint256",
                      "name": "amount",
                      "type": "uint256"
                    },
                    {
                      "internalType": "address",
                      "name": "pay_to",
                      "type": "address"
                    }
                  ],
                  "internalType": "struct XLN.Debt[]",
                  "name": "debts",
                  "type": "tuple[]"
                },
                {
                  "internalType": "uint256",
                  "name": "debtIndex",
                  "type": "uint256"
                }
              ],
              "internalType": "struct XLN.AssetReserveDebts[]",
              "name": "assets",
              "type": "tuple[]"
            }
          ],
          "internalType": "struct XLN.UserReturn",
          "name": "",
          "type": "tuple"
        }
      ],
      "stateMutability": "view",
      "type": "function"
    },
    {
      "inputs": [
        {
          "internalType": "address",
          "name": "a1",
          "type": "address"
        },
        {
          "internalType": "address",
          "name": "a2",
          "type": "address"
        }
      ],
      "name": "getChannel",
      "outputs": [
        {
          "components": [
            {
              "internalType": "bytes",
              "name": "channelKey",
              "type": "bytes"
            },
            {
              "components": [
                {
                  "internalType": "uint256",
                  "name": "channel_counter",
                  "type": "uint256"
                },
                {
                  "internalType": "uint256",
                  "name": "cooperative_nonce",
                  "type": "uint256"
                },
                {
                  "internalType": "uint256",
                  "name": "dispute_nonce",
                  "type": "uint256"
                },
                {
                  "internalType": "bool",
                  "name": "dispute_by_left",
                  "type": "bool"
                },
                {
                  "internalType": "uint256",
                  "name": "dispute_until_block",
                  "type": "uint256"
                },
                {
                  "internalType": "bytes32",
                  "name": "entries_hash",
                  "type": "bytes32"
                }
              ],
              "internalType": "struct XLN.Channel",
              "name": "channel",
              "type": "tuple"
            },
            {
              "components": [
                {
                  "internalType": "uint256",
                  "name": "collateral",
                  "type": "uint256"
                },
                {
                  "internalType": "int256",
                  "name": "ondelta",
                  "type": "int256"
                }
              ],
              "internalType": "struct XLN.Collateral[]",
              "name": "collaterals",
              "type": "tuple[]"
            }
          ],
          "internalType": "struct XLN.ChannelReturn",
          "name": "ch",
          "type": "tuple"
        }
      ],
      "stateMutability": "view",
      "type": "function"
    }
  ],
  "bytecode": "0x60806040523480156200001157600080fd5b50600560405180604001604052806040518060400160405280600481526020017f574554480000000000000000000000000000000000000000000000000000000081525081526020013373ffffffffffffffffffffffffffffffffffffffff1681525090806001815401808255809150506001900390600052602060002090600202016000909190919091506000820151816000019080519060200190620000bb9291906200010b565b5060208201518160010160006101000a81548173ffffffffffffffffffffffffffffffffffffffff021916908373ffffffffffffffffffffffffffffffffffffffff160217905550505062000220565b8280546200011990620001bb565b90600052602060002090601f0160209004810192826200013d576000855562000189565b82601f106200015857805160ff191683800117855562000189565b8280016001018555821562000189579182015b82811115620001885782518255916020019190600101906200016b565b5b5090506200019891906200019c565b5090565b5b80821115620001b75760008160009055506001016200019d565b5090565b60006002820490506001821680620001d457607f821691505b60208210811415620001eb57620001ea620001f1565b5b50919050565b7f4e487b7100000000000000000000000000000000000000000000000000000000600052602260045260246000fd5b615db980620002306000396000f3fe608060405234801561001057600080fd5b506004361061014d5760003560e01c8063a1a96a13116100c3578063ca9dfdc61161007c578063ca9dfdc6146103fb578063cf35bdd014610417578063d3d90b6814610448578063d7f6d87414610478578063e4b70e5a146104a9578063f2e714a6146104da5761014d565b8063a1a96a1314610312578063aee26d3f14610347578063b60e72cc14610377578063bf52638c14610393578063bf6b5b88146103af578063c3b55635146103df5761014d565b80633692d61a116101155780633692d61a1461021a5780633c4deb11146102365780633ca6268e146102665780633e2b8403146102825780634109eedf146102b25780636f77926b146102e25761014d565b80631a9b20d51461015257806323cdd8e814610182578063319af3331461019e5780633243aff2146101ba57806333d07273146101ea575b600080fd5b61016c6004803603810190610167919061414c565b61050a565b6040516101799190614e2d565b60405180910390f35b61019c60048036038101906101979190614038565b6106cf565b005b6101b860048036038101906101b39190613f3c565b61070c565b005b6101d460048036038101906101cf91906142d2565b610749565b6040516101e19190614e2d565b60405180910390f35b61020460048036038101906101ff91906141ce565b610ae2565b6040516102119190614e2d565b60405180910390f35b610234600480360381019061022f9190613fe4565b610e1c565b005b610250600480360381019061024b9190613e83565b610e59565b60405161025d9190614e8d565b60405180910390f35b610280600480360381019061027b91906140a4565b610ee0565b005b61029c60048036038101906102979190614313565b610f1d565b6040516102a99190615256565b60405180910390f35b6102cc60048036038101906102c79190613ebf565b6111d3565b6040516102d99190615271565b60405180910390f35b6102fc60048036038101906102f79190613e5a565b611723565b6040516103099190615234565b60405180910390f35b61032c60048036038101906103279190613efb565b6119f0565b60405161033e9695949392919061528c565b60405180910390f35b610361600480360381019061035c9190613e83565b611a4f565b60405161036e9190615212565b60405180910390f35b610391600480360381019061038c91906140f8565b611c36565b005b6103ad60048036038101906103a89190613e83565b611c73565b005b6103c960048036038101906103c4919061420f565b611c77565b6040516103d69190614e2d565b60405180910390f35b6103f960048036038101906103f49190613f90565b611e8d565b005b6104156004803603810190610410919061418d565b611eca565b005b610431600480360381019061042c9190614392565b611f5f565b60405161043f929190614fcb565b60405180910390f35b610462600480360381019061045d9190614250565b61203b565b60405161046f9190614e2d565b60405180910390f35b610492600480360381019061048d9190613ebf565b61233b565b6040516104a0929190614ddb565b60405180910390f35b6104c360048036038101906104be9190614392565b6124a1565b6040516104d1929190614dab565b60405180910390f35b6104f460048036038101906104ef9190614291565b61257d565b6040516105019190614e2d565b60405180910390f35b60008061051b338460000151610e59565b90506000836000015173ffffffffffffffffffffffffffffffffffffffff163373ffffffffffffffffffffffffffffffffffffffff161090508015156003836040516105679190614d6e565b908152602001604051809103902060030160009054906101000a900460ff1615151480156105b557506003826040516105a09190614d6e565b90815260200160405180910390206004015443105b156105c5576000925050506106ca565b83602001516040516020016105da9190614e0b565b604051602081830303815290604052805190602001206003836040516106009190614d6e565b90815260200160405180910390206005015414610622576000925050506106ca565b6000846000015173ffffffffffffffffffffffffffffffffffffffff163373ffffffffffffffffffffffffffffffffffffffff1610610665578460000151610667565b335b90506000856000015173ffffffffffffffffffffffffffffffffffffffff163373ffffffffffffffffffffffffffffffffffffffff16106106a857336106ae565b85600001515b90506106c08483838960200151612a70565b5060019450505050505b919050565b7fe8407a0209fa99ec3a7228aff140c3d3e68bd279391739c7e0b65cd406cc93b5828260405161070092919061505b565b60405180910390a15050565b7f62ddffe5b5108385f7a590f100e1ee414ad9551a31f089e64e82998440785e1e828260405161073d929190614fcb565b60405180910390a15050565b600080826000015173ffffffffffffffffffffffffffffffffffffffff163373ffffffffffffffffffffffffffffffffffffffff161090506000610791338560000151610e59565b9050600080826003846040516107a79190614d6e565b9081526020016040518091039020600001546003856040516107c99190614d6e565b90815260200160405180910390206001015488602001516040516020016107f4959493929190614eaf565b6040516020818303038152906040529050600061081782805190602001206132e3565b90506108586040518060400160405280600b81526020017f456e636f646564206d7367000000000000000000000000000000000000000000815250836106cf565b610866818760400151613313565b73ffffffffffffffffffffffffffffffffffffffff16866000015173ffffffffffffffffffffffffffffffffffffffff16146108ec576108df6040518060400160405280600f81526020017f496e76616c6964207369676e6572200000000000000000000000000000000000815250876000015161070c565b6000945050505050610add565b6003836040516108fc9190614d6e565b9081526020016040518091039020600101600081548092919061091e90615b4b565b919050555060005b866020015151811015610ac557600087602001518281518110610972577f4e487b7100000000000000000000000000000000000000000000000000000000600052603260045260246000fd5b60200260200101516000015190506000886020015183815181106109bf577f4e487b7100000000000000000000000000000000000000000000000000000000600052603260045260246000fd5b602002602001015160200151905060006004876040516109df9190614d6e565b90815260200160405180910390206000848152602001908152602001600020905081816000015410610aaf5781816000016000828254610a1f91906159a8565b925050819055508715610a485781816001016000828254610a4091906158e0565b925050819055505b816000803373ffffffffffffffffffffffffffffffffffffffff1673ffffffffffffffffffffffffffffffffffffffff16815260200190815260200160002060008581526020019081526020016000206000828254610aa7919061588a565b925050819055505b5050508080610abd90615b4b565b915050610926565b50610ad4338760000151611c73565b60019450505050505b919050565b60006001905060005b828060000190610afb9190615449565b9050811015610b8a57610b6e838060000190610b179190615449565b83818110610b4e577f4e487b7100000000000000000000000000000000000000000000000000000000600052603260045260246000fd5b9050602002810190610b609190615530565b610b6990615ac4565b610749565b610b7757600091505b8080610b8290615b4b565b915050610aeb565b5060005b828060200190610b9e9190615344565b9050811015610c2d57610c11838060200190610bba9190615344565b83818110610bf1577f4e487b7100000000000000000000000000000000000000000000000000000000600052603260045260246000fd5b9050602002810190610c0391906154c4565b610c0c90615a8b565b611c77565b610c1a57600091505b8080610c2590615b4b565b915050610b8e565b5060005b828060400190610c4191906153f2565b9050811015610cd057610cb4838060400190610c5d91906153f2565b83818110610c94577f4e487b7100000000000000000000000000000000000000000000000000000000600052603260045260246000fd5b9050602002810190610ca6919061550c565b610caf90615ab1565b61257d565b610cbd57600091505b8080610cc890615b4b565b915050610c31565b5060005b828060600190610ce491906152ed565b9050811015610d7357610d57838060600190610d0091906152ed565b83818110610d37577f4e487b7100000000000000000000000000000000000000000000000000000000600052603260045260246000fd5b9050602002810190610d4991906154a0565b610d5290615a78565b61050a565b610d6057600091505b8080610d6b90615b4b565b915050610cd4565b5060005b828060800190610d87919061539b565b9050811015610e1657610dfa838060800190610da3919061539b565b83818110610dda577f4e487b7100000000000000000000000000000000000000000000000000000000600052603260045260246000fd5b9050602002810190610dec91906154e8565b610df590615a9e565b61203b565b610e0357600091505b8080610e0e90615b4b565b915050610d77565b50919050565b7f02d93529bba9d141e5e06733c52c7e6fbcb1149586adb5c24064b522ab26f1d78282604051610e4d92919061502b565b60405180910390a15050565b60608173ffffffffffffffffffffffffffffffffffffffff168373ffffffffffffffffffffffffffffffffffffffff1610610eb5578183604051602001610ea1929190614d42565b604051602081830303815290604052610ed8565b8282604051602001610ec8929190614d42565b6040516020818303038152906040525b905092915050565b7f6a837ff3973aa4181e7b9f07756f8b7ee366dd85a36655d2cb42cd47f10b96388282604051610f11929190615092565b60405180910390a15050565b6000808461ffff16141561102357600660405180606001604052803373ffffffffffffffffffffffffffffffffffffffff16815260200185815260200184815250908060018154018082558091505060019003906000526020600020906003020160009091909190915060008201518160000160006101000a81548173ffffffffffffffffffffffffffffffffffffffff021916908373ffffffffffffffffffffffffffffffffffffffff1602179055506020820151816001019080519060200190610fea929190613518565b50604082015181600201908051906020019061100792919061359e565b505050600160068054905061101c9190615974565b90506111cc565b60068461ffff1681548110611061577f4e487b7100000000000000000000000000000000000000000000000000000000600052603260045260246000fd5b906000526020600020906003020160000160009054906101000a900473ffffffffffffffffffffffffffffffffffffffff1673ffffffffffffffffffffffffffffffffffffffff163373ffffffffffffffffffffffffffffffffffffffff1614611100576040517f08c379a00000000000000000000000000000000000000000000000000000000081526004016110f7906151d2565b60405180910390fd5b8260068561ffff168154811061113f577f4e487b7100000000000000000000000000000000000000000000000000000000600052603260045260246000fd5b90600052602060002090600302016001019080519060200190611163929190613518565b508160068561ffff16815481106111a3577f4e487b7100000000000000000000000000000000000000000000000000000000600052603260045260246000fd5b906000526020600020906003020160020190805190602001906111c792919061359e565b508390505b9392505050565b600080600260008573ffffffffffffffffffffffffffffffffffffffff1673ffffffffffffffffffffffffffffffffffffffff1681526020019081526020016000206000848152602001908152602001600020805490509050600081141561123f57600091505061171d565b60008060008673ffffffffffffffffffffffffffffffffffffffff1673ffffffffffffffffffffffffffffffffffffffff16815260200190815260200160002060008581526020019081526020016000205490506000600160008773ffffffffffffffffffffffffffffffffffffffff1673ffffffffffffffffffffffffffffffffffffffff168152602001908152602001600020600086815260200190815260200160002054905060008214156113075780836112fd91906159a8565b935050505061171d565b5b600115611662576000600260008873ffffffffffffffffffffffffffffffffffffffff1673ffffffffffffffffffffffffffffffffffffffff16815260200190815260200160002060008781526020019081526020016000208281548110611399577f4e487b7100000000000000000000000000000000000000000000000000000000600052603260045260246000fd5b90600052602060002090600202019050806000015483106115ad578060000154836113c491906159a8565b925080600001546000808360010160009054906101000a900473ffffffffffffffffffffffffffffffffffffffff1673ffffffffffffffffffffffffffffffffffffffff1673ffffffffffffffffffffffffffffffffffffffff1681526020019081526020016000206000888152602001908152602001600020600082825461144d919061588a565b92505081905550600260008873ffffffffffffffffffffffffffffffffffffffff1673ffffffffffffffffffffffffffffffffffffffff168152602001908152602001600020600087815260200190815260200160002082815481106114dc577f4e487b7100000000000000000000000000000000000000000000000000000000600052603260045260246000fd5b90600052602060002090600202016000808201600090556001820160006101000a81549073ffffffffffffffffffffffffffffffffffffffff021916905550508360018361152a919061588a565b141561159a5760009150600260008873ffffffffffffffffffffffffffffffffffffffff1673ffffffffffffffffffffffffffffffffffffffff168152602001908152602001600020600087815260200190815260200160002060006115909190613648565b6000935050611662565b81806115a590615b4b565b92505061165c565b826000808360010160009054906101000a900473ffffffffffffffffffffffffffffffffffffffff1673ffffffffffffffffffffffffffffffffffffffff1673ffffffffffffffffffffffffffffffffffffffff16815260200190815260200160002060008881526020019081526020016000206000828254611630919061588a565b925050819055508281600001600082825461164b91906159a8565b925050819055506000925050611662565b50611308565b816000808873ffffffffffffffffffffffffffffffffffffffff1673ffffffffffffffffffffffffffffffffffffffff16815260200190815260200160002060008781526020019081526020016000208190555080600160008873ffffffffffffffffffffffffffffffffffffffff1673ffffffffffffffffffffffffffffffffffffffff168152602001908152602001600020600087815260200190815260200160002081905550808361171791906159a8565b93505050505b92915050565b61172b61366c565b6000604051806020016040528060058054905067ffffffffffffffff81111561177d577f4e487b7100000000000000000000000000000000000000000000000000000000600052604160045260246000fd5b6040519080825280602002602001820160405280156117b657816020015b6117a361367f565b81526020019060019003908161179b5790505b50815250905060005b6005805490508110156119e65760405180606001604052806000808773ffffffffffffffffffffffffffffffffffffffff1673ffffffffffffffffffffffffffffffffffffffff1681526020019081526020016000206000848152602001908152602001600020548152602001600260008773ffffffffffffffffffffffffffffffffffffffff1673ffffffffffffffffffffffffffffffffffffffff1681526020019081526020016000206000848152602001908152602001600020805480602002602001604051908101604052809291908181526020016000905b8282101561192e5783829060005260206000209060020201604051806040016040529081600082015481526020016001820160009054906101000a900473ffffffffffffffffffffffffffffffffffffffff1673ffffffffffffffffffffffffffffffffffffffff1673ffffffffffffffffffffffffffffffffffffffff16815250508152602001906001019061189c565b505050508152602001600160008773ffffffffffffffffffffffffffffffffffffffff1673ffffffffffffffffffffffffffffffffffffffff168152602001908152602001600020600084815260200190815260200160002054815250826000015182815181106119c8577f4e487b7100000000000000000000000000000000000000000000000000000000600052603260045260246000fd5b602002602001018190525080806119de90615b4b565b9150506117bf565b5080915050919050565b6003818051602081018201805184825260208301602085012081835280955050505050506000915090508060000154908060010154908060020154908060030160009054906101000a900460ff16908060040154908060050154905086565b611a576136a0565b6000611a638484610e59565b90506040518060600160405280828152602001600383604051611a869190614d6e565b90815260200160405180910390206040518060c00160405290816000820154815260200160018201548152602001600282015481526020016003820160009054906101000a900460ff1615151515815260200160048201548152602001600582015481525050815260200160058054905067ffffffffffffffff811115611b36577f4e487b7100000000000000000000000000000000000000000000000000000000600052604160045260246000fd5b604051908082528060200260200182016040528015611b6f57816020015b611b5c6136c7565b815260200190600190039081611b545790505b50815250915060005b600580549050811015611c2e57600482604051611b959190614d6e565b908152602001604051809103902060008281526020019081526020016000206040518060400160405290816000820154815260200160018201548152505083604001518281518110611c10577f4e487b7100000000000000000000000000000000000000000000000000000000600052603260045260246000fd5b60200260200101819052508080611c2690615b4b565b915050611b78565b505092915050565b7f941296a39ea107bde685522318a4b6c2b544904a5dd82a512748ca2cf839bef78282604051611c679291906150c2565b60405180910390a15050565b5050565b600080611c88338460000151610e59565b90506000600182600384604051611c9f9190614d6e565b908152602001604051809103902060000154600385604051611cc19190614d6e565b9081526020016040518091039020600101548760200151604051602001611cec959493929190614f10565b60405160208183030381529060405290506000611d0f82805190602001206132e3565b9050611d506040518060400160405280600b81526020017f456e636f646564206d7367000000000000000000000000000000000000000000815250836106cf565b611d5e818660400151613313565b73ffffffffffffffffffffffffffffffffffffffff16856000015173ffffffffffffffffffffffffffffffffffffffff1614611de357611dd76040518060400160405280600f81526020017f496e76616c6964207369676e6572200000000000000000000000000000000000815250866000015161070c565b60009350505050611e88565b6000856000015173ffffffffffffffffffffffffffffffffffffffff163373ffffffffffffffffffffffffffffffffffffffff1610611e26578560000151611e28565b335b90506000866000015173ffffffffffffffffffffffffffffffffffffffff163373ffffffffffffffffffffffffffffffffffffffff1610611e695733611e6f565b86600001515b9050611e818583838a60200151612a70565b5050505050505b919050565b7f4c34c2f9a78632f29fa59aaed5514cb742fd9fbcfd7ccc2c03c85f2bbc621c478282604051611ebe929190614ffb565b60405180910390a15050565b60058190806001815401808255809150506001900390600052602060002090600202016000909190919091506000820151816000019080519060200190611f12929190613518565b5060208201518160010160006101000a81548173ffffffffffffffffffffffffffffffffffffffff021916908373ffffffffffffffffffffffffffffffffffffffff160217905550505050565b60058181548110611f6f57600080fd5b9060005260206000209060020201600091509050806000018054611f9290615b19565b80601f0160208091040260200160405190810160405280929190818152602001828054611fbe90615b19565b801561200b5780601f10611fe05761010080835404028352916020019161200b565b820191906000526020600020905b815481529060010190602001808311611fee57829003601f168201915b5050505050908060010160009054906101000a900473ffffffffffffffffffffffffffffffffffffffff16905082565b600080826020015173ffffffffffffffffffffffffffffffffffffffff16836000015173ffffffffffffffffffffffffffffffffffffffff16109050600061208b84600001518560200151610e59565b905061209f84600001518560200151611c73565b60005b84604001515181101561231c576000856040015182815181106120ee577f4e487b7100000000000000000000000000000000000000000000000000000000600052603260045260246000fd5b602002602001015160000151905060008660400151838151811061213b577f4e487b7100000000000000000000000000000000000000000000000000000000600052603260045260246000fd5b6020026020010151602001519050806000803373ffffffffffffffffffffffffffffffffffffffff1673ffffffffffffffffffffffffffffffffffffffff168152602001908152602001600020600084815260200190815260200160002054106122ba5760006004856040516121b19190614d6e565b908152602001604051809103902060008481526020019081526020016000209050816000803373ffffffffffffffffffffffffffffffffffffffff1673ffffffffffffffffffffffffffffffffffffffff1681526020019081526020016000206000858152602001908152602001600020600082825461223191906159a8565b925050819055508181600001600082825461224c919061588a565b925050819055508515612275578181600101600082825461226d91906157f6565b925050819055505b6122b46040518060400160405280601581526020017f4465706f736974656420746f206368616e6e656c20000000000000000000000081525083611c36565b50612307565b6122f96040518060400160405280601081526020017f6e6f7420656e6f7567682066756e6473000000000000000000000000000000008152503361070c565b600095505050505050612336565b5050808061231490615b4b565b9150506120a2565b5061232f84600001518560200151611c73565b6001925050505b919050565b60606000600160008573ffffffffffffffffffffffffffffffffffffffff1673ffffffffffffffffffffffffffffffffffffffff1681526020019081526020016000206000848152602001908152602001600020549050600260008573ffffffffffffffffffffffffffffffffffffffff1673ffffffffffffffffffffffffffffffffffffffff1681526020019081526020016000206000848152602001908152602001600020805480602002602001604051908101604052809291908181526020016000905b828210156124945783829060005260206000209060020201604051806040016040529081600082015481526020016001820160009054906101000a900473ffffffffffffffffffffffffffffffffffffffff1673ffffffffffffffffffffffffffffffffffffffff1673ffffffffffffffffffffffffffffffffffffffff168152505081526020019060010190612402565b5050505091509250929050565b600681815481106124b157600080fd5b90600052602060002090600302016000915090508060000160009054906101000a900473ffffffffffffffffffffffffffffffffffffffff16908060010180546124fa90615b19565b80601f016020809104026020016040519081016040528092919081815260200182805461252690615b19565b80156125735780601f1061254857610100808354040283529160200191612573565b820191906000526020600020905b81548152906001019060200180831161255657829003601f168201915b5050505050905082565b60008061258e338460000151610e59565b905060006002826003846040516125a59190614d6e565b908152602001604051809103902060000154866020015187604001516040516020016125d5959493929190614f71565b604051602081830303815290604052905060006125f882805190602001206132e3565b90506126396040518060400160405280600b81526020017f656e636f646564206d7367000000000000000000000000000000000000000000815250836106cf565b846000015173ffffffffffffffffffffffffffffffffffffffff16612662828760800151613313565b73ffffffffffffffffffffffffffffffffffffffff16146126b8576040517f08c379a00000000000000000000000000000000000000000000000000000000081526004016126af906151b2565b60405180910390fd5b60006003846040516126ca9190614d6e565b908152602001604051809103902060040154141561283857846000015173ffffffffffffffffffffffffffffffffffffffff163373ffffffffffffffffffffffffffffffffffffffff16106003846040516127259190614d6e565b908152602001604051809103902060030160006101000a81548160ff02191690831515021790555084602001516003846040516127629190614d6e565b908152602001604051809103902060020181905550846040015160038460405161278c9190614d6e565b9081526020016040518091039020600501819055506014436127ae919061588a565b6003846040516127be9190614d6e565b9081526020016040518091039020600401819055506128336040518060400160405280600981526020017f73657420756e74696c000000000000000000000000000000000000000000000081525060038560405161281c9190614d6e565b908152602001604051809103902060040154611c36565b612a63565b846000015173ffffffffffffffffffffffffffffffffffffffff163373ffffffffffffffffffffffffffffffffffffffff1610151560038460405161287d9190614d6e565b908152602001604051809103902060030160009054906101000a900460ff16151515146128df576040517f08c379a00000000000000000000000000000000000000000000000000000000081526004016128d690615172565b60405180910390fd5b84602001516003846040516128f49190614d6e565b90815260200160405180910390206002015410612946576040517f08c379a000000000000000000000000000000000000000000000000000000000815260040161293d90615152565b60405180910390fd5b846060015160405160200161295b9190614e0b565b604051602081830303815290604052805190602001208560400151146129b6576040517f08c379a00000000000000000000000000000000000000000000000000000000081526004016129ad906151f2565b60405180910390fd5b6000856000015173ffffffffffffffffffffffffffffffffffffffff163373ffffffffffffffffffffffffffffffffffffffff16106129f95785600001516129fb565b335b90506000866000015173ffffffffffffffffffffffffffffffffffffffff163373ffffffffffffffffffffffffffffffffffffffff1610612a3c5733612a42565b86600001515b9050612a548583838a60600151612a70565b50600195505050505050612a6b565b600193505050505b919050565b6000612a7c8484611c73565b60005b82518110156131d0576000838281518110612ac3577f4e487b7100000000000000000000000000000000000000000000000000000000600052603260045260246000fd5b60200260200101516000015190506000600488604051612ae39190614d6e565b90815260200160405180910390206000838152602001908152602001600020905060008160010154868581518110612b44577f4e487b7100000000000000000000000000000000000000000000000000000000600052603260045260246000fd5b602002602001015160200151612b5a91906157f6565b905060008112158015612b71575081600001548111155b15612c5c576000819050806000808b73ffffffffffffffffffffffffffffffffffffffff1673ffffffffffffffffffffffffffffffffffffffff16815260200190815260200160002060008681526020019081526020016000206000828254612bda919061588a565b92505081905550808360000154612bf191906159a8565b6000808a73ffffffffffffffffffffffffffffffffffffffff1673ffffffffffffffffffffffffffffffffffffffff16815260200190815260200160002060008681526020019081526020016000206000828254612c4f919061588a565b9250508190555050613178565b6000808212612c6b5788612c6d565b875b90506000808312612c7e5788612c80565b895b90506000808412612ca057846000015484612c9b91906159a8565b612cab565b83612caa90615bc2565b5b9050612cec6040518060400160405280600981526020017f67657473206465627400000000000000000000000000000000000000000000008152508361070c565b612d2b6040518060400160405280600481526020017f646562740000000000000000000000000000000000000000000000000000000081525082611c36565b84600001546000808573ffffffffffffffffffffffffffffffffffffffff1673ffffffffffffffffffffffffffffffffffffffff16815260200190815260200160002060008881526020019081526020016000206000828254612d8e919061588a565b92505081905550806000808473ffffffffffffffffffffffffffffffffffffffff1673ffffffffffffffffffffffffffffffffffffffff16815260200190815260200160002060008881526020019081526020016000205410612ebc57806000808573ffffffffffffffffffffffffffffffffffffffff1673ffffffffffffffffffffffffffffffffffffffff16815260200190815260200160002060008881526020019081526020016000206000828254612e4a919061588a565b92505081905550806000808473ffffffffffffffffffffffffffffffffffffffff1673ffffffffffffffffffffffffffffffffffffffff16815260200190815260200160002060008881526020019081526020016000206000828254612eb091906159a8565b92505081905550613174565b60008060008473ffffffffffffffffffffffffffffffffffffffff1673ffffffffffffffffffffffffffffffffffffffff168152602001908152602001600020600088815260200190815260200160002054111561307c576000808373ffffffffffffffffffffffffffffffffffffffff1673ffffffffffffffffffffffffffffffffffffffff1681526020019081526020016000206000878152602001908152602001600020546000808573ffffffffffffffffffffffffffffffffffffffff1673ffffffffffffffffffffffffffffffffffffffff16815260200190815260200160002060008881526020019081526020016000206000828254612fc2919061588a565b925050819055506000808373ffffffffffffffffffffffffffffffffffffffff1673ffffffffffffffffffffffffffffffffffffffff1681526020019081526020016000206000878152602001908152602001600020548161302491906159a8565b905060008060008473ffffffffffffffffffffffffffffffffffffffff1673ffffffffffffffffffffffffffffffffffffffff1681526020019081526020016000206000888152602001908152602001600020819055505b600260008373ffffffffffffffffffffffffffffffffffffffff1673ffffffffffffffffffffffffffffffffffffffff168152602001908152602001600020600087815260200190815260200160002060405180604001604052808381526020018573ffffffffffffffffffffffffffffffffffffffff1681525090806001815401808255809150506001900390600052602060002090600202016000909190919091506000820151816000015560208201518160010160006101000a81548173ffffffffffffffffffffffffffffffffffffffff021916908373ffffffffffffffffffffffffffffffffffffffff16021790555050505b5050505b6004896040516131889190614d6e565b908152602001604051809103902060008481526020019081526020016000206000808201600090556001820160009055505050505080806131c890615b4b565b915050612a7f565b506003856040516131e19190614d6e565b9081526020016040518091039020600501600090556003856040516132069190614d6e565b90815260200160405180910390206002016000905560038560405161322b9190614d6e565b9081526020016040518091039020600101600090556003856040516132509190614d6e565b9081526020016040518091039020600401600090556003856040516132759190614d6e565b908152602001604051809103902060030160006101000a81549060ff02191690556003856040516132a69190614d6e565b908152602001604051809103902060000160008154809291906132c890615b4b565b91905055506132d78484611c73565b60019050949350505050565b6000816040516020016132f69190614d85565b604051602081830303815290604052805190602001209050919050565b60006041825114613359576040517f08c379a000000000000000000000000000000000000000000000000000000000815260040161335090615112565b60405180910390fd5b60008060006020850151925060408501519150606085015160001a90506133828682858561338d565b935050505092915050565b60007f7fffffffffffffffffffffffffffffff5d576e7357a4501ddfe92f46681b20a08260001c11156133f5576040517f08c379a00000000000000000000000000000000000000000000000000000000081526004016133ec90615132565b60405180910390fd5b601b8460ff16148061340a5750601c8460ff16145b613449576040517f08c379a000000000000000000000000000000000000000000000000000000000815260040161344090615192565b60405180910390fd5b60006001868686866040516000815260200160405260405161346e9493929190614e48565b6020604051602081039080840390855afa158015613490573d6000803e3d6000fd5b505050602060405103519050600073ffffffffffffffffffffffffffffffffffffffff168173ffffffffffffffffffffffffffffffffffffffff16141561350c576040517f08c379a0000000000000000000000000000000000000000000000000000000008152600401613503906150f2565b60405180910390fd5b80915050949350505050565b82805461352490615b19565b90600052602060002090601f016020900481019282613546576000855561358d565b82601f1061355f57805160ff191683800117855561358d565b8280016001018555821561358d579182015b8281111561358c578251825591602001919060010190613571565b5b50905061359a91906136e1565b5090565b82805482825590600052602060002090600f016010900481019282156136375791602002820160005b8382111561360757835183826101000a81548161ffff021916908361ffff16021790555092602001926002016020816001010492830192600103026135c7565b80156136355782816101000a81549061ffff0219169055600201602081600101049283019260010302613607565b505b50905061364491906136e1565b5090565b508054600082556002029060005260206000209081019061366991906136fe565b50565b6040518060200160405280606081525090565b60405180606001604052806000815260200160608152602001600081525090565b6040518060600160405280606081526020016136ba613744565b8152602001606081525090565b604051806040016040528060008152602001600081525090565b5b808211156136fa5760008160009055506001016136e2565b5090565b5b80821115613740576000808201600090556001820160006101000a81549073ffffffffffffffffffffffffffffffffffffffff0219169055506002016136ff565b5090565b6040518060c0016040528060008152602001600081526020016000815260200160001515815260200160008152602001600080191681525090565b600061379261378d84615585565b615554565b905080838252602082019050828560408602820111156137b157600080fd5b60005b858110156137e157816137c78882613ac9565b8452602084019350604083019250506001810190506137b4565b5050509392505050565b60006137fe6137f9846155b1565b615554565b9050808382526020820190508285604086028201111561381d57600080fd5b60005b8581101561384d57816138338882613d54565b845260208401935060408301925050600181019050613820565b5050509392505050565b600061386a613865846155dd565b615554565b9050808382526020820190508285602086028201111561388957600080fd5b60005b858110156138b9578161389f8882613e30565b84526020840193506020830192505060018101905061388c565b5050509392505050565b60006138d66138d184615609565b615554565b9050828152602081018484840111156138ee57600080fd5b6138f9848285615ad7565b509392505050565b600061391461390f84615639565b615554565b90508281526020810184848401111561392c57600080fd5b613937848285615ad7565b509392505050565b60008135905061394e81615cf9565b92915050565b600082601f83011261396557600080fd5b813561397584826020860161377f565b91505092915050565b600082601f83011261398f57600080fd5b813561399f8482602086016137eb565b91505092915050565b600082601f8301126139b957600080fd5b81356139c9848260208601613857565b91505092915050565b6000813590506139e181615d10565b92915050565b6000813590506139f681615d27565b92915050565b600082601f830112613a0d57600080fd5b8135613a1d8482602086016138c3565b91505092915050565b600081359050613a3581615d3e565b92915050565b600082601f830112613a4c57600080fd5b8135613a5c848260208601613901565b91505092915050565b600060408284031215613a7757600080fd5b613a816040615554565b90506000613a918482850161393f565b600083015250602082013567ffffffffffffffff811115613ab157600080fd5b613abd8482850161397e565b60208301525092915050565b600060408284031215613adb57600080fd5b613ae56040615554565b90506000613af584828501613e45565b6000830152506020613b0984828501613e45565b60208301525092915050565b600060408284031215613b2757600080fd5b613b316040615554565b9050600082013567ffffffffffffffff811115613b4d57600080fd5b613b5984828501613a3b565b6000830152506020613b6d8482850161393f565b60208301525092915050565b600060a08284031215613b8b57600080fd5b81905092915050565b600060608284031215613ba657600080fd5b613bb06060615554565b90506000613bc08482850161393f565b600083015250602082013567ffffffffffffffff811115613be057600080fd5b613bec8482850161397e565b602083015250604082013567ffffffffffffffff811115613c0c57600080fd5b613c18848285016139fc565b60408301525092915050565b600060608284031215613c3657600080fd5b613c406060615554565b90506000613c508482850161393f565b6000830152506020613c648482850161393f565b602083015250604082013567ffffffffffffffff811115613c8457600080fd5b613c9084828501613954565b60408301525092915050565b600060a08284031215613cae57600080fd5b613cb860a0615554565b90506000613cc88482850161393f565b6000830152506020613cdc84828501613e45565b6020830152506040613cf0848285016139e7565b604083015250606082013567ffffffffffffffff811115613d1057600080fd5b613d1c8482850161397e565b606083015250608082013567ffffffffffffffff811115613d3c57600080fd5b613d48848285016139fc565b60808301525092915050565b600060408284031215613d6657600080fd5b613d706040615554565b90506000613d8084828501613e45565b6000830152506020613d9484828501613a26565b60208301525092915050565b600060608284031215613db257600080fd5b613dbc6060615554565b90506000613dcc8482850161393f565b600083015250602082013567ffffffffffffffff811115613dec57600080fd5b613df884828501613954565b602083015250604082013567ffffffffffffffff811115613e1857600080fd5b613e24848285016139fc565b60408301525092915050565b600081359050613e3f81615d55565b92915050565b600081359050613e5481615d6c565b92915050565b600060208284031215613e6c57600080fd5b6000613e7a8482850161393f565b91505092915050565b60008060408385031215613e9657600080fd5b6000613ea48582860161393f565b9250506020613eb58582860161393f565b9150509250929050565b60008060408385031215613ed257600080fd5b6000613ee08582860161393f565b9250506020613ef185828601613e45565b9150509250929050565b600060208284031215613f0d57600080fd5b600082013567ffffffffffffffff811115613f2757600080fd5b613f33848285016139fc565b91505092915050565b60008060408385031215613f4f57600080fd5b600083013567ffffffffffffffff811115613f6957600080fd5b613f7585828601613a3b565b9250506020613f868582860161393f565b9150509250929050565b60008060408385031215613fa357600080fd5b600083013567ffffffffffffffff811115613fbd57600080fd5b613fc985828601613a3b565b9250506020613fda858286016139d2565b9150509250929050565b60008060408385031215613ff757600080fd5b600083013567ffffffffffffffff81111561401157600080fd5b61401d85828601613a3b565b925050602061402e858286016139e7565b9150509250929050565b6000806040838503121561404b57600080fd5b600083013567ffffffffffffffff81111561406557600080fd5b61407185828601613a3b565b925050602083013567ffffffffffffffff81111561408e57600080fd5b61409a858286016139fc565b9150509250929050565b600080604083850312156140b757600080fd5b600083013567ffffffffffffffff8111156140d157600080fd5b6140dd85828601613a3b565b92505060206140ee85828601613a26565b9150509250929050565b6000806040838503121561410b57600080fd5b600083013567ffffffffffffffff81111561412557600080fd5b61413185828601613a3b565b925050602061414285828601613e45565b9150509250929050565b60006020828403121561415e57600080fd5b600082013567ffffffffffffffff81111561417857600080fd5b61418484828501613a65565b91505092915050565b60006020828403121561419f57600080fd5b600082013567ffffffffffffffff8111156141b957600080fd5b6141c584828501613b15565b91505092915050565b6000602082840312156141e057600080fd5b600082013567ffffffffffffffff8111156141fa57600080fd5b61420684828501613b79565b91505092915050565b60006020828403121561422157600080fd5b600082013567ffffffffffffffff81111561423b57600080fd5b61424784828501613b94565b91505092915050565b60006020828403121561426257600080fd5b600082013567ffffffffffffffff81111561427c57600080fd5b61428884828501613c24565b91505092915050565b6000602082840312156142a357600080fd5b600082013567ffffffffffffffff8111156142bd57600080fd5b6142c984828501613c9c565b91505092915050565b6000602082840312156142e457600080fd5b600082013567ffffffffffffffff8111156142fe57600080fd5b61430a84828501613da0565b91505092915050565b60008060006060848603121561432857600080fd5b600061433686828701613e30565b935050602084013567ffffffffffffffff81111561435357600080fd5b61435f86828701613a3b565b925050604084013567ffffffffffffffff81111561437c57600080fd5b614388868287016139a8565b9150509250925092565b6000602082840312156143a457600080fd5b60006143b284828501613e45565b91505092915050565b60006143c78383614afd565b60408301905092915050565b60006143df8383614b2c565b905092915050565b60006143f38383614c4f565b60408301905092915050565b600061440b8383614c7e565b60408301905092915050565b60006144238383614cad565b60408301905092915050565b614438816159dc565b82525050565b614447816159dc565b82525050565b61445e614459826159dc565b615b94565b82525050565b600061446f826156b9565b6144798185615747565b935061448483615669565b8060005b838110156144b557815161449c88826143bb565b97506144a783615706565b925050600181019050614488565b5085935050505092915050565b60006144cd826156c4565b6144d78185615758565b9350836020820285016144e985615679565b8060005b85811015614525578484038952815161450685826143d3565b945061451183615713565b925060208a019950506001810190506144ed565b50829750879550505050505092915050565b6000614542826156cf565b61454c8185615769565b935061455783615689565b8060005b8381101561458857815161456f88826143e7565b975061457a83615720565b92505060018101905061455b565b5085935050505092915050565b60006145a0826156da565b6145aa818561577a565b93506145b583615699565b8060005b838110156145e65781516145cd88826143ff565b97506145d88361572d565b9250506001810190506145b9565b5085935050505092915050565b60006145fe826156da565b614608818561578b565b935061461383615699565b8060005b8381101561464457815161462b88826143ff565b97506146368361572d565b925050600181019050614617565b5085935050505092915050565b600061465c826156e5565b614666818561579c565b9350614671836156a9565b8060005b838110156146a25781516146898882614417565b97506146948361573a565b925050600181019050614675565b5085935050505092915050565b6146b8816159ee565b82525050565b6146c7816159ee565b82525050565b6146d6816159fa565b82525050565b6146e5816159fa565b82525050565b6146fc6146f7826159fa565b615ba6565b82525050565b600061470d826156f0565b61471781856157ad565b9350614727818560208601615ae6565b61473081615cc7565b840191505092915050565b6000614746826156f0565b61475081856157be565b9350614760818560208601615ae6565b61476981615cc7565b840191505092915050565b600061477f826156f0565b61478981856157cf565b9350614799818560208601615ae6565b80840191505092915050565b6147ae81615a66565b82525050565b6147bd81615a17565b82525050565b6147cc81615a17565b82525050565b60006147dd826156fb565b6147e781856157da565b93506147f7818560208601615ae6565b61480081615cc7565b840191505092915050565b60006148186018836157da565b91507f45434453413a20696e76616c6964207369676e617475726500000000000000006000830152602082019050919050565b6000614858601f836157da565b91507f45434453413a20696e76616c6964207369676e6174757265206c656e677468006000830152602082019050919050565b6000614898601c836157eb565b91507f19457468657265756d205369676e6564204d6573736167653a0a3332000000006000830152601c82019050919050565b60006148d86022836157da565b91507f45434453413a20696e76616c6964207369676e6174757265202773272076616c60008301527f75650000000000000000000000000000000000000000000000000000000000006020830152604082019050919050565b600061493e6019836157da565b91507f4e6577206e6f6e6365206d7573742062652067726561746572000000000000006000830152602082019050919050565b600061497e6025836157da565b91507f4f6e6c7920796f757220706172746e65722063616e20636f756e74657220646960008301527f73707574650000000000000000000000000000000000000000000000000000006020830152604082019050919050565b60006149e46022836157da565b91507f45434453413a20696e76616c6964207369676e6174757265202776272076616c60008301527f75650000000000000000000000000000000000000000000000000000000000006020830152604082019050919050565b6000614a4a600e836157da565b91507f496e76616c6964207369676e65720000000000000000000000000000000000006000830152602082019050919050565b6000614a8a6014836157da565b91507f4e6f7420796f75722068756220616464726573730000000000000000000000006000830152602082019050919050565b6000614aca6016836157da565b91507f57726f6e6720656e74726965732070726f7669646564000000000000000000006000830152602082019050919050565b604082016000820151614b136000850182614d15565b506020820151614b266020850182614d15565b50505050565b6000606083016000830151614b446000860182614d15565b5060208301518482036020860152614b5c8282614595565b9150506040830151614b716040860182614d15565b508091505092915050565b6000610100830160008301518482036000860152614b9a8282614702565b9150506020830151614baf6020860182614bd4565b50604083015184820360e0860152614bc78282614537565b9150508091505092915050565b60c082016000820151614bea6000850182614d15565b506020820151614bfd6020850182614d15565b506040820151614c106040850182614d15565b506060820151614c2360608501826146af565b506080820151614c366080850182614d15565b5060a0820151614c4960a08501826146cd565b50505050565b604082016000820151614c656000850182614d15565b506020820151614c7860208501826147b4565b50505050565b604082016000820151614c946000850182614d15565b506020820151614ca7602085018261442f565b50505050565b604082016000820151614cc36000850182614d15565b506020820151614cd660208501826147b4565b50505050565b60006020830160008301518482036000860152614cf982826144c2565b9150508091505092915050565b614d0f81615a21565b82525050565b614d1e81615a4f565b82525050565b614d2d81615a4f565b82525050565b614d3c81615a59565b82525050565b6000614d4e828561444d565b601482019150614d5e828461444d565b6014820191508190509392505050565b6000614d7a8284614774565b915081905092915050565b6000614d908261488b565b9150614d9c82846146eb565b60208201915081905092915050565b6000604082019050614dc0600083018561443e565b8181036020830152614dd281846147d2565b90509392505050565b60006040820190508181036000830152614df581856145f3565b9050614e046020830184614d24565b9392505050565b60006020820190508181036000830152614e258184614651565b905092915050565b6000602082019050614e4260008301846146be565b92915050565b6000608082019050614e5d60008301876146dc565b614e6a6020830186614d33565b614e7760408301856146dc565b614e8460608301846146dc565b95945050505050565b60006020820190508181036000830152614ea7818461473b565b905092915050565b600060a082019050614ec460008301886147a5565b8181036020830152614ed6818761473b565b9050614ee56040830186614d24565b614ef26060830185614d24565b8181036080830152614f048184614464565b90509695505050505050565b600060a082019050614f2560008301886147a5565b8181036020830152614f37818761473b565b9050614f466040830186614d24565b614f536060830185614d24565b8181036080830152614f658184614651565b90509695505050505050565b600060a082019050614f8660008301886147a5565b8181036020830152614f98818761473b565b9050614fa76040830186614d24565b614fb46060830185614d24565b614fc160808301846146dc565b9695505050505050565b60006040820190508181036000830152614fe581856147d2565b9050614ff4602083018461443e565b9392505050565b6000604082019050818103600083015261501581856147d2565b905061502460208301846146be565b9392505050565b6000604082019050818103600083015261504581856147d2565b905061505460208301846146dc565b9392505050565b6000604082019050818103600083015261507581856147d2565b90508181036020830152615089818461473b565b90509392505050565b600060408201905081810360008301526150ac81856147d2565b90506150bb60208301846147c3565b9392505050565b600060408201905081810360008301526150dc81856147d2565b90506150eb6020830184614d24565b9392505050565b6000602082019050818103600083015261510b8161480b565b9050919050565b6000602082019050818103600083015261512b8161484b565b9050919050565b6000602082019050818103600083015261514b816148cb565b9050919050565b6000602082019050818103600083015261516b81614931565b9050919050565b6000602082019050818103600083015261518b81614971565b9050919050565b600060208201905081810360008301526151ab816149d7565b9050919050565b600060208201905081810360008301526151cb81614a3d565b9050919050565b600060208201905081810360008301526151eb81614a7d565b9050919050565b6000602082019050818103600083015261520b81614abd565b9050919050565b6000602082019050818103600083015261522c8184614b7c565b905092915050565b6000602082019050818103600083015261524e8184614cdc565b905092915050565b600060208201905061526b6000830184614d06565b92915050565b60006020820190506152866000830184614d24565b92915050565b600060c0820190506152a16000830189614d24565b6152ae6020830188614d24565b6152bb6040830187614d24565b6152c860608301866146be565b6152d56080830185614d24565b6152e260a08301846146dc565b979650505050505050565b6000808335600160200384360303811261530657600080fd5b80840192508235915067ffffffffffffffff82111561532457600080fd5b60208301925060208202360383131561533c57600080fd5b509250929050565b6000808335600160200384360303811261535d57600080fd5b80840192508235915067ffffffffffffffff82111561537b57600080fd5b60208301925060208202360383131561539357600080fd5b509250929050565b600080833560016020038436030381126153b457600080fd5b80840192508235915067ffffffffffffffff8211156153d257600080fd5b6020830192506020820236038313156153ea57600080fd5b509250929050565b6000808335600160200384360303811261540b57600080fd5b80840192508235915067ffffffffffffffff82111561542957600080fd5b60208301925060208202360383131561544157600080fd5b509250929050565b6000808335600160200384360303811261546257600080fd5b80840192508235915067ffffffffffffffff82111561548057600080fd5b60208301925060208202360383131561549857600080fd5b509250929050565b6000823560016040038336030381126154b857600080fd5b80830191505092915050565b6000823560016060038336030381126154dc57600080fd5b80830191505092915050565b60008235600160600383360303811261550057600080fd5b80830191505092915050565b60008235600160a00383360303811261552457600080fd5b80830191505092915050565b60008235600160600383360303811261554857600080fd5b80830191505092915050565b6000604051905081810181811067ffffffffffffffff8211171561557b5761557a615c98565b5b8060405250919050565b600067ffffffffffffffff8211156155a05761559f615c98565b5b602082029050602081019050919050565b600067ffffffffffffffff8211156155cc576155cb615c98565b5b602082029050602081019050919050565b600067ffffffffffffffff8211156155f8576155f7615c98565b5b602082029050602081019050919050565b600067ffffffffffffffff82111561562457615623615c98565b5b601f19601f8301169050602081019050919050565b600067ffffffffffffffff82111561565457615653615c98565b5b601f19601f8301169050602081019050919050565b6000819050602082019050919050565b6000819050602082019050919050565b6000819050602082019050919050565b6000819050602082019050919050565b6000819050602082019050919050565b600081519050919050565b600081519050919050565b600081519050919050565b600081519050919050565b600081519050919050565b600081519050919050565b600081519050919050565b6000602082019050919050565b6000602082019050919050565b6000602082019050919050565b6000602082019050919050565b6000602082019050919050565b600082825260208201905092915050565b600082825260208201905092915050565b600082825260208201905092915050565b600082825260208201905092915050565b600082825260208201905092915050565b600082825260208201905092915050565b600082825260208201905092915050565b600082825260208201905092915050565b600081905092915050565b600082825260208201905092915050565b600081905092915050565b600061580182615a17565b915061580c83615a17565b9250817f7fffffffffffffffffffffffffffffffffffffffffffffffffffffffffffffff0383136000831215161561584757615846615c0b565b5b817f800000000000000000000000000000000000000000000000000000000000000003831260008312161561587f5761587e615c0b565b5b828201905092915050565b600061589582615a4f565b91506158a083615a4f565b9250827fffffffffffffffffffffffffffffffffffffffffffffffffffffffffffffffff038211156158d5576158d4615c0b565b5b828201905092915050565b60006158eb82615a17565b91506158f683615a17565b9250827f80000000000000000000000000000000000000000000000000000000000000000182126000841215161561593157615930615c0b565b5b827f7fffffffffffffffffffffffffffffffffffffffffffffffffffffffffffffff01821360008412161561596957615968615c0b565b5b828203905092915050565b600061597f82615a21565b915061598a83615a21565b92508282101561599d5761599c615c0b565b5b828203905092915050565b60006159b382615a4f565b91506159be83615a4f565b9250828210156159d1576159d0615c0b565b5b828203905092915050565b60006159e782615a2f565b9050919050565b60008115159050919050565b6000819050919050565b6000819050615a1282615ce5565b919050565b6000819050919050565b600061ffff82169050919050565b600073ffffffffffffffffffffffffffffffffffffffff82169050919050565b6000819050919050565b600060ff82169050919050565b6000615a7182615a04565b9050919050565b6000615a843683613a65565b9050919050565b6000615a973683613b94565b9050919050565b6000615aaa3683613c24565b9050919050565b6000615abd3683613c9c565b9050919050565b6000615ad03683613da0565b9050919050565b82818337600083830152505050565b60005b83811015615b04578082015181840152602081019050615ae9565b83811115615b13576000848401525b50505050565b60006002820490506001821680615b3157607f821691505b60208210811415615b4557615b44615c69565b5b50919050565b6000615b5682615a4f565b91507fffffffffffffffffffffffffffffffffffffffffffffffffffffffffffffffff821415615b8957615b88615c0b565b5b600182019050919050565b6000615b9f82615bb0565b9050919050565b6000819050919050565b6000615bbb82615cd8565b9050919050565b6000615bcd82615a17565b91507f8000000000000000000000000000000000000000000000000000000000000000821415615c0057615bff615c0b565b5b816000039050919050565b7f4e487b7100000000000000000000000000000000000000000000000000000000600052601160045260246000fd5b7f4e487b7100000000000000000000000000000000000000000000000000000000600052602160045260246000fd5b7f4e487b7100000000000000000000000000000000000000000000000000000000600052602260045260246000fd5b7f4e487b7100000000000000000000000000000000000000000000000000000000600052604160045260246000fd5b6000601f19601f8301169050919050565b60008160601b9050919050565b60038110615cf657615cf5615c3a565b5b50565b615d02816159dc565b8114615d0d57600080fd5b50565b615d19816159ee565b8114615d2457600080fd5b50565b615d30816159fa565b8114615d3b57600080fd5b50565b615d4781615a17565b8114615d5257600080fd5b50565b615d5e81615a21565b8114615d6957600080fd5b50565b615d7581615a4f565b8114615d8057600080fd5b5056fea26469706673582212205718a36cd589d36039f1bfc543c2d28019184107131cd032deecdb7fb03d9da864736f6c63430008000033",
  "immutableReferences": {},
  "source": "// SPDX-License-Identifier: MIT\npragma solidity 0.8.0;\npragma experimental ABIEncoderV2;\n\nimport \"./ECDSA.sol\";\nimport \"./console.sol\";\n\ncontract XLN is Console {\n\n  enum MessageType {\n    WithdrawProof,\n    CooperativeProof,\n    DisputeProof\n  }\n\n  // Deposit structs\n  struct DepositToChannelParams {\n    address receiver;\n    address partner;\n    AssetAmountPair[] pairs;\n  }\n\n  struct AssetAmountPair {\n    uint asset_id;\n    uint amount;\n  }\n\n  // Withdraw structs\n  struct WithdrawProof {\n    address partner;\n    AssetAmountPair[] pairs;\n    // unlike deposits, withdrawals require an approval by counterparty\n    bytes sig; \n  }\n\n  // CooperativeProof structs\n  struct CooperativeProof{\n    address partner;\n    Entry[] entries;\n    bytes sig; \n  }\n\n  // Dispute structs\n  struct Lock {\n    uint amount;\n    uint until_block;\n    bytes32 hash;\n  }\n  // (uint, int)\n  struct Entry {\n    uint asset_id;\n    int offdelta;\n    //Lock[] left_locks;\n    //Lock[] right_locks;\n  }\n\n  struct DisputeProof {\n    address partner;\n    uint dispute_nonce;\n    bytes32 entries_hash;\n    Entry[] entries;\n    bytes sig; \n  }\n\n  struct AcceptDisputeParams {\n    address partner;\n    Entry[] entries;\n  }\n\n\n\n  // Internal structs\n  struct Debt{\n    uint amount;\n    address pay_to;\n  }\n  \n  //Collateral_balance\n  struct Collateral {\n    uint collateral;\n    int ondelta;\n  }\n\n  struct Channel{\n    // stored indefinitely, incremented every time a channel is closed (dispute or cooperative) \n    // to invalidate all previously created proofs\n    uint channel_counter;\n\n    // used for withdrawals and cooperative close\n    uint cooperative_nonce;\n\n    // used for dispute (non-cooperative) close \n    uint dispute_nonce;\n\n    bool dispute_by_left;\n    uint dispute_until_block;\n\n    // hash is stored in case of dispute close\n    // entries are only needed for finalizeChannel, no point to store them\n    bytes32 entries_hash; \n\n\n  }\n\n\n  // [address user][asset_id]\n  mapping (address => mapping (uint => uint)) reserves;\n  mapping (address => mapping (uint => uint)) debtIndex;\n  mapping (address => mapping (uint => Debt[])) debts;\n\n  // [bytes ch_key][asset_id]\n  mapping (bytes => Channel) public channels;\n  mapping (bytes => mapping(uint => Collateral)) collaterals; \n  \n\n  struct Asset{\n    string name;\n    address erc20address;\n  }\n  Asset[] public assets;\n\n\n  struct Hub{\n    address addr;\n    string uri;\n    uint16[] connections;\n  }\n  Hub[] public hubs;\n  \n\n  constructor() {\n    \n    assets.push(Asset({\n      name: \"WETH\",\n      erc20address: msg.sender\n    }));\n    /*\n\n    assets.push(Asset({\n      name: \"DAI\",\n      erc20address: msg.sender\n    }));\n\n    log(\"now assets \",assets.length);\n\n    //uint16[] memory cons;\n\n    //cons[0]=1;\n    //cons[1]=2;\n    //log('lennn', cons.length);\n    \n    //registerOrUpdateHub(0, \"http://127.0.0.1:8000\", cons);\n\n    topUp(msg.sender, 0, 100000000);\n    topUp(msg.sender, 1, 100000000);\n    */\n  }\n\n  function registerAsset(Asset memory assetToRegister) public {\n    assets.push(assetToRegister);\n  }\n\n  \n  \n  function registerOrUpdateHub(uint16 hub_id, string memory new_uri, uint16[] memory new_connections) public returns (uint16) {\n\n    if (hub_id == 0) {\n      hubs.push(Hub({\n        addr: msg.sender,\n        uri: new_uri,\n        connections: new_connections\n      }));\n      return uint16(hubs.length) - 1;\n    } else {\n      require(msg.sender == hubs[hub_id].addr, \"Not your hub address\");\n      hubs[hub_id].uri = new_uri;\n      hubs[hub_id].connections = new_connections;\n      return hub_id;\n    }\n  }\n\n\n  function depositToChannel(DepositToChannelParams memory params) public returns (bool completeSuccess) {\n    bool receiver_is_left = params.receiver < params.partner;\n    bytes memory ch_key = channelKey(params.receiver, params.partner);\n\n    logChannel(params.receiver, params.partner);\n\n    for (uint i = 0; i < params.pairs.length; i++) {\n      uint asset_id = params.pairs[i].asset_id;\n      uint amount = params.pairs[i].amount;\n\n      if (reserves[msg.sender][asset_id] >= amount) {\n\n        Collateral storage col = collaterals[ch_key][asset_id];\n\n        reserves[msg.sender][asset_id] -= amount;\n        \n        col.collateral += amount;\n\n        if (receiver_is_left) {\n          col.ondelta += int(amount);\n        }\n\n        log(\"Deposited to channel \", amount);\n      } else {\n        log(\"not enough funds\", msg.sender);\n        return false;\n      }\n    }\n\n    logChannel(params.receiver, params.partner);\n\n    return true;\n  }\n\n  // we need to provide counterparty address to compile encoded message\n  //even though we get signer address returned by ecrecover\n\n  function withdrawFromChannel(WithdrawProof memory params) public returns (bool) {\n    bool sender_is_left = msg.sender < params.partner;\n\n\n    bytes memory ch_key = channelKey(msg.sender, params.partner);\n\n\n    bytes memory encoded_msg = abi.encode(MessageType.WithdrawProof,ch_key,  channels[ch_key].channel_counter, channels[ch_key].cooperative_nonce, params.pairs);\n\n\n    bytes32 hash = ECDSA.toEthSignedMessageHash(keccak256(encoded_msg));\n\n    log('Encoded msg', encoded_msg);\n    \n    // ensure actual signer is provided counterparty address\n\n\n    if(params.partner != ECDSA.recover(hash, params.sig)) {\n      log(\"Invalid signer \", params.partner);\n      return false;\n    }\n\n    channels[ch_key].cooperative_nonce++;\n\n\n    for (uint i = 0; i < params.pairs.length; i++) {\n      uint asset_id = params.pairs[i].asset_id;\n      uint amount = params.pairs[i].amount;\n\n      Collateral storage col = collaterals[ch_key][asset_id];\n\n      if (col.collateral >= amount) {\n        col.collateral -= amount;\n        if (sender_is_left) {\n          col.ondelta -= int(amount);\n        }\n\n        reserves[msg.sender][asset_id] += amount;\n      }\n    }\n\n    logChannel(msg.sender, params.partner);\n    return true;\n  }\n\n\n  function cooperativeClose(CooperativeProof memory params) public returns (bool) {\n    bytes memory ch_key = channelKey(msg.sender, params.partner);\n\n    bytes memory encoded_msg = abi.encode(MessageType.CooperativeProof, ch_key, channels[ch_key].channel_counter, channels[ch_key].cooperative_nonce, params.entries);\n\n\n    bytes32 hash = ECDSA.toEthSignedMessageHash(keccak256(encoded_msg));\n    log('Encoded msg',encoded_msg);\n\n    if(params.partner != ECDSA.recover(hash, params.sig)) {\n      log(\"Invalid signer \", params.partner);\n      return false;\n    }\n\n\n\n    address l_user = msg.sender < params.partner ? msg.sender : params.partner;\n    address r_user = msg.sender < params.partner ? params.partner : msg.sender;  \n\n    finalizeChannel(ch_key, l_user, r_user, params.entries);\n\n\n  }\n\n\n  function finalizeChannel(bytes memory ch_key, address l_user, address r_user, Entry[] memory entries) internal returns (bool) {\n    logChannel(l_user, r_user);\n\n    // iterate over entries and split the assets\n    for (uint i = 0;i<entries.length;i++){\n      uint asset_id = entries[i].asset_id;\n      Collateral storage col = collaterals[ch_key][asset_id];\n\n      // final delta = offdelta + ondelta + unlocked hashlocks\n      int delta = entries[i].offdelta + col.ondelta;\n\n      if (delta >= 0 && uint(delta) <= col.collateral) {\n        // Collateral is split (standard no-credit LN resolution)\n        uint left_gets = uint(delta);\n        reserves[l_user][asset_id] += left_gets;\n        reserves[r_user][asset_id] += col.collateral - left_gets;\n\n      } else {\n        // one user gets entire collateral, another gets debt (resolution enabled by XLN)\n        address getsCollateral = delta < 0 ? r_user : l_user;\n        address getsDebt = delta < 0 ? l_user : r_user;\n        uint debtAmount = delta < 0 ? uint(-delta) : uint(delta) - col.collateral;\n\n        \n        log('gets debt', getsDebt);\n        log('debt', debtAmount);\n\n        reserves[getsCollateral][asset_id] += col.collateral;\n        if (reserves[getsDebt][asset_id] >= debtAmount) {\n          // will pay right away without creating Debt\n          reserves[getsCollateral][asset_id] += debtAmount;\n          reserves[getsDebt][asset_id] -= debtAmount;\n        } else {\n          // pay what they can, and create Debt\n          if (reserves[getsDebt][asset_id] > 0) {\n            reserves[getsCollateral][asset_id] += reserves[getsDebt][asset_id];\n            debtAmount -= reserves[getsDebt][asset_id];\n            reserves[getsDebt][asset_id] = 0;\n          }\n          debts[getsDebt][asset_id].push(Debt({\n            pay_to: getsCollateral,\n            amount: debtAmount\n          }));\n        }\n      }\n\n      delete collaterals[ch_key][asset_id];\n    }\n    delete channels[ch_key].entries_hash;\n    delete channels[ch_key].dispute_nonce;\n    delete channels[ch_key].cooperative_nonce;\n    delete channels[ch_key].dispute_until_block;\n    delete channels[ch_key].dispute_by_left;\n\n    channels[ch_key].channel_counter++;\n   \n    logChannel(l_user, r_user);\n\n    return true;\n\n  }\n\n\n  function submitDisputeProof(DisputeProof memory params) public returns (bool) {\n    bytes memory ch_key = channelKey(msg.sender, params.partner);\n\n    bytes memory encoded_msg = abi.encode(MessageType.DisputeProof, ch_key, channels[ch_key].channel_counter, params.dispute_nonce, params.entries_hash);\n\n\n    bytes32 hash = ECDSA.toEthSignedMessageHash(keccak256(encoded_msg));\n\n    log('encoded msg',encoded_msg);\n    // ensure actual signer is provided counterparty address\n\n    require(ECDSA.recover(hash, params.sig) == params.partner, \"Invalid signer\");\n\n    if (channels[ch_key].dispute_until_block == 0) {\n      channels[ch_key].dispute_by_left = msg.sender < params.partner;\n      channels[ch_key].dispute_nonce = params.dispute_nonce;\n      channels[ch_key].entries_hash = params.entries_hash;\n      channels[ch_key].dispute_until_block = block.number + 20;\n\n      log(\"set until\", channels[ch_key].dispute_until_block);\n    } else {\n      require(!channels[ch_key].dispute_by_left == msg.sender < params.partner, \"Only your partner can counter dispute\");\n\n      require(channels[ch_key].dispute_nonce < params.dispute_nonce, \"New nonce must be greater\");\n\n      require(params.entries_hash == keccak256(abi.encode(params.entries)), \"Wrong entries provided\");\n\n\n      address l_user = msg.sender < params.partner ? msg.sender : params.partner;\n      address r_user = msg.sender < params.partner ? params.partner : msg.sender;  \n\n\n      finalizeChannel(ch_key, l_user, r_user, params.entries);\n      return true;\n\n    }\n\n\n\n    return true;\n  }\n\n\n  function acceptDispute(AcceptDisputeParams memory params) public returns (bool success) {\n    bytes memory ch_key = channelKey(msg.sender, params.partner);\n\n    bool sender_is_left = msg.sender < params.partner;\n \n    if ((channels[ch_key].dispute_by_left == sender_is_left) && block.number < channels[ch_key].dispute_until_block) {\n      return false;\n    } else if (channels[ch_key].entries_hash != keccak256(abi.encode(params.entries))) {\n      return false;\n    }\n\n    address l_user = msg.sender < params.partner ? msg.sender : params.partner;\n    address r_user = msg.sender < params.partner ? params.partner : msg.sender;  \n\n\n    finalizeChannel(ch_key, l_user, r_user, params.entries);\n    return true;\n  }\n\n\n\n\n\n\n\n\n  \n  function getDebts(address addr, uint asset_id) public view returns (Debt[] memory allDebts, uint currentDebtIndex) {\n    currentDebtIndex = debtIndex[addr][asset_id];\n    allDebts = debts[addr][asset_id];\n  }\n\n\n  // triggered automatically before every operation with reserve\n  // or can be called manually on \n  function enforceDebts(address addr, uint asset_id) public returns (uint totalDebts) {\n    uint debtsLength = debts[addr][asset_id].length;\n    if (debtsLength == 0) {\n      return 0;\n    }\n   \n    uint memoryReserve = reserves[addr][asset_id]; \n    uint memoryIndex = debtIndex[addr][asset_id];\n    \n    if (memoryReserve == 0){\n      return debtsLength - memoryIndex;\n    }\n    \n    while (true) {\n      Debt storage debt = debts[addr][asset_id][memoryIndex];\n      \n      // can pay in full\n      if (memoryReserve >= debt.amount) {\n        // transferToReserve\n        memoryReserve -= debt.amount;\n        reserves[debt.pay_to][asset_id] += debt.amount;\n\n        delete debts[addr][asset_id][memoryIndex];\n\n        // last debt paid? the user is debt free\n        if (memoryIndex+1 == debtsLength) {\n          memoryIndex = 0;\n          // sets back internal .length to 0\n          delete debts[addr][asset_id]; \n          debtsLength = 0;\n          break;\n        }\n        memoryIndex++;\n        \n      } else {\n        reserves[debt.pay_to][asset_id] += memoryReserve;\n        debt.amount -= memoryReserve;\n        memoryReserve = 0;\n        break;\n      }\n    }\n\n    reserves[addr][asset_id] = memoryReserve;\n    debtIndex[addr][asset_id] = memoryIndex;\n    \n    return debtsLength - memoryIndex;\n  }\n\n\n\n\n\n  struct Batch {\n    WithdrawProof[] withdrawProofs;\n    CooperativeProof[] cooperativeProofs;\n    DisputeProof[] disputeProofs;\n    AcceptDisputeParams[] acceptDisputes;\n    DepositToChannelParams[] depositArray;\n  }\n\n\n\n  // hubs use onchain contract heavily to rebalance collateral\n  function batch(Batch calldata b) public returns (bool completeSuccess) {\n    completeSuccess = true; \n\n    // withdrawals are processed first to pull funds from channels to standalone\n    for (uint i = 0; i < b.withdrawProofs.length; i++) {\n      if(!(withdrawFromChannel(b.withdrawProofs[i]))){\n        completeSuccess = false;\n      }\n    }\n\n    for (uint i = 0; i < b.cooperativeProofs.length; i++) {\n      if(!(cooperativeClose(b.cooperativeProofs[i]))){\n        completeSuccess = false;\n      }\n    }\n\n    for (uint i = 0; i < b.disputeProofs.length; i++) {\n      if(!(submitDisputeProof(b.disputeProofs[i]))){\n        completeSuccess = false;\n      }\n    }\n\n    for (uint i = 0; i < b.acceptDisputes.length; i++) {\n      if(!(acceptDispute(b.acceptDisputes[i]))){\n        completeSuccess = false;\n      }\n    }\n\n\n    for (uint i = 0; i < b.depositArray.length; i++) {\n      if(!(depositToChannel(b.depositArray[i]))){\n        completeSuccess = false;\n      }\n    }\n\n    return completeSuccess;\n  }\n\n\n\n  // read only\n\n  function logChannel(address a1, address a2) public {\n    /*\n    bytes memory ch_key = channelKey(a1, a2);\n    log(\">>> Logging channel\", ch_key);\n    log(\"cooperative_nonce\", channels[ch_key].cooperative_nonce);\n    log(\"dispute_nonce\", channels[ch_key].dispute_nonce);\n    log(\"dispute_until_block\", channels[ch_key].dispute_until_block);\n    for (uint i = 0; i < assets.length; i++) {\n      log(\"Asset\", i);\n      log(\"Left:\", reserves[a1][i]);\n      log(\"Right:\", reserves[a2][i]);\n      log(\"collateral\", collaterals[ch_key][i].collateral);\n      log(\"ondelta\", collaterals[ch_key][i].ondelta);\n    }\n    */\n  }\n  \n  function channelKey(address a1, address a2) public pure returns (bytes memory) {\n    //determenistic channel key is 40 bytes: concatenated lowerKey + higherKey\n    return a1 < a2 ? abi.encodePacked(a1, a2) : abi.encodePacked(a2, a1);\n  }\n  \n  struct AssetReserveDebts {\n    uint reserve;\n    Debt[] debts;\n    uint debtIndex;\n  }\n  \n  struct UserReturn {\n    AssetReserveDebts[] assets;\n  }\n\n  function getUser(address addr) external view returns (UserReturn memory) {\n    UserReturn memory u = UserReturn({\n      assets: new AssetReserveDebts[](assets.length)\n    });\n    \n    for (uint i = 0;i<assets.length;i++){\n      u.assets[i]=(AssetReserveDebts({\n        reserve: reserves[addr][i],\n        debtIndex: debtIndex[addr][i],\n        debts: debts[addr][i]\n      }));\n    }\n    \n    return u;\n  }\n\n  \n  struct ChannelReturn{\n    bytes channelKey;\n    Channel channel;\n    Collateral[] collaterals;\n  }\n\n  function getChannel(address  a1, address  a2) public view returns (ChannelReturn memory ch) {\n    bytes memory ch_key = channelKey(a1, a2);\n    ch = ChannelReturn({\n      channelKey: ch_key,\n      channel: channels[ch_key],\n      collaterals: new Collateral[](assets.length)\n    });\n    \n\n    for (uint i = 0;i<assets.length;i++){\n      ch.collaterals[i]=collaterals[ch_key][i];\n    }\n    \n    return ch;\n  }\n  \n  /*\n  // dev-only helpers\n  function topUp(address addr, uint asset_id, uint amount) public {\n    reserves[addr][asset_id] += amount;\n  }\n\n  function createDebt(address fromUser, address toUser, uint asset_id, uint amount) public {\n    debts[fromUser][asset_id].push(Debt({\n      pay_to: toUser,\n      amount: amount\n    }));\n  }\n\n  */\n    \n    \n  \n    \n}",
  "sourcePath": "/Users/homakov/work/AAAxln/contracts/XLN.sol",
  "compiler": {
    "name": "solc",
    "version": "0.8.0+commit.c7dfd78e.Emscripten.clang"
  },
  "schemaVersion": "3.3.3",
  "updatedAt": "2021-03-17T22:04:46.776Z",
  "devdoc": {
    "kind": "dev",
    "methods": {},
    "version": 1
  },
  "userdoc": {
    "kind": "user",
    "methods": {},
    "version": 1
  }
}