{
  "contractName": "XLN",
  "abi": [
    {
      "inputs": [],
      "stateMutability": "nonpayable",
      "type": "constructor"
    },
    {
      "anonymous": false,
      "inputs": [
        {
          "indexed": false,
          "internalType": "string",
          "name": "",
          "type": "string"
        },
        {
          "indexed": false,
          "internalType": "address",
          "name": "",
          "type": "address"
        }
      ],
      "name": "LogAddress",
      "type": "event"
    },
    {
      "anonymous": false,
      "inputs": [
        {
          "indexed": false,
          "internalType": "string",
          "name": "",
          "type": "string"
        },
        {
          "indexed": false,
          "internalType": "bool",
          "name": "",
          "type": "bool"
        }
      ],
      "name": "LogBool",
      "type": "event"
    },
    {
      "anonymous": false,
      "inputs": [
        {
          "indexed": false,
          "internalType": "string",
          "name": "",
          "type": "string"
        },
        {
          "indexed": false,
          "internalType": "bytes",
          "name": "",
          "type": "bytes"
        }
      ],
      "name": "LogBytes",
      "type": "event"
    },
    {
      "anonymous": false,
      "inputs": [
        {
          "indexed": false,
          "internalType": "string",
          "name": "",
          "type": "string"
        },
        {
          "indexed": false,
          "internalType": "bytes32",
          "name": "",
          "type": "bytes32"
        }
      ],
      "name": "LogBytes32",
      "type": "event"
    },
    {
      "anonymous": false,
      "inputs": [
        {
          "indexed": false,
          "internalType": "string",
          "name": "",
          "type": "string"
        },
        {
          "indexed": false,
          "internalType": "int256",
          "name": "",
          "type": "int256"
        }
      ],
      "name": "LogInt",
      "type": "event"
    },
    {
      "anonymous": false,
      "inputs": [
        {
          "indexed": false,
          "internalType": "string",
          "name": "",
          "type": "string"
        },
        {
          "indexed": false,
          "internalType": "string",
          "name": "",
          "type": "string"
        }
      ],
      "name": "LogString",
      "type": "event"
    },
    {
      "anonymous": false,
      "inputs": [
        {
          "indexed": false,
          "internalType": "string",
          "name": "",
          "type": "string"
        },
        {
          "indexed": false,
          "internalType": "uint256",
          "name": "",
          "type": "uint256"
        }
      ],
      "name": "LogUint",
      "type": "event"
    },
    {
      "inputs": [
        {
          "internalType": "uint256",
          "name": "",
          "type": "uint256"
        }
      ],
      "name": "assets",
      "outputs": [
        {
          "internalType": "string",
          "name": "name",
          "type": "string"
        },
        {
          "internalType": "address",
          "name": "addr",
          "type": "address"
        }
      ],
      "stateMutability": "view",
      "type": "function",
      "constant": true
    },
    {
      "inputs": [
        {
          "internalType": "bytes",
          "name": "",
          "type": "bytes"
        }
      ],
      "name": "channels",
      "outputs": [
        {
          "internalType": "uint256",
          "name": "channel_counter",
          "type": "uint256"
        },
        {
          "internalType": "uint256",
          "name": "cooperative_nonce",
          "type": "uint256"
        },
        {
          "internalType": "uint256",
          "name": "dispute_nonce",
          "type": "uint256"
        },
        {
          "internalType": "bool",
          "name": "dispute_started_by_left",
          "type": "bool"
        },
        {
          "internalType": "uint256",
          "name": "dispute_until_block",
          "type": "uint256"
        },
        {
          "internalType": "bytes32",
          "name": "entries_hash",
          "type": "bytes32"
        }
      ],
      "stateMutability": "view",
      "type": "function",
      "constant": true
    },
    {
      "inputs": [
        {
          "internalType": "bytes32",
          "name": "",
          "type": "bytes32"
        }
      ],
      "name": "hash_to_block",
      "outputs": [
        {
          "internalType": "uint256",
          "name": "",
          "type": "uint256"
        }
      ],
      "stateMutability": "view",
      "type": "function",
      "constant": true
    },
    {
      "inputs": [
        {
          "internalType": "uint256",
          "name": "",
          "type": "uint256"
        }
      ],
      "name": "hubs",
      "outputs": [
        {
          "internalType": "address",
          "name": "addr",
          "type": "address"
        },
        {
          "internalType": "uint256",
          "name": "gasused",
          "type": "uint256"
        },
        {
          "internalType": "string",
          "name": "uri",
          "type": "string"
        }
      ],
      "stateMutability": "view",
      "type": "function",
      "constant": true
    },
    {
      "inputs": [
        {
          "internalType": "string",
          "name": "s",
          "type": "string"
        },
        {
          "internalType": "bytes",
          "name": "x",
          "type": "bytes"
        }
      ],
      "name": "log",
      "outputs": [],
      "stateMutability": "nonpayable",
      "type": "function"
    },
    {
      "inputs": [
        {
          "internalType": "string",
          "name": "s",
          "type": "string"
        },
        {
          "internalType": "address",
          "name": "x",
          "type": "address"
        }
      ],
      "name": "log",
      "outputs": [],
      "stateMutability": "nonpayable",
      "type": "function"
    },
    {
      "inputs": [
        {
          "internalType": "string",
          "name": "s",
          "type": "string"
        },
        {
          "internalType": "bytes32",
          "name": "x",
          "type": "bytes32"
        }
      ],
      "name": "log",
      "outputs": [],
      "stateMutability": "nonpayable",
      "type": "function"
    },
    {
      "inputs": [
        {
          "internalType": "string",
          "name": "s",
          "type": "string"
        },
        {
          "internalType": "int256",
          "name": "x",
          "type": "int256"
        }
      ],
      "name": "log",
      "outputs": [],
      "stateMutability": "nonpayable",
      "type": "function"
    },
    {
      "inputs": [
        {
          "internalType": "string",
          "name": "s",
          "type": "string"
        },
        {
          "internalType": "string",
          "name": "x",
          "type": "string"
        }
      ],
      "name": "log",
      "outputs": [],
      "stateMutability": "nonpayable",
      "type": "function"
    },
    {
      "inputs": [
        {
          "internalType": "string",
          "name": "s",
          "type": "string"
        },
        {
          "internalType": "uint256",
          "name": "x",
          "type": "uint256"
        }
      ],
      "name": "log",
      "outputs": [],
      "stateMutability": "nonpayable",
      "type": "function"
    },
    {
      "inputs": [
        {
          "internalType": "string",
          "name": "s",
          "type": "string"
        },
        {
          "internalType": "bool",
          "name": "x",
          "type": "bool"
        }
      ],
      "name": "log",
      "outputs": [],
      "stateMutability": "nonpayable",
      "type": "function"
    },
    {
      "inputs": [
        {
          "components": [
            {
              "internalType": "string",
              "name": "name",
              "type": "string"
            },
            {
              "internalType": "address",
              "name": "addr",
              "type": "address"
            }
          ],
          "internalType": "struct XLN.Asset",
          "name": "assetToRegister",
          "type": "tuple"
        }
      ],
      "name": "registerAsset",
      "outputs": [],
      "stateMutability": "nonpayable",
      "type": "function"
    },
    {
      "inputs": [
        {
          "internalType": "uint256",
          "name": "hub_id",
          "type": "uint256"
        },
        {
          "internalType": "string",
          "name": "new_uri",
          "type": "string"
        }
      ],
      "name": "registerHub",
      "outputs": [
        {
          "internalType": "uint256",
          "name": "",
          "type": "uint256"
        }
      ],
      "stateMutability": "nonpayable",
      "type": "function"
    },
    {
      "inputs": [
        {
          "internalType": "bytes32",
          "name": "secret",
          "type": "bytes32"
        }
      ],
      "name": "revealSecret",
      "outputs": [],
      "stateMutability": "nonpayable",
      "type": "function"
    },
    {
      "inputs": [
        {
          "internalType": "bytes32",
          "name": "hash",
          "type": "bytes32"
        }
      ],
      "name": "cleanSecret",
      "outputs": [],
      "stateMutability": "nonpayable",
      "type": "function"
    },
    {
      "inputs": [
        {
          "components": [
            {
              "internalType": "address",
              "name": "receiver",
              "type": "address"
            },
            {
              "internalType": "uint256",
              "name": "asset_id",
              "type": "uint256"
            },
            {
              "internalType": "uint256",
              "name": "amount",
              "type": "uint256"
            }
          ],
          "internalType": "struct XLN.TokenToReserve",
          "name": "params",
          "type": "tuple"
        }
      ],
      "name": "tokenToReserve",
      "outputs": [],
      "stateMutability": "nonpayable",
      "type": "function"
    },
    {
      "inputs": [
        {
          "components": [
            {
              "internalType": "address",
              "name": "receiver",
              "type": "address"
            },
            {
              "internalType": "uint256",
              "name": "asset_id",
              "type": "uint256"
            },
            {
              "internalType": "uint256",
              "name": "amount",
              "type": "uint256"
            }
          ],
          "internalType": "struct XLN.ReserveToToken",
          "name": "params",
          "type": "tuple"
        }
      ],
      "name": "reserveToToken",
      "outputs": [],
      "stateMutability": "nonpayable",
      "type": "function"
    },
    {
      "inputs": [
        {
          "components": [
            {
              "internalType": "address",
              "name": "receiver",
              "type": "address"
            },
            {
              "internalType": "uint256",
              "name": "asset_id",
              "type": "uint256"
            },
            {
              "internalType": "uint256",
              "name": "amount",
              "type": "uint256"
            }
          ],
          "internalType": "struct XLN.ReserveToReserve",
          "name": "params",
          "type": "tuple"
        }
      ],
      "name": "reserveToReserve",
      "outputs": [],
      "stateMutability": "nonpayable",
      "type": "function"
    },
    {
      "inputs": [
        {
          "components": [
            {
              "internalType": "address",
              "name": "receiver",
              "type": "address"
            },
            {
              "internalType": "address",
              "name": "partner",
              "type": "address"
            },
            {
              "components": [
                {
                  "internalType": "uint256",
                  "name": "asset_id",
                  "type": "uint256"
                },
                {
                  "internalType": "uint256",
                  "name": "amount",
                  "type": "uint256"
                }
              ],
              "internalType": "struct XLN.AssetAmountPair[]",
              "name": "pairs",
              "type": "tuple[]"
            }
          ],
          "internalType": "struct XLN.ReserveToChannel",
          "name": "params",
          "type": "tuple"
        }
      ],
      "name": "reserveToChannel",
      "outputs": [
        {
          "internalType": "bool",
          "name": "completeSuccess",
          "type": "bool"
        }
      ],
      "stateMutability": "nonpayable",
      "type": "function"
    },
    {
      "inputs": [
        {
          "components": [
            {
              "internalType": "address",
              "name": "partner",
              "type": "address"
            },
            {
              "components": [
                {
                  "internalType": "uint256",
                  "name": "asset_id",
                  "type": "uint256"
                },
                {
                  "internalType": "uint256",
                  "name": "amount",
                  "type": "uint256"
                }
              ],
              "internalType": "struct XLN.AssetAmountPair[]",
              "name": "pairs",
              "type": "tuple[]"
            },
            {
              "internalType": "bytes",
              "name": "sig",
              "type": "bytes"
            }
          ],
          "internalType": "struct XLN.ChannelToReserve",
          "name": "params",
          "type": "tuple"
        }
      ],
      "name": "channelToReserve",
      "outputs": [
        {
          "internalType": "bool",
          "name": "",
          "type": "bool"
        }
      ],
      "stateMutability": "nonpayable",
      "type": "function"
    },
    {
      "inputs": [
        {
          "components": [
            {
              "internalType": "address",
              "name": "partner",
              "type": "address"
            },
            {
              "components": [
                {
                  "internalType": "uint256",
                  "name": "asset_id",
                  "type": "uint256"
                },
                {
                  "internalType": "int256",
                  "name": "offdelta",
                  "type": "int256"
                }
              ],
              "internalType": "struct XLN.Entry[]",
              "name": "entries",
              "type": "tuple[]"
            },
            {
              "internalType": "bytes",
              "name": "sig",
              "type": "bytes"
            }
          ],
          "internalType": "struct XLN.CooperativeProof",
          "name": "params",
          "type": "tuple"
        }
      ],
      "name": "cooperativeProof",
      "outputs": [
        {
          "internalType": "bool",
          "name": "",
          "type": "bool"
        }
      ],
      "stateMutability": "nonpayable",
      "type": "function"
    },
    {
      "inputs": [
        {
          "components": [
            {
              "internalType": "address",
              "name": "partner",
              "type": "address"
            },
            {
              "internalType": "uint256",
              "name": "dispute_nonce",
              "type": "uint256"
            },
            {
              "internalType": "bytes32",
              "name": "entries_hash",
              "type": "bytes32"
            },
            {
              "components": [
                {
                  "internalType": "uint256",
                  "name": "asset_id",
                  "type": "uint256"
                },
                {
                  "internalType": "int256",
                  "name": "offdelta",
                  "type": "int256"
                }
              ],
              "internalType": "struct XLN.Entry[]",
              "name": "entries",
              "type": "tuple[]"
            },
            {
              "internalType": "bytes",
              "name": "sig",
              "type": "bytes"
            }
          ],
          "internalType": "struct XLN.DisputeProof",
          "name": "params",
          "type": "tuple"
        }
      ],
      "name": "disputeProof",
      "outputs": [
        {
          "internalType": "bool",
          "name": "",
          "type": "bool"
        }
      ],
      "stateMutability": "nonpayable",
      "type": "function"
    },
    {
      "inputs": [
        {
          "components": [
            {
              "internalType": "address",
              "name": "partner",
              "type": "address"
            },
            {
              "components": [
                {
                  "internalType": "uint256",
                  "name": "asset_id",
                  "type": "uint256"
                },
                {
                  "internalType": "int256",
                  "name": "offdelta",
                  "type": "int256"
                }
              ],
              "internalType": "struct XLN.Entry[]",
              "name": "entries",
              "type": "tuple[]"
            }
          ],
          "internalType": "struct XLN.RevealEntries",
          "name": "params",
          "type": "tuple"
        }
      ],
      "name": "revealEntries",
      "outputs": [
        {
          "internalType": "bool",
          "name": "success",
          "type": "bool"
        }
      ],
      "stateMutability": "nonpayable",
      "type": "function"
    },
    {
      "inputs": [
        {
          "internalType": "address",
          "name": "addr",
          "type": "address"
        },
        {
          "internalType": "uint256",
          "name": "asset_id",
          "type": "uint256"
        }
      ],
      "name": "getDebts",
      "outputs": [
        {
          "components": [
            {
              "internalType": "uint256",
              "name": "amount",
              "type": "uint256"
            },
            {
              "internalType": "address",
              "name": "pay_to",
              "type": "address"
            }
          ],
          "internalType": "struct XLN.Debt[]",
          "name": "allDebts",
          "type": "tuple[]"
        },
        {
          "internalType": "uint256",
          "name": "currentDebtIndex",
          "type": "uint256"
        }
      ],
      "stateMutability": "view",
      "type": "function",
      "constant": true
    },
    {
      "inputs": [
        {
          "internalType": "address",
          "name": "addr",
          "type": "address"
        },
        {
          "internalType": "uint256",
          "name": "asset_id",
          "type": "uint256"
        }
      ],
      "name": "enforceDebts",
      "outputs": [
        {
          "internalType": "uint256",
          "name": "totalDebts",
          "type": "uint256"
        }
      ],
      "stateMutability": "nonpayable",
      "type": "function"
    },
    {
      "inputs": [
        {
          "components": [
            {
              "components": [
                {
                  "internalType": "address",
                  "name": "partner",
                  "type": "address"
                },
                {
                  "components": [
                    {
                      "internalType": "uint256",
                      "name": "asset_id",
                      "type": "uint256"
                    },
                    {
                      "internalType": "int256",
                      "name": "offdelta",
                      "type": "int256"
                    }
                  ],
                  "internalType": "struct XLN.Entry[]",
                  "name": "entries",
                  "type": "tuple[]"
                },
                {
                  "internalType": "bytes",
                  "name": "sig",
                  "type": "bytes"
                }
              ],
              "internalType": "struct XLN.CooperativeProof[]",
              "name": "cooperativeProof",
              "type": "tuple[]"
            },
            {
              "components": [
                {
                  "internalType": "address",
                  "name": "partner",
                  "type": "address"
                },
                {
                  "internalType": "uint256",
                  "name": "dispute_nonce",
                  "type": "uint256"
                },
                {
                  "internalType": "bytes32",
                  "name": "entries_hash",
                  "type": "bytes32"
                },
                {
                  "components": [
                    {
                      "internalType": "uint256",
                      "name": "asset_id",
                      "type": "uint256"
                    },
                    {
                      "internalType": "int256",
                      "name": "offdelta",
                      "type": "int256"
                    }
                  ],
                  "internalType": "struct XLN.Entry[]",
                  "name": "entries",
                  "type": "tuple[]"
                },
                {
                  "internalType": "bytes",
                  "name": "sig",
                  "type": "bytes"
                }
              ],
              "internalType": "struct XLN.DisputeProof[]",
              "name": "disputeProof",
              "type": "tuple[]"
            },
            {
              "components": [
                {
                  "internalType": "address",
                  "name": "partner",
                  "type": "address"
                },
                {
                  "components": [
                    {
                      "internalType": "uint256",
                      "name": "asset_id",
                      "type": "uint256"
                    },
                    {
                      "internalType": "int256",
                      "name": "offdelta",
                      "type": "int256"
                    }
                  ],
                  "internalType": "struct XLN.Entry[]",
                  "name": "entries",
                  "type": "tuple[]"
                }
              ],
              "internalType": "struct XLN.RevealEntries[]",
              "name": "revealEntries",
              "type": "tuple[]"
            },
            {
              "components": [
                {
                  "internalType": "address",
                  "name": "receiver",
                  "type": "address"
                },
                {
                  "internalType": "address",
                  "name": "partner",
                  "type": "address"
                },
                {
                  "components": [
                    {
                      "internalType": "uint256",
                      "name": "asset_id",
                      "type": "uint256"
                    },
                    {
                      "internalType": "uint256",
                      "name": "amount",
                      "type": "uint256"
                    }
                  ],
                  "internalType": "struct XLN.AssetAmountPair[]",
                  "name": "pairs",
                  "type": "tuple[]"
                }
              ],
              "internalType": "struct XLN.ReserveToChannel[]",
              "name": "reserveToChannel",
              "type": "tuple[]"
            },
            {
              "components": [
                {
                  "internalType": "address",
                  "name": "partner",
                  "type": "address"
                },
                {
                  "components": [
                    {
                      "internalType": "uint256",
                      "name": "asset_id",
                      "type": "uint256"
                    },
                    {
                      "internalType": "uint256",
                      "name": "amount",
                      "type": "uint256"
                    }
                  ],
                  "internalType": "struct XLN.AssetAmountPair[]",
                  "name": "pairs",
                  "type": "tuple[]"
                },
                {
                  "internalType": "bytes",
                  "name": "sig",
                  "type": "bytes"
                }
              ],
              "internalType": "struct XLN.ChannelToReserve[]",
              "name": "channelToReserve",
              "type": "tuple[]"
            },
            {
              "components": [
                {
                  "internalType": "address",
                  "name": "receiver",
                  "type": "address"
                },
                {
                  "internalType": "uint256",
                  "name": "asset_id",
                  "type": "uint256"
                },
                {
                  "internalType": "uint256",
                  "name": "amount",
                  "type": "uint256"
                }
              ],
              "internalType": "struct XLN.ReserveToToken[]",
              "name": "reserveToToken",
              "type": "tuple[]"
            },
            {
              "components": [
                {
                  "internalType": "address",
                  "name": "receiver",
                  "type": "address"
                },
                {
                  "internalType": "uint256",
                  "name": "asset_id",
                  "type": "uint256"
                },
                {
                  "internalType": "uint256",
                  "name": "amount",
                  "type": "uint256"
                }
              ],
              "internalType": "struct XLN.TokenToReserve[]",
              "name": "tokenToReserve",
              "type": "tuple[]"
            },
            {
              "components": [
                {
                  "internalType": "address",
                  "name": "receiver",
                  "type": "address"
                },
                {
                  "internalType": "uint256",
                  "name": "asset_id",
                  "type": "uint256"
                },
                {
                  "internalType": "uint256",
                  "name": "amount",
                  "type": "uint256"
                }
              ],
              "internalType": "struct XLN.ReserveToReserve[]",
              "name": "reserveToReserve",
              "type": "tuple[]"
            },
            {
              "internalType": "bytes32[]",
              "name": "revealSecret",
              "type": "bytes32[]"
            },
            {
              "internalType": "uint256",
              "name": "hub_id",
              "type": "uint256"
            }
          ],
          "internalType": "struct XLN.Batch",
          "name": "b",
          "type": "tuple"
        }
      ],
      "name": "processBatch",
      "outputs": [
        {
          "internalType": "bool",
          "name": "completeSuccess",
          "type": "bool"
        }
      ],
      "stateMutability": "nonpayable",
      "type": "function"
    },
    {
      "inputs": [
        {
          "internalType": "address",
          "name": "a1",
          "type": "address"
        },
        {
          "internalType": "address",
          "name": "a2",
          "type": "address"
        }
      ],
      "name": "channelKey",
      "outputs": [
        {
          "internalType": "bytes",
          "name": "",
          "type": "bytes"
        }
      ],
      "stateMutability": "pure",
      "type": "function",
      "constant": true
    },
    {
      "inputs": [
        {
          "internalType": "address",
          "name": "addr",
          "type": "address"
        }
      ],
      "name": "getUser",
      "outputs": [
        {
          "components": [
            {
              "internalType": "uint256",
              "name": "ETH_balance",
              "type": "uint256"
            },
            {
              "components": [
                {
                  "internalType": "uint256",
                  "name": "reserve",
                  "type": "uint256"
                },
                {
                  "internalType": "uint256",
                  "name": "debtIndex",
                  "type": "uint256"
                },
                {
                  "components": [
                    {
                      "internalType": "uint256",
                      "name": "amount",
                      "type": "uint256"
                    },
                    {
                      "internalType": "address",
                      "name": "pay_to",
                      "type": "address"
                    }
                  ],
                  "internalType": "struct XLN.Debt[]",
                  "name": "debts",
                  "type": "tuple[]"
                }
              ],
              "internalType": "struct XLN.AssetReserveDebts[]",
              "name": "assets",
              "type": "tuple[]"
            }
          ],
          "internalType": "struct XLN.UserReturn",
          "name": "",
          "type": "tuple"
        }
      ],
      "stateMutability": "view",
      "type": "function",
      "constant": true
    },
    {
      "inputs": [
        {
          "internalType": "address",
          "name": "addr",
          "type": "address"
        },
        {
          "internalType": "address[]",
          "name": "partners",
          "type": "address[]"
        }
      ],
      "name": "getChannels",
      "outputs": [
        {
          "components": [
            {
              "internalType": "address",
              "name": "partner",
              "type": "address"
            },
            {
              "components": [
                {
                  "internalType": "uint256",
                  "name": "channel_counter",
                  "type": "uint256"
                },
                {
                  "internalType": "uint256",
                  "name": "cooperative_nonce",
                  "type": "uint256"
                },
                {
                  "internalType": "uint256",
                  "name": "dispute_nonce",
                  "type": "uint256"
                },
                {
                  "internalType": "bool",
                  "name": "dispute_started_by_left",
                  "type": "bool"
                },
                {
                  "internalType": "uint256",
                  "name": "dispute_until_block",
                  "type": "uint256"
                },
                {
                  "internalType": "bytes32",
                  "name": "entries_hash",
                  "type": "bytes32"
                }
              ],
              "internalType": "struct XLN.Channel",
              "name": "channel",
              "type": "tuple"
            },
            {
              "components": [
                {
                  "internalType": "uint256",
                  "name": "collateral",
                  "type": "uint256"
                },
                {
                  "internalType": "int256",
                  "name": "ondelta",
                  "type": "int256"
                }
              ],
              "internalType": "struct XLN.Collateral[]",
              "name": "collaterals",
              "type": "tuple[]"
            }
          ],
          "internalType": "struct XLN.ChannelReturn[]",
          "name": "response",
          "type": "tuple[]"
        }
      ],
      "stateMutability": "view",
      "type": "function",
      "constant": true
    },
    {
      "inputs": [
        {
          "internalType": "address",
          "name": "addr",
          "type": "address"
        },
        {
          "internalType": "uint256",
          "name": "asset_id",
          "type": "uint256"
        },
        {
          "internalType": "uint256",
          "name": "amount",
          "type": "uint256"
        }
      ],
      "name": "topUp",
      "outputs": [],
      "stateMutability": "nonpayable",
      "type": "function"
    },
    {
      "inputs": [
        {
          "internalType": "address",
          "name": "addr",
          "type": "address"
        },
        {
          "internalType": "address",
          "name": "pay_to",
          "type": "address"
        },
        {
          "internalType": "uint256",
          "name": "asset_id",
          "type": "uint256"
        },
        {
          "internalType": "uint256",
          "name": "amount",
          "type": "uint256"
        }
      ],
      "name": "createDebt",
      "outputs": [],
      "stateMutability": "nonpayable",
      "type": "function"
    },
    {
      "inputs": [
        {
          "internalType": "address",
          "name": "a1",
          "type": "address"
        },
        {
          "internalType": "address",
          "name": "a2",
          "type": "address"
        }
      ],
      "name": "logChannel",
      "outputs": [],
      "stateMutability": "nonpayable",
      "type": "function"
    }
  ],
  "bytecode": "0x60806040523480156200001157600080fd5b50604080516080810182526004918101918252630ae8aa8960e31b6060820152908152336020808301919091526006805460018101825560009190915282518051600290920260008051602062004af583398151915201926200007a9284929091019062000477565b50602091820151600191820180546001600160a01b039092166001600160a01b03199092169190911790556040805160808101825260039181019182526244414960e81b60608201529081523381840152600680549283018155600052805180519193600290930260008051602062004af58339815191520192620001059284929091019062000477565b5060209182015160019190910180546001600160a01b0319166001600160a01b0390921691909117905560408051808201909152600b81526a03737bb9030b9b9b2ba39960ad1b9181019190915260065462000162919062000280565b604080516060810182526000808252602080830182815284518083018652838152948401948552600780546001810182559352835160008051602062004ad5833981519152600390940293840180546001600160a01b0319166001600160a01b03909216919091178155905160008051602062004b15833981519152840155935180519394936200020a9360008051602062004ab58339815191520192919091019062000477565b5050506200025560006040518060400160405280601581526020017f687474703a2f2f3132372e302e302e313a383030300000000000000000000000815250620002bf60201b60201c565b50620002683360006305f5e1006200043a565b6200027a3360016305f5e1006200043a565b6200063a565b7f941296a39ea107bde685522318a4b6c2b544904a5dd82a512748ca2cf839bef78282604051620002b39291906200051d565b60405180910390a15050565b60008262000380576040805160608101825233815260006020808301828152938301868152600780546001810182559352835160008051602062004ad5833981519152600390940293840180546001600160a01b0319166001600160a01b03909216919091178155945160008051602062004b15833981519152840155518051939493620003649360008051602062004ab58339815191520192919091019062000477565b5050600754620003789150600190620005cd565b905062000434565b60078381548110620003a257634e487b7160e01b600052603260045260246000fd5b60009182526020909120600390910201546001600160a01b03163314620003e65760405162461bcd60e51b8152600401620003dd906200057b565b60405180910390fd5b81600784815481106200040957634e487b7160e01b600052603260045260246000fd5b906000526020600020906003020160020190805190602001906200042f92919062000477565b508290505b92915050565b6001600160a01b038316600090815260208181526040808320858452909152812080548392906200046d908490620005b2565b9091555050505050565b8280546200048590620005e7565b90600052602060002090601f016020900481019282620004a95760008555620004f4565b82601f10620004c457805160ff1916838001178555620004f4565b82800160010185558215620004f4579182015b82811115620004f4578251825591602001919060010190620004d7565b506200050292915062000506565b5090565b5b8082111562000502576000815560010162000507565b6000604082528351806040840152815b818110156200054c57602081870181015160608684010152016200052d565b818111156200055e5782606083860101525b50602083019390935250601f91909101601f191601606001919050565b60208082526014908201527f4e6f7420796f7572206875622061646472657373000000000000000000000000604082015260600190565b60008219821115620005c857620005c862000624565b500190565b600082821015620005e257620005e262000624565b500390565b600281046001821680620005fc57607f821691505b602082108114156200061e57634e487b7160e01b600052602260045260246000fd5b50919050565b634e487b7160e01b600052601160045260246000fd5b61446b806200064a6000396000f3fe608060405234801561001057600080fd5b50600436106101f05760003560e01c8063603075451161010f578063bf52638c116100a2578063d5ed1f2711610071578063d5ed1f2714610475578063d7f6d87414610488578063da0fc182146104a9578063e4b70e5a146104bc576101f0565b8063bf52638c1461041b578063c3b556351461042e578063ca9dfdc614610441578063cf35bdd014610454576101f0565b8063a034af42116100de578063a034af42146103bd578063a1a96a13146103d0578063b60e72cc146103f5578063b86fb3b114610408576101f0565b806360307545146103575780636bd6ec451461036a5780636f77926b1461037d578063903b6b8a1461039d576101f0565b80633c4deb11116101875780634109eedf116101565780634109eedf146102fe578063498465b61461031e5780634b5c4277146103315780635a7596c414610344576101f0565b80633c4deb11146102a55780633ca6268e146102c55780633ea0b9d5146102d85780633ee01625146102eb576101f0565b8063319af333116101c3578063319af333146102595780633692d61a1461026c57806337d6d0731461027f5780633beddd6714610292576101f0565b8063127c62a4146101f5578063205bdd8b1461021e57806323cdd8e814610231578063295ed44b14610246575b600080fd5b6102086102033660046138ff565b6104de565b6040516102159190613d28565b60405180910390f35b61020861022c366004613969565b610875565b61024461023f366004613810565b6109c3565b005b610208610254366004613a1a565b610a00565b61024461026736600461373d565b610b03565b61024461027a3660046137ce565b610b34565b61024461028d3660046136eb565b610b65565b6102086102a036600461399b565b610b99565b6102b86102b3366004613551565b610ee2565b6040516102159190613d5a565b6102446102d33660046137ce565b610f50565b6102446102e6366004613583565b610f81565b6102446102f93660046139ff565b610fed565b61031161030c36600461366d565b61109f565b6040516102159190613d33565b61024461032c3660046139ff565b61133e565b61024461033f366004613810565b611478565b610208610352366004613937565b6114a9565b6102446103653660046136eb565b61175e565b6102446103783660046139ff565b61179f565b61039061038b366004613537565b611897565b60405161021591906140e8565b6103b06103ab3660046135c4565b611a3c565b6040516102159190613c34565b6103116103cb366004613a4c565b611cef565b6103e36103de366004613703565b611e85565b60405161021596959493929190614178565b6102446104033660046137ce565b611ecd565b6103116104163660046136eb565b611efe565b610244610429366004613551565b611f10565b61024461043c36600461377f565b612280565b61024461044f366004613870565b6122b1565b6104676104623660046136eb565b612329565b604051610215929190613e70565b610244610483366004613696565b6123ee565b61049b61049636600461366d565b612429565b604051610215929190613cf3565b6102086104b73660046139cd565b6124d2565b6104cf6104ca3660046136eb565b61271a565b60405161021593929190613c0d565b6000805a90506001915060005b6104f860808501856141a2565b90508110156105655761054a61051160808601866141a2565b8381811061052f57634e487b7160e01b600052603260045260246000fd5b905060200281019061054191906141ef565b61035290614329565b61055357600092505b8061055d816143c6565b9150506104eb565b5060005b61057384806141a2565b90508110156105dd576105c261058985806141a2565b838181106105a757634e487b7160e01b600052603260045260246000fd5b90506020028101906105b991906141ef565b61022c90614335565b6105cb57600092505b806105d5816143c6565b915050610569565b5060005b6105ee60208501856141a2565b905081101561065b5761064061060760208601866141a2565b8381811061062557634e487b7160e01b600052603260045260246000fd5b90506020028101906106379190614204565b6102a090614341565b61064957600092505b80610653816143c6565b9150506105e1565b5060005b61066c60408501856141a2565b90508110156106d9576106be61068560408601866141a2565b838181106106a357634e487b7160e01b600052603260045260246000fd5b90506020028101906106b59190614219565b61025490614359565b6106c757600092505b806106d1816143c6565b91505061065f565b5060005b6106ea60608501856141a2565b90508110156107575761073c61070360608601866141a2565b8381811061072157634e487b7160e01b600052603260045260246000fd5b905060200281019061073391906141ef565b6104b79061434d565b61074557600092505b8061074f816143c6565b9150506106dd565b5060005b6107696101008501856141a2565b90508110156107bf576107ad6107836101008601866141a2565b838181106107a157634e487b7160e01b600052603260045260246000fd5b9050602002013561175e565b806107b7816143c6565b91505061075b565b506101208301351580159061081257506007836101200135815481106107f557634e487b7160e01b600052603260045260246000fd5b60009182526020909120600390910201546001600160a01b031633145b1561086e575a6108229082614312565b60078461012001358154811061084857634e487b7160e01b600052603260045260246000fd5b9060005260206000209060030201600101600082825461086891906142bb565b90915550505b505b919050565b600080610886338460000151610ee2565b9050600060028260038460405161089d9190613b83565b90815260405190819003602001812054906003906108bc908790613b83565b90815260200160405180910390206001015487602001516040516020016108e7959493929190613de9565b6040516020818303038152906040529050600061090a82805190602001206127e3565b90506109396040518060400160405280600b81526020016a456e636f646564206d736760a81b815250836109c3565b610947818660400151612813565b6001600160a01b031685600001516001600160a01b0316146109a4576109986040518060400160405280600f81526020016e024b73b30b634b21039b4b3b732b91608d1b8152508660000151610b03565b60009350505050610870565b6109b73386600001518760200151612854565b50600195945050505050565b7fe8407a0209fa99ec3a7228aff140c3d3e68bd279391739c7e0b65cd406cc93b582826040516109f4929190613ed1565b60405180910390a15050565b600080610a11338460000151610ee2565b83516040519192506001600160a01b03163310908190600390610a35908590613b83565b9081526040519081900360200190206003015460ff161515148015610a7a5750600382604051610a659190613b83565b90815260200160405180910390206004015443105b15610a8a57600092505050610870565b602080850151604051610a9d9201613d15565b60405160208183030381529060405280519060200120600383604051610ac39190613b83565b90815260200160405180910390206005015414610ae557600092505050610870565b610af83385600001518660200151612854565b506001949350505050565b7f62ddffe5b5108385f7a590f100e1ee414ad9551a31f089e64e82998440785e1e82826040516109f4929190613e70565b7f02d93529bba9d141e5e06733c52c7e6fbcb1149586adb5c24064b522ab26f1d782826040516109f4929190613ebe565b610b7161c35043614312565b6000828152600560205260409020541015610b96576000818152600560205260408120555b50565b600080610baa338460000151610ee2565b90506000600382600384604051610bc19190613b83565b90815260200160405180910390206000015486602001518760400151604051602001610bf1959493929190613e33565b60405160208183030381529060405290506000610c1482805190602001206127e3565b9050610c436040518060400160405280600b81526020016a656e636f6465645f6d736760a81b815250836109c3565b84600001516001600160a01b0316610c5f828760800151612813565b6001600160a01b031614610c8e5760405162461bcd60e51b8152600401610c8590614092565b60405180910390fd5b600383604051610c9e9190613b83565b90815260200160405180910390206004015460001415610ddc5784600001516001600160a01b0316336001600160a01b031610600384604051610ce19190613b83565b908152602001604051809103902060030160006101000a81548160ff0219169083151502179055508460200151600384604051610d1e9190613b83565b9081526020016040518091039020600201819055508460400151600384604051610d489190613b83565b90815260405190819003602001902060050155610d664360146142bb565b600384604051610d769190613b83565b908152602001604051809103902060040181905550610dd7604051806040016040528060098152602001681cd95d081d5b9d1a5b60ba1b815250600385604051610dc09190613b83565b908152602001604051809103902060040154611ecd565b610af8565b84516040516001600160a01b03909116331090600390610dfd908690613b83565b9081526040519081900360200190206003015460ff161514610e315760405162461bcd60e51b8152600401610c859061400b565b8460200151600384604051610e469190613b83565b90815260200160405180910390206002015410610e755760405162461bcd60e51b8152600401610c8590613fd4565b8460600151604051602001610e8a9190613d15565b60405160208183030381529060405280519060200120856040015114610ec25760405162461bcd60e51b8152600401610c8590613f64565b610ed53386600001518760600151612854565b5060019350505050610870565b6060816001600160a01b0316836001600160a01b031610610f24578183604051602001610f10929190613b5c565b604051602081830303815290604052610f47565b8282604051602001610f37929190613b5c565b6040516020818303038152906040525b90505b92915050565b7f6a837ff3973aa4181e7b9f07756f8b7ee366dd85a36655d2cb42cd47f10b963882826040516109f4929190613ebe565b6001600160a01b039384166000908152600260208181526040808420958452948152848320855180870190965293855294861684860190815283546001808201865594845295909220935194029092019283559051910180546001600160a01b03191691909216179055565b610ffb33826020015161109f565b50604080820151336000908152602081815283822081860151835290529190912054101561102857600080fd5b60408082015133600090815260208181528382208186015183529052918220805491929091611058908490614312565b909155505060408082015182516001600160a01b03166000908152602081815283822081860151835290529182208054919290916110979084906142bb565b909155505050565b6001600160a01b0382166000908152600260209081526040808320848452909152812054806110d2576000915050610f4a565b6001600160a01b0384166000818152602081815260408083208784528252808320549383526001825280832087845290915290205481611120576111168184614312565b9350505050610f4a565b6001600160a01b0386166000908152600260209081526040808320888452909152812080548390811061116357634e487b7160e01b600052603260045260246000fd5b906000526020600020906002020190508060000154831061128f57805461118a9084614312565b815460018301546001600160a01b03166000908152602081815260408083208b84529091528120805493965091926111c39084906142bb565b90915550506001600160a01b0387166000908152600260209081526040808320898452909152902080548390811061120b57634e487b7160e01b600052603260045260246000fd5b600091825260208220600290910201908155600190810180546001600160a01b0319169055849061123d9084906142bb565b141561127d576001600160a01b038716600090815260026020908152604080832089845290915281209092506112739083612edf565b60009350506112f3565b81611287816143c6565b9250506112ed565b60018101546001600160a01b0316600090815260208181526040808320898452909152812080548592906112c49084906142bb565b90915550508054839082906000906112dd908490614312565b90915550600093506112f3915050565b50611120565b6001600160a01b0386166000818152602081815260408083208984528252808320869055928252600181528282208883529052208190556113348184614312565b9695505050505050565b61134c33826020015161109f565b50604080820151336000908152602081815283822081860151835290529190912054101561137957600080fd5b604080820151336000908152602081815283822081860151835290529182208054919290916113a9908490614312565b9250508190555060068160200151815481106113d557634e487b7160e01b600052603260045260246000fd5b60009182526020909120600160029092020101548151604080840151905163a9059cbb60e01b81526001600160a01b039093169263a9059cbb9261141d929091600401613bf4565b602060405180830381600087803b15801561143757600080fd5b505af115801561144b573d6000803e3d6000fd5b505050506040513d601f19601f8201168201806040525081019061146f91906136c8565b610b9657600080fd5b7f27a8767ed172b48d7cf6dbb25d2840c5fa91ef78fa6e05c13c82763d099f03ca82826040516109f4929190613ed1565b80516000906001600160a01b038116339081109183916114c891610ee2565b905060006001826003846040516114df9190613b83565b90815260405190819003602001812054906003906114fe908790613b83565b9081526020016040518091039020600101548860200151604051602001611529959493929190613d6d565b6040516020818303038152906040529050600061154c82805190602001206127e3565b905061157b6040518060400160405280600b81526020016a456e636f646564206d736760a81b815250836109c3565b611589818760400151612813565b6001600160a01b031686600001516001600160a01b0316146115e7576115da6040518060400160405280600f81526020016e024b73b30b634b21039b4b3b732b91608d1b8152508760000151610b03565b6000945050505050610870565b6003836040516115f79190613b83565b9081526040519081900360200190206001018054906000611617836143c6565b919050555060005b86602001515181101561174f5760008760200151828151811061165257634e487b7160e01b600052603260045260246000fd5b602002602001015160000151905060008860200151838151811061168657634e487b7160e01b600052603260045260246000fd5b602002602001015160200151905060006004876040516116a69190613b83565b9081526020016040518091039020600084815260200190815260200160002090508181600001541061173957818160000160008282546116e69190614312565b9091555050871561170b578181600101600082825461170591906142d3565b90915550505b33600090815260208181526040808320868452909152812080548492906117339084906142bb565b90915550505b5050508080611747906143c6565b91505061161f565b506109b7338760000151611f10565b4360056000836040516020016117749190613d33565b6040516020818303038152906040528051906020012081526020019081526020016000208190555050565b60068160200151815481106117c457634e487b7160e01b600052603260045260246000fd5b600091825260209091206001600290920201015460408083015190516323b872dd60e01b81526001600160a01b03909216916323b872dd9161180c9133913091600401613bd0565b602060405180830381600087803b15801561182657600080fd5b505af115801561183a573d6000803e3d6000fd5b505050506040513d601f19601f8201168201806040525081019061185e91906136c8565b61186757600080fd5b604080820151336000908152602081815283822081860151835290529182208054919290916110979084906142bb565b61189f612f00565b60006040518060400160405280846001600160a01b03163181526020016006805490506001600160401b038111156118e757634e487b7160e01b600052604160045260246000fd5b60405190808252806020026020018201604052801561192057816020015b61190d612f1a565b8152602001906001900390816119055790505b509052905060005b600654811015611a3557604080516060810182526001600160a01b0386166000818152602081815284822086835281528482205484528282526001815284822086835281528482205481850152918152600282528381208582528252838120805485518185028101850187528181529495860194939192909184015b828210156119ec5760008481526020908190206040805180820190915260028502909101805482526001908101546001600160a01b03168284015290835290920191016119a4565b5050505081525082602001518281518110611a1757634e487b7160e01b600052603260045260246000fd5b60200260200101819052508080611a2d906143c6565b915050611928565b5092915050565b60608082516001600160401b03811115611a6657634e487b7160e01b600052604160045260246000fd5b604051908082528060200260200182016040528015611a9f57816020015b611a8c612f3b565b815260200190600190039081611a845790505b50915060005b8351811015611ce757611adf85858381518110611ad257634e487b7160e01b600052603260045260246000fd5b6020026020010151610ee2565b91506040518060600160405280858381518110611b0c57634e487b7160e01b600052603260045260246000fd5b60200260200101516001600160a01b03168152602001600384604051611b329190613b83565b908152604080516020928190038301812060c08201835280548252600181015484830152600281015492820192909252600382015460ff16151560608201526004820154608082015260059091015460a082015282526006549101906001600160401b03811115611bb357634e487b7160e01b600052604160045260246000fd5b604051908082528060200260200182016040528015611bec57816020015b611bd9612f6b565b815260200190600190039081611bd15790505b50815250838281518110611c1057634e487b7160e01b600052603260045260246000fd5b602002602001018190525060005b600654811015611cd457600483604051611c389190613b83565b908152604080519182900360209081018320600085815290825282902083830190925281548352600190910154908201528451859084908110611c8b57634e487b7160e01b600052603260045260246000fd5b6020026020010151604001518281518110611cb657634e487b7160e01b600052603260045260246000fd5b60200260200101819052508080611ccc906143c6565b915050611c1e565b5080611cdf816143c6565b915050611aa5565b505092915050565b600082611ddd57604080516060810182523381526000602080830182815293830186815260078054600181018255935283517fa66cc928b5edb82af9bd49922954155ab7b0942694bea4ce44661d9a8736c688600390940293840180546001600160a01b0319166001600160a01b0390921691909117815594517fa66cc928b5edb82af9bd49922954155ab7b0942694bea4ce44661d9a8736c689840155518051939493611dc4937fa66cc928b5edb82af9bd49922954155ab7b0942694bea4ce44661d9a8736c68a01929190910190612f85565b5050600754611dd69150600190614312565b9050610f4a565b60078381548110611dfe57634e487b7160e01b600052603260045260246000fd5b60009182526020909120600390910201546001600160a01b03163314611e365760405162461bcd60e51b8152600401610c85906140ba565b8160078481548110611e5857634e487b7160e01b600052603260045260246000fd5b90600052602060002090600302016002019080519060200190611e7c929190612f85565b50829050610f4a565b805160208183018101805160038083529383019290940191909120929052815460018301546002840154928401546004850154600590950154929491939260ff909116919086565b7f941296a39ea107bde685522318a4b6c2b544904a5dd82a512748ca2cf839bef782826040516109f4929190613ebe565b60056020526000908152604090205481565b6000611f1c8383610ee2565b9050611f53604051806040016040528060138152602001720f8f8f88131bd9d9da5b99c818da185b9b995b606a1b815250826109c3565b611fa760405180604001604052806011815260200170636f6f70657261746976655f6e6f6e636560781b815250600383604051611f909190613b83565b908152602001604051809103902060010154611ecd565b611ff76040518060400160405280600d81526020016c646973707574655f6e6f6e636560981b815250600383604051611fe09190613b83565b908152602001604051809103902060020154611ecd565b61203660405180604001604052806013815260200172646973707574655f756e74696c5f626c6f636b60681b815250600383604051610dc09190613b83565b60005b60065481101561227a5761212460405180604001604052806005815260200164105cdcd95d60da1b8152506006838154811061208557634e487b7160e01b600052603260045260246000fd5b906000526020600020906002020160000180546120a190614391565b80601f01602080910402602001604051908101604052809291908181526020018280546120cd90614391565b801561211a5780601f106120ef5761010080835404028352916020019161211a565b820191906000526020600020905b8154815290600101906020018083116120fd57829003601f168201915b5050505050611478565b60408051808201825260058152642632b33a1d60d91b6020808301919091526001600160a01b0387166000908152808252838120858252909152919091205461216d9190611ecd565b60408051808201825260068152652934b3b43a1d60d11b6020808301919091526001600160a01b038616600090815280825283812085825290915291909120546121b79190611ecd565b61220d6040518060400160405280600a81526020016918dbdb1b185d195c985b60b21b8152506004846040516121ed9190613b83565b908152604080516020928190038301902060008681529252902054611ecd565b612268604051806040016040528060078152602001666f6e64656c746160c81b8152506004846040516122409190613b83565b9081526020016040518091039020600084815260200190815260200160002060010154610f50565b80612272816143c6565b915050612039565b50505050565b7f4c34c2f9a78632f29fa59aaed5514cb742fd9fbcfd7ccc2c03c85f2bbc621c4782826040516109f4929190613e9a565b600680546001810182556000919091528151805183926002027ff652222313e28459528d920b65115c16c04f3efc82aaedc97be59f3f377c0d3f01916122fc91839160200190612f85565b5060209190910151600190910180546001600160a01b0319166001600160a01b0390921691909117905550565b6006818154811061233957600080fd5b906000526020600020906002020160009150905080600001805461235c90614391565b80601f016020809104026020016040519081016040528092919081815260200182805461238890614391565b80156123d55780601f106123aa576101008083540402835291602001916123d5565b820191906000526020600020905b8154815290600101906020018083116123b857829003601f168201915b505050600190930154919250506001600160a01b031682565b6001600160a01b0383166000908152602081815260408083208584529091528120805483929061241f9084906142bb565b9091555050505050565b6001600160a01b038216600081815260016020908152604080832085845282528083205493835260028252808320858452825280832080548251818502810185019093528083526060959492939192909184015b828210156124c55760008481526020908190206040805180820190915260028502909101805482526001908101546001600160a01b031682840152908352909201910161247d565b5050505091509250929050565b602081015181516000916001600160a01b03808216908316109183916124f89190610ee2565b905061250c84600001518560200151611f10565b60005b8460400151518110156126fd5760008560400151828151811061254257634e487b7160e01b600052603260045260246000fd5b602002602001015160000151905060008660400151838151811061257657634e487b7160e01b600052603260045260246000fd5b602002602001015160200151905061258e338361109f565b503360009081526020818152604080832085845290915290205481116126a85760006004856040516125c09190613b83565b9081526040805160209281900383019020600086815290835281812033825281845282822087835290935290812080549293508492909190612603908490614312565b909155505080548290829060009061261c9084906142bb565b90915550508515612641578181600101600082825461263b919061427a565b90915550505b6126a26040518060400160405280601581526020017402232b837b9b4ba32b2103a379031b430b73732b61605d1b8152506004876040516126829190613b83565b908152604080516020928190038301902060008881529252902054611ecd565b506126e8565b6126da6040518060400160405280601081526020016f4e6f7420656e6f7567682066756e647360801b81525033610b03565b600095505050505050610870565b505080806126f5906143c6565b91505061250f565b5061271084600001518560200151611f10565b5060019392505050565b6007818154811061272a57600080fd5b60009182526020909120600390910201805460018201546002830180546001600160a01b03909316945090929161276090614391565b80601f016020809104026020016040519081016040528092919081815260200182805461278c90614391565b80156127d95780601f106127ae576101008083540402835291602001916127d9565b820191906000526020600020905b8154815290600101906020018083116127bc57829003601f168201915b5050505050905083565b6000816040516020016127f69190613b9f565b604051602081830303815290604052805190602001209050919050565b600081516041146128365760405162461bcd60e51b8152600401610c8590613f2d565b60208201516040830151606084015160001a61133486828585612de9565b6000806000846001600160a01b0316866001600160a01b0316101561287d575084905083612883565b50839050845b60008282604051602001612898929190613b5c565b60405160208183030381529060405290506128b38383611f10565b60005b8551811015612ce35760008682815181106128e157634e487b7160e01b600052603260045260246000fd5b602002602001015160000151905060006004846040516129019190613b83565b9081526020016040518091039020600083815260200190815260200160002090506000816001015489858151811061294957634e487b7160e01b600052603260045260246000fd5b60200260200101516020015161295f919061427a565b905060008112158015612973575081548111155b156129fa576001600160a01b0387166000908152602081815260408083208684529091528120805483928392916129ab9084906142bb565b909155505082546129bd908290614312565b6001600160a01b038816600090815260208181526040808320888452909152812080549091906129ee9084906142bb565b90915550612c99915050565b6000808212612a095787612a0b565b865b90506000808312612a1c5787612a1e565b885b90506000808412612a3a578454612a359085614312565b612a43565b612a43846143e1565b9050612a706040518060400160405280600981526020016819d95d1cc81919589d60ba1b81525083610b03565b612a96604051806040016040528060048152602001631919589d60e21b81525082611ecd565b84546001600160a01b0384166000908152602081815260408083208a845290915281208054909190612ac99084906142bb565b90915550506001600160a01b0382166000908152602081815260408083208984529091529020548111612b68576001600160a01b03831660009081526020818152604080832089845290915281208054839290612b279084906142bb565b90915550506001600160a01b03821660009081526020818152604080832089845290915281208054839290612b5d908490614312565b90915550612c959050565b6001600160a01b03821660009081526020818152604080832089845290915290205415612c2b576001600160a01b038083166000908152602081815260408083208a845282528083205493871683528282528083208a845290915281208054909190612bd59084906142bb565b90915550506001600160a01b038216600090815260208181526040808320898452909152902054612c069082614312565b6001600160a01b0383166000908152602081815260408083208a845290915281205590505b6001600160a01b0382811660009081526002602081815260408084208b85528252808420815180830190925286825288861682840190815281546001808201845592875293909520915192909302019081559151910180546001600160a01b031916919092161790555b5050505b600485604051612ca99190613b83565b9081526040805160209281900383019020600095865290915283208381556001019290925550819050612cdb816143c6565b9150506128b6565b50600381604051612cf49190613b83565b908152602001604051809103902060050160009055600381604051612d199190613b83565b908152602001604051809103902060020160009055600381604051612d3e9190613b83565b908152602001604051809103902060010160009055600381604051612d639190613b83565b908152602001604051809103902060040160009055600381604051612d889190613b83565b9081526040519081900360200181206003908101805460ff1916905590612db0908390613b83565b9081526040519081900360200190208054906000612dcd836143c6565b9190505550612ddc8383611f10565b5060019695505050505050565b60007f7fffffffffffffffffffffffffffffff5d576e7357a4501ddfe92f46681b20a0821115612e2b5760405162461bcd60e51b8152600401610c8590613f92565b8360ff16601b1480612e4057508360ff16601c145b612e5c5760405162461bcd60e51b8152600401610c8590614050565b600060018686868660405160008152602001604052604051612e819493929190613d3c565b6020604051602081039080840390855afa158015612ea3573d6000803e3d6000fd5b5050604051601f1901519150506001600160a01b038116612ed65760405162461bcd60e51b8152600401610c8590613ef6565b95945050505050565b5080546000825560020290600052602060002090810190610b969190613009565b604051806040016040528060008152602001606081525090565b60405180606001604052806000815260200160008152602001606081525090565b604051806060016040528060006001600160a01b03168152602001612f5e613030565b8152602001606081525090565b604051806040016040528060008152602001600081525090565b828054612f9190614391565b90600052602060002090601f016020900481019282612fb35760008555612ff9565b82601f10612fcc57805160ff1916838001178555612ff9565b82800160010185558215612ff9579182015b82811115612ff9578251825591602001919060010190612fde565b5061300592915061306b565b5090565b5b8082111561300557600081556001810180546001600160a01b031916905560020161300a565b6040518060c0016040528060008152602001600081526020016000815260200160001515815260200160008152602001600080191681525090565b5b80821115613005576000815560010161306c565b80356001600160a01b038116811461087057600080fd5b600082601f8301126130a7578081fd5b813560206130bc6130b783614257565b61422e565b828152818101908583016040808602880185018910156130da578687fd5b865b868110156131325781838b0312156130f2578788fd5b81518281018181106001600160401b038211171561311257613112614411565b8352833581528684013587820152855293850193918101916001016130dc565b509198975050505050505050565b600082601f830112613150578081fd5b813560206131606130b783614257565b8281528181019085830160408086028801850189101561317e578687fd5b865b868110156131325781838b031215613196578788fd5b81518281018181106001600160401b03821117156131b6576131b6614411565b835283358152868401358782015285529385019391810191600101613180565b600082601f8301126131e6578081fd5b81356001600160401b038111156131ff576131ff614411565b613212601f8201601f191660200161422e565b818152846020838601011115613226578283fd5b816020850160208301379081016020019190915292915050565b600060608284031215613251578081fd5b604051606081016001600160401b03828210818311171561327457613274614411565b8160405282935061328485613080565b8352602085013591508082111561329a57600080fd5b6132a686838701613097565b602084015260408501359150808211156132bf57600080fd5b506132cc858286016131d6565b6040830152505092915050565b6000606082840312156132ea578081fd5b604051606081016001600160401b03828210818311171561330d5761330d614411565b8160405282935061331d85613080565b8352602085013591508082111561333357600080fd5b6132a686838701613140565b600060a08284031215613350578081fd5b60405160a081016001600160401b03828210818311171561337357613373614411565b8160405282935061338385613080565b8352602085013560208401526040850135604084015260608501359150808211156133ad57600080fd5b6133b986838701613140565b606084015260808501359150808211156133d257600080fd5b506133df858286016131d6565b6080830152505092915050565b6000606082840312156133fd578081fd5b604051606081016001600160401b03828210818311171561342057613420614411565b8160405282935061343085613080565b835261343e60208601613080565b6020840152604085013591508082111561345757600080fd5b506132cc85828601613097565b600060608284031215613475578081fd5b604051606081018181106001600160401b038211171561349757613497614411565b6040529050806134a683613080565b815260208301356020820152604083013560408201525092915050565b6000604082840312156134d4578081fd5b604051604081016001600160401b0382821081831117156134f7576134f7614411565b8160405282935061350785613080565b8352602085013591508082111561351d57600080fd5b5061352a85828601613140565b6020830152505092915050565b600060208284031215613548578081fd5b610f4782613080565b60008060408385031215613563578081fd5b61356c83613080565b915061357a60208401613080565b90509250929050565b60008060008060808587031215613598578182fd5b6135a185613080565b93506135af60208601613080565b93969395505050506040820135916060013590565b600080604083850312156135d6578182fd5b6135df83613080565b91506020808401356001600160401b038111156135fa578283fd5b8401601f8101861361360a578283fd5b80356136186130b782614257565b81815283810190838501858402850186018a1015613634578687fd5b8694505b8385101561365d5761364981613080565b835260019490940193918501918501613638565b5080955050505050509250929050565b6000806040838503121561367f578182fd5b61368883613080565b946020939093013593505050565b6000806000606084860312156136aa578081fd5b6136b384613080565b95602085013595506040909401359392505050565b6000602082840312156136d9578081fd5b81516136e481614427565b9392505050565b6000602082840312156136fc578081fd5b5035919050565b600060208284031215613714578081fd5b81356001600160401b03811115613729578182fd5b613735848285016131d6565b949350505050565b6000806040838503121561374f578182fd5b82356001600160401b03811115613764578283fd5b613770858286016131d6565b92505061357a60208401613080565b60008060408385031215613791578182fd5b82356001600160401b038111156137a6578283fd5b6137b2858286016131d6565b92505060208301356137c381614427565b809150509250929050565b600080604083850312156137e0578182fd5b82356001600160401b038111156137f5578283fd5b613801858286016131d6565b95602094909401359450505050565b60008060408385031215613822578182fd5b82356001600160401b0380821115613838578384fd5b613844868387016131d6565b93506020850135915080821115613859578283fd5b50613866858286016131d6565b9150509250929050565b600060208284031215613881578081fd5b81356001600160401b0380821115613897578283fd5b90830190604082860312156138aa578283fd5b6040516040810181811083821117156138c5576138c5614411565b6040528235828111156138d6578485fd5b6138e2878286016131d6565b8252506138f160208401613080565b602082015295945050505050565b600060208284031215613910578081fd5b81356001600160401b03811115613925578182fd5b820161014081850312156136e4578182fd5b600060208284031215613948578081fd5b81356001600160401b0381111561395d578182fd5b61373584828501613240565b60006020828403121561397a578081fd5b81356001600160401b0381111561398f578182fd5b613735848285016132d9565b6000602082840312156139ac578081fd5b81356001600160401b038111156139c1578182fd5b6137358482850161333f565b6000602082840312156139de578081fd5b81356001600160401b038111156139f3578182fd5b613735848285016133ec565b600060608284031215613a10578081fd5b610f478383613464565b600060208284031215613a2b578081fd5b81356001600160401b03811115613a40578182fd5b613735848285016134c3565b60008060408385031215613a5e578182fd5b8235915060208301356001600160401b03811115613a7a578182fd5b613866858286016131d6565b6000815180845260208085019450808401835b83811015613ac0578151805188528301518388015260409096019590820190600101613a99565b509495945050505050565b6000815180845260208085019450808401835b83811015613ac0578151805188528301516001600160a01b03168388015260409096019590820190600101613ade565b60008151808452613b26816020860160208601614365565b601f01601f19169290920160200192915050565b60048110613b5857634e487b7160e01b600052602160045260246000fd5b9052565b6bffffffffffffffffffffffff19606093841b811682529190921b16601482015260280190565b60008251613b95818460208701614365565b9190910192915050565b7f19457468657265756d205369676e6564204d6573736167653a0a3332000000008152601c810191909152603c0190565b6001600160a01b039384168152919092166020820152604081019190915260600190565b6001600160a01b03929092168252602082015260400190565b600060018060a01b038516825283602083015260606040830152612ed66060830184613b0e565b60208082528251828201819052600091906040908185019080840286018301878501865b83811015613ce557888303603f19018552815180516001600160a01b0316845287810151805189860152808901518886015287810151606080870191909152810151151560808087019190915281015160a080870191909152015160c085015286015161010060e08501819052613cd181860183613a86565b968901969450505090860190600101613c58565b509098975050505050505050565b600060408252613d066040830185613acb565b90508260208301529392505050565b600060208252610f476020830184613a86565b901515815260200190565b90815260200190565b93845260ff9290921660208401526040830152606082015260800190565b600060208252610f476020830184613b0e565b6000613d798288613b3a565b602060a081840152613d8e60a0840188613b0e565b6040848101889052606085018790528482036080860152855180835283870192840190855b81811015613dd857845180518452860151868401529385019391830191600101613db3565b50909b9a5050505050505050505050565b6000613df58288613b3a565b60a06020830152613e0960a0830187613b0e565b8560408401528460608401528281036080840152613e278185613a86565b98975050505050505050565b6000613e3f8288613b3a565b60a06020830152613e5360a0830187613b0e565b604083019590955250606081019290925260809091015292915050565b600060408252613e836040830185613b0e565b905060018060a01b03831660208301529392505050565b600060408252613ead6040830185613b0e565b905082151560208301529392505050565b600060408252613d066040830185613b0e565b600060408252613ee46040830185613b0e565b8281036020840152612ed68185613b0e565b60208082526018908201527f45434453413a20696e76616c6964207369676e61747572650000000000000000604082015260600190565b6020808252601f908201527f45434453413a20696e76616c6964207369676e6174757265206c656e67746800604082015260600190565b602080825260149082015273092dcecc2d8d2c840cadce8e4d2cae6bed0c2e6d60631b604082015260600190565b60208082526022908201527f45434453413a20696e76616c6964207369676e6174757265202773272076616c604082015261756560f01b606082015260800190565b60208082526019908201527f4e6577206e6f6e6365206d757374206265206772656174657200000000000000604082015260600190565b60208082526025908201527f4f6e6c7920796f757220706172746e65722063616e20636f756e746572206469604082015264737075746560d81b606082015260800190565b60208082526022908201527f45434453413a20696e76616c6964207369676e6174757265202776272076616c604082015261756560f01b606082015260800190565b6020808252600e908201526d24b73b30b634b21039b4b3b732b960911b604082015260600190565b6020808252601490820152734e6f7420796f757220687562206164647265737360601b604082015260600190565b600060208083526060808401855183860152828601516040808188015282825180855260808901915060808782028a010194508684019350875b8181101561416957898603607f19018352845180518752888101518988015284015184870188905261415688880182613acb565b9650509387019391870191600101614122565b50939998505050505050505050565b9586526020860194909452604085019290925215156060840152608083015260a082015260c00190565b6000808335601e198436030181126141b8578283fd5b8301803591506001600160401b038211156141d1578283fd5b60209081019250810236038213156141e857600080fd5b9250929050565b60008235605e19833603018112613b95578182fd5b60008235609e19833603018112613b95578182fd5b60008235603e19833603018112613b95578182fd5b6040518181016001600160401b038111828210171561424f5761424f614411565b604052919050565b60006001600160401b0382111561427057614270614411565b5060209081020190565b600080821280156001600160ff1b038490038513161561429c5761429c6143fb565b600160ff1b83900384128116156142b5576142b56143fb565b50500190565b600082198211156142ce576142ce6143fb565b500190565b60008083128015600160ff1b8501841216156142f1576142f16143fb565b6001600160ff1b038401831381161561430c5761430c6143fb565b50500390565b600082821015614324576143246143fb565b500390565b6000610f4a3683613240565b6000610f4a36836132d9565b6000610f4a368361333f565b6000610f4a36836133ec565b6000610f4a36836134c3565b60005b83811015614380578181015183820152602001614368565b8381111561227a5750506000910152565b6002810460018216806143a557607f821691505b6020821081141561086e57634e487b7160e01b600052602260045260246000fd5b60006000198214156143da576143da6143fb565b5060010190565b6000600160ff1b8214156143f7576143f76143fb565b0390565b634e487b7160e01b600052601160045260246000fd5b634e487b7160e01b600052604160045260246000fd5b8015158114610b9657600080fdfea2646970667358221220d4ccc309fcc56490cd193aa4aaabf80378455b26e5a936851b8b8ea31acb1d5264736f6c63430008000033a66cc928b5edb82af9bd49922954155ab7b0942694bea4ce44661d9a8736c68aa66cc928b5edb82af9bd49922954155ab7b0942694bea4ce44661d9a8736c688f652222313e28459528d920b65115c16c04f3efc82aaedc97be59f3f377c0d3fa66cc928b5edb82af9bd49922954155ab7b0942694bea4ce44661d9a8736c689",
  "immutableReferences": {},
  "source": "// SPDX-License-Identifier: MIT\npragma solidity >=0.8.0;\npragma experimental ABIEncoderV2;\n\nimport \"./Token.sol\";\nimport \"./ECDSA.sol\";\nimport \"./console.sol\";\n\ncontract XLN is Console {\n  enum MessageType {\n    JSON, // for offchain messages\n    WithdrawProof,\n    CooperativeProof,\n    DisputeProof\n  }\n\n  struct AssetAmountPair {\n    uint asset_id;\n    uint amount;\n  }\n\n  struct ReserveToChannel {\n    address receiver;\n    address partner;\n    AssetAmountPair[] pairs;\n  }\n\n  struct ChannelToReserve {\n    address partner;\n    AssetAmountPair[] pairs;\n    bytes sig; \n  }\n\n  /*\n  struct Lock {\n    uint amount;\n    uint until_block;\n    bytes32 hash;\n  }\n  */\n\n  struct Entry {\n    uint asset_id;\n    int offdelta;\n    //Lock[] left_locks;\n    //Lock[] right_locks;\n  }\n\n  struct CooperativeProof{\n    address partner;\n    Entry[] entries;\n    bytes sig; \n  }\n\n  struct DisputeProof {\n    address partner;\n    uint dispute_nonce;\n    bytes32 entries_hash;\n    Entry[] entries; \n    bytes sig; \n  }\n\n  struct RevealEntries {\n    address partner;\n    Entry[] entries;\n  }\n\n  // Internal structs\n  struct Debt{\n    uint amount;\n    address pay_to;\n  }\n  \n  struct Collateral {\n    uint collateral;\n    int ondelta;\n  }\n\n  struct Channel{\n    // stored indefinitely, incremented every time a channel is closed (dispute or cooperative) \n    // to invalidate all previously created proofs\n    uint channel_counter;\n\n    // used for withdrawals and cooperative close\n    uint cooperative_nonce;\n\n    // used for dispute (non-cooperative) close \n    uint dispute_nonce;\n\n    bool dispute_started_by_left;\n    uint dispute_until_block;\n\n    // hash of entries is stored during dispute close\n    // actual entries are only needed to finalizeChannel\n    bytes32 entries_hash; \n  }\n\n\n  // [address user][asset_id]\n  mapping (address => mapping (uint => uint)) reserves;\n  mapping (address => mapping (uint => uint)) debtIndex;\n  mapping (address => mapping (uint => Debt[])) debts;\n\n  // [bytes ch_key][asset_id]\n  mapping (bytes => Channel) public channels;\n  mapping (bytes => mapping(uint => Collateral)) collaterals; \n  \n\n  mapping(bytes32 => uint) public hash_to_block;\n\n\n  struct Asset{\n    string name;\n    address addr;\n  }\n  Asset[] public assets;\n\n\n  struct Hub{\n    address addr;\n    uint gasused;\n    string uri;\n  }\n  Hub[] public hubs;\n  \n\n  constructor() {\n    \n    assets.push(Asset({\n      name: \"WETH\",\n      addr: msg.sender\n    }));\n\n    assets.push(Asset({\n      name: \"DAI\",\n      addr: msg.sender\n    }));\n\n    log(\"now assets \",assets.length);\n\n    // empty hub, hub_id=0 means not a hub\n    hubs.push(Hub({\n      addr: 0x0000000000000000000000000000000000000000,\n      uri: '',\n      gasused: 0\n    }));\n    \n    registerHub(0, \"http://127.0.0.1:8000\");\n\n    topUp(msg.sender, 0, 100000000);\n    topUp(msg.sender, 1, 100000000);\n  }\n\n  function registerAsset(Asset memory assetToRegister) public {\n    //require(Token(assetToRegister.addr).totalSupply() > 0);\n\n    assets.push(assetToRegister);\n  }  \n  \n  function registerHub(uint hub_id, string memory new_uri) public returns (uint) {\n    if (hub_id == 0) {\n      hubs.push(Hub({\n        addr: msg.sender,\n        uri: new_uri,\n        gasused: 0\n      }));\n      return hubs.length - 1;\n    } else {\n      require(msg.sender == hubs[hub_id].addr, \"Not your hub address\");\n      hubs[hub_id].uri = new_uri;\n      return hub_id;\n    }\n  }\n\n  function revealSecret(bytes32 secret) public {\n    hash_to_block[keccak256(abi.encode(secret))] = block.number;\n  }\n  \n  // anyone can get gas refund by deleting very old revealed secrets\n  function cleanSecret(bytes32 hash) public {\n    if (hash_to_block[hash] < block.number - 50000){\n      delete hash_to_block[hash];\n    }\n  }\n\n  struct TokenToReserve{\n    address receiver;\n    uint asset_id;\n    uint amount;\n  }\n  function tokenToReserve(TokenToReserve memory params) public {\n    // todo: allow to delegate to another address\n    require(Token(assets[params.asset_id].addr).transferFrom(msg.sender, address(this), params.amount));\n    reserves[msg.sender][params.asset_id] += params.amount;\n  }\n\n  struct ReserveToToken{\n    address receiver;\n    uint asset_id;\n    uint amount;\n  }\n  function reserveToToken(ReserveToToken memory params) public {\n    enforceDebts(msg.sender, params.asset_id);\n\n    require(reserves[msg.sender][params.asset_id] >= params.amount);\n    reserves[msg.sender][params.asset_id] -= params.amount;\n    require(Token(assets[params.asset_id].addr).transfer(params.receiver, params.amount));\n  }\n  struct ReserveToReserve{\n    address receiver;\n    uint asset_id;\n    uint amount;\n  }\n  function reserveToReserve(ReserveToReserve memory params) public {\n    enforceDebts(msg.sender, params.asset_id);\n\n    require(reserves[msg.sender][params.asset_id] >= params.amount);\n    reserves[msg.sender][params.asset_id] -= params.amount;\n    reserves[params.receiver][params.asset_id] += params.amount;\n  }\n\n\n  function reserveToChannel(ReserveToChannel memory params) public returns (bool completeSuccess) {\n    bool receiver_is_left = params.receiver < params.partner;\n    bytes memory ch_key = channelKey(params.receiver, params.partner);\n\n    logChannel(params.receiver, params.partner);\n\n    for (uint i = 0; i < params.pairs.length; i++) {\n      uint asset_id = params.pairs[i].asset_id;\n      uint amount = params.pairs[i].amount;\n\n      // debts must be paid before any transfers from reserve \n      enforceDebts(msg.sender, asset_id);\n\n      if (reserves[msg.sender][asset_id] >= amount) {\n        Collateral storage col = collaterals[ch_key][asset_id];\n\n        reserves[msg.sender][asset_id] -= amount;\n        \n        col.collateral += amount;\n\n        if (receiver_is_left) {\n          col.ondelta += int(amount);\n        }\n\n        log(\"Deposited to channel \", collaterals[ch_key][asset_id].collateral);\n      } else {\n        log(\"Not enough funds\", msg.sender);\n        return false;\n      }\n    }\n\n    logChannel(params.receiver, params.partner);\n\n    return true;\n  }\n\n  function channelToReserve(ChannelToReserve memory params) public returns (bool) {\n    bool sender_is_left = msg.sender < params.partner;\n    bytes memory ch_key = channelKey(msg.sender, params.partner);\n\n    bytes memory encoded_msg = abi.encode(MessageType.WithdrawProof,ch_key,  channels[ch_key].channel_counter, channels[ch_key].cooperative_nonce, params.pairs);\n\n    bytes32 hash = ECDSA.toEthSignedMessageHash(keccak256(encoded_msg));\n\n    log('Encoded msg', encoded_msg);\n    \n    if(params.partner != ECDSA.recover(hash, params.sig)) {\n      log(\"Invalid signer \", params.partner);\n      return false;\n    }\n\n    channels[ch_key].cooperative_nonce++;\n\n    for (uint i = 0; i < params.pairs.length; i++) {\n      uint asset_id = params.pairs[i].asset_id;\n      uint amount = params.pairs[i].amount;\n\n      Collateral storage col = collaterals[ch_key][asset_id];\n\n      if (col.collateral >= amount) {\n        col.collateral -= amount;\n        if (sender_is_left) {\n          col.ondelta -= int(amount);\n        }\n\n        reserves[msg.sender][asset_id] += amount;\n      }\n    }\n\n    logChannel(msg.sender, params.partner);\n    return true;\n  }\n\n\n  function cooperativeProof(CooperativeProof memory params) public returns (bool) {\n    bytes memory ch_key = channelKey(msg.sender, params.partner);\n\n    bytes memory encoded_msg = abi.encode(MessageType.CooperativeProof, ch_key, channels[ch_key].channel_counter, channels[ch_key].cooperative_nonce, params.entries);\n\n    bytes32 hash = ECDSA.toEthSignedMessageHash(keccak256(encoded_msg));\n    log('Encoded msg',encoded_msg);\n\n    if(params.partner != ECDSA.recover(hash, params.sig)) {\n      log(\"Invalid signer \", params.partner);\n      return false;\n    }\n\n    finalizeChannel(msg.sender, params.partner, params.entries);\n    return true;\n  }\n\n  // gives each user assets to their reserve based on provided entries and stored collaterals\n  // then increases channel_counter to invalidate all previous proofs\n  function finalizeChannel(address user1, address user2, Entry[] memory entries) internal returns (bool) {\n    address l_user;\n    address r_user;\n    if (user1 < user2) {\n      l_user = user1;\n      r_user = user2;\n    } else {\n      l_user = user2;\n      r_user = user1;    \n    }\n\n    bytes memory ch_key = abi.encodePacked(l_user, r_user);\n\n    logChannel(l_user, r_user);\n\n    // iterate over entries and split the assets\n    for (uint i = 0;i<entries.length;i++){\n      uint asset_id = entries[i].asset_id;\n      Collateral storage col = collaterals[ch_key][asset_id];\n\n      // final delta = offdelta + ondelta + unlocked hashlocks\n      int delta = entries[i].offdelta + col.ondelta;\n\n      if (delta >= 0 && uint(delta) <= col.collateral) {\n        // Collateral is split (standard no-credit LN resolution)\n        uint left_gets = uint(delta);\n        reserves[l_user][asset_id] += left_gets;\n        reserves[r_user][asset_id] += col.collateral - left_gets;\n\n      } else {\n        // one user gets entire collateral, another gets debt (resolution enabled by XLN)\n        address getsCollateral = delta < 0 ? r_user : l_user;\n        address getsDebt = delta < 0 ? l_user : r_user;\n        uint debtAmount = delta < 0 ? uint(-delta) : uint(delta) - col.collateral;\n\n        \n        log('gets debt', getsDebt);\n        log('debt', debtAmount);\n\n        reserves[getsCollateral][asset_id] += col.collateral;\n        if (reserves[getsDebt][asset_id] >= debtAmount) {\n          // will pay right away without creating Debt\n          reserves[getsCollateral][asset_id] += debtAmount;\n          reserves[getsDebt][asset_id] -= debtAmount;\n        } else {\n          // pay what they can, and create Debt\n          if (reserves[getsDebt][asset_id] > 0) {\n            reserves[getsCollateral][asset_id] += reserves[getsDebt][asset_id];\n            debtAmount -= reserves[getsDebt][asset_id];\n            reserves[getsDebt][asset_id] = 0;\n          }\n          debts[getsDebt][asset_id].push(Debt({\n            pay_to: getsCollateral,\n            amount: debtAmount\n          }));\n        }\n      }\n\n      delete collaterals[ch_key][asset_id];\n    }\n    delete channels[ch_key].entries_hash;\n    delete channels[ch_key].dispute_nonce;\n    delete channels[ch_key].cooperative_nonce;\n    delete channels[ch_key].dispute_until_block;\n    delete channels[ch_key].dispute_started_by_left;\n\n    channels[ch_key].channel_counter++;\n   \n    logChannel(l_user, r_user);\n\n    return true;\n\n  }\n\n\n  function disputeProof(DisputeProof memory params) public returns (bool) {\n    bytes memory ch_key = channelKey(msg.sender, params.partner);\n\n    bytes memory encoded_msg = abi.encode(MessageType.DisputeProof, ch_key, channels[ch_key].channel_counter, params.dispute_nonce, params.entries_hash);\n\n    bytes32 hash = ECDSA.toEthSignedMessageHash(keccak256(encoded_msg));\n\n    log('encoded_msg',encoded_msg);\n\n    require(ECDSA.recover(hash, params.sig) == params.partner, \"Invalid signer\");\n\n    if (channels[ch_key].dispute_until_block == 0) {\n      // starting a dispute\n      channels[ch_key].dispute_started_by_left = msg.sender < params.partner;\n      channels[ch_key].dispute_nonce = params.dispute_nonce;\n      channels[ch_key].entries_hash = params.entries_hash;\n\n      // todo: hubs get shorter delay\n      channels[ch_key].dispute_until_block = block.number + 20;\n\n      log(\"set until\", channels[ch_key].dispute_until_block);\n    } else {\n      // providing a counter dispute proof with higher nonce\n      require(!channels[ch_key].dispute_started_by_left == msg.sender < params.partner, \"Only your partner can counter dispute\");\n\n      require(channels[ch_key].dispute_nonce < params.dispute_nonce, \"New nonce must be greater\");\n\n      require(params.entries_hash == keccak256(abi.encode(params.entries)), \"Invalid entries_hash\");\n\n      finalizeChannel(msg.sender, params.partner, params.entries);\n      return true;\n    }\n\n    return true;\n  }\n\n\n  function revealEntries(RevealEntries memory params) public returns (bool success) {\n    bytes memory ch_key = channelKey(msg.sender, params.partner);\n\n    bool sender_is_left = msg.sender < params.partner;\n \n    if ((channels[ch_key].dispute_started_by_left == sender_is_left) && block.number < channels[ch_key].dispute_until_block) {\n      return false;\n    } else if (channels[ch_key].entries_hash != keccak256(abi.encode(params.entries))) {\n      return false;\n    } \n\n    finalizeChannel(msg.sender, params.partner, params.entries);\n    return true;\n  }\n\n\n\n\n\n\n\n\n  \n  function getDebts(address addr, uint asset_id) public view returns (Debt[] memory allDebts, uint currentDebtIndex) {\n    currentDebtIndex = debtIndex[addr][asset_id];\n    allDebts = debts[addr][asset_id];\n  }\n\n\n  // triggered automatically before every reserveToChannel\n  // can be called manually if the partner is offline\n  // iterates over debts claims, first-in-first-out \n  function enforceDebts(address addr, uint asset_id) public returns (uint totalDebts) {\n    uint debtsLength = debts[addr][asset_id].length;\n    if (debtsLength == 0) {\n      return 0;\n    }\n   \n    uint memoryReserve = reserves[addr][asset_id]; \n    uint memoryIndex = debtIndex[addr][asset_id];\n    \n    if (memoryReserve == 0){\n      // the user has nothing, try again later\n      return debtsLength - memoryIndex;\n    }\n    \n    while (true) {\n      Debt storage debt = debts[addr][asset_id][memoryIndex];\n      \n      if (memoryReserve >= debt.amount) {\n        // can pay this debt off in full\n        memoryReserve -= debt.amount;\n        reserves[debt.pay_to][asset_id] += debt.amount;\n\n        delete debts[addr][asset_id][memoryIndex];\n\n        // last debt paid off, the user is debt free now\n        if (memoryIndex+1 == debtsLength) {\n          memoryIndex = 0;\n          // resets .length to 0\n          delete debts[addr][asset_id]; \n          debtsLength = 0;\n          break;\n        }\n        memoryIndex++;\n        \n      } else {\n        // pay off part of the debt\n        reserves[debt.pay_to][asset_id] += memoryReserve;\n        debt.amount -= memoryReserve;\n        memoryReserve = 0;\n        break;\n      }\n    }\n\n    // put memory variables back to storage\n    reserves[addr][asset_id] = memoryReserve;\n    debtIndex[addr][asset_id] = memoryIndex;\n    \n    return debtsLength - memoryIndex;\n  }\n\n\n\n\n\n  struct Batch {\n    CooperativeProof[] cooperativeProof;\n    DisputeProof[] disputeProof;\n    RevealEntries[] revealEntries;\n\n    // assets move Token <=> Reserve <=> Channel\n    // but never Token <=> Channel. 'reserve' is useful intermediary\n    ReserveToChannel[] reserveToChannel;\n    ChannelToReserve[] channelToReserve;\n\n    ReserveToToken[] reserveToToken;\n    TokenToReserve[] tokenToReserve;\n    ReserveToReserve[] reserveToReserve;\n\n    bytes32[] revealSecret;\n    uint hub_id;\n  }\n\n\n\n  // hubs use onchain in batched fashion\n  function processBatch(Batch calldata b) public returns (bool completeSuccess) {\n    uint startGas = gasleft();\n\n    // the order is important: first go ones that increase reserve\n    // then those that deduct from reserve\n\n    completeSuccess = true; \n\n    for (uint i = 0; i < b.channelToReserve.length; i++) {\n      if(!(channelToReserve(b.channelToReserve[i]))){\n        completeSuccess = false;\n      }\n    }\n\n    for (uint i = 0; i < b.cooperativeProof.length; i++) {\n      if(!(cooperativeProof(b.cooperativeProof[i]))){\n        completeSuccess = false;\n      }\n    }\n\n    for (uint i = 0; i < b.disputeProof.length; i++) {\n      if(!(disputeProof(b.disputeProof[i]))){\n        completeSuccess = false;\n      }\n    }\n\n    for (uint i = 0; i < b.revealEntries.length; i++) {\n      if(!(revealEntries(b.revealEntries[i]))){\n        completeSuccess = false;\n      }\n    }\n\n\n    for (uint i = 0; i < b.reserveToChannel.length; i++) {\n      if(!(reserveToChannel(b.reserveToChannel[i]))){\n        completeSuccess = false;\n      }\n    }\n\n    for (uint i = 0; i < b.revealSecret.length; i++) {\n      revealSecret(b.revealSecret[i]);\n    }\n\n    // increase gasused for hubs\n    // this is hardest to fake metric of real usage\n    if (b.hub_id != 0 && msg.sender == hubs[b.hub_id].addr){\n      hubs[b.hub_id].gasused += startGas - gasleft();\n    }\n\n    return completeSuccess;\n  }\n\n  function channelKey(address a1, address a2) public pure returns (bytes memory) {\n    //determenistic channel key is 40 bytes: concatenated lowerKey + higherKey\n    return a1 < a2 ? abi.encodePacked(a1, a2) : abi.encodePacked(a2, a1);\n  }\n  \n  struct AssetReserveDebts {\n    uint reserve;\n    uint debtIndex;\n    Debt[] debts;\n  }\n  \n  struct UserReturn {\n    uint ETH_balance;\n    AssetReserveDebts[] assets;\n  }\n\n  function getUser(address addr) external view returns (UserReturn memory) {\n    UserReturn memory response = UserReturn({\n      ETH_balance: addr.balance,\n      assets: new AssetReserveDebts[](assets.length)\n    });\n    \n    for (uint i = 0;i<assets.length;i++){\n      response.assets[i]=(AssetReserveDebts({\n        reserve: reserves[addr][i],\n        debtIndex: debtIndex[addr][i],\n        debts: debts[addr][i]\n      }));\n    }\n    \n    return response;\n  }\n  \n  struct ChannelReturn{\n    address partner;\n    Channel channel;\n    Collateral[] collaterals;\n  }\n  \n  // sync many channels around single addr\n  function getChannels(address  addr, address[] memory partners) public view returns ( ChannelReturn[] memory response) {\n    bytes memory ch_key;\n\n    // set length of the response array\n    response = new ChannelReturn[](partners.length);\n\n    for (uint i = 0;i<partners.length;i++){\n      ch_key = channelKey(addr, partners[i]);\n\n      response[i]=ChannelReturn({\n        partner: partners[i],\n        channel: channels[ch_key],\n        collaterals: new Collateral[](assets.length)\n      });\n\n      for (uint asset_id = 0;asset_id<assets.length;asset_id++){\n        response[i].collaterals[asset_id]=collaterals[ch_key][asset_id];\n      }\n      \n    }\n\n    return response;\n\n    \n  }\n  \n  // dev-only helpers\n  function topUp(address addr, uint asset_id, uint amount) public {\n    reserves[addr][asset_id] += amount;\n  }\n\n  function createDebt(address addr, address pay_to, uint asset_id, uint amount) public {\n    debts[addr][asset_id].push(Debt({\n      pay_to: pay_to,\n      amount: amount\n    }));\n  }\n\n  function logChannel(address a1, address a2) public {\n    bytes memory ch_key = channelKey(a1, a2);\n    log(\">>> Logging channel\", ch_key);\n    log(\"cooperative_nonce\", channels[ch_key].cooperative_nonce);\n    log(\"dispute_nonce\", channels[ch_key].dispute_nonce);\n    log(\"dispute_until_block\", channels[ch_key].dispute_until_block);\n    for (uint i = 0; i < assets.length; i++) {\n      log(\"Asset\", assets[i].name);\n      log(\"Left:\", reserves[a1][i]);\n      log(\"Right:\", reserves[a2][i]);\n      log(\"collateral\", collaterals[ch_key][i].collateral);\n      log(\"ondelta\", collaterals[ch_key][i].ondelta);\n    }\n  }       \n\n\n}",
  "sourcePath": "/Users/homakov/work/AAAxln/contracts/XLN.sol",
  "compiler": {
    "name": "solc",
    "version": "0.8.0+commit.c7dfd78e.Emscripten.clang"
  },
  "schemaVersion": "3.3.4",
  "updatedAt": "2021-03-31T16:32:46.060Z",
  "networkType": "ethereum",
  "devdoc": {
    "kind": "dev",
    "methods": {},
    "version": 1
  },
  "userdoc": {
    "kind": "user",
    "methods": {},
    "version": 1
  }
}