{
  "contractName": "XLN",
  "abi": [
    {
      "inputs": [],
      "stateMutability": "nonpayable",
      "type": "constructor"
    },
    {
      "anonymous": false,
      "inputs": [
        {
          "indexed": false,
          "internalType": "string",
          "name": "",
          "type": "string"
        },
        {
          "indexed": false,
          "internalType": "address",
          "name": "",
          "type": "address"
        }
      ],
      "name": "LogAddress",
      "type": "event"
    },
    {
      "anonymous": false,
      "inputs": [
        {
          "indexed": false,
          "internalType": "string",
          "name": "",
          "type": "string"
        },
        {
          "indexed": false,
          "internalType": "bool",
          "name": "",
          "type": "bool"
        }
      ],
      "name": "LogBool",
      "type": "event"
    },
    {
      "anonymous": false,
      "inputs": [
        {
          "indexed": false,
          "internalType": "string",
          "name": "",
          "type": "string"
        },
        {
          "indexed": false,
          "internalType": "bytes",
          "name": "",
          "type": "bytes"
        }
      ],
      "name": "LogBytes",
      "type": "event"
    },
    {
      "anonymous": false,
      "inputs": [
        {
          "indexed": false,
          "internalType": "string",
          "name": "",
          "type": "string"
        },
        {
          "indexed": false,
          "internalType": "bytes32",
          "name": "",
          "type": "bytes32"
        }
      ],
      "name": "LogBytes32",
      "type": "event"
    },
    {
      "anonymous": false,
      "inputs": [
        {
          "indexed": false,
          "internalType": "string",
          "name": "",
          "type": "string"
        },
        {
          "indexed": false,
          "internalType": "int256",
          "name": "",
          "type": "int256"
        }
      ],
      "name": "LogInt",
      "type": "event"
    },
    {
      "anonymous": false,
      "inputs": [
        {
          "indexed": false,
          "internalType": "string",
          "name": "",
          "type": "string"
        },
        {
          "indexed": false,
          "internalType": "uint256",
          "name": "",
          "type": "uint256"
        }
      ],
      "name": "LogUint",
      "type": "event"
    },
    {
      "inputs": [
        {
          "internalType": "uint256",
          "name": "",
          "type": "uint256"
        }
      ],
      "name": "assets",
      "outputs": [
        {
          "internalType": "string",
          "name": "name",
          "type": "string"
        },
        {
          "internalType": "address",
          "name": "erc20address",
          "type": "address"
        }
      ],
      "stateMutability": "view",
      "type": "function"
    },
    {
      "inputs": [
        {
          "internalType": "bytes",
          "name": "",
          "type": "bytes"
        }
      ],
      "name": "channels",
      "outputs": [
        {
          "internalType": "uint256",
          "name": "channel_counter",
          "type": "uint256"
        },
        {
          "internalType": "uint256",
          "name": "cooperative_nonce",
          "type": "uint256"
        },
        {
          "internalType": "uint256",
          "name": "dispute_nonce",
          "type": "uint256"
        },
        {
          "internalType": "bool",
          "name": "dispute_by_left",
          "type": "bool"
        },
        {
          "internalType": "uint256",
          "name": "dispute_until_block",
          "type": "uint256"
        },
        {
          "internalType": "bytes32",
          "name": "entries_hash",
          "type": "bytes32"
        }
      ],
      "stateMutability": "view",
      "type": "function"
    },
    {
      "inputs": [
        {
          "internalType": "uint256",
          "name": "",
          "type": "uint256"
        }
      ],
      "name": "hubs",
      "outputs": [
        {
          "internalType": "address",
          "name": "addr",
          "type": "address"
        },
        {
          "internalType": "string",
          "name": "uri",
          "type": "string"
        }
      ],
      "stateMutability": "view",
      "type": "function"
    },
    {
      "inputs": [
        {
          "internalType": "string",
          "name": "s",
          "type": "string"
        },
        {
          "internalType": "bytes",
          "name": "x",
          "type": "bytes"
        }
      ],
      "name": "log",
      "outputs": [],
      "stateMutability": "nonpayable",
      "type": "function"
    },
    {
      "inputs": [
        {
          "internalType": "string",
          "name": "s",
          "type": "string"
        },
        {
          "internalType": "address",
          "name": "x",
          "type": "address"
        }
      ],
      "name": "log",
      "outputs": [],
      "stateMutability": "nonpayable",
      "type": "function"
    },
    {
      "inputs": [
        {
          "internalType": "string",
          "name": "s",
          "type": "string"
        },
        {
          "internalType": "bytes32",
          "name": "x",
          "type": "bytes32"
        }
      ],
      "name": "log",
      "outputs": [],
      "stateMutability": "nonpayable",
      "type": "function"
    },
    {
      "inputs": [
        {
          "internalType": "string",
          "name": "s",
          "type": "string"
        },
        {
          "internalType": "int256",
          "name": "x",
          "type": "int256"
        }
      ],
      "name": "log",
      "outputs": [],
      "stateMutability": "nonpayable",
      "type": "function"
    },
    {
      "inputs": [
        {
          "internalType": "string",
          "name": "s",
          "type": "string"
        },
        {
          "internalType": "uint256",
          "name": "x",
          "type": "uint256"
        }
      ],
      "name": "log",
      "outputs": [],
      "stateMutability": "nonpayable",
      "type": "function"
    },
    {
      "inputs": [
        {
          "internalType": "string",
          "name": "s",
          "type": "string"
        },
        {
          "internalType": "bool",
          "name": "x",
          "type": "bool"
        }
      ],
      "name": "log",
      "outputs": [],
      "stateMutability": "nonpayable",
      "type": "function"
    },
    {
      "inputs": [
        {
          "components": [
            {
              "internalType": "string",
              "name": "name",
              "type": "string"
            },
            {
              "internalType": "address",
              "name": "erc20address",
              "type": "address"
            }
          ],
          "internalType": "struct XLN.Asset",
          "name": "assetToRegister",
          "type": "tuple"
        }
      ],
      "name": "registerAsset",
      "outputs": [],
      "stateMutability": "nonpayable",
      "type": "function"
    },
    {
      "inputs": [
        {
          "internalType": "uint16",
          "name": "hub_id",
          "type": "uint16"
        },
        {
          "internalType": "string",
          "name": "new_uri",
          "type": "string"
        },
        {
          "internalType": "uint16[]",
          "name": "new_connections",
          "type": "uint16[]"
        }
      ],
      "name": "registerOrUpdateHub",
      "outputs": [
        {
          "internalType": "uint16",
          "name": "",
          "type": "uint16"
        }
      ],
      "stateMutability": "nonpayable",
      "type": "function"
    },
    {
      "inputs": [
        {
          "components": [
            {
              "internalType": "address",
              "name": "receiver",
              "type": "address"
            },
            {
              "internalType": "address",
              "name": "partner",
              "type": "address"
            },
            {
              "components": [
                {
                  "internalType": "uint256",
                  "name": "asset_id",
                  "type": "uint256"
                },
                {
                  "internalType": "uint256",
                  "name": "amount",
                  "type": "uint256"
                }
              ],
              "internalType": "struct XLN.AssetAmountPair[]",
              "name": "pairs",
              "type": "tuple[]"
            }
          ],
          "internalType": "struct XLN.DepositToChannelParams",
          "name": "params",
          "type": "tuple"
        }
      ],
      "name": "depositToChannel",
      "outputs": [
        {
          "internalType": "bool",
          "name": "completeSuccess",
          "type": "bool"
        }
      ],
      "stateMutability": "nonpayable",
      "type": "function"
    },
    {
      "inputs": [
        {
          "components": [
            {
              "internalType": "address",
              "name": "partner",
              "type": "address"
            },
            {
              "components": [
                {
                  "internalType": "uint256",
                  "name": "asset_id",
                  "type": "uint256"
                },
                {
                  "internalType": "uint256",
                  "name": "amount",
                  "type": "uint256"
                }
              ],
              "internalType": "struct XLN.AssetAmountPair[]",
              "name": "pairs",
              "type": "tuple[]"
            },
            {
              "internalType": "bytes",
              "name": "sig",
              "type": "bytes"
            }
          ],
          "internalType": "struct XLN.WithdrawProof",
          "name": "params",
          "type": "tuple"
        }
      ],
      "name": "withdrawFromChannel",
      "outputs": [
        {
          "internalType": "bool",
          "name": "",
          "type": "bool"
        }
      ],
      "stateMutability": "nonpayable",
      "type": "function"
    },
    {
      "inputs": [
        {
          "components": [
            {
              "internalType": "address",
              "name": "partner",
              "type": "address"
            },
            {
              "components": [
                {
                  "internalType": "uint256",
                  "name": "asset_id",
                  "type": "uint256"
                },
                {
                  "internalType": "int256",
                  "name": "offdelta",
                  "type": "int256"
                }
              ],
              "internalType": "struct XLN.Entry[]",
              "name": "entries",
              "type": "tuple[]"
            },
            {
              "internalType": "bytes",
              "name": "sig",
              "type": "bytes"
            }
          ],
          "internalType": "struct XLN.CooperativeProof",
          "name": "params",
          "type": "tuple"
        }
      ],
      "name": "cooperativeClose",
      "outputs": [
        {
          "internalType": "bool",
          "name": "",
          "type": "bool"
        }
      ],
      "stateMutability": "nonpayable",
      "type": "function"
    },
    {
      "inputs": [
        {
          "components": [
            {
              "internalType": "address",
              "name": "partner",
              "type": "address"
            },
            {
              "internalType": "uint256",
              "name": "dispute_nonce",
              "type": "uint256"
            },
            {
              "internalType": "bytes32",
              "name": "entries_hash",
              "type": "bytes32"
            },
            {
              "components": [
                {
                  "internalType": "uint256",
                  "name": "asset_id",
                  "type": "uint256"
                },
                {
                  "internalType": "int256",
                  "name": "offdelta",
                  "type": "int256"
                }
              ],
              "internalType": "struct XLN.Entry[]",
              "name": "entries",
              "type": "tuple[]"
            },
            {
              "internalType": "bytes",
              "name": "sig",
              "type": "bytes"
            }
          ],
          "internalType": "struct XLN.DisputeProof",
          "name": "params",
          "type": "tuple"
        }
      ],
      "name": "submitDisputeProof",
      "outputs": [
        {
          "internalType": "bool",
          "name": "",
          "type": "bool"
        }
      ],
      "stateMutability": "nonpayable",
      "type": "function"
    },
    {
      "inputs": [
        {
          "components": [
            {
              "internalType": "address",
              "name": "partner",
              "type": "address"
            },
            {
              "components": [
                {
                  "internalType": "uint256",
                  "name": "asset_id",
                  "type": "uint256"
                },
                {
                  "internalType": "int256",
                  "name": "offdelta",
                  "type": "int256"
                }
              ],
              "internalType": "struct XLN.Entry[]",
              "name": "entries",
              "type": "tuple[]"
            }
          ],
          "internalType": "struct XLN.AcceptDisputeParams",
          "name": "params",
          "type": "tuple"
        }
      ],
      "name": "acceptDispute",
      "outputs": [
        {
          "internalType": "bool",
          "name": "success",
          "type": "bool"
        }
      ],
      "stateMutability": "nonpayable",
      "type": "function"
    },
    {
      "inputs": [
        {
          "internalType": "address",
          "name": "addr",
          "type": "address"
        },
        {
          "internalType": "uint256",
          "name": "asset_id",
          "type": "uint256"
        }
      ],
      "name": "getDebts",
      "outputs": [
        {
          "components": [
            {
              "internalType": "uint256",
              "name": "amount",
              "type": "uint256"
            },
            {
              "internalType": "address",
              "name": "pay_to",
              "type": "address"
            }
          ],
          "internalType": "struct XLN.Debt[]",
          "name": "allDebts",
          "type": "tuple[]"
        },
        {
          "internalType": "uint256",
          "name": "currentDebtIndex",
          "type": "uint256"
        }
      ],
      "stateMutability": "view",
      "type": "function"
    },
    {
      "inputs": [
        {
          "internalType": "address",
          "name": "addr",
          "type": "address"
        },
        {
          "internalType": "uint256",
          "name": "asset_id",
          "type": "uint256"
        }
      ],
      "name": "enforceDebts",
      "outputs": [
        {
          "internalType": "uint256",
          "name": "totalDebts",
          "type": "uint256"
        }
      ],
      "stateMutability": "nonpayable",
      "type": "function"
    },
    {
      "inputs": [
        {
          "components": [
            {
              "components": [
                {
                  "internalType": "address",
                  "name": "partner",
                  "type": "address"
                },
                {
                  "components": [
                    {
                      "internalType": "uint256",
                      "name": "asset_id",
                      "type": "uint256"
                    },
                    {
                      "internalType": "uint256",
                      "name": "amount",
                      "type": "uint256"
                    }
                  ],
                  "internalType": "struct XLN.AssetAmountPair[]",
                  "name": "pairs",
                  "type": "tuple[]"
                },
                {
                  "internalType": "bytes",
                  "name": "sig",
                  "type": "bytes"
                }
              ],
              "internalType": "struct XLN.WithdrawProof[]",
              "name": "withdrawProofs",
              "type": "tuple[]"
            },
            {
              "components": [
                {
                  "internalType": "address",
                  "name": "partner",
                  "type": "address"
                },
                {
                  "components": [
                    {
                      "internalType": "uint256",
                      "name": "asset_id",
                      "type": "uint256"
                    },
                    {
                      "internalType": "int256",
                      "name": "offdelta",
                      "type": "int256"
                    }
                  ],
                  "internalType": "struct XLN.Entry[]",
                  "name": "entries",
                  "type": "tuple[]"
                },
                {
                  "internalType": "bytes",
                  "name": "sig",
                  "type": "bytes"
                }
              ],
              "internalType": "struct XLN.CooperativeProof[]",
              "name": "cooperativeProofs",
              "type": "tuple[]"
            },
            {
              "components": [
                {
                  "internalType": "address",
                  "name": "partner",
                  "type": "address"
                },
                {
                  "internalType": "uint256",
                  "name": "dispute_nonce",
                  "type": "uint256"
                },
                {
                  "internalType": "bytes32",
                  "name": "entries_hash",
                  "type": "bytes32"
                },
                {
                  "components": [
                    {
                      "internalType": "uint256",
                      "name": "asset_id",
                      "type": "uint256"
                    },
                    {
                      "internalType": "int256",
                      "name": "offdelta",
                      "type": "int256"
                    }
                  ],
                  "internalType": "struct XLN.Entry[]",
                  "name": "entries",
                  "type": "tuple[]"
                },
                {
                  "internalType": "bytes",
                  "name": "sig",
                  "type": "bytes"
                }
              ],
              "internalType": "struct XLN.DisputeProof[]",
              "name": "disputeProofs",
              "type": "tuple[]"
            },
            {
              "components": [
                {
                  "internalType": "address",
                  "name": "partner",
                  "type": "address"
                },
                {
                  "components": [
                    {
                      "internalType": "uint256",
                      "name": "asset_id",
                      "type": "uint256"
                    },
                    {
                      "internalType": "int256",
                      "name": "offdelta",
                      "type": "int256"
                    }
                  ],
                  "internalType": "struct XLN.Entry[]",
                  "name": "entries",
                  "type": "tuple[]"
                }
              ],
              "internalType": "struct XLN.AcceptDisputeParams[]",
              "name": "acceptDisputes",
              "type": "tuple[]"
            },
            {
              "components": [
                {
                  "internalType": "address",
                  "name": "receiver",
                  "type": "address"
                },
                {
                  "internalType": "address",
                  "name": "partner",
                  "type": "address"
                },
                {
                  "components": [
                    {
                      "internalType": "uint256",
                      "name": "asset_id",
                      "type": "uint256"
                    },
                    {
                      "internalType": "uint256",
                      "name": "amount",
                      "type": "uint256"
                    }
                  ],
                  "internalType": "struct XLN.AssetAmountPair[]",
                  "name": "pairs",
                  "type": "tuple[]"
                }
              ],
              "internalType": "struct XLN.DepositToChannelParams[]",
              "name": "depositArray",
              "type": "tuple[]"
            }
          ],
          "internalType": "struct XLN.Batch",
          "name": "b",
          "type": "tuple"
        }
      ],
      "name": "batch",
      "outputs": [
        {
          "internalType": "bool",
          "name": "completeSuccess",
          "type": "bool"
        }
      ],
      "stateMutability": "nonpayable",
      "type": "function"
    },
    {
      "inputs": [
        {
          "internalType": "address",
          "name": "a1",
          "type": "address"
        },
        {
          "internalType": "address",
          "name": "a2",
          "type": "address"
        }
      ],
      "name": "logChannel",
      "outputs": [],
      "stateMutability": "nonpayable",
      "type": "function"
    },
    {
      "inputs": [
        {
          "internalType": "address",
          "name": "a1",
          "type": "address"
        },
        {
          "internalType": "address",
          "name": "a2",
          "type": "address"
        }
      ],
      "name": "channelKey",
      "outputs": [
        {
          "internalType": "bytes",
          "name": "",
          "type": "bytes"
        }
      ],
      "stateMutability": "pure",
      "type": "function"
    },
    {
      "inputs": [
        {
          "internalType": "address",
          "name": "addr",
          "type": "address"
        }
      ],
      "name": "getUser",
      "outputs": [
        {
          "components": [
            {
              "components": [
                {
                  "internalType": "uint256",
                  "name": "reserve",
                  "type": "uint256"
                },
                {
                  "components": [
                    {
                      "internalType": "uint256",
                      "name": "amount",
                      "type": "uint256"
                    },
                    {
                      "internalType": "address",
                      "name": "pay_to",
                      "type": "address"
                    }
                  ],
                  "internalType": "struct XLN.Debt[]",
                  "name": "debts",
                  "type": "tuple[]"
                },
                {
                  "internalType": "uint256",
                  "name": "debtIndex",
                  "type": "uint256"
                }
              ],
              "internalType": "struct XLN.AssetReserveDebts[]",
              "name": "assets",
              "type": "tuple[]"
            }
          ],
          "internalType": "struct XLN.UserReturn",
          "name": "",
          "type": "tuple"
        }
      ],
      "stateMutability": "view",
      "type": "function"
    },
    {
      "inputs": [
        {
          "internalType": "address",
          "name": "a1",
          "type": "address"
        },
        {
          "internalType": "address",
          "name": "a2",
          "type": "address"
        }
      ],
      "name": "getChannel",
      "outputs": [
        {
          "components": [
            {
              "internalType": "bytes",
              "name": "channelKey",
              "type": "bytes"
            },
            {
              "components": [
                {
                  "internalType": "uint256",
                  "name": "channel_counter",
                  "type": "uint256"
                },
                {
                  "internalType": "uint256",
                  "name": "cooperative_nonce",
                  "type": "uint256"
                },
                {
                  "internalType": "uint256",
                  "name": "dispute_nonce",
                  "type": "uint256"
                },
                {
                  "internalType": "bool",
                  "name": "dispute_by_left",
                  "type": "bool"
                },
                {
                  "internalType": "uint256",
                  "name": "dispute_until_block",
                  "type": "uint256"
                },
                {
                  "internalType": "bytes32",
                  "name": "entries_hash",
                  "type": "bytes32"
                }
              ],
              "internalType": "struct XLN.Channel",
              "name": "channel",
              "type": "tuple"
            },
            {
              "components": [
                {
                  "internalType": "uint256",
                  "name": "collateral",
                  "type": "uint256"
                },
                {
                  "internalType": "int256",
                  "name": "ondelta",
                  "type": "int256"
                }
              ],
              "internalType": "struct XLN.Collateral[]",
              "name": "collaterals",
              "type": "tuple[]"
            }
          ],
          "internalType": "struct XLN.ChannelReturn",
          "name": "ch",
          "type": "tuple"
        }
      ],
      "stateMutability": "view",
      "type": "function"
    },
    {
      "inputs": [
        {
          "internalType": "address",
          "name": "addr",
          "type": "address"
        },
        {
          "internalType": "uint256",
          "name": "asset_id",
          "type": "uint256"
        },
        {
          "internalType": "uint256",
          "name": "amount",
          "type": "uint256"
        }
      ],
      "name": "topUp",
      "outputs": [],
      "stateMutability": "nonpayable",
      "type": "function"
    },
    {
      "inputs": [
        {
          "internalType": "address",
          "name": "fromUser",
          "type": "address"
        },
        {
          "internalType": "address",
          "name": "toUser",
          "type": "address"
        },
        {
          "internalType": "uint256",
          "name": "asset_id",
          "type": "uint256"
        },
        {
          "internalType": "uint256",
          "name": "amount",
          "type": "uint256"
        }
      ],
      "name": "createDebt",
      "outputs": [],
      "stateMutability": "nonpayable",
      "type": "function"
    }
  ],
  "bytecode": "0x60806040523480156200001157600080fd5b50604080516080810182526004918101918252630ae8aa8960e31b60608201529081523360208083019190915260058054600181018255600091909152825180516002909202600080516020620043d383398151915201926200007a928492909101906200045b565b50602091820151600191820180546001600160a01b039092166001600160a01b03199092169190911790556040805160808101825260039181019182526244414960e81b606082015290815233818401526005805492830181556000528051805191936002909302600080516020620043d3833981519152019262000105928492909101906200045b565b5060209182015160019190910180546001600160a01b0319166001600160a01b0390921691909117905560408051808201909152600b81526a03737bb9030b9b9b2ba39960ad1b91810191909152600554620001629190620001d9565b6060620001ad60006040518060400160405280601581526020017f687474703a2f2f3132372e302e302e313a383030300000000000000000000000815250836200021860201b60201c565b50620001c03360006305f5e1006200041e565b620001d23360016305f5e1006200041e565b50620006d0565b7f941296a39ea107bde685522318a4b6c2b544904a5dd82a512748ca2cf839bef782826040516200020c929190620005a7565b60405180910390a15050565b600061ffff84166200030d576040805160608101825233815260208082018681529282018590526006805460018101825560009190915282517ff652222313e28459528d920b65115c16c04f3efc82aaedc97be59f3f377c0d3f600390920291820180546001600160a01b0319166001600160a01b0390921691909117815593518051939493620002d3937ff652222313e28459528d920b65115c16c04f3efc82aaedc97be59f3f377c0d409093019291909101906200045b565b5060408201518051620002f1916002840191602090910190620004ea565b505060065462000305915060019062000657565b905062000417565b60068461ffff16815481106200033357634e487b7160e01b600052603260045260246000fd5b60009182526020909120600390910201546001600160a01b03163314620003775760405162461bcd60e51b81526004016200036e9062000605565b60405180910390fd5b8260068561ffff16815481106200039e57634e487b7160e01b600052603260045260246000fd5b90600052602060002090600302016001019080519060200190620003c49291906200045b565b508160068561ffff1681548110620003ec57634e487b7160e01b600052603260045260246000fd5b9060005260206000209060030201600201908051906020019062000412929190620004ea565b508390505b9392505050565b6001600160a01b03831660009081526020818152604080832085845290915281208054839290620004519084906200063c565b9091555050505050565b82805462000469906200067d565b90600052602060002090601f0160209004810192826200048d5760008555620004d8565b82601f10620004a857805160ff1916838001178555620004d8565b82800160010185558215620004d8579182015b82811115620004d8578251825591602001919060010190620004bb565b50620004e692915062000590565b5090565b82805482825590600052602060002090600f01601090048101928215620004d85791602002820160005b838211156200055657835183826101000a81548161ffff021916908361ffff160217905550926020019260020160208160010104928301926001030262000514565b8015620005865782816101000a81549061ffff021916905560020160208160010104928301926001030262000556565b5050620004e69291505b5b80821115620004e6576000815560010162000591565b6000604082528351806040840152815b81811015620005d65760208187018101516060868401015201620005b7565b81811115620005e85782606083860101525b50602083019390935250601f91909101601f191601606001919050565b60208082526014908201527f4e6f7420796f7572206875622061646472657373000000000000000000000000604082015260600190565b60008219821115620006525762000652620006ba565b500190565b600061ffff83811690831681811015620006755762000675620006ba565b039392505050565b6002810460018216806200069257607f821691505b60208210811415620006b457634e487b7160e01b600052602260045260246000fd5b50919050565b634e487b7160e01b600052601160045260246000fd5b613cf380620006e06000396000f3fe608060405234801561001057600080fd5b50600436106101735760003560e01c8063a1a96a13116100de578063ca9dfdc611610097578063d5ed1f2711610071578063d5ed1f2714610380578063d7f6d87414610393578063e4b70e5a146103b4578063f2e714a6146103d557610173565b8063ca9dfdc614610339578063cf35bdd01461034c578063d3d90b681461036d57610173565b8063a1a96a13146102a8578063aee26d3f146102cd578063b60e72cc146102ed578063bf52638c14610300578063bf6b5b8814610313578063c3b556351461032657610173565b80633c4deb11116101305780633c4deb11146102025780633ca6268e146102225780633e2b8403146102355780633ea0b9d5146102555780634109eedf146102685780636f77926b1461028857610173565b80631a9b20d51461017857806323cdd8e8146101a1578063319af333146101b65780633243aff2146101c957806333d07273146101dc5780633692d61a146101ef575b600080fd5b61018b6101863660046130ce565b6103e8565b6040516101989190613517565b60405180910390f35b6101b46101af36600461306e565b61052b565b005b6101b46101c4366004612f97565b610568565b61018b6101d736600461325c565b610599565b61018b6101ea36600461318f565b610859565b6101b46101fd36600461302c565b610ad0565b610215610210366004612e8f565b610b01565b6040516101989190613540565b6101b461023036600461302c565b610b6f565b61024861024336600461328e565b610ba0565b60405161019891906139d3565b6101b4610263366004612ec1565b610d94565b61027b610276366004612f02565b610e00565b60405161019891906139e2565b61029b610296366004612e75565b61109f565b604051610198919061394c565b6102bb6102b6366004612f5d565b611245565b604051610198969594939291906139eb565b6102e06102db366004612e8f565b61128d565b60405161019891906138d0565b6101b46102fb36600461302c565b611415565b6101b461030e366004612e8f565b611446565b61018b6103213660046131c6565b611713565b6101b4610334366004612fd9565b61189f565b6101b4610347366004613100565b6118d0565b61035f61035a36600461335c565b611948565b604051610198929190613656565b61018b61037b3660046131f8565b611a0d565b6101b461038e366004612f2b565b611c24565b6103a66103a1366004612f02565b611c5f565b6040516101989291906134e2565b6103c76103c236600461335c565b611d08565b6040516101989291906134be565b61018b6103e336600461322a565b611dca565b6000806103f9338460000151610b01565b83516040519192506001600160a01b0316331090819060039061041d908590613471565b9081526040519081900360200190206003015460ff161515148015610462575060038260405161044d9190613471565b90815260200160405180910390206004015443105b1561047257600092505050610526565b6020808501516040516104859201613504565b604051602081830303815290604052805190602001206003836040516104ab9190613471565b908152602001604051809103902060050154146104cd57600092505050610526565b83516000906001600160a01b031633106104e85784516104ea565b335b85519091506000906001600160a01b03163310610507573361050a565b85515b905061051c848383896020015161213c565b5060019450505050505b919050565b7fe8407a0209fa99ec3a7228aff140c3d3e68bd279391739c7e0b65cd406cc93b5828260405161055c9291906136b7565b60405180910390a15050565b7f62ddffe5b5108385f7a590f100e1ee414ad9551a31f089e64e82998440785e1e828260405161055c929190613656565b80516000906001600160a01b038116339081109183916105b891610b01565b9050600080826003846040516105ce9190613471565b90815260405190819003602001812054906003906105ed908790613471565b9081526020016040518091039020600101548860200151604051602001610618959493929190613553565b6040516020818303038152906040529050600061063b8280519060200120612671565b905061066a6040518060400160405280600b81526020016a456e636f646564206d736760a81b8152508361052b565b6106788187604001516126a1565b6001600160a01b031686600001516001600160a01b0316146106d6576106c96040518060400160405280600f81526020016e024b73b30b634b21039b4b3b732b91608d1b8152508760000151610568565b6000945050505050610526565b6003836040516106e69190613471565b908152604051908190036020019020600101805490600061070683613c5c565b919050555060005b86602001515181101561083e5760008760200151828151811061074157634e487b7160e01b600052603260045260246000fd5b602002602001015160000151905060008860200151838151811061077557634e487b7160e01b600052603260045260246000fd5b602002602001015160200151905060006004876040516107959190613471565b9081526020016040518091039020600084815260200190815260200160002090508181600001541061082857818160000160008282546107d59190613ba8565b909155505087156107fa57818160010160008282546107f49190613b46565b90915550505b3360009081526020818152604080832086845290915281208054849290610822908490613b2e565b90915550505b505050808061083690613c5c565b91505061070e565b5061084d338760000151611446565b50600195945050505050565b600160005b6108688380613a15565b90508110156108d2576108b761087e8480613a15565b8381811061089c57634e487b7160e01b600052603260045260246000fd5b90506020028101906108ae9190613a77565b6101d790613bef565b6108c057600091505b806108ca81613c5c565b91505061085e565b5060005b6108e36020840184613a15565b9050811015610950576109356108fc6020850185613a15565b8381811061091a57634e487b7160e01b600052603260045260246000fd5b905060200281019061092c9190613a77565b61032190613bcb565b61093e57600091505b8061094881613c5c565b9150506108d6565b5060005b6109616040840184613a15565b90508110156109ce576109b361097a6040850185613a15565b8381811061099857634e487b7160e01b600052603260045260246000fd5b90506020028101906109aa9190613a8c565b6103e390613be3565b6109bc57600091505b806109c681613c5c565b915050610954565b5060005b6109df6060840184613a15565b9050811015610a4c57610a316109f86060850185613a15565b83818110610a1657634e487b7160e01b600052603260045260246000fd5b9050602002810190610a289190613a62565b61018690613bbf565b610a3a57600091505b80610a4481613c5c565b9150506109d2565b5060005b610a5d6080840184613a15565b9050811015610aca57610aaf610a766080850185613a15565b83818110610a9457634e487b7160e01b600052603260045260246000fd5b9050602002810190610aa69190613a77565b61037b90613bd7565b610ab857600091505b80610ac281613c5c565b915050610a50565b50919050565b7f02d93529bba9d141e5e06733c52c7e6fbcb1149586adb5c24064b522ab26f1d7828260405161055c9291906136a4565b6060816001600160a01b0316836001600160a01b031610610b43578183604051602001610b2f92919061344a565b604051602081830303815290604052610b66565b8282604051602001610b5692919061344a565b6040516020818303038152906040525b90505b92915050565b7f6a837ff3973aa4181e7b9f07756f8b7ee366dd85a36655d2cb42cd47f10b9638828260405161055c9291906136a4565b600061ffff8416610c8d576040805160608101825233815260208082018681529282018590526006805460018101825560009190915282517ff652222313e28459528d920b65115c16c04f3efc82aaedc97be59f3f377c0d3f600390920291820180546001600160a01b0319166001600160a01b0390921691909117815593518051939493610c58937ff652222313e28459528d920b65115c16c04f3efc82aaedc97be59f3f377c0d409093019291909101906127d3565b5060408201518051610c74916002840191602090910190612857565b5050600654610c869150600190613b85565b9050610d8d565b60068461ffff1681548110610cb257634e487b7160e01b600052603260045260246000fd5b60009182526020909120600390910201546001600160a01b03163314610cf35760405162461bcd60e51b8152600401610cea90613872565b60405180910390fd5b8260068561ffff1681548110610d1957634e487b7160e01b600052603260045260246000fd5b90600052602060002090600302016001019080519060200190610d3d9291906127d3565b508160068561ffff1681548110610d6457634e487b7160e01b600052603260045260246000fd5b90600052602060002090600302016002019080519060200190610d88929190612857565b508390505b9392505050565b6001600160a01b039384166000908152600260208181526040808420958452948152848320855180870190965293855294861684860190815283546001808201865594845295909220935194029092019283559051910180546001600160a01b03191691909216179055565b6001600160a01b038216600090815260026020908152604080832084845290915281205480610e33576000915050610b69565b6001600160a01b0384166000818152602081815260408083208784528252808320549383526001825280832087845290915290205481610e8157610e778184613ba8565b9350505050610b69565b6001600160a01b03861660009081526002602090815260408083208884529091528120805483908110610ec457634e487b7160e01b600052603260045260246000fd5b9060005260206000209060020201905080600001548310610ff0578054610eeb9084613ba8565b815460018301546001600160a01b03166000908152602081815260408083208b8452909152812080549396509192610f24908490613b2e565b90915550506001600160a01b03871660009081526002602090815260408083208984529091529020805483908110610f6c57634e487b7160e01b600052603260045260246000fd5b600091825260208220600290910201908155600190810180546001600160a01b03191690558490610f9e908490613b2e565b1415610fde576001600160a01b03871660009081526002602090815260408083208984529091528120909250610fd490836128fb565b6000935050611054565b81610fe881613c5c565b92505061104e565b60018101546001600160a01b031660009081526020818152604080832089845290915281208054859290611025908490613b2e565b909155505080548390829060009061103e908490613ba8565b9091555060009350611054915050565b50610e81565b6001600160a01b0386166000818152602081815260408083208984528252808320869055928252600181528282208883529052208190556110958184613ba8565b9695505050505050565b6110a761291f565b600060405180602001604052806005805490506001600160401b038111156110df57634e487b7160e01b600052604160045260246000fd5b60405190808252806020026020018201604052801561111857816020015b611105612932565b8152602001906001900390816110fd5790505b509052905060005b60055481101561123e57604080516060810182526001600160a01b038616600081815260208181528482208683528152848220548452918152600282528381208582528252838120805485518185028101850190965280865293948386019490939192909184015b828210156111d05760008481526020908190206040805180820190915260028502909101805482526001908101546001600160a01b0316828401529083529092019101611188565b505050908252506001600160a01b0386166000908152600160209081526040808320868452825290912054910152825180518390811061122057634e487b7160e01b600052603260045260246000fd5b6020026020010181905250808061123690613c5c565b915050611120565b5092915050565b805160208183018101805160038083529383019290940191909120929052815460018301546002840154928401546004850154600590950154929491939260ff909116919086565b611295612953565b60006112a18484610b01565b905060405180606001604052808281526020016003836040516112c49190613471565b908152604080516020928190038301812060c08201835280548252600181015484830152600281015492820192909252600382015460ff16151560608201526004820154608082015260059182015460a08201528352549101906001600160401b0381111561134357634e487b7160e01b600052604160045260246000fd5b60405190808252806020026020018201604052801561137c57816020015b61136961297a565b8152602001906001900390816113615790505b509052915060005b60055481101561140d5760048260405161139e9190613471565b908152604080519182900360209081018320600085815290825282902083830183528054845260010154908301528401518051839081106113ef57634e487b7160e01b600052603260045260246000fd5b6020026020010181905250808061140590613c5c565b915050611384565b505092915050565b7f941296a39ea107bde685522318a4b6c2b544904a5dd82a512748ca2cf839bef7828260405161055c9291906136a4565b60006114528383610b01565b9050611489604051806040016040528060138152602001720f8f8f88131bd9d9da5b99c818da185b9b995b606a1b8152508261052b565b6114dd60405180604001604052806011815260200170636f6f70657261746976655f6e6f6e636560781b8152506003836040516114c69190613471565b908152602001604051809103902060010154611415565b61152d6040518060400160405280600d81526020016c646973707574655f6e6f6e636560981b8152506003836040516115169190613471565b908152602001604051809103902060020154611415565b61158360405180604001604052806013815260200172646973707574655f756e74696c5f626c6f636b60681b81525060038360405161156c9190613471565b908152602001604051809103902060040154611415565b60005b60055481101561170d576115b760405180604001604052806005815260200164105cdcd95d60da1b81525082611415565b60408051808201825260058152642632b33a1d60d91b6020808301919091526001600160a01b038716600090815280825283812085825290915291909120546116009190611415565b60408051808201825260068152652934b3b43a1d60d11b6020808301919091526001600160a01b0386166000908152808252838120858252909152919091205461164a9190611415565b6116a06040518060400160405280600a81526020016918dbdb1b185d195c985b60b21b8152506004846040516116809190613471565b908152604080516020928190038301902060008681529252902054611415565b6116fb604051806040016040528060078152602001666f6e64656c746160c81b8152506004846040516116d39190613471565b9081526020016040518091039020600084815260200190815260200160002060010154610b6f565b8061170581613c5c565b915050611586565b50505050565b600080611724338460000151610b01565b9050600060018260038460405161173b9190613471565b908152604051908190036020018120549060039061175a908790613471565b90815260200160405180910390206001015487602001516040516020016117859594939291906135cf565b604051602081830303815290604052905060006117a88280519060200120612671565b90506117d76040518060400160405280600b81526020016a456e636f646564206d736760a81b8152508361052b565b6117e58186604001516126a1565b6001600160a01b031685600001516001600160a01b031614611842576118366040518060400160405280600f81526020016e024b73b30b634b21039b4b3b732b91608d1b8152508660000151610568565b60009350505050610526565b84516000906001600160a01b0316331061185d57855161185f565b335b86519091506000906001600160a01b0316331061187c573361187f565b86515b90506118918583838a6020015161213c565b506001979650505050505050565b7f4c34c2f9a78632f29fa59aaed5514cb742fd9fbcfd7ccc2c03c85f2bbc621c47828260405161055c929190613680565b600580546001810182556000919091528151805183926002027f036b6384b5eca791c62761152d0c79bb0604c104a5fb6f4eb0703f3154bb3db0019161191b918391602001906127d3565b5060209190910151600190910180546001600160a01b0319166001600160a01b0390921691909117905550565b6005818154811061195857600080fd5b906000526020600020906002020160009150905080600001805461197b90613c27565b80601f01602080910402602001604051908101604052809291908181526020018280546119a790613c27565b80156119f45780601f106119c9576101008083540402835291602001916119f4565b820191906000526020600020905b8154815290600101906020018083116119d757829003601f168201915b505050600190930154919250506001600160a01b031682565b602081015181516000916001600160a01b0380821690831610918391611a339190610b01565b9050611a4784600001518560200151611446565b60005b846040015151811015611c0757600085604001518281518110611a7d57634e487b7160e01b600052603260045260246000fd5b6020026020010151600001519050600086604001518381518110611ab157634e487b7160e01b600052603260045260246000fd5b602090810291909101810151810151336000908152808352604080822086835290935291909120549091508111611bb2576000600485604051611af49190613471565b9081526040805160209281900383019020600086815290835281812033825281845282822087835290935290812080549293508492909190611b37908490613ba8565b9091555050805482908290600090611b50908490613b2e565b90915550508515611b755781816001016000828254611b6f9190613aed565b90915550505b611bac6040518060400160405280601581526020017402232b837b9b4ba32b2103a379031b430b73732b61605d1b81525083611415565b50611bf2565b611be46040518060400160405280601081526020016f6e6f7420656e6f7567682066756e647360801b81525033610568565b600095505050505050610526565b50508080611bff90613c5c565b915050611a4a565b50611c1a84600001518560200151611446565b5060019392505050565b6001600160a01b03831660009081526020818152604080832085845290915281208054839290611c55908490613b2e565b9091555050505050565b6001600160a01b038216600081815260016020908152604080832085845282528083205493835260028252808320858452825280832080548251818502810185019093528083526060959492939192909184015b82821015611cfb5760008481526020908190206040805180820190915260028502909101805482526001908101546001600160a01b0316828401529083529092019101611cb3565b5050505091509250929050565b60068181548110611d1857600080fd5b6000918252602090912060039091020180546001820180546001600160a01b03909216935090611d4790613c27565b80601f0160208091040260200160405190810160405280929190818152602001828054611d7390613c27565b8015611dc05780601f10611d9557610100808354040283529160200191611dc0565b820191906000526020600020905b815481529060010190602001808311611da357829003601f168201915b5050505050905082565b600080611ddb338460000151610b01565b90506000600282600384604051611df29190613471565b90815260200160405180910390206000015486602001518760400151604051602001611e22959493929190613619565b60405160208183030381529060405290506000611e458280519060200120612671565b9050611e746040518060400160405280600b81526020016a656e636f646564206d736760a81b8152508361052b565b84600001516001600160a01b0316611e908287608001516126a1565b6001600160a01b031614611eb65760405162461bcd60e51b8152600401610cea9061384a565b600383604051611ec69190613471565b90815260200160405180910390206004015460001415611fed5784600001516001600160a01b0316336001600160a01b031610600384604051611f099190613471565b908152602001604051809103902060030160006101000a81548160ff0219169083151502179055508460200151600384604051611f469190613471565b9081526020016040518091039020600201819055508460400151600384604051611f709190613471565b90815260405190819003602001902060050155611f8e436014613b2e565b600384604051611f9e9190613471565b908152602001604051809103902060040181905550611fe8604051806040016040528060098152602001681cd95d081d5b9d1a5b60ba1b81525060038560405161156c9190613471565b612131565b84516040516001600160a01b0390911633109060039061200e908690613471565b9081526040519081900360200190206003015460ff1615146120425760405162461bcd60e51b8152600401610cea906137c3565b84602001516003846040516120579190613471565b908152602001604051809103902060020154106120865760405162461bcd60e51b8152600401610cea9061378c565b846060015160405160200161209b9190613504565b604051602081830303815290604052805190602001208560400151146120d35760405162461bcd60e51b8152600401610cea906138a0565b84516000906001600160a01b031633106120ee5785516120f0565b335b86519091506000906001600160a01b0316331061210d5733612110565b86515b90506121228583838a6060015161213c565b50600195505050505050610526565b506001949350505050565b60006121488484611446565b60005b825181101561257857600083828151811061217657634e487b7160e01b600052603260045260246000fd5b602002602001015160000151905060006004886040516121969190613471565b908152602001604051809103902060008381526020019081526020016000209050600081600101548685815181106121de57634e487b7160e01b600052603260045260246000fd5b6020026020010151602001516121f49190613aed565b905060008112158015612208575081548111155b1561228f576001600160a01b038816600090815260208181526040808320868452909152812080548392839291612240908490613b2e565b90915550508254612252908290613ba8565b6001600160a01b03891660009081526020818152604080832088845290915281208054909190612283908490613b2e565b9091555061252e915050565b600080821261229e57886122a0565b875b905060008083126122b157886122b3565b895b905060008084126122cf5784546122ca9085613ba8565b6122d8565b6122d884613c77565b90506123056040518060400160405280600981526020016819d95d1cc81919589d60ba1b81525083610568565b61232b604051806040016040528060048152602001631919589d60e21b81525082611415565b84546001600160a01b0384166000908152602081815260408083208a84529091528120805490919061235e908490613b2e565b90915550506001600160a01b03821660009081526020818152604080832089845290915290205481116123fd576001600160a01b038316600090815260208181526040808320898452909152812080548392906123bc908490613b2e565b90915550506001600160a01b038216600090815260208181526040808320898452909152812080548392906123f2908490613ba8565b9091555061252a9050565b6001600160a01b038216600090815260208181526040808320898452909152902054156124c0576001600160a01b038083166000908152602081815260408083208a845282528083205493871683528282528083208a84529091528120805490919061246a908490613b2e565b90915550506001600160a01b03821660009081526020818152604080832089845290915290205461249b9082613ba8565b6001600160a01b0383166000908152602081815260408083208a845290915281205590505b6001600160a01b0382811660009081526002602081815260408084208b85528252808420815180830190925286825288861682840190815281546001808201845592875293909520915192909302019081559151910180546001600160a01b031916919092161790555b5050505b60048960405161253e9190613471565b908152604080516020928190038301902060009586529091528320838155600101929092555081905061257081613c5c565b91505061214b565b506003856040516125899190613471565b9081526020016040518091039020600501600090556003856040516125ae9190613471565b9081526020016040518091039020600201600090556003856040516125d39190613471565b9081526020016040518091039020600101600090556003856040516125f89190613471565b90815260200160405180910390206004016000905560038560405161261d9190613471565b9081526040519081900360200181206003908101805460ff1916905590612645908790613471565b908152604051908190036020019020805490600061266283613c5c565b91905055506121318484611446565b600081604051602001612684919061348d565b604051602081830303815290604052805190602001209050919050565b600081516041146126c45760405162461bcd60e51b8152600401610cea90613713565b60208201516040830151606084015160001a6110958682858560007f7fffffffffffffffffffffffffffffff5d576e7357a4501ddfe92f46681b20a082111561271f5760405162461bcd60e51b8152600401610cea9061374a565b8360ff16601b148061273457508360ff16601c145b6127505760405162461bcd60e51b8152600401610cea90613808565b6000600186868686604051600081526020016040526040516127759493929190613522565b6020604051602081039080840390855afa158015612797573d6000803e3d6000fd5b5050604051601f1901519150506001600160a01b0381166127ca5760405162461bcd60e51b8152600401610cea906136dc565b95945050505050565b8280546127df90613c27565b90600052602060002090601f0160209004810192826128015760008555612847565b82601f1061281a57805160ff1916838001178555612847565b82800160010185558215612847579182015b8281111561284757825182559160200191906001019061282c565b50612853929150612994565b5090565b82805482825590600052602060002090600f016010900481019282156128475791602002820160005b838211156128c057835183826101000a81548161ffff021916908361ffff1602179055509260200192600201602081600101049283019260010302612880565b80156128ee5782816101000a81549061ffff02191690556002016020816001010492830192600103026128c0565b5050612853929150612994565b508054600082556002029060005260206000209081019061291c91906129a9565b50565b6040518060200160405280606081525090565b60405180606001604052806000815260200160608152602001600081525090565b60405180606001604052806060815260200161296d6129d0565b8152602001606081525090565b604051806040016040528060008152602001600081525090565b5b808211156128535760008155600101612995565b5b8082111561285357600081556001810180546001600160a01b03191690556002016129aa565b6040518060c0016040528060008152602001600081526020016000815260200160001515815260200160008152602001600080191681525090565b80356001600160a01b038116811461052657600080fd5b600082601f830112612a32578081fd5b81356020612a47612a4283613aca565b613aa1565b82815281810190858301604080860288018501891015612a65578687fd5b865b86811015612abd5781838b031215612a7d578788fd5b81518281018181106001600160401b0382111715612a9d57612a9d613ca7565b835283358152868401358782015285529385019391810191600101612a67565b509198975050505050505050565b600082601f830112612adb578081fd5b81356020612aeb612a4283613aca565b82815281810190858301604080860288018501891015612b09578687fd5b865b86811015612abd5781838b031215612b21578788fd5b81518281018181106001600160401b0382111715612b4157612b41613ca7565b835283358152868401358782015285529385019391810191600101612b0b565b600082601f830112612b71578081fd5b81356001600160401b03811115612b8a57612b8a613ca7565b612b9d601f8201601f1916602001613aa1565b818152846020838601011115612bb1578283fd5b816020850160208301379081016020019190915292915050565b600060408284031215612bdc578081fd5b604051604081016001600160401b038282108183111715612bff57612bff613ca7565b81604052829350612c0f85612a0b565b83526020850135915080821115612c2557600080fd5b50612c3285828601612acb565b6020830152505092915050565b600060608284031215612c50578081fd5b604051606081016001600160401b038282108183111715612c7357612c73613ca7565b81604052829350612c8385612a0b565b83526020850135915080821115612c9957600080fd5b612ca586838701612acb565b60208401526040850135915080821115612cbe57600080fd5b50612ccb85828601612b61565b6040830152505092915050565b600060608284031215612ce9578081fd5b604051606081016001600160401b038282108183111715612d0c57612d0c613ca7565b81604052829350612d1c85612a0b565b8352612d2a60208601612a0b565b60208401526040850135915080821115612d4357600080fd5b50612ccb85828601612a22565b600060a08284031215612d61578081fd5b60405160a081016001600160401b038282108183111715612d8457612d84613ca7565b81604052829350612d9485612a0b565b835260208501356020840152604085013560408401526060850135915080821115612dbe57600080fd5b612dca86838701612acb565b60608401526080850135915080821115612de357600080fd5b50612df085828601612b61565b6080830152505092915050565b600060608284031215612e0e578081fd5b604051606081016001600160401b038282108183111715612e3157612e31613ca7565b81604052829350612e4185612a0b565b83526020850135915080821115612e5757600080fd5b612ca586838701612a22565b803561ffff8116811461052657600080fd5b600060208284031215612e86578081fd5b610b6682612a0b565b60008060408385031215612ea1578081fd5b612eaa83612a0b565b9150612eb860208401612a0b565b90509250929050565b60008060008060808587031215612ed6578182fd5b612edf85612a0b565b9350612eed60208601612a0b565b93969395505050506040820135916060013590565b60008060408385031215612f14578182fd5b612f1d83612a0b565b946020939093013593505050565b600080600060608486031215612f3f578081fd5b612f4884612a0b565b95602085013595506040909401359392505050565b600060208284031215612f6e578081fd5b81356001600160401b03811115612f83578182fd5b612f8f84828501612b61565b949350505050565b60008060408385031215612fa9578182fd5b82356001600160401b03811115612fbe578283fd5b612fca85828601612b61565b925050612eb860208401612a0b565b60008060408385031215612feb578182fd5b82356001600160401b03811115613000578283fd5b61300c85828601612b61565b92505060208301358015158114613021578182fd5b809150509250929050565b6000806040838503121561303e578182fd5b82356001600160401b03811115613053578283fd5b61305f85828601612b61565b95602094909401359450505050565b60008060408385031215613080578182fd5b82356001600160401b0380821115613096578384fd5b6130a286838701612b61565b935060208501359150808211156130b7578283fd5b506130c485828601612b61565b9150509250929050565b6000602082840312156130df578081fd5b81356001600160401b038111156130f4578182fd5b612f8f84828501612bcb565b600060208284031215613111578081fd5b81356001600160401b0380821115613127578283fd5b908301906040828603121561313a578283fd5b60405160408101818110838211171561315557613155613ca7565b604052823582811115613166578485fd5b61317287828601612b61565b82525061318160208401612a0b565b602082015295945050505050565b6000602082840312156131a0578081fd5b81356001600160401b038111156131b5578182fd5b820160a08185031215610d8d578182fd5b6000602082840312156131d7578081fd5b81356001600160401b038111156131ec578182fd5b612f8f84828501612c3f565b600060208284031215613209578081fd5b81356001600160401b0381111561321e578182fd5b612f8f84828501612cd8565b60006020828403121561323b578081fd5b81356001600160401b03811115613250578182fd5b612f8f84828501612d50565b60006020828403121561326d578081fd5b81356001600160401b03811115613282578182fd5b612f8f84828501612dfd565b6000806000606084860312156132a2578081fd5b6132ab84612e63565b92506020808501356001600160401b03808211156132c7578384fd5b6132d388838901612b61565b945060408701359150808211156132e8578384fd5b508501601f810187136132f9578283fd5b8035613307612a4282613aca565b81815283810190838501858402850186018b1015613323578687fd5b8694505b8385101561334c5761333881612e63565b835260019490940193918501918501613327565b5080955050505050509250925092565b60006020828403121561336d578081fd5b5035919050565b6000815180845260208085019450808401835b838110156133ae578151805188528301518388015260409096019590820190600101613387565b509495945050505050565b6000815180845260208085019450808401835b838110156133ae578151805188528301516001600160a01b031683880152604090960195908201906001016133cc565b60008151808452613414816020860160208601613bfb565b601f01601f19169290920160200192915050565b6003811061344657634e487b7160e01b600052602160045260246000fd5b9052565b6bffffffffffffffffffffffff19606093841b811682529190921b16601482015260280190565b60008251613483818460208701613bfb565b9190910192915050565b7f19457468657265756d205369676e6564204d6573736167653a0a3332000000008152601c810191909152603c0190565b6001600160a01b0383168152604060208201819052600090612f8f908301846133fc565b6000604082526134f560408301856133b9565b90508260208301529392505050565b600060208252610b666020830184613374565b901515815260200190565b93845260ff9290921660208401526040830152606082015260800190565b600060208252610b6660208301846133fc565b600061355f8288613428565b602060a08184015261357460a08401886133fc565b6040848101889052606085018790528482036080860152855180835283870192840190855b818110156135be57845180518452860151868401529385019391830191600101613599565b50909b9a5050505050505050505050565b60006135db8288613428565b60a060208301526135ef60a08301876133fc565b856040840152846060840152828103608084015261360d8185613374565b98975050505050505050565b60006136258288613428565b60a0602083015261363960a08301876133fc565b604083019590955250606081019290925260809091015292915050565b60006040825261366960408301856133fc565b905060018060a01b03831660208301529392505050565b60006040825261369360408301856133fc565b905082151560208301529392505050565b6000604082526134f560408301856133fc565b6000604082526136ca60408301856133fc565b82810360208401526127ca81856133fc565b60208082526018908201527f45434453413a20696e76616c6964207369676e61747572650000000000000000604082015260600190565b6020808252601f908201527f45434453413a20696e76616c6964207369676e6174757265206c656e67746800604082015260600190565b60208082526022908201527f45434453413a20696e76616c6964207369676e6174757265202773272076616c604082015261756560f01b606082015260800190565b60208082526019908201527f4e6577206e6f6e6365206d757374206265206772656174657200000000000000604082015260600190565b60208082526025908201527f4f6e6c7920796f757220706172746e65722063616e20636f756e746572206469604082015264737075746560d81b606082015260800190565b60208082526022908201527f45434453413a20696e76616c6964207369676e6174757265202776272076616c604082015261756560f01b606082015260800190565b6020808252600e908201526d24b73b30b634b21039b4b3b732b960911b604082015260600190565b6020808252601490820152734e6f7420796f757220687562206164647265737360601b604082015260600190565b60208082526016908201527515dc9bdb99c8195b9d1c9a595cc81c1c9bdd9a59195960521b604082015260600190565b60006020825282516101008060208501526138ef6101208501836133fc565b915060208501518051604086015260208101516060860152604081015160808601526060810151151560a0860152608081015160c086015260a081015160e0860152506040850151601f1985840301828601526110958382613374565b60006020808352604080840185518384870152818151808452606093508388019150838682028901018684019350875b828110156139c557605f198a830301845284518051835288810151878a8501526139a8888501826133b9565b91890151938901939093529488019493880193915060010161397c565b509998505050505050505050565b61ffff91909116815260200190565b90815260200190565b9586526020860194909452604085019290925215156060840152608083015260a082015260c00190565b6000808335601e19843603018112613a2b578283fd5b8301803591506001600160401b03821115613a44578283fd5b6020908101925081023603821315613a5b57600080fd5b9250929050565b60008235603e19833603018112613483578182fd5b60008235605e19833603018112613483578182fd5b60008235609e19833603018112613483578182fd5b6040518181016001600160401b0381118282101715613ac257613ac2613ca7565b604052919050565b60006001600160401b03821115613ae357613ae3613ca7565b5060209081020190565b600080821280156001600160ff1b0384900385131615613b0f57613b0f613c91565b600160ff1b8390038412811615613b2857613b28613c91565b50500190565b60008219821115613b4157613b41613c91565b500190565b60008083128015600160ff1b850184121615613b6457613b64613c91565b6001600160ff1b0384018313811615613b7f57613b7f613c91565b50500390565b600061ffff83811690831681811015613ba057613ba0613c91565b039392505050565b600082821015613bba57613bba613c91565b500390565b6000610b693683612bcb565b6000610b693683612c3f565b6000610b693683612cd8565b6000610b693683612d50565b6000610b693683612dfd565b60005b83811015613c16578181015183820152602001613bfe565b8381111561170d5750506000910152565b600281046001821680613c3b57607f821691505b60208210811415610aca57634e487b7160e01b600052602260045260246000fd5b6000600019821415613c7057613c70613c91565b5060010190565b6000600160ff1b821415613c8d57613c8d613c91565b0390565b634e487b7160e01b600052601160045260246000fd5b634e487b7160e01b600052604160045260246000fdfea26469706673582212201a3f32345b1cd30a577de62c0f16e4ee665849cde7e4bf2c514501c64dede52864736f6c63430008000033036b6384b5eca791c62761152d0c79bb0604c104a5fb6f4eb0703f3154bb3db0",
  "immutableReferences": {},
  "source": "// SPDX-License-Identifier: MIT\npragma solidity 0.8.0;\npragma experimental ABIEncoderV2;\n\nimport \"./ECDSA.sol\";\nimport \"./console.sol\";\n\ncontract XLN is Console {\n\n  enum MessageType {\n    WithdrawProof,\n    CooperativeProof,\n    DisputeProof\n  }\n\n  // Deposit structs\n  struct DepositToChannelParams {\n    address receiver;\n    address partner;\n    AssetAmountPair[] pairs;\n  }\n\n  struct AssetAmountPair {\n    uint asset_id;\n    uint amount;\n  }\n\n  // Withdraw structs\n  struct WithdrawProof {\n    address partner;\n    AssetAmountPair[] pairs;\n    // unlike deposits, withdrawals require an approval by counterparty\n    bytes sig; \n  }\n\n  // CooperativeProof structs\n  struct CooperativeProof{\n    address partner;\n    Entry[] entries;\n    bytes sig; \n  }\n\n  // Dispute structs\n  struct Lock {\n    uint amount;\n    uint until_block;\n    bytes32 hash;\n  }\n  // (uint, int)\n  struct Entry {\n    uint asset_id;\n    int offdelta;\n    //Lock[] left_locks;\n    //Lock[] right_locks;\n  }\n\n  struct DisputeProof {\n    address partner;\n    uint dispute_nonce;\n    bytes32 entries_hash;\n    Entry[] entries;\n    bytes sig; \n  }\n\n  struct AcceptDisputeParams {\n    address partner;\n    Entry[] entries;\n  }\n\n\n\n  // Internal structs\n  struct Debt{\n    uint amount;\n    address pay_to;\n  }\n  \n  //Collateral_balance\n  struct Collateral {\n    uint collateral;\n    int ondelta;\n  }\n\n  struct Channel{\n    // stored indefinitely, incremented every time a channel is closed (dispute or cooperative) \n    // to invalidate all previously created proofs\n    uint channel_counter;\n\n    // used for withdrawals and cooperative close\n    uint cooperative_nonce;\n\n    // used for dispute (non-cooperative) close \n    uint dispute_nonce;\n\n    bool dispute_by_left;\n    uint dispute_until_block;\n\n    // hash is stored in case of dispute close\n    // entries are only needed for finalizeChannel, no point to store them\n    bytes32 entries_hash; \n\n\n  }\n\n\n  // [address user][asset_id]\n  mapping (address => mapping (uint => uint)) reserves;\n  mapping (address => mapping (uint => uint)) debtIndex;\n  mapping (address => mapping (uint => Debt[])) debts;\n\n  // [bytes ch_key][asset_id]\n  mapping (bytes => Channel) public channels;\n  mapping (bytes => mapping(uint => Collateral)) collaterals; \n  \n\n  struct Asset{\n    string name;\n    address erc20address;\n  }\n  Asset[] public assets;\n\n\n  struct Hub{\n    address addr;\n    string uri;\n    uint16[] connections;\n  }\n  Hub[] public hubs;\n  \n\n  constructor() {\n    \n    assets.push(Asset({\n      name: \"WETH\",\n      erc20address: msg.sender\n    }));\n\n    assets.push(Asset({\n      name: \"DAI\",\n      erc20address: msg.sender\n    }));\n\n    log(\"now assets \",assets.length);\n\n    uint16[] memory cons;\n\n    //cons[0]=1;\n    //cons[1]=2;\n    //log('lennn', cons.length);\n    \n    registerOrUpdateHub(0, \"http://127.0.0.1:8000\", cons);\n\n    topUp(msg.sender, 0, 100000000);\n    topUp(msg.sender, 1, 100000000);\n    \n  }\n\n  function registerAsset(Asset memory assetToRegister) public {\n    assets.push(assetToRegister);\n  }\n\n  \n  \n  function registerOrUpdateHub(uint16 hub_id, string memory new_uri, uint16[] memory new_connections) public returns (uint16) {\n\n    if (hub_id == 0) {\n      hubs.push(Hub({\n        addr: msg.sender,\n        uri: new_uri,\n        connections: new_connections\n      }));\n      return uint16(hubs.length) - 1;\n    } else {\n      require(msg.sender == hubs[hub_id].addr, \"Not your hub address\");\n      hubs[hub_id].uri = new_uri;\n      hubs[hub_id].connections = new_connections;\n      return hub_id;\n    }\n  }\n\n\n  function depositToChannel(DepositToChannelParams memory params) public returns (bool completeSuccess) {\n    bool receiver_is_left = params.receiver < params.partner;\n    bytes memory ch_key = channelKey(params.receiver, params.partner);\n\n    logChannel(params.receiver, params.partner);\n\n    for (uint i = 0; i < params.pairs.length; i++) {\n      uint asset_id = params.pairs[i].asset_id;\n      uint amount = params.pairs[i].amount;\n\n      if (reserves[msg.sender][asset_id] >= amount) {\n\n        Collateral storage col = collaterals[ch_key][asset_id];\n\n        reserves[msg.sender][asset_id] -= amount;\n        \n        col.collateral += amount;\n\n        if (receiver_is_left) {\n          col.ondelta += int(amount);\n        }\n\n        log(\"Deposited to channel \", amount);\n      } else {\n        log(\"not enough funds\", msg.sender);\n        return false;\n      }\n    }\n\n    logChannel(params.receiver, params.partner);\n\n    return true;\n  }\n\n  // we need to provide counterparty address to compile encoded message\n  //even though we get signer address returned by ecrecover\n\n  function withdrawFromChannel(WithdrawProof memory params) public returns (bool) {\n    bool sender_is_left = msg.sender < params.partner;\n\n\n    bytes memory ch_key = channelKey(msg.sender, params.partner);\n\n\n    bytes memory encoded_msg = abi.encode(MessageType.WithdrawProof,ch_key,  channels[ch_key].channel_counter, channels[ch_key].cooperative_nonce, params.pairs);\n\n\n    bytes32 hash = ECDSA.toEthSignedMessageHash(keccak256(encoded_msg));\n\n    log('Encoded msg', encoded_msg);\n    \n    // ensure actual signer is provided counterparty address\n\n\n    if(params.partner != ECDSA.recover(hash, params.sig)) {\n      log(\"Invalid signer \", params.partner);\n      return false;\n    }\n\n    channels[ch_key].cooperative_nonce++;\n\n\n    for (uint i = 0; i < params.pairs.length; i++) {\n      uint asset_id = params.pairs[i].asset_id;\n      uint amount = params.pairs[i].amount;\n\n      Collateral storage col = collaterals[ch_key][asset_id];\n\n      if (col.collateral >= amount) {\n        col.collateral -= amount;\n        if (sender_is_left) {\n          col.ondelta -= int(amount);\n        }\n\n        reserves[msg.sender][asset_id] += amount;\n      }\n    }\n\n    logChannel(msg.sender, params.partner);\n    return true;\n  }\n\n\n  function cooperativeClose(CooperativeProof memory params) public returns (bool) {\n    bytes memory ch_key = channelKey(msg.sender, params.partner);\n\n    bytes memory encoded_msg = abi.encode(MessageType.CooperativeProof, ch_key, channels[ch_key].channel_counter, channels[ch_key].cooperative_nonce, params.entries);\n\n\n    bytes32 hash = ECDSA.toEthSignedMessageHash(keccak256(encoded_msg));\n    log('Encoded msg',encoded_msg);\n\n    if(params.partner != ECDSA.recover(hash, params.sig)) {\n      log(\"Invalid signer \", params.partner);\n      return false;\n    }\n\n\n\n    address l_user = msg.sender < params.partner ? msg.sender : params.partner;\n    address r_user = msg.sender < params.partner ? params.partner : msg.sender;  \n\n    finalizeChannel(ch_key, l_user, r_user, params.entries);\n    return true;\n  }\n\n\n  function finalizeChannel(bytes memory ch_key, address l_user, address r_user, Entry[] memory entries) internal returns (bool) {\n    logChannel(l_user, r_user);\n\n    // iterate over entries and split the assets\n    for (uint i = 0;i<entries.length;i++){\n      uint asset_id = entries[i].asset_id;\n      Collateral storage col = collaterals[ch_key][asset_id];\n\n      // final delta = offdelta + ondelta + unlocked hashlocks\n      int delta = entries[i].offdelta + col.ondelta;\n\n      if (delta >= 0 && uint(delta) <= col.collateral) {\n        // Collateral is split (standard no-credit LN resolution)\n        uint left_gets = uint(delta);\n        reserves[l_user][asset_id] += left_gets;\n        reserves[r_user][asset_id] += col.collateral - left_gets;\n\n      } else {\n        // one user gets entire collateral, another gets debt (resolution enabled by XLN)\n        address getsCollateral = delta < 0 ? r_user : l_user;\n        address getsDebt = delta < 0 ? l_user : r_user;\n        uint debtAmount = delta < 0 ? uint(-delta) : uint(delta) - col.collateral;\n\n        \n        log('gets debt', getsDebt);\n        log('debt', debtAmount);\n\n        reserves[getsCollateral][asset_id] += col.collateral;\n        if (reserves[getsDebt][asset_id] >= debtAmount) {\n          // will pay right away without creating Debt\n          reserves[getsCollateral][asset_id] += debtAmount;\n          reserves[getsDebt][asset_id] -= debtAmount;\n        } else {\n          // pay what they can, and create Debt\n          if (reserves[getsDebt][asset_id] > 0) {\n            reserves[getsCollateral][asset_id] += reserves[getsDebt][asset_id];\n            debtAmount -= reserves[getsDebt][asset_id];\n            reserves[getsDebt][asset_id] = 0;\n          }\n          debts[getsDebt][asset_id].push(Debt({\n            pay_to: getsCollateral,\n            amount: debtAmount\n          }));\n        }\n      }\n\n      delete collaterals[ch_key][asset_id];\n    }\n    delete channels[ch_key].entries_hash;\n    delete channels[ch_key].dispute_nonce;\n    delete channels[ch_key].cooperative_nonce;\n    delete channels[ch_key].dispute_until_block;\n    delete channels[ch_key].dispute_by_left;\n\n    channels[ch_key].channel_counter++;\n   \n    logChannel(l_user, r_user);\n\n    return true;\n\n  }\n\n\n  function submitDisputeProof(DisputeProof memory params) public returns (bool) {\n    bytes memory ch_key = channelKey(msg.sender, params.partner);\n\n    bytes memory encoded_msg = abi.encode(MessageType.DisputeProof, ch_key, channels[ch_key].channel_counter, params.dispute_nonce, params.entries_hash);\n\n\n    bytes32 hash = ECDSA.toEthSignedMessageHash(keccak256(encoded_msg));\n\n    log('encoded msg',encoded_msg);\n    // ensure actual signer is provided counterparty address\n\n    require(ECDSA.recover(hash, params.sig) == params.partner, \"Invalid signer\");\n\n    if (channels[ch_key].dispute_until_block == 0) {\n      channels[ch_key].dispute_by_left = msg.sender < params.partner;\n      channels[ch_key].dispute_nonce = params.dispute_nonce;\n      channels[ch_key].entries_hash = params.entries_hash;\n      channels[ch_key].dispute_until_block = block.number + 20;\n\n      log(\"set until\", channels[ch_key].dispute_until_block);\n    } else {\n      require(!channels[ch_key].dispute_by_left == msg.sender < params.partner, \"Only your partner can counter dispute\");\n\n      require(channels[ch_key].dispute_nonce < params.dispute_nonce, \"New nonce must be greater\");\n\n      require(params.entries_hash == keccak256(abi.encode(params.entries)), \"Wrong entries provided\");\n\n\n      address l_user = msg.sender < params.partner ? msg.sender : params.partner;\n      address r_user = msg.sender < params.partner ? params.partner : msg.sender;  \n\n\n      finalizeChannel(ch_key, l_user, r_user, params.entries);\n      return true;\n\n    }\n\n\n\n    return true;\n  }\n\n\n  function acceptDispute(AcceptDisputeParams memory params) public returns (bool success) {\n    bytes memory ch_key = channelKey(msg.sender, params.partner);\n\n    bool sender_is_left = msg.sender < params.partner;\n \n    if ((channels[ch_key].dispute_by_left == sender_is_left) && block.number < channels[ch_key].dispute_until_block) {\n      return false;\n    } else if (channels[ch_key].entries_hash != keccak256(abi.encode(params.entries))) {\n      return false;\n    }\n\n    address l_user = msg.sender < params.partner ? msg.sender : params.partner;\n    address r_user = msg.sender < params.partner ? params.partner : msg.sender;  \n\n\n    finalizeChannel(ch_key, l_user, r_user, params.entries);\n    return true;\n  }\n\n\n\n\n\n\n\n\n  \n  function getDebts(address addr, uint asset_id) public view returns (Debt[] memory allDebts, uint currentDebtIndex) {\n    currentDebtIndex = debtIndex[addr][asset_id];\n    allDebts = debts[addr][asset_id];\n  }\n\n\n  // triggered automatically before every operation with reserve\n  // or can be called manually on \n  function enforceDebts(address addr, uint asset_id) public returns (uint totalDebts) {\n    uint debtsLength = debts[addr][asset_id].length;\n    if (debtsLength == 0) {\n      return 0;\n    }\n   \n    uint memoryReserve = reserves[addr][asset_id]; \n    uint memoryIndex = debtIndex[addr][asset_id];\n    \n    if (memoryReserve == 0){\n      return debtsLength - memoryIndex;\n    }\n    \n    while (true) {\n      Debt storage debt = debts[addr][asset_id][memoryIndex];\n      \n      // can pay in full\n      if (memoryReserve >= debt.amount) {\n        // transferToReserve\n        memoryReserve -= debt.amount;\n        reserves[debt.pay_to][asset_id] += debt.amount;\n\n        delete debts[addr][asset_id][memoryIndex];\n\n        // last debt paid? the user is debt free\n        if (memoryIndex+1 == debtsLength) {\n          memoryIndex = 0;\n          // sets back internal .length to 0\n          delete debts[addr][asset_id]; \n          debtsLength = 0;\n          break;\n        }\n        memoryIndex++;\n        \n      } else {\n        reserves[debt.pay_to][asset_id] += memoryReserve;\n        debt.amount -= memoryReserve;\n        memoryReserve = 0;\n        break;\n      }\n    }\n\n    reserves[addr][asset_id] = memoryReserve;\n    debtIndex[addr][asset_id] = memoryIndex;\n    \n    return debtsLength - memoryIndex;\n  }\n\n\n\n\n\n  struct Batch {\n    WithdrawProof[] withdrawProofs;\n    CooperativeProof[] cooperativeProofs;\n    DisputeProof[] disputeProofs;\n    AcceptDisputeParams[] acceptDisputes;\n    DepositToChannelParams[] depositArray;\n  }\n\n\n\n  // hubs use onchain contract heavily to rebalance collateral\n  function batch(Batch calldata b) public returns (bool completeSuccess) {\n    completeSuccess = true; \n\n    // withdrawals are processed first to pull funds from channels to standalone\n    for (uint i = 0; i < b.withdrawProofs.length; i++) {\n      if(!(withdrawFromChannel(b.withdrawProofs[i]))){\n        completeSuccess = false;\n      }\n    }\n\n    for (uint i = 0; i < b.cooperativeProofs.length; i++) {\n      if(!(cooperativeClose(b.cooperativeProofs[i]))){\n        completeSuccess = false;\n      }\n    }\n\n    for (uint i = 0; i < b.disputeProofs.length; i++) {\n      if(!(submitDisputeProof(b.disputeProofs[i]))){\n        completeSuccess = false;\n      }\n    }\n\n    for (uint i = 0; i < b.acceptDisputes.length; i++) {\n      if(!(acceptDispute(b.acceptDisputes[i]))){\n        completeSuccess = false;\n      }\n    }\n\n\n    for (uint i = 0; i < b.depositArray.length; i++) {\n      if(!(depositToChannel(b.depositArray[i]))){\n        completeSuccess = false;\n      }\n    }\n\n    return completeSuccess;\n  }\n\n\n\n  // read only\n\n  function logChannel(address a1, address a2) public {\n    \n    bytes memory ch_key = channelKey(a1, a2);\n    log(\">>> Logging channel\", ch_key);\n    log(\"cooperative_nonce\", channels[ch_key].cooperative_nonce);\n    log(\"dispute_nonce\", channels[ch_key].dispute_nonce);\n    log(\"dispute_until_block\", channels[ch_key].dispute_until_block);\n    for (uint i = 0; i < assets.length; i++) {\n      log(\"Asset\", i);\n      log(\"Left:\", reserves[a1][i]);\n      log(\"Right:\", reserves[a2][i]);\n      log(\"collateral\", collaterals[ch_key][i].collateral);\n      log(\"ondelta\", collaterals[ch_key][i].ondelta);\n    }\n    \n    \n  }   \n\n  \n  function channelKey(address a1, address a2) public pure returns (bytes memory) {\n    //determenistic channel key is 40 bytes: concatenated lowerKey + higherKey\n    return a1 < a2 ? abi.encodePacked(a1, a2) : abi.encodePacked(a2, a1);\n  }\n  \n  struct AssetReserveDebts {\n    uint reserve;\n    Debt[] debts;\n    uint debtIndex;\n  }\n  \n  struct UserReturn {\n    AssetReserveDebts[] assets;\n  }\n\n  function getUser(address addr) external view returns (UserReturn memory) {\n    UserReturn memory u = UserReturn({\n      assets: new AssetReserveDebts[](assets.length)\n    });\n    \n    for (uint i = 0;i<assets.length;i++){\n      u.assets[i]=(AssetReserveDebts({\n        reserve: reserves[addr][i],\n        debtIndex: debtIndex[addr][i],\n        debts: debts[addr][i]\n      }));\n    }\n    \n    return u;\n  }\n\n  \n  struct ChannelReturn{\n    bytes channelKey;\n    Channel channel;\n    Collateral[] collaterals;\n  }\n\n  function getChannel(address  a1, address  a2) public view returns (ChannelReturn memory ch) {\n    bytes memory ch_key = channelKey(a1, a2);\n    ch = ChannelReturn({\n      channelKey: ch_key,\n      channel: channels[ch_key],\n      collaterals: new Collateral[](assets.length)\n    });\n    \n\n    for (uint i = 0;i<assets.length;i++){\n      ch.collaterals[i]=collaterals[ch_key][i];\n    }\n    \n    return ch;\n  }\n  \n  // dev-only helpers\n  function topUp(address addr, uint asset_id, uint amount) public {\n    reserves[addr][asset_id] += amount;\n  }\n\n  function createDebt(address fromUser, address toUser, uint asset_id, uint amount) public {\n    debts[fromUser][asset_id].push(Debt({\n      pay_to: toUser,\n      amount: amount\n    }));\n  }\n\n\n    \n  \n    \n}",
  "sourcePath": "/Users/homakov/work/AAAxln/contracts/XLN.sol",
  "compiler": {
    "name": "solc",
    "version": "0.8.0+commit.c7dfd78e.Emscripten.clang"
  },
  "schemaVersion": "3.3.3",
  "updatedAt": "2021-03-18T16:03:03.086Z",
  "devdoc": {
    "kind": "dev",
    "methods": {},
    "version": 1
  },
  "userdoc": {
    "kind": "user",
    "methods": {},
    "version": 1
  }
}